:400000000040002011000000B9020000B902000080B500AF00F054F980B500AF214B12221A6001F01DF8204B181C00F061FE012001F026F8302000F08DFE1C4B1C4A1A6084
:400040001C4B8022D2051A601B4B1B4A126802210A431A60194B1A4A1A601A4B194A126808218A431A60FA23DB00181C00F0BEFE154B181C00F048FF144B802212061A60CD
:40008000134B8022D2021A60124B0820191C00F0F7FE082000F01AFF064B8022D2051A60BD4680BD30001040001BB70004010B40060000800C020B4078002E407C002E404D
:4000C0002D3E00006CF02E40DC05000008010B4000010B40D111000080B582B000AF72B62E4B00221A60FB1D00221A7023E0FB1D1A78131C5B009B185B00294A9B183B604B
:400100003B681A78597809020A43997809040A43DB781B061343191C3B681A795B791B0213439BB2081C191C00F04EF9FB1D1A78FB1D01321A70FB1D1B78012BD7D9194B33
:40014000EE2212061A60184B992212041A60174A164B1B78DBB202210B43DBB21370144A134B1B78DBB23C218B43DBB214210B43DBB213700D4A0D4B1B78DBB216210B4351
:40018000DBB213700B4BD82212041A60FFF744FF00F02AF9BD4602B080BDC0466CF02E40802B01000000024000500F4000700F4001700F400800044010B5064C2378002B0C
:4001C00007D1054B002B02D0044800E000BF0123237010BDD80F0020000000007C2B010008B5084B002B03D00748084900E000BF07480368002B00D108BD064B002BFBD0AD
:400200009847F9E7000000007C2B0100DC0F0020E00B00200000000080B500AF62B6054B181C00F01BF901F033FC00F015F801F02FFCF8E73902000080B582B000AF78607C
:4002400039607B68012B00D003E0002000F0A0F9C046BD4602B080BD90B583B000AFFC1D032001F00DFC031C237072B6BC1D03F09BFB031C2370FB1D1B78032B0AD1BB1DAB
:400280001B78042B03D0BB1D1B78062B10D100F069FE0DE0FB1D1B78022B03D0FB1D1B78012B05D1BB1D1B78022B01D000F040FE62B6BD4603B090BD80B500AFFEE7C0460F
:4002C00080B586B000AF224B7B61224B3B61204B7B6135E03B691B68FB603B695B68BB603B699B683B6000237B600CE0FB681A68BB681A60BB680433BB60FB680433FB601A
:400300007B6804337B607A683B689A42EED13B69DB683B6000237B6008E0BB6800221A60BB680433BB607B6804337B607A683B689A42F2D13B6910333B617B69013B7B6174
:400340007B69002BC6D101F029FBFFF765FFFEE701000000782D010080B582B000AF154B144A126801218A431A6000237B600FE07B68032B04D8104B7A689200D35800E071
:400380000E4B0F4A796889008B507B6801337B607B682F2BECD9FFF79FFE0A4B00221A60044B044A126801210A431A60BD4602B080BDC0460000104000000000B9020000CB
:4003C00000000020C000002080B582B000AF786039607A683B68101C00211A1C01F01CFBBD4602B080BDC04680B500AF054B03221A60054B03221A60044B00221A60BD46BE
:4004000080BDC0463000304030003140000E3F4080B500AF094B00221A70094B00221A70084B00221A7000F013F8074B00221A70064B00221A70BD4680BDC0464B21002000
:40044000442100204A210020302100203821002080B500AF00F046FCBD4680BDB0B594B004AF78603E23FB1800221A802823FA183E4B111C1A1C1423081C111C1A1C01F0D0
:40048000C2FA3B4B1B78002B04D1FFF7C1FF384B01221A707B68002B5CD0364B7A681A603E23FB181B88002B29D11023FB181C22BA185A601023FB182022BA181A60102317
:4004C000FB1800221A812023FB181B221A802023FB181B225A802023FB1804221A711C23FB1800221A703E23FC181023FA180E23FB18101C191C01F0A1FB031C23803E237E
:40050000FB181B88002B29D13E23FC181A481B49AE231A012823FD1805230093184B0193184B02932B1C01F0E5FA031C23803E23FB181B88002B11D1134B01221A703E2346
:40054000FC18124B181C132117220DF08BFC031C238003E03E23FB1801221A803E23FB181B88181CBD4610B0B0BDC0468C2B0100F40F002034210020C1080000C80000208D
:40058000003601007902000040210020A82B010090B585B000AF021CFB1D1A70FB1D1B78022B04D90E23FB1801221A804BE0294B1B78042B42D1284B1B78DBB21A1C042331
:4005C00013403BD1FB1D1B78002B0BD1234B00221A82224B5B6840221A80204B5B6840225A8010E0FB1D1B78012B0CD11B4B96221A821A4B5B68C822D2001A80174B5B6827
:400600008022D2015A80164BFA1D12781A700E23FC18124B181C0BF061FD031C23800E23FB181B88002B08D10B4B1B78DBB204221343DAB2084B1A7005E004E00E23FB189B
:400640000422FF321A800E23FB181B88181CBD4605B090BD402100204B210020140C00204A21002080B584B000AF78600A1CFB1C1A700023BB60BB68002B20D07B689A7968
:40068000BB681A700F23FB1800221A7012E00F23FB181B780133BA68D3180F22BA18127879688A5C1A700F23FB181A780F23FB1801321A700F23FB181B78052BE7D9BD460F
:4006C00004B080BD80B582B000AF78607B681B789AB27B6801331B789BB21B029BB213439BB2181CBD4602B080BDC04690B585B000AF78600F23FB1800221A707B689B8930
:400700000D22934237D17B681A1D7B680F217C18101C00211A1C40230DF0BCFB031C23700F23FB181B78002B1DD17B685B68181CFFF7C8FF031C1A1C022313409BB2002BD3
:4007400008D0104B1B68822251007A68081C111C984708E00B4B1B680622FF32111C7A68081C111C9847084B1B78DBB201229343DAB2054B1A700F23FB181B78181CBD4682
:4007800005B090BD342100204B21002090B585B000AF78600F23FC187B68181CFFF7A6FF031C2370144B1B78DBB21A1C012313401FD10F23FB181B78002B16D00823FB1848
:4007C00012229A707B689A890823FB181A800823FB180F22BA181278DA707B680822BA181868111C0CF09CFD03E07B6818680CF019FEBD4605B090BD4B21002080B582B056
:4008000000AF7860BD4602B080BDC04680B500AF034B00225A70024B00221A70BD4680BD4821002080B582B000AF7860BD4602B080BDC04680B500AFBD4680BD80B584B0E6
:4008400000AF78600E23FB1800221A707B689B79002B1CD10F23FB1800221A7012E00F23FB181B787A68D35C002B04D00E23FB1801221A700BE00F23FB181A780F23FB182F
:4008800001321A700F23FB181B78052BE7D90E23FB181B78181CBD4604B080BD80B582B000AF021CBB1D1A80BD4602B080BDC04680B582B000AF7860BD4602B080BDC04630
:4008C00080B588B000AF021C3960FB1D1A70CA4B1B78DBB201221343DAB2C74B1A70FB1D1B78412B00D163E123DC212B00D1EAE00DDC022B00D1BCE002DC012B3BD0D1E151
:40090000052B00D1BAE0062B00D1BCE0CAE1272B00D101E106DC242B00D1F3E0262B00D106E1BFE1282B00D1FEE02A2B00D1EEE0B8E14F2B00D1AEE10BDC432B00D17BE165
:4009400000DA55E14C2B00D193E14E2B00D1A4E1A8E1572B00D1A2E106DC502B00D1A0E1542B00D18AE19DE1712B00D11AE1FA2B00D188E196E11023FB1807221A7010232B
:40098000FB1800225A701023FB18181C03F03EF81023FB1807221A701023FB1801225A701023FB18181C03F031F8944B1B68181CFFF744FF031E11D0904B1B68181C01F07F
:4009C0006BF88E4B1B68181C0021FFF74BFE8B4B1B68181C0121FFF745FE36E0884B1B781A1C3F231A40874B1B78191C3F230B409B011A43844B1B78191C1F230B401B03CC
:400A00001A43824B1B78191C7F230B405B041343BB61BB69DAB27E4B1A70BB691B0ADAB27B4B5A70BB691B0CDAB2794B9A70784B181C01F031F8764B181C0021FFF712FECC
:400A4000734B181C0121FFF70DFE03200BF0F6F90C23FB183F221A700C23FB1800225A700C23FB18181C0BF007FA6A4B04221A7018E13B68181CFFF7D5FE13E13B681A7860
:400A8000654B1A700EE13B687B617B691B78002B18D17B695B78002B0BD1604B0222DA805E4B18229A805D4B5D4A1A607B695B4A5A60514B1B78DBB201229343DAB24E4B39
:400AC0001A70EFE0EEE04C4B1B78DBB21A1C2023134016D1534B1B78102B02D1514B0522DA70514B1A784F4B101C191C0BF0B6FA414B1B78DBB201221343DAB23E4B1A7081
:400B0000D0E0CFE03B685A78484B1A70CAE03B68181CFFF7CDFEC5E03B68181CFFF7C8FE3C4B02221A70BDE03A4B04221A70B9E0384B1B78022B34D02F4B1B78DBB21A1C93
:400B4000012313402DD02C4B1B78DBB21A1C042313400BD02F4B03221A70274B1B78DBB204229343DAB2244B1A701AE0224B1B78DBB21A1C082313400BD0264B04221A706C
:400B80001D4B1B78DBB208229343DAB21A4B1A7007E0204B1B78032B03D11E4B04221A7080E07FE03B681B88181CFFF777FE79E01D4A3B68111C1A1C0223081C111C1A1C1C
:400BC00000F021FF144B00221A70174B1B789E339A00174BD3180133164A111C1A1C0423081C111C1A1C00F00EFFFFF723FE59E0FFF70CFE56E0C0464B210020300C002017
:400C00007CF1FF0F7DF1FF0F7BF1FF0F78F1FF0F280C002040210020442100201C100020A80B0020CC0C00204821002038210020003601003C2100203B685B88162B05D801
:400C40001E23FB183A6852881A8003E01E23FB1817221A803B681E22BA1811881A8800231204120C1B0C1B041343181C0CF062FB18E03B68181CFFF789FD13E03B68181C7B
:400C8000FFF7BCFD0EE0144B1B7801221343DAB2114B1A7006E0C04604E0C04602E0C04600E0C0460D4B1B78DBB21A1C112313400FD00A4B1B78DBB201229343DAB2074BB6
:400CC0001A70074B1B68FA1D11783A68081C111C9847BD4608B080BD302100204B2100203421002080B500AFBD4680BD000000000230800803D00138FDD1C046C046C046EF
:400D00007047EFF3108072B6704780F31088704790B585B000AF78600F23FC18FFF7F1FF031C2370094B7A6807210A40D104074A1268074802400A431A600F23FB181B7892
:400D4000181CFFF7E2FFBD4605B090BD00010B40FFFFC7FF90B58BB000AF78602723FC18FFF7CFFF031C2370184B1A680C23FB181A60174B1A680C23FB185A607B68033BD6
:400D8000144AD35C1A1C0C23FB189A60124B1A680C23FB18DA601C23FB18104A1A600C23FA181C23FB185A600D4B1C22BA181A600C4B0D4A1A600A4B1B682723FB181B7894
:400DC000181CFFF7A2FFBD460BB090BD08010B4000010B40242D010030001040B6EA000008001040040010401700008080B584B000AF78600023FB60154B154A12680121FF
:400E00000A431A60134B144A1A60144B134A1268802109020A431A607B68002B12D01023FB600CE0012000F06FF800F019F8031E02D00023FB6005E07B68013B7B607B68F6
:400E4000002BEFD1FB68181CBD4604B080BDC04660F02E4078002E400220000010002E4080B582B000AF054B1B68012213407B607B68181CBD4602B080BDC0460C002E40EF
:400E800080B584B000AF021C3960FB1D1A7080239B05FB60FB1D1B781F2B02D9002000F029F8FB1D1B7810339B00FA68D3181B68BB60FB1D1B7810339B00FA68D3183A6836
:400EC0001A60BB68181CBD4604B080BD80B582B000AF021CFB1D1A70054BFA1D12781F210A40012191400A1C1A60BD4602B080BD00E100E080B582B000AF021CFB1D1A70C0
:400F000001BEBD4602B080BD80B582B000AF021CBB1D1A80BB1D1B88044A12785343181CFFF7E6FEBD4602B080BDC046DC0C002090B583B000AFFC1DFFF7E3FE031C23709A
:400F4000074B074A126804218A431A6030BFFB1D1B78181CFFF7D9FEBD4603B090BDC04610ED00E090B583B000AFFC1DFFF7C9FE031C2370114B114A1268520052081A6061
:400F80000F4B104A128892B21A600F4B0E4A126804210A431A600D4B1B683B600220FFF7B7FE30BF094B3A681A60FB1D1B78181CFFF7ABFEBD4603B090BDC04600000B4099
:400FC0000C000B4052F1FF0F10ED00E000010B4080B500AF0E4B0E4A126801218A431A600B4B0B4A126802218A431A60094B094A126830218A4310210A431A60054B054A43
:40100000126807218A4301210A431A60BD4680BD00F02E4000FF2E4080B500AF0E4B0E4A126802218A431A600C4B0C4A126807218A4302210A431A60084B084A126830215E
:401040008A4320210A431A60034B034A126801210A431A60BD4680BD00F02E4000FF2E4080B500AFFFF7B4FF044B044A1268802109060A431A60BD4680BDC04600F02E40D3
:4010800080B584B000AF78600C4B1B6801221340FB607B68002B02D0012B03D005E0FFF797FF06E0FFF7B8FF03E00020FFF722FFC046FB68181CBD4604B080BD00F02E40A9
:4010C00090B583B000AFFC1DFFF71BFE031C2370074B074A1268C02109020A431A60FB1D1B78181CFFF711FEBD4603B090BDC04600010B4080B500AF054B1A68C0231B0230
:40110000134001D0012300E00023181CBD4680BD00010B4090B583B000AFFC1DFFF7F1FD031C23700C4B0C4A12680C490A408021C9010A431A60084B074A126807490A401E
:40114000802109020A431A60FB1D1B78181CFFF7DCFDBD4603B090BD00010B40FF3FFFFF90B585B000AF78600B23FC18FFF7C9FD031C2370FFF7BEFF031E04D00123FB60EB
:40118000FFF7C8FF01E00023FB607B680D4A13407B600D4B0C4A12680C4911407A680A431A60094B1B68FB68012B01D1FFF788FF0B23FB181B78181CFFF7A7FDBD4605B025
:4011C00090BDC0460404040010020B40FBFBFBFF80B500AF334B1B68042213401FD0324B1B680422134017D0304B1B6804221340DA432D4B1B681A402B4B1A602B4B1B68C4
:40120000042293431A1C294B1A60294B1B68002B02D0274B1B6898470420FFF7A1FF214B1A688023DB00134022D01F4B1A688023DB00134017D01D4B1A688023DB001340FC
:40124000DA43194B1B681A40174B1A60174B1B68184A1A40154B1A60154B5B68002B02D0134B5B6898478023DB00181CFFF778FF0C4B1A688023DB02134011D00A4B1A6816
:401280008023DB02134006D0094B9B68002B02D0074B9B6898478023DB02181CFFF760FFBD4680BD10020B40E40C00202C10002030100020FFFBFFFF80B582B000AF7860A5
:4012C0000A1CBB1C1A80BB1C1A887B681A60BD4602B080BD80B582B000AF78600A1CBB1C1A80BB1C1A887B681A60BD4602B080BD80B584B000AF494B1B78DBB21B02484AC7
:401300001278D2B21343FB60464B1B78DBB21B02454A1278D2B21343BB60BB68434A934207D1FB68072B04D1414BBB600423FB6009E0BA68D4231B019A4204D1FB68042BC1
:4013400001D13B4BBB603B4BBA681A603A4BFA681A603A4B1B78DBB21B02394A1278D2B21343FB60FA6880239B019A4202D0FB68002B01D1334BFB60334BFA681A60334B13
:401380001B78DBB21B02324A1278D2B21343FB60FB68304A934206D0FB682F4A934202D0FB68052B01D12D4BFB602D4BFA681A602C4B1B681B097B602B4B1B68AA2B29D15D
:4013C0007B68012B26D9214B1B78DBB20E2B21D1264B1B78DBB29BB21B0299B2244B1B78DBB29AB2BB1C0A431A80224BBA1C12881A60214B1B78DBB29BB21B0299B21F4B47
:401400001B78DBB29AB23B1C0A431A801C4B3A1C12881A60BD4604B080BDC046D9F0FF0FD8F0FF0FDFF0FF0FDEF0FF0F580B0000580D00006C002E4074002E40DBF0FF0F74
:40144000DAF0FF0F0220000078002E40DDF0FF0FDCF0FF0F0F0F000005050000050F000080002E40EC0F00F0E00F00F06DF2FF0F6CF2FF0F84002E406FF2FF0F6EF2FF0F3B
:4014800094002E4080B582B000AF021CBB1D1A80BB1D1B88181CFFF737FDBD4602B080BD80B500AF00F0DEF8BD4680BD80B500AF00F0E2F8BD4680BD80B500AF00F0DCF839
:4014C000044B181C00F09CF8032000F0A5F8BD4680BDC0468D16000080B500AF024B181C00F07CF8BD4680BD8D16000080B500AF0223FF33181CBD4680BDC04680B582B084
:4015000000AF78602B23181CBD4602B080BDC04680B582B000AF78602B23181CBD4602B080BDC04680B582B000AF78602B23181CBD4602B080BDC04680B582B000AF7860EC
:401540002B23181CBD4602B080BDC04680B582B000AF78602B23181CBD4602B080BDC04680B582B000AF78602B23181CBD4602B080BDC04680B582B000AF78602B23181CB1
:40158000BD4602B080BDC04680B582B000AF78602B23181CBD4602B080BDC04680B500AF2B23181CBD4680BD80B582B000AF021CFB1D1A702B23181CBD4602B080BDC046D5
:4015C00080B582B000AF786039602B23181CBD4602B080BD80B500AFBD4680BD80B582B000AF786000F048F87B68181C00F008F8032000F011F800F035F8BD4602B080BD7C
:4016000080B582B000AF7860024B7A681A67BD4602B080BD0000002090B585B000AF021CFB1D1A700623FB600B23FC18FFF769FB031C23700A4B0A4A1268C0218A43111C41
:40164000FA1D1078FA689040021C0A431A600B23FB181B78181CFFF758FBBD4605B090BD0CE400E080B500AF024B802252011A60BD4680BD00E100E080B500AF024B80221A
:4016800052011A60BD4680BD80E100E080B500AF11F060FABD4680BD002243088B4274D303098B425FD3030A8B4244D3030B8B4228D3030C8B420DD3FF22090212BA030C47
:4016C0008B4202D31212090265D0030B8B4219D300E0090AC30B8B4201D3CB03C01A5241830B8B4201D38B03C01A5241430B8B4201D34B03C01A5241030B8B4201D30B03EF
:40170000C01A5241C30A8B4201D3CB02C01A5241830A8B4201D38B02C01A5241430A8B4201D34B02C01A5241030A8B4201D30B02C01A5241CDD2C3098B4201D3CB01C01AEA
:40174000524183098B4201D38B01C01A524143098B4201D34B01C01A524103098B4201D30B01C01A5241C3088B4201D3CB00C01A524183088B4201D38B00C01A52414308D1
:401780008B4201D34B00C01A5241411A00D20146524110467047FFE701B5002000F0FCF802BDC0460029F7D003B5FFF775FF0EBC4243891A1847C04603460B437FD40022E2
:4017C00043088B4274D303098B425FD3030A8B4244D3030B8B4228D3030C8B420DD3FF22090212BA030C8B4202D31212090265D0030B8B4219D300E0090AC30B8B4201D3C6
:40180000CB03C01A5241830B8B4201D38B03C01A5241430B8B4201D34B03C01A5241030B8B4201D30B03C01A5241C30A8B4201D3CB02C01A5241830A8B4201D38B02C01A32
:401840005241430A8B4201D34B02C01A5241030A8B4201D30B02C01A5241CDD2C3098B4201D3CB01C01A524183098B4201D38B01C01A524143098B4201D34B01C01A5241F4
:4018800003098B4201D30B01C01A5241C3088B4201D3CB00C01A524183088B4201D38B00C01A524143088B4201D34B00C01A5241411A00D201465241104670475DE0CA0F6C
:4018C00000D04942031000D34042534000229C4603098B422DD3030A8B4212D3FC22890112BA030A8B420CD3890192118B4208D3890192118B4204D389013AD0921100E00C
:401900008909C3098B4201D3CB01C01A524183098B4201D38B01C01A524143098B4201D34B01C01A524103098B4201D30B01C01A5241C3088B4201D3CB00C01A524183084E
:401940008B4201D38B00C01A5241D9D243088B4201D34B00C01A5241411A00D20146634652415B10104601D34042002B00D54942704763465B1000D3404201B5002000F047
:401980000BF802BD0029F8D003B5FFF715FF0EBC4243891A1847C0467047C0460E4B70B500251E1C0D4CE41AA410A54204D0AB00F35898470135F8E711F0CCF9084B0025D3
:4019C0001E1C084CE41AA410A54204D0AB00F35898470135F8E770BD602D0100602D0100602D0100682D010030B50024944208D0035D651C0C5DA34201D0181B02E02C1C81
:401A0000F4E7002030BD002310B5934203D0CC5CC4540133F9E710BD031C8218934202D019700133FAE77047134A1088810703D08107890F401A001D11791030484381B2E9
:401A40005088820703D08207920F801A001D800040180A494030098980B2CA0701D0503080B2890706D504495422091F09785143081880B270470000EE0C002040100020A0
:401A800010B501F0F9FE10BD10B501F00BFF10BD10B500F04FFA10BD10B50749044609780220002907D1204601F04CFF002802D120460AF0B9FA10BD580E002070B50446DF
:401AC0000120002C12D02368002B0FD0616800290CD0074D06222889208118462968FFF792FF6968606809780170002070BD000040100020FFB585B0002768460E9D0773E5
:401B00004C481C460078002802D0082009B0F0BD10990F9801900095029105A807C800F0FBF80028F2D16946264603AB84460873002C19D0002115E08A00B75A082F09D96F
:401B400090198078002805D0083FB7521878401C187005E0002915D00027B75290198770491CC9B2A942E7D360460028CED10F9800280AD0109901F033FA0006000E04D0F6
:401B80000120C3E701208446EEE701F08BFE2948002101610C300599016021888180022D03D3A1798171A17AC17100211EE0481C19E082008B00A75AE65ABE46BE4211D238
:401BC0006F463E80B4461E190296B678BE7001967646E6521719029EBB78B3706646A652019EBE70401CA842E3D3491CA942DED3114800906846037B22460799069800F083
:401C000013F9002882D168460A4C007B60700A4801F078FE0028B4D1204607490C3007F02DFA0028ADD107F047FA0028A9D1012121706BE7E80C002040100020F8B5054657
:401C400033480E460078002802D002242046F8BD002E5BD000242F49002D16D02A89D0070DD02868002808D003881B3BE12B04D24088FB2801D81B2801D2012409E09007A1
:401C800007D56868002804D1F7E70020088108604860002CDAD11F482F8907811C481B21801D018041800421017119490020891C0870F80705D016480622801D2968FFF733
:401CC000A2FE1449B80703D56A681148127882700F480D46801D0860001F486001F058FE0B48801D01F046FE28890DF081F928890DF0E8FA03461033FFF796FE1F21C018E1
:401D0000890140180249308088809FE701249DE7E80C002040100020FFB58446384F1C460020BB883F78054602460646002F11D100290ED0029999420BD36146002908D097
:401D4000002C06D00A99002906D02E4B0B99994202D2012004B0F0BD002144E0AB001F19BF78002F3BD0E35A002B38D07B43591889B22B0000F04AF8050410161C25310000
:401D8000A7782388BC46FF27233BEB37BB4222D26346032B1FD322E0A388002B1FD0302B19D31CE02389002B19D0282B13D316E0A289002A13D01346134F233BBB420AD254
:401DC0000DE0268A002A0AD033460F4F233BBB4201D2964203D901200EE0002001E000280AD16D1CEDB2099B9D42B7D31C2463435B1802998B42ACD89642AAD8AAE7000011
:401E0000E80C002079020000BAFF000030B47446641E2578641CAB4200D21D46635D5B00E31830BC18470000FFB583B0002469460C801F4606468C80002806D005980028D4
:401E400003D004983043800701D0012467E0002FFBD03449049809888842F6D3FFF73CFBFFF724FB00F010FC002856D100F06CFD002852D12C49084601F0E6F805042D0C80
:401E80004BD12A480499066081800021C18007810C98007AC00704D0684601F01CFD040007D10C98007A800703D501A801F01CFD0446BF1DFEB2002C21D13146059800F031
:401EC0005DF804001BD10DF00BFA0406240E16D16A461088928808368518144AF1B29088D288AEB29319984207D3401B801A80B201F09AFB050007D000E0FF25012400F066
:401F00005BFA002D04D008E0F8B200F01BF9F6E700F07EFA06490120087000F0C7FB204607B0F0BDEC0C0020692000004C100020FC0C002010B503480078012801D101F053
:401F400015FA10BDFC0C002070B5084B0446DA889E8800205518B54206D81D68AA182260DA885118D98070BD032070BD4C10002001480089704700004C100020F0B587B0EA
:401F800007460D4600208900009006916846FFF7DBFF844600285DD1304800990160002117E02E4B88001A680629115406D22C4C0419667882185670628805E0C419203CBF
:401FC000A67A8218567022891B68C018491C4280C9B2A942E5D300242DE0601CC2B2059025E01E4FA30039689600581840887118039604904E88B04217D938466F46FE80BD
:40200000B6464F786E4677710297049F4F800168039F5E18767879184E700168764659184E800068029F18184770521CD2B2AA42D7D30598C4B2AC42CFD36046002809D151
:4020400068460699FFF780FF8446002802D1054900980860604607B0F0BD0000000D0020882D0100040D00207047000010B5002809D005494A68002A05D0011F08788000D1
:40208000105801F07FFA10BD000D002010B50446FFF76EFFC0B2801DA0420CD307484068002808D0A100405801F0DEF9002801D00470001D10BD002010BD0000000D0020A9
:4020C000F8B516460D460446FFF752FFC0B2801DA04203D20020C0430090F8BDB2B2E9B2684601F0E7F90099481C03D0024AA000526811500098F8BD000D0020F8B50746FC
:40210000FFF736FF801DC6B20A49002005460C680DE06178002907D06188B94202D32078FFF7B4FF002804D1241D6D1CEDB2B542EFD3F8BD000D002010B5002801D0FFF7B8
:4021400095FF10BD70B506460948002504680BE06178002905D062882078121D0023FFF7AFFF241D6D1CEDB2B542F1D370BD0000000D0020FFB581B00A9C16002BD000F067
:40218000F1F80546042826D0214F002C0BD02046FFF7B4FF2901C919486000281BD022460499FFF730FC1A4928010E5046187481019805707D20029CC000444300F0C0F8E0
:4021C000009004280AD000F055FAA0420ED800F051FA201A06E0FF2005B0F0BD204600F0ADFA0020B08135720020F5E700F042FA074600F0B9FA381B87B23846012100F03D
:40220000EFF800980101024808188781E6E7000058100020F8B5060117483418217A042903D0A089002802D018E00020F8BD00F021FA054600F098FA00F0A2F804280DD001
:4022400001010D480F18B88941198DB2002100F0C7F80020B881284600F070FA6068064D002801D0FFF768FF042020720020A8516081A081D9E7000058100020FEB50026B2
:402280006A46304601232549050169180D7A042D02D0898900291BD000211154401CC0B20428F0D300246846005D002830D01B4821010818418947680568029100210160F5
:4022C00041600422418102728181002E02D015E01354E3E700F054F804280ED001010F480818019086890021304600F079F8019800218181304600F021FA0126002D07D0FA
:4023000038460299A847002F02D03846FFF714FF641CE4B2042CC6D3FEBD0000581000200EB5002005216A460090118150810348694600680DF049FE0EBD0000080D002099
:40234000074A0020010189180B7A042B02D08989002903D0401CC0B20428F3D370470000581000200549002002015218127A042A03D0401CC0B20428F6D37047581000204C
:4023800030B50A4B04200A4C00210A011219157A042D06D09289002A03D09A4201D808461346491CC9B20429EFD330BDFFFF0000581000207047000030B50020074C05466C
:4023C0000423020111190B72A5504D60401C4D81C0B28D810428F4D330BD00005810002030B5094C00231A011219157A042D04D09589002906D02D1895815B1CDBB2042B76
:40240000F1D330BD2D1AF7E758100020002070471CB5002469460C70142001902346054A05480DF0D7FD04480068401C00D1FF2420461CBD8D240000080D00203EB5124A34
:402440000146FF2000230124126800290DD0012914D0042908D104206946009308814B8110460DF0B2FD80B23EBD6846009304814381694610460DF0A3FDF4E768460093E8
:40248000048143816946EBE7080D002070B545890468416800890300FFF7B8FC08280509091E22282628002005F0FAFC1EE0022908D0C8B22A4621460BF04AFF2046FFF7E5
:4024C0003BFE13E002202A4621460BF041FF2946204600F00DF809E000200DF065FA05E02046FFF7CBFE01E0FFF774F8002070BD014B0022DB6818470C0D002070B5448978
:4025000005680089022803D0032809D0FF2070BD2246094C0023A46829460120A04708E0FFF7B2FA241DA2B200232946022006F056FC002070BD00000C0D0020704700009D
:402540000248002141600180418070470C0D002070B50C46002186B016460391012802D0022859D116E003A9012006F098FC01281BD1039D324621462846FFF744FA0095F8
:40258000287801900220694608814E816846FFF7B5FF41E0214D002B686809D0049004A9022006F07CFC01281DD0022006B070BD002812D0298840182146FFF724FA2888DC
:4025C0000024801980B228806988091D884206D12C801348FFF792FF03E00320E6E788421AD96C6018E004986860E278A378110219430B4A698000231060E356536003237F
:4026000013815181A1788170E178C1706178417021780170042028800020C7E70C0D0020981000203EB515460C46022803D004280CD000203EBD0091019002206946088135
:4026400007484A8100680DF0C0FC07E00BF080FE044B0022DB6829462046984701203EBD080D00200C0D0020014AD160906070470C0D0020034801688068081A0A214843FD
:4026800000097047A410002010B5FEF715FF482204490548FFF7B7F903490120C870002010BD0000A42D0100A814002010B5FEF7F7FE10BD70B5134C2368002B08D0207BA5
:4026C0001149C20705D04008400020738868A08070BD88680B4AA18880B29268814203D90A4D691A091802E0814202D2411A5118A160A080A0689842EAD30DF083FC00F0ED
:4027000013F870BDA4100020C0102E40FFFF000010B508461946FFF7A7FF10BD704710B5FFF780FF10BD000003480021016041608160C16070470000A4100020024610B5B0
:40274000FF20002A0CD0FFF7EFFF064C0321207B0843207310010A21FFF724F82060002010BD0000A410002000B504480A21806848430209FFF7D8FF104600BDA410002074
:402780000248007B8007C00F70470000A410002010B544490868002802DA434B01221A70022290430860414800693E49C00B4031096A08425ED0012000F0D0FA3B483C4990
:4027C0007C30FEF787FD37480E216C30FEF782FD364820218430FEF77DFD344814219C30FEF778FD3148FF21C131A430FEF772FD2E48FF212F31B030FEF76CFD2B482D494D
:40280000BC30FEF767FD29482B49AC30FEF762FD29492648491CB430FEF75CFD23482749B830FEF757FD21482549CC30FEF752FD1E4824490830FEF74DFD1C482249A830B3
:40284000FEF748FD194821498830FEF743FD17481F498C30FEF73EFD14481921C9029030FEF738FDFEF744FDFEF740FEC0B2022802D00FE0FF2010BD16491748FEF72AFDDC
:4028800015481649001DFEF725FD134800210830FEF720FD54200449C043891C0870002010BD000000F02E401C0D002000002E4055650000320300002F3F000031020000EF
:4028C00010520000EC160000FA12000031D000003AE300009956000080012E40F80F000070B50646581C80B245086D00002408E0304600F0C1F81055000A1119A41C487058
:40290000A4B2AC42F4D3D80705D0D0182038D15CC47FD454C17770BD30B50A4C002100195B1E07E0541864782502545C2C430480891C89B29942F5DB994201D1515C01804E
:4029400030BD000000102E4010B5FF2000F006FA0F49FF2048700E481021801D41800121417001700A490020C91C4870FFF710FF04000AD100F01AF907210648FEF79CFCC6
:40298000044807211830FEF797FC204610BD00001C0D0020CC112E4070B5002405465B1E0AE0284600F068F8010A161971702D1D1055A41CADB2A4B29C42F2DB9C4203D1BB
:4029C000284600F059F8105570BD000070B500210A4D5B1E0AE0541864782602545C344346193480001D891C80B289B29942F2DB994202D1515C4019018070BD00102E4035
:402A0000F0B50599091FCFB200217E1E0BE0541864782502545C2C43164D45192C80001D891C80B289B2B142F1DBFC0712D01C78515C24020F4A0C4381180C809C785D7817
:402A4000001D210280B2294384182180001D80B2D9780CE059781A7809021143054A84182180001DD9789B78090280B2194380180180F0BD00102E40014940180088704722
:402A800000102E4010B50B490020487000F08EF8002000F089F9002000F076F907210648FEF70AFC044807211830FEF705FC002010BD00001F0D0020CC112E4010B5064866
:402AC0000078012803D102210448FEF703FC02490020C91E087010BD1F0D002070F02E4010B50B46062812D006DC01280CD0032801D1FFF7C7FF10BD0A28FCD00B28FAD1BE
:402B000005480078107010BDFFF71EFF10BD1146184600F065F910BD220D0020F8B5204DAC6A0127A0071F4E002816DA307806280ED1286A384328621B480069F9030843A1
:402B400081B219481030FEF7C5FB042000F006F9134802212830FEF7AFFBE00711D0062000F0FCF80F49FF20C91E48707078002802D1686B38436863094801212830FEF7A0
:402B80009BFBE0050BD53078042802D1052000F0E5F80348FF2101312830FEF78DFBF8BD40F02E401F0D002000002E4010B503212348FEF78FFB0120FEF764FC2048303889
:402BC000406A204C80076178800F890001431C480C38FEF77FFB6078002808D0401E022181401820FEF7CEFEC000083800E0B82081B21548FEF76EFB13480321090214385D
:402C0000FEF768FB10481149B830FEF763FB612189010F48FEF75EFB0D480321001FFEF759FB0C490C48FEF755FB0B480B496038FEF750FB084801218838FEF74BFB10BD16
:402C400070F02E40220D0020D8102E4090890000041E2E40FF0F000058122E4020900000044800684007400F022801D0002070470120704700010B4000B5FFF7F1FF00289F
:402C800005D009480168C908C900016000BD0748016A490849000162054801690122D2039143016100BD000000010B4040F02E4000002E400849087806280BD14878074931
:402CC000002803D1486B400840004863C86A01221043C862704700001F0D002040F02E4001480078704700001F0D002002484078022800D0012070471C0D002000B50300E6
:402D0000FFF784F8080D050D0B070507090D012000BD032000BD042000BD022000BDFF2000BD0000074A9168D26889B2064B92B2994204D105498A4201D1012100E0002159
:402D40000170704780002E4033D000003FE3000001494870704700001F0D002010B50446FEF7A4FB072C01D9FF2C01D102480470FEF796FB10BD00001F0D00200149487007
:402D8000704700001C0D002010B5064A012805D01921C9021046FEF79DFA10BD1D21C902F8E7000090002E4010B50A4A141D012808D009491046FEF78DFA08492046FEF74B
:402DC00089FA10BD04491046891CFEF783FA0349491DF3E788002E4031D000003AE3000070B50C460546FEF781FBC0B202280E49287804D0FF2810D04C280CD810E0FF2819
:402E000009D10A4AD0680004800F032801D0087807E09069000A553803E00878207070BD4F382070087070BD1E0D002000002E40F0B50122002830D000292ED0042442068A
:402E400000D00524792342065B06D21800D0641C034600221EE00C2516466E43104D00277519AF720E4F002ABB51696007D0661EB24209D10B4E86197606760E05E05E063A
:402E8000760E8027BE1B00E080269B198919521C2E81D2B2A242DED300221046F0BD00003013002079020000074900200C2242435218927A012A05D0401CC0B20628F5D39C
:402EC000002070470120704730130020F8B50F000446164609D0184D18496868A04202D94018A04201D38E4201D90120F8BD39462046FEF779FD00281BD0324639462046E4
:402F0000FEF781FDF0B200210C224A43521913895668F718A74208D90127A41B1B1B9772834206DAC01A1469C0B2491CC9B20629EAD30020F8BD00003013002079020000EF
:402F400010B500F05DF80748054AC16806480C46FEF759FD04492046FFF76AFF10BD000079020000280D0020B4100020002070470020054A002902D0012902D002E0506033
:402F800000E0906000207047280D002070B5084C154608460549A26889182A46FEF733FDA0684019A06028B270BD0000B4100020280D00203EB50A226946FFF7E7FF0446D0
:402FC00006480A2200686946FEF70EFD002802D00020C0433EBD20463EBD0000280D0020002802D0044A914201D2FF20704703490A61C8600020704779020000280D002028
:40300000024800214160816070470000280D002070B5074C15460548626880182A46FFF755FF60684019606028B270BDB4100020280D002010B503490A220968FFF7E8FFAF
:4030400010BD0000280D002010B50F4A002313600E4A13600E4B18600E4801600E49012008600E490860000290600E490C4808600D4914300860FF381538506000F0BCF8A9
:4030800000F0CAF9002010BD540D00203C0D0020680D00206C0D0020580D0020480D0020781400204C0D0020600D0020014610B50020002910D0094B1A689C685118A14251
:4030C00009D25868196080188A0704D08A07920F891A091D196010BD002010BD3C0D0020F8B50024164E671E321F3D463168136806E01422624310328A58521C1BD0641CC8
:403100009C42F6D36A1C14D02C461422544322460C3288500C214843FFF7C8FF3168002808510AD031680020103408517068401C70602846F8BD2546E4E73846F8BD000072
:403140004C0D0020F3B50026F64381B000281BDB1E490968884217D80299002914D01B4F142204463F1D54432546396810354859401C09D0FEF79AF938682F1F4159C35917
:40318000994203DBFEF78CF93046FEBD214608310091465801590C20704308180C220299FEF731FC0948761C001D0068C159B14200D100260549009A091D8650086841593E
:4031C000491C4151FEF76CF90020FEBD480D0020002803DB07490968884202D90020C043704704491422091D096850431030085870470000480D0020F0B500200D4A451EF0
:403200000346171F50600FE014260146714314680E1DA3510C461668083433511668083435511468401C635039688842ECD30020F0BD00004C0D0020F3B50026F64381B09D
:40324000002841DB2349096888423DD8029900293AD0204F142204463F1D54432546396810354859401C2FD0FEF720F93868415900292BD0211D009146580C21005971433E
:403280000F46C1190C220298FEF7BDFB11480021001D0068761C00590C34C0190160416081600C48001D00680159B14200D100260849009A091D865008684159491E41517D
:4032C000FEF7EEF80020FEBD3046FEBDFEF7E8F8FAE70000480D0020FEB504460D4600201E49089E0860471E009001900290002C11D0486885420ED2002A0CD0002E0AD04D
:40330000642E08D808460C3001681C2068430C18207A002801D03846FEBD0120226020721846FFF7DDFE6060401C13D06681A6810A4827610C3067610179A94200D2057155
:403340000021684601810A462846029B00F040F82846FEBD00202072DDE70000540D002038B50124009400F039F838BDFEB50027164EFF433D4600240EE01C203168604310
:403380000818017A002906D04068FFF721FF002801D0254603E0641C3079A042EDDA681C12D01C2130684D434419FEF77FF869466068FFF741FF0546FEF772F8002DD9D1DA
:4033C000216868468847D5E7FEBD0000600D002038B50024009400F001F838BD1FB500220C49541E0A60002811DB496888420ED808491C220C31096850430818406801A962
:40340000FFF7A0FE401C02D0002004B010BD2046FBE70000540D0020F0B50021114A4D1E174611710C3F0B46BD6016E008461C2460431668041D3551146806462350146839
:403440000836A3551468361DA353044616680A34335318301468491C255078688142E5D30020F0BD600D002038B500210091002811DB0F49097888420DDA0D4D04010C3595
:4034800029680859002807D0201D0818694600F06FF9002801D0002038BDFEF707F828680F34015D491E0155FDF7FAFF009838BD700D0020F7B582B0002502986E1E066021
:4034C0002E48D21C024017462D4A2C4610460C380178106805E02301C358002B0FD0641CE4B28C42F7D3711C28D03401211D40180191039900F02AF900281FD101E0264683
:40350000F1E71F48016820460C300F521C480399026820460E30115419480399026820460F3011540398784300F0A0F8144900280968085102D00024009011E001251AE038
:403540000F48016801980818009900F02CF9002801D0012502E00098C0190090641CE4B203988442ECD3002D05D10298066004480179491C0171284605B0F0BDFCFF000081
:403580007C0D0020F8B50D4600216A468C461180002839DB23490978884235DA214B04010C3319680A59002A2ED020460C300B5A801C0E5C184670438018954224D3854225
:4035C00022D2002006E007465F43BF18AF4206D0401CC0B2B042F6D36046002814D0114E271DC8190C366A46294600F006F900280AD168460088012808D030682946C0191B
:4036000000F0D1F8002803D00120F8BD0020F8BDFDF74CFF30680F34015D491C0155FDF73FFFF3E7700D0020F8B50F46002400F031F8002817D10C4900220B460C334A604F
:403640000EE021011D680E466A501D680C36AA53B61C1D680F31AA551D68641C6A54E4B2BC42EED31A71F8BD700D002000280BD0C01C074A8108506889005388411899424F
:4036800003D89368516018187047002070470000700D0020F8B5064600200F4D009029700C0121466846FEF74FFC00280CD129460C3100980860301B001F84B221466846C2
:4036C000FEF742FC002801D0FF20F8BD6C800098A8600020F8BD0000700D0020F8B5002827DB19490978884223DA174C05010C342168485900281CD028460C30085A0090C8
:4037000028460E300E5C401C0E5420682F1DC01900F064F800280CD12068002445590EE0094829460C300068C01900F03CF8002801D00120F8BD00982D18641CE4B2B44266
:40374000EED30020F8BD0000700D002030B50D4604000BD0A800FFF789FF6060002805D000202570C0436080002030BD012030BD70B50D46040005D0002D03D00220205E78
:40378000002801DA012070BDFDF790FE0221615E60688900405828606088401E6080FDF77FFE002070BD70B50D46040007D0002D05D002212078615E401E814201DB012012
:4037C00070BDFDF773FE6088401C00B26080616880000D50FDF764FE002070BD10B5040009D0227800216068FEF716F90020C0436080002010BD012010BDF0B500231D46E6
:40380000002802D00224045F0AE00120F0BD46689F00F6598E4201D1012503E05B1CDBB29C42F4DA15700020F0BD00000148007870470000840D00207CB505460024FEF746
:4038400023F9A8796946087000A8062229460130FEF7D9F80021684604F0E8FD0C2804D0072804D01F2804D004E0022402E0042400E0272420467CBD10B502280BD003280D
:4038800002D0042809D102E000F048F905E000F0F3F9FF2801D100F003FAFFF721FAFFF72DFA10BD10B500F02BFAFFF719FAFFF725FA10BD70B504460025FEF7E5F8002C24
:4038C00006D0A079012803D8214602F0CDFC00E00125284670BD01460120002902D05020088000207047000001460120002905D0034854220078504308800020704700004F
:40390000860D002010B502460D49FE204870032410460CF07DFE002810D10CF021FE00280CD105F019FB002808D100F0F3FB002804D104F0FFFF002800D10024204610BD57
:40394000840D002070B50025044600280ED0A07901280BD8FEF798F8A0790028204602D003F05EF803E003F033F800E00125284670BD0000014610B50120002904D006229C
:403980000248FEF740F8002010BD0000880D002001460120002903D0087802490870002070470000860D002010B5FFF799F9012801D1FFF79BF910BD38B504460120002C9A
:4039C00020D0617801291DD800290BD0FF25E535FEF75AF80C4828180088C0B22070072803D00EE0FF25CD35F2E70020694608706846FFF797F969460878012801D108207C
:403A00002070002038BD000000102E40F8B504460120002C26D06178012902D92278092A20D8002905D0FF25E5352078092803D004E0FF25CD35F8E708202070FEF724F8FC
:403A40002078114F114E08280DD00020FFF7ACF970780128207810D00D4969180880FE2070700020F8BD0120FFF79EF90720B8810549203188800120F2E7B88102482178A1
:403A800020308180EBE70000C0112E40840D002000102E4070B50E46050001D0002400E00C4C002C11D0E28A500609D5D107C90F022003F053F8E08A40218843E08204E031
:403AC000D107C90F012003F049F83146284602F027FD70BD10150020F8B50546002004460D4E009013E022466946284601F04AF80098002801D00CF06DFDA878214602F0EC
:403B0000FDFAA878214602F0EBFA641CE4B2308AA042E8D8F8BD0000C8150020FEB54E4DFFF7DEF8012849D14C480078002845D002F07EFC002841D004F01AF900283DD085
:403B4000474C6078C00703D000F0E6FC012835D0207E00287DD16078002600285BD0000706D540488089070B00F02EF9384370D13B484178684603F065FF044628793A4DD0
:403B8000A9784018C1B2A14261D802F051FC00285FD0344860300089314F0190203702F09DFA6846008802F0C7FA02F057FB2F490988884203D10120FFF7D0F849E02C4990
:403BC000012008702648807B00281BD00198002818D04037F87E002814D12248603000884000A0420AD96878002807D102F0E4FF2049088A032212021043088228780028F8
:403C000000D02E7002F0C6FA0120FFF7A1F800F0F5FB174C15E002F00BFC002819D0102402F01CFB214602F011FA02F085FA104C0120207002F0AEFA0020FFF789F800F032
:403C4000DDFB20780128B6D1FFF716F826700020FEBDFF20FEBD0000E81400201C0D0020F0140020A0102E40940D0020A60D00208E0D0020E0112E4010B50848FF24407890
:403C8000002809D102F0D4FB012805D1FEF716FF0720FFF763F80024204610BDF014002038B5FFF71DF8012801D0002038BD02F0BFFB00280AD0114C6078C00703D000F0D1
:403CC0002BFC012802D0207E002801D0FF2038BD617800290FD0684603F0B4FE022806D96846008802F028FA012002F059FA0320FFF734F8D9E70020F7E70000F0140020E3
:403D000038B51E4CFEF7ECFF042813D0052811D0062812D003282AD007280AD100206946087002460120FEF7DBFEFEF7D9FF0128FBD138BD00F082FB38BD02F049FA00F034
:403D40007DFB02F0C5FA8007800F0228F4D10C4841880029F0D05B21095D0029ECD101210170A07D0140022002F0F8FE38BD02F033FA0120FEF7F2FF38BD000010150020F7
:403D8000940D0020F8B50646002402F055FF0546304602F06BFF03460A480021068A0DE001228A401046174628401F40002803D0002F01D1224394B2491CC9B28E42EFD804
:403DC0002046F8BDC815002070B500252C460A4E03E0002C01D0002000E030460079002803D02046FFF7CEFF0543641C2406240EEFD0284670BD0000101500201CB50020F0
:403E0000694648706846FFF7D7FD01AA69460A20FEF766FE6946042008561CBD10B50C4601F082FA002809D00179002906D0C1788078224602F0FAFB002010BD022010BD62
:403E40000148007870470000E81400204030C07E002800D00120704700B500F001F800BD8C2148430749084A40186030417F491CC9B24177D289914201D300214177C8B266
:403E800070470000F0140020C815002013B501F04BFA04000BD001F0E8FD002807D0214601AA0A310620FEF71BFE00201CBD02201CBD000010B50C4601F036FA00280AD0C9
:403EC00001F0D3FD002806D0224604490A20FEF707FE002010BD022010BD0000D1140020F3B581B0074601460026029802F09CFE0446002F01D0002500E0154D002D21D0C1
:403F0000284601F047FA032C04D13946029802F0E7FE06463846029902F0E2F8032C06D0002C10D00121384601F03AFB03E03146384603F0D1F8284601F0C0FF02212846A2
:403F400001F0D6FFFEBD3846029902F0C9F8FEBD1015002010B5044603F008FD002801D00C2010BD2078611C02F062FCFF2801D01F2010BD02F0A8FCFF280AD02178621CE4
:403F800002F036F8044821780068026B601C904710BD072010BD0000AC0D002010B503F0E5FC002801D00C2010BD02F023FC03480068C06A8047002010BD0000AC0D002034
:403FC00070B50D46044610210CF044FA1021601806460CF03FFA334610221946204603F0F3FC102130460CF035FA02202870204604F0F8FB70BD0000F8B5044640782178CA
:4040000002028006870FE0781143A67809050002090D0643084601F087F900210546F2B2002812D0002C10D0022F0ED0032F0CD0002A0AD00279092A07D0002A05D0134A40
:404040005A23527E1B5C9A4207D82889002104F0FEFA20460CF0BEFAFF21002914D10C48224600682946436930469847C0B2FF280AD128464030817EF2B2491C8176FF23B4
:404080002146284600F0DDF8F8BD0000A8140020C40D00200020704710B5044603F066FC002801D00C2010BD2078611C02F0C0FBFF2808D002F0F8FA044821780068426B18
:4040C000601C904710BD1F2010BD0000AC0D002010B504F02FFC00F057F9002010BD10B5044600786178E2780843A17811430843217908436179084305D003F029FC0028CE
:4041000003D00C2010BD122010BD204602F088FC002010BD10B5FDF7E9F902F0AFFD044803F07AFD02F0CAFA012000F003F810BDB8140020F1B586B003A8009005A801902C
:4041400025489F22817A114081726846FDF7B6FC00283FD169460989C90705D01F4806990068C2686846904769460989890706D500282FD11A480068816A06988847002825
:4041800028D1184E0025757075737571F575357675767575B570F570B5713746F5730120BC3738731F20F880FF2130467972A0300175457500F076FA00242046069901F0D8
:4041C000FFFB002803D1641C2406240EF5D0FD72BD72B57307B0F0BDA8140020C40D0020AC0D0020F014002070B505460E46084602F022FD0446304602F038FD0121A9401F
:404200000A46224001400A4301D0012070BD002070BD10B50446084602F028FD0121A140014201D0012010BD002010BD10B5FEF757FD032804D101F0CFFF0120FEF78EFDFE
:4042400010BDFEB51C4616460F46054601F036FEA878FFF701FE02460190334639460094284600F00DF8002808D1A8780199FFF711FCFF2C02D138460CF0ACF9FEBD0000C8
:40428000FFB585B005460E980C46FF2810D02B49C00009680A5840180179C0795278814201D9012601E09006860F6846038108E06078A1788006860FE078000201436846AD
:4042C0000181284601F0DCFB070007D021462846079A00F0EBFB384609B0F0BD304600F099FC04AE0346039002AA29460096204600F025FB3C20405D002818D0284601F0E0
:40430000BFFB012813D0684600890096C0B20190A878231DFF22079902F0B6F868460089039BC2B2A878079902F0F6FBD3E7684600890021C0B20091E9E70000C00D002068
:40434000F8B5104F002500242846FFF71BFD060012D00EE03046E040C007C00F07D02146284601F0B3FE21462846FFF7B9FD641CE4B2388AA042EDD86D1C2D062D0EE2D073
:40438000F8BD0000C815002010B502F097F90020FFF7D0FE0CF0B4F9002010BDF8B5002400F0B4F80123012800D10124104F00203E4620360425082203E0002801D0002131
:4043C00000E031460979002907D001290BD002290BD0114681402143CCB2401C0006000EEBD07C70F8BD1C43F7E72C43F5E70000F014002010B5FFF7D1FF10BD70B50E4C90
:40440000FCF77FFC0546FEF76BFC062802D02078012803D02846FCF778FC70BDFCF788FD2846FCF772FCFEF75BFC0628F5D020780028E5D170BD00008E0D002010B5FCF735
:4044400060FC0446FEF74CFC012809D0FEF748FC022805D0FCF76CFD2046FCF756FCEEE72046FCF752FC10BD10B50B4681791943817103D08078114602F01CFB10BD10B5B4
:4044800082798A43827102D1807802F027FB10BD30B50C4C0220A28A0B4B9978002901D0022906D11D785B78EB18282B01D9032002E0032900D101205105490DC00201433A
:4044C000A18230BDC0112E408F0D002000B500F023F8002807D0012805D0032801D0042801D0002000BD012000BD014600B50020C90701D000F00AF800BD014600B50020B8
:40450000C90701D000F002F800BD000001480088000A704720102E400448008B410501D5042070474007800F7047000000102E4038B50446000610D5FFF7EEFF01280CD11F
:40454000684601F059FE6846007800F0B3FA012001F01CFD0220FFF74DFF0348006801692046884738BD0000AC0D002010B5034A0178117002F0C0F9002010BD8F0D002073
:4045800070B50446FFF7C2FF002801D00C2070BDA27B01211F48002A827801D00A4301E05208520082706279012A14D0C17849084900C170184D2868016820468847207902
:4045C00001280CD06188208803F000F82080207904280FD015E0C2780A43C270EAE72868C168E01D8847E01D02F006FA0B48808C208006E02868C168E01D8847E01D02F0AA
:40460000FBF9074920798870204602F083F9002070BD0000F0140020AC0D0020A81400208F0D002008B50178FFF770FF814201D10C2008BD002914D0072069460870FFF77D
:4046400045FF012807D10121684600F08BF8012801D0092008BDFFF71BFF02F08FF9012011E0FFF733FF012806D1684601F0C4FD6846007800F052FA02F076F9FFF746FFA8
:404680000028FBD10220FFF7B5FE002008BD000010B5034A0178517002F0ECF9002010BD8F0D002038B568460BF02AFF002801D01F2038BD01210098C902018041800025B2
:4046C00005714571857107214173857302F022F9009C202200212046FDF79EF925702A460021601CFDF798F9204602F005F9204602F0C0F900980BF06DFF042200210248A9
:40470000FDF78AF9002038BD8F0D00200346084800B5834209D8184600F006FE002804D00089984201D1012000BD002000BD0000FF0E0000074A9179491C8906890E91710A
:4047400038220A4092014907090E11430843024908407047F0140020FF0E0000C006C00E70470000F8B507460E4600240D4803E0002C01D0002500E005462979002905D09F
:40478000641C2406240EF3D00020F8BD0021204601F016F92E712046FFF7CCFF28813C700120F8BD1015002010B503F041F90222002100F003F801F02DFF10BD10B5094BA3
:4047C00040074907000F090F185A595A40185043C0086421FCF7E6FF002800D1012080B210BD0000EC2D0100F7B53D20405C88B015460C46002802D02878042802D200204F
:404800000BB0F0BD6946087200262046FFF71EFB012800D00126204603A938300191009023460327A17E34333246206A03F00EFA02A8089900900B46019120463A4603A92A
:40484000243003F0A1F802466846007A2870204601F0A2F81046D3E7FFB587B00C4605461078694608723D20005D1746002826D000262046FFF7EAFA012800D001262046F5
:4048800003A93830019100902346A17E34333246206A03F0DBF902A80090291D019120462B1D03A924300A9A03F06EF802006846007A388002D1204601F06EF810460BB0CA
:4048C000F0BDF0B505463C20405C89B016460C4600280CD0307869460873002806D000272046FFF7B3FA012803D003E01F2009B0F0BD012703200890204604A938300191C4
:4049000000902346E17E34333A46E06903F09EF96846007B03A928180290009120462B46019504A92430089A03F062F802466846007B3070204601F039F81046D7E7FFB56F
:4049400005463C20405C89B016460C46002810D0084601F095F801280BD0308869468883002809D000272046FFF770FA012805D005E000200DB0F0BD0220FBE701272046D6
:4049800003A93830019100902346E17E34333A46E06903F05BF9291D2B1D07A8129A6D4607C5204603A924300C9A03F021F802466846808B3080204600F0F8FF1046D9E7EE
:4049C00070B50D460446FFF741FA01280AD0E87AA97A00020143A07801F008FD012808D0002070BD00222421204602F041FD242070BD28214C200155204600F0A3FB2820E5
:404A000070BD0000002801D0002000E003484030C07F012800D0002070470000101500200146002049070ED50021084B03E0002901D0002200E01A461279022A04D0491C04
:404A40000906090EF3D0704701207047101500200146002049070ED50021084B03E0002901D0002200E01A461279022A04D0491C0906090EF3D0704701207047101500207F
:404A800010B5044680346068002803D00BF0B6FD0020606010BD4030417070474030817070474030017070470171704792001018C166704770B53C2501F080F9040004D004
:404AC00020460021433001F031FCFF222946204600F0D4FB002C02D0A07801F0F1F870BD10B5002801D0002000E00348002802D0008903F0F3FD10BD1015002010B500285E
:404B000001D0002000E00448002804D00179072901D100F047F810BD1015002010B501F04DF9002802D0807801F0CAF810BD00207047000070B50546008A00281ED01049F1
:404B4000F122897A1140C90618D5294640314A8A098A521C4A4392B2D10800D10121540801E0621A94B2A042FBD9FEF75FFE012804D1298AA878224601F00EFD70BD000057
:404B8000A814002010B50023054C0B60248A944204D992001018C26E0A60C36610BD0000C815002038B5044600200090A079002814D14020015D052901D00E290ED168463F
:404BC0000BF0AEFC002809D12046009902F02EFC03481021C28A2046FFF746FC38BD0000A814002010B50B4604460146184602F0ABF8002802D020460BF0F6FC10BD13B540
:404C0000044601AA11460620FDF76AFF6846818861811CBD002800D10220704770470000F8B504462346401D543300909A1EA078911E01F0FDFA25464035A88A298A80002A
:404C4000FCF7B0FD401E81B2688A884203D96982A07801F0BDFF20460021433001F066FB27480088E88102F0E3FEE989891C8AB26179FFF7A3FD01F0CDFC02F0D9FE2A8A42
:404C80006179FFF79BFD074601F0B8FC688A002806D01C49088A032212021043088202E0002001F089FF1748803801886E8A002E0CD0304648431449FCF764FE0004000CBD
:404CC00001D0401C80B21149488002E00F4800214180288A704381B2A07801F0D9FEFF2228374932B9B21346204602F073FCE98AA07801F04DFEA07801F012FAF8BD000089
:404D000080102E40E0112E4071020000940D00207FB504468034616805460E46183108226846FCF770FE31462031082202A8FCF76AFE102168460BF08DFB6068102108303C
:404D40000BF088FB60682B46083024331022694602F03AFE7FBD10B504460821FFF78FFB10212046FFF78BFB207905281FD006281DD008281AD12189002003F027FC0720E9
:404D800020712046FFF762F8014620464030012913D00E21017000210176204600F0A2FF2046FFF76DFE2046FFF7C4FE10BD20890122002103F0EEFBE1E70521EAE7000019
:404DC000FFB581B01F4604460821FFF758FB10212046FFF754FB2079082803D0092804D0042203E00422012501E009220025204600F032FE26460020403630702271204689
:404E0000FFF73EFE0398002D02D0012808D00BE001280AD120890022029903F0BBFB04E02189029803F0D2FB012700203076012F04D0204600F056FF05B0F0BD0298307383
:404E4000204602F041FB054605480121C28A2046FFF70AFB002DEFD109202071ECE70000A814002070B50C460546FEF7EFFF012809D108212846FFF702FB00230122214602
:404E80002846FFF79DFF70BD10B5044600F0E4FD2046FFF7F5FD00214034217010BD70B505461A24FEF7D2FF012809D108212846FFF7E5FA0023012221462846FFF780FF31
:404EC00070BD0000F8B50446002000900E4668460BF026FB002801D00D20F8BD8420005908212030009D00F01AFA20460421383000F015FA002E02D1204600F0E9FD294630
:404F0000204602F022FA0E480821C28A2046FFF7ABFA204600F057FF25464035002808D0204600F023F8002801D0092028700020F8BD08202870204600F0C0FFF7E70000F2
:404F4000A8140020014610B540310A460978082906D0092907D00A2901D100F091F810BD0B20107010BD00F001F810BD70B50446007925464035052805D0062803D0082883
:404F80000FD00C2070BD03220621204602F070FA0D480821C28A2046FFF766FA1120287010E006202873204602F08EFA0646AA8A0A20424301212046FFF756FA002E01D1CE
:404FC00009202071002070BDA814002038B504460020009068460BF0A3FA002801D00D2038BD2046009D00F0B1F908202071204600F06EFD2946204602F0DAF900213D2057
:4050000001550F2040210855204600F057FF002038BD00B5024600F01FFD10214032117000BD10B50446FEF711FF012809D04020005D112805D100231A4606212046FFF79A
:40504000BFFE10BD10B5FFF786FE10BD38B504460021684600910BF063FA00280CD12046009902F026FA05480821C28A2046FFF7FBF90D204034207038BD0000A814002081
:4050800038B504460021684600910BF049FA002801D00D2038BD2046009902F0FFF905480821C28A2046FFF7DFF90C2040342070002038BDA814002000787047F8B50025FF
:4050C000002801D0002400E01A4C002C28D0204600F0CBFC002823D0207903281CD005281CD026464036B18AA07801F0DBFCB078012815D10021204601F043FE2746803717
:405100003868002802D00BF079FA3D600020B0702079072805D007E0042000E006202071F8BD2046FFF706FD0221204600F0E0FEF8BD00001015002010B54C22115400F05E
:405140004CF810BD10B50446FF21FFF798F909202071A07801F0CCFC10BD000038B5FF216A461180002801D0002400E0084C002C0DD011460620FDF7B3FC684601882046AB
:40518000FFF73DFD03480068C1692046884738BD10150020C40D002010B504468079002809D022214C200155FF212046FFF767F9204600F012F810BD10B503790246403270
:4051C000002B03D01173092B02D003E0002100E02221117300F001F810BDFEB504460089002700902781207926464036002817D0012815D002280AD112E002AA01A9204696
:4052000001F090FD002807D101980BF0EDF9204601F0B0FD0028F0D02046FEF75DFCB776254680352868002802D00BF0E7F92F606868002802D00BF0E1F96F60317B002952
:4052400019D0009800F064F8A078002100F082FF2046FFF7A9FAA07801F0B2F8A07800F02FFDFF212046FFF70AF90B20FFF7C2F800F068FCFEBD1F213173E2E7F8B51746B1
:405280000E46054602F0D0FB04003CD020460C3001F03CF82046062200211830FCF7BCFB2046062200211230FCF7B6FB1648224600683946436A284698470746267028468D
:4052C000FEF7C4FD012148406070002D10D02889608028464030C1782171002E0FD169796171018AE180418A2181808A608106E00648008BC005C00F2071002060803946CE
:40530000204603F0E6F8F8BDAC0D002000102E400A4610B50146002003F0F8F910BD10B50AF074FE10BD000000B50146FFF716FA002801D0002000E00348002802D0028934
:405340008A4200D0002000BD1015002038B5044680346068002806D168460BF0F1F8002801D100986060606838BD000010B5014600F086FB0128887802D0FEF771FD10BD74
:405380008C214843024940186030007F10BD0000F014002070B5054604464035A87F012811D1A1788C20084A484380186030067F3046FEF719FF002805D10220A877A07888
:4053C000314601F0B7F870BDF014002010B50C4CA07A002813D0FEF7B3FF0A48027F417F408B00F0B7FB012809D10020A07200F019FF05498989090B01D000F03BFA10BDE8
:40540000AC150020F0140020A0102E4070477047490510B5490F0B00FCF7F8FC060704080C0C0F073E21FFF787FE10BD0821FFF7C3FE10BDFFF7D1FE10BDFFF7ADFE10BDE3
:40544000F8B507460025002D01D0002600E0204E00F096FE3046403044890021418100F0AFFE304600F001FB01282BD1A00702D52846FFF723FEE00602D52846FFF76EFECD
:40548000A00601D5FEF75CFF600601D500F014FB200602D5284600F01DF8600702D5284600F02CFA380402D52846FFF727FB780402D52846FFF714FBE00703D021463046BD
:4054C000FFF7A6FF6D1C2D062D0EBCD0F8BD000010150020F8B5002801D0002400E0284C002C4BD025464035A878012846D1FF278820493700593E46002805D02149897A5A
:40550000890601D5878AC68A2046FEF79FFC012834D002F08DFA2A8A6179FFF74FF9009001F06CF800983346283081B23A46204602F050F8E98AA07801F02AFA1248018819
:40554000688A124E002810D048431149FCF71AFA0004000C01D0401C80B27080A07DC107C90F002001F0FAFA01E000207080288A698A484381B2A07801F08AFAF8BD00002E
:4055800010150020A814002060112E40940D0020710200000149096809680847C40D002070B50D460026194A0146002801D0002401E014462034002C26D0204600F060FA85
:4055C00001280AD18C20484380186030007FFEF70BFE002801D101F0F7FE0D48006881692046884700280CD020464030817EA94202D3491B817600E086762089294603F034
:4056000026F8204600F05AFC70BD0000F0140020C40D002070B503460088FFF785FE040013D000F022FA00280FD02079092819D02546997840352973204601F045FF0646CE
:40564000A878012803D0AA8A02E0022070BDEA880A20424301212046FEF706FF002E01D109202071002070BD0EB5002217216B460292198100905A810120029B00990BF046
:405680005DF80EBDF8B518480024807A002822D1164E0025B089000B22E0204600F060FE1249A039401807882A462146384600F051FA012810D00E480122478305770A493B
:4056C00044778A72002D01D0002000E02030002801D000F0F3FBF8BDB089000B641CE4B20028DAD1F8BD0000AC150020A0102E40F014002010B50088FFF716FE002809D0BC
:40570000014640310C460978082905D00B2903D00C2010BD022010BDFFF728FC002801D009202070002010BD70B503460088FFF7FBFD040008D0254640352878082805D0EB
:405740000B2803D00C2070BD022070BD8420005910220830991CFCF756F92046FFF7D8FA2878082804D02046FFF78AFC002801D00A202870204600F0A1FB002070BD00006F
:4057800010B50C46002121700088FFF7CDFD03000BD000F06AF9002807D00948F121807A0840C00603D4112010BD022010BD022020701A8A1889002102F0C4FF002010BDBF
:4057C000A8140020F8B50F46002100910088FFF7ABFD040012D000F048F900280ED0E079410641D4617E02264A07002A08DB8907402500291ADA2843E07135E00220F8BD02
:4058000002F012F90021017021894180A1898180217E4170E189C1803E7005460178134802F06AFC284602F031FF1DE0204600F02DF9012806D068460AF072FE002803D008
:405840000720F8BD2A20F8BDE07900992843E071204601F063FE607E0421304360760448C28A2046FEF700FE0020F8BD1D040000A81400203EB500220F236C4602922381A7
:4058800000910190628169460EC900200AF056FF3EBD0000F8B50F46054600F08FFA040025D003202071254600264035EE76E6702046FFF7B5F901F057F80920FEF79AFDC1
:4058C000A07800F06BFD0121204600F011FB2E706E70AE703A4600212046FFF7CFFC0649887B401C8873A078FFF754FEF8BD284601F0FEF8F8BD0000F014002010B5002879
:4059000001D0002000E0094800280DD0014640310A464978022901D100215170807DC107C90F002001F01AF910BD00001015002070B503460D460088FFF7F6FC04000BD0B5
:4059400000F093F8002807D01248F121807A0840C00603D4112070BD022070BD20464030418A008A491C41430804C10C5888884201D2122070BD20822079072802D1204649
:40598000FFF7D8F8022028702089002102F002FF002070BDA8140020016A491C016204D1817E491C4906490E81767047C169491CC16104D1C17E491C4906490EC176704703
:4059C000F0B5074687B003A8009005A800260D460190002F01D0002400E01B4C002C05D06846FCF76BF8002803D00BE0022007B0F0BD68460089C00704D18C2200212046A8
:405A0000FCF70AF8114829460068826820469047050016D1A77066762746267140373E70204600F019F8204601F0A0F9084820820848BE77807AF121084000D0012020756A
:405A4000E682E8B2D3E7000010150020C40D0020B80B0000A8140020002101628176C161C17620300177417770470079002805D0012803D0022801D001207047002070476E
:405A80004030807F002800D00120704740300078002807D0012805D0052803D00E2801D0012070470020704710B5807801F0DEF8002800D0012010BD10B500F0B3FB0349F3
:405AC0008989090B01D0FFF7D5FE10BDA0102E4070B5054604464035A87F002825D1FF206075A0788C21154A484380186030417F8C23491CC9B24177A0785843104B80180F
:405B0000DB896030994201D300214177A0788C21484380186030467F0677A1783046FEF763FB002802D00120A87770BD0220A877A078314600F0FEFC70BD0000F0140020DB
:405B4000C81500200020401C0006000EFBD0002070470000F0B515468207920F85B0000A02926A469080002D01D0002400E0524C002C28D0084600F0F3FB07466846808846
:405B800000280BD00298012843D0022841D003280BD03D20005D012870D087E04748381801882046FFF72BF880E00020029002A80AF096FC002807D03D20005D012878D1E7
:405BC0002046FFF7E9FE74E06846029E8388324600213846FCF784FE3848381801882046FFF70DF8284600F0ADFA01AA21463046FEF7FAFD002806D030460AF0E1FC3D204E
:405C00004C21085528E0F5773146204601F014FA4FE0002000902089039068460AF050FC002802D0002005B0F0BD6846009E8388321D00213846FCF753FE204838180188F5
:405C40002046FEF7DCFF284600F07CFA25464035287E00280CD103E02046FFF773FA28E001AA21463046029BFEF7F6FD002806D030460AF09BFC3D202873EDE713E0029870
:405C8000FEF7CCFF01460398307003980901000A0843707068468088B070000AF0703046FFF7E2FC05E02046FFF776FE284600F049FA0120B7E700001015002000102E4066
:405CC00010B5074A917B002901D0491E91730021FFF776FE002801D0002010BD012010BDF0140020F8B5074606464037B87F00282DD0B0788C210090484323494518603533
:405D0000287F0099FEF785FA01281ED0287F401CC4B21E48C089A04200D800240020B877FF276F772F77A87702460146009800F06DFD717DFF2903D0304600F0D8FF7775DF
:405D400001F042FB0025114F19E00320B877F8BD00200090224669463046FEF713FF0099002904D0FF231A463046FEF76AFA641CF889E4B2A04200D800246D1CEDB2F88927
:405D8000A842E5D8F8BD0000F0140020C815002010B502460021084B03E0002901D0002000E018460479944204D0491C0906090EF3D0002010BD00001015002000B501202D
:405DC000FFF7E6FF00BD10B5044601F02DFE2189018080346168416061682831816002F00FFC10BDF7B50646087982B00C46092807D0A078F0770846FFF742FE012806D0C3
:405E000010E030460AF0F0FB022005B0F0BDA1788C20294A484380186030007FFEF7E4F9012810D0A078FEF7EDFD01280BD037780121304601F074FA25462035062F38D0B0
:405E40000B2F0FD107E06846027C21463046FEF7C9FE0D20D9E72046FDF7F8FF012801D1002028772046FFF781FA054604AA21463046FEF726FD01205F2108556946097C6D
:405E8000002001910090A07833463A46294600F0FBFA69460A7CA0780323294600F03CFEA0782946FDF7F6FD30460AF09DFB0020ABE70120D5E70000F014002010B50246F9
:405EC0004032937F0021002B03D1927E002A00D00121064A927A002A00D000210279092A00D10121807800F059FE10BDAC15002070B50C460546FDF7A9FF00280BD1012C3E
:405F000006D92879092806D02846FFF7CDFD0446002C02D004E0012402E0A87DC007FAD1A87DC107C90F204600F018FE70BD0000012807D0082804D104480282034808300C
:405F40000180704701488038FAE70000A0102E40014908817047000000102E4010B50446FF20F130012C01D1FF20D530002200F047FE044A108A044980B2A04308801082B4
:405F800010BD000000102E40980D0020034B198A034A89B2814311801982704700102E40980D002010B50446012802D0082C07D102E0FF20D53001E0FF20F13000F018FE2B
:405FC0000348018A034A89B221431180018210BD00102E40980D0020034B198A034A89B2014311801982704700102E40980D0020F8B505460120A84086B214460F460122CD
:4060000031467C2000F0FCFD3A463146782000F0F7FD6078267800020643E078A2780002024360792379000203430C2045430D2080010549281844182680001D44182280AD
:40604000001D40180380F8BD00102E40401880B270470000CB065B0E0343480901021943D00108430121C902084301490881704780142E404278037812021343084A13821E
:40608000C37880781B021843908248780B78000203431383C8788978000201439183704700142E40024A1080000C90801181704700142E40044A002180180288491C89B23A
:4060C0001029FAD37047000000102E40024A10820148803081817047A0102E407047000010B5054A1082084600F0AEFD024A0021A03A8018018010BDA0102E4010B50B4610
:40610000044600F005F819462046FFF7DFFF10BD024A10820148803001817047A0102E4010B504490882FF20002220211D3000F067FD10BDA0102E40014908807047000061
:40614000C0102E40000202494D3008807047000000102E4010B5084B074C0202A03B0029208202D075321A8010BD04490020088088807632F7E70000A0102E40201A2E401C
:4061800000B5034908884880FFF700FF00BD0000980D0020014950200880704700102E4006490E220028888806D01043888003495120C039088070479043F7E7C0102E40CC
:4061C00000B502484088FFF707FF00BD980D002010B5FCF76FFD10BD014952200880704700102E40884201D8081A03E00022D243101A401880B2704700210170704700005D
:406200000748808806492039098B884201D8081A03E00022D243101A401880B27047000020112E400148008AC0B27047A0102E4070B5084C049D2082074804890548603053
:4062400006880E8001891180808818806007400F287070BDA0102E40E0112E400148008970470000C0102E4000280FD00D4A108B0870000A4870908B8870000AC8700948AF
:40628000203000880871000A48717047064A10880870000A487090888870000AC8701089F0E7000040102E40C0112E4000B5024A00F004F800BD0000FF7F000000B51346FC
:4062C000FFF790FF984201D8022800D2002000BD0148008A70470000001A2E40024908820248008970470000A0102E40001A2E40014880887047000020102E4002490882FB
:406300000148803000887047A0102E40064B1A8999891B8A0270120A42708170090AC1700371190A4171704760102E40012904D00549098BC90B01707047034940310989CE
:406340008907C90FF7E7000000102E40024908820248008970470000A0102E40201A2E400148408970470000C8150020024908820248808970470000A0102E40001A2E40E9
:40638000044A10820448028980894843101880B270470000A0102E40C81500208C21074B414300B5C918FF2260314A770A7700228A77114600F02AFA00BD0000F0140020EA
:4063C0008C225043074A10B58018FF21603041770177002181770448418EFF201D3000F007FC10BDF0140020A814002000B5044A1082034880308088022200F003F800BD0A
:40640000A0102E4010B50023884201D8081A03E00024E443201A4018044980B2884201D8824200D90123184610BD0000FF7F0000024880880006C00F70470000C0102E4029
:4064400002488089C007C00F70470000201A2E4070B55478157824022543D47888232602947834435679127936023243002900D09823044908820348A038181805808480B8
:40648000028170BDA0102E40FFB581B014460D4607460A9E0B9BFFF773FF002E0AD0009333460021049AFCF7ABFA05484019C45505B0F0BD0021049AFCF788FAF5E70000DD
:4064C0009C0D002070B502460448054D808808242C800B460021FCF779FA70BDC8150020A0142E4010B5212402466401044953200880102300212046FCF768FA10BD0000E9
:4065000000102E40417802780902044B0A431A83C1788078090208439883704760142E40034A1082802001430148803001817047A0102E40054A1082044A6032908B000933
:40654000000108439115084390837047A0102E4030B500210F4B0A46012809D0032802D005280AD107E04021198102210A2204E004210C2201E004210D221882054C203463
:406580002088C0B205460D42FAD022800021198230BD000080142E4010B5044607480482074801808280032189030820FFF7FAFC200202497530A039088010BDA0102E4038
:4065C000201A2E40054A1082044A60321183000202494B30A039088070470000A0102E40054A491E1082044A60321183000202494C30A03908807047A0102E4003498842CF
:4066000000D908460249088070470000FF0F000060112E400349884200D908460249888070470000FF0F000060112E408823002900D09823084908820748A0381918088866
:406640001070000A507088889070000AD07008891071000A50717047A0102E4010B51446024606480B46C0880021FCF795F9012C02D103495420088010BD0000C8150020C2
:4066800000102E40064A11880170090A417091888170090AC1700349542008807047000080142E4000102E400121814010B589B200227C2000F0A4FA10BD0000FEB5FF21A2
:4066C0000120FFF74BFCFF210820FFF747FC3020FFF75CFC3F48802101803F483F4D00784007400F02286FD001286BD100202880002211460320FCF7F3F9394E3949B08DFC
:406700008882384F002420373248A0300482308F38822046FFF754FE641C2406240EF3D0B08F38832E48103000F052F9716930690191009069464879C02108436946487133
:40674000684600F06DF900F055F82548214C40304188A03421838188A1831E49C088C0318880708E38802048002606823920FFF733FC184F532038801C4907200883542011
:406780003880E020FFF796FCE820FFF793FCF020FFF790FC0020FEF707F813488682282101838015A0810F48403086815B203880094800784007400F022807D0012801D124
:4067C0000B482880FEBDFFE7032090E70848C01CF7E7000000102E40C8150020001F2E40A8140020C0112E40001A2E4080142E40E0230000044800218183018302497420D5
:40680000603908807047000060102E40074B1882064B6033988B00090001084399158843002A01D11021484098837047A0102E40F3B50D2284B0920100924A780B781202B3
:4068400013430393CA788B78120213434A790979FF20120211431A4A8C46918B9E460291118B01911649742260390A80154900220F7821E00121124B9140009C603BE31818
:406880001D8889B21C881B88039E6E407546654064462E435C4026430CD1029B194209D00199D140CB070499DB0F8B4202D1104606B0F0BD521CD2B29742DBD8F8E700007A
:4068C00060102E40E814002030B50949FF208C8B084A00210125137805E02A468A40224204D0491CC9B28B42F7D830BD084630BD60102E40E814002010B50446E020FFF713
:40690000D9FB20782246401CC3B20021E020FCF703F810BD42790021012A02D901214171090342790A430179042914D049001143827B032A01D8D2001143427B52010A435E
:40694000817909021143012252031143054A118300889083704711460122920211430222E5E7000000102E4000B50120FFF70EFB01494120088000BD00102E4000B50120D4
:40698000FFF72AFB01494020088000BD00102E40024A10820148603081817047A0102E4010B5044C208204488180028183815143018210BDA0102E40A0132E40034B18822B
:4069C000024820388180028070470000A0102E404178027809020A4306490A80C2788378120213438B804279007912021043088170470000C0112E404178027809020A43EA
:406A000006490A81C2788378120213438B81427900791202104308827047000060102E40417802780902084B0A431A83C178827809020A439A834179007909020843024920
:406A4000203108807047000040102E404178027809020A4306498A80C2788378120213430B814279007912021043888170470000001F2E4010B50446E820FFF71BFB207816
:406A80002246401CC3B20021E820FBF745FF10BD024A10820248818370470000A0102E40001A2E40024A10820148603081807047A0102E4010B5044688000521FAF772FE3D
:406AC00004490C8204498880200202497230A039088010BDA0102E40001A2E4003490882000202497330A03908807047A0102E4003490882000202497030A03908807047AC
:406B0000A0102E4003490882000202497130A03908807047A0102E40F8B505461C4617460E46084600F090F8054AB90021431582034AA03A80180180024880194455F8BDF8
:406B4000A0102E40A10D0020034A118B8905890D8002084310837047A0102E4030B50E4C238A01251A46012804D0022804D000290BD00CE02A430AE0002908D12A43228220
:406B80005008400020821A4601E05A0852009A4200D0228230BD0000001A2E40054A1082044A6032908B4023984389010143918370470000A0102E40044A118A02230028DA
:406BC00001D0194300E0994311827047001A2E4000B5064A1082054860300181002901D0012000E00020FFF7E7FF00BDA0102E40024A801802880A430280704700102E40A0
:406C000070B5084BC5182C880023080003D104E040085B1C9BB2C607FAD08C439A4022432A8070BD00102E40024A1018405C8007800F7047A10D00200249088201488030E9
:406C400080897047A0102E408000FF3041307047044B02461B8AFF208B4202D902484018805C7047C81500209C0D0020024908820148803000897047A0102E40174902468D
:406C80000B680020002B08D10A605207520F012A04D0022A10D0086012207047112292018A80CA80032252020A810122D2024A8140228A8105220DE0092252028A80CA8089
:406CC000012252030A810322D2024A81012252028A810422CA810A8270470000C81500200A4600B501461046FFF7B2FF00BD38B50C46054600216846009109F011FC00287C
:406D000004D1009928464C7000F0FAFB38BD10B5044680780021FFF73BFE01212046FFF7E7F810BD436E002B0CD00B60014660318B781370826E4266CA788A700021816603
:406D400008467047FF20704710B50346446E6033002C04D0846E002C04D0FF2010BD41669A7001E08166DA70002010BD0021416681667047406E002801D000207047FF2054
:406D8000704770B50446C0790D46810610D5DF210840E07100F048FE0570218941804034218A8180618AC180A18A018101F064FB70BD000010B50446FEF762FE01280AD128
:406DC000A1788C20054A484380186030007FFDF70BFA012801D000F0F7FA10BDF0140020F8B50E460446FDF731F801282BD02079042801D0072825D1F079B779000207435C
:406E0000A0783946FFF7F2FA25464035012820D03A46711C204600F084FA02212046FDF73AFEA07DC107C90F0220FFF797FE688A002807D0E87E002804D103210902082035
:406E4000FFF7B0F8F8BD01222421204600F010FBF8BD282028732046FEF774F9F8BD70B50D460646FDF7ACFD002852D120213046FDF705FB3446687840346073E878202247
:406E80000002E081A9780843E0816879010228790843218A814203D0F1791143F1712082E8790102A8790843618A814203D0F1791143F1716082687A0102287A0843A18A7F
:406EC000E180814203D0F1791143F171A082A08A218A8000FAF766FC401E618A80B2814200D9608201213046FDF7D8FDE87AA97A000201430022304600F02AFB608A0028CD
:406F000007D0E07E002804D1032109020820FFF749F870BDF8B50C4605460027FCF796FF012847D0284EB07AC00709D02846403000900078002806D0102803D01F212CE0B0
:406F40001A212AE001272846FEF700FA002823D02E4680360822611C7068FAF754FD7068617A20300172A17A417270682146183008220B31FAF747FD21462846042213319C
:406F80003430FAF740FD39462846FDF79BFF002810D1002F0FD012E007210322284600F067FAF28A08212846FDF75EFA11212846FDF777FDF8BD06212846FDF775FD009800
:406FC00001210176F8BD0000A814002010B5FDF7B9FF10BD38B504460020009020790D46042801D007281BD12046FCF72FFF012817D0684609F094FA002811D10C486A7832
:40700000807A00991040F12210402075607E082210436076204600F0B3F92046FDF787FD38BD08222421204600F022FA38BD0000A814002070470000F3B581B00446029849
:40704000FEF73AF806462046FEF70FFD002828D0162E04D32046029900F0F7F821E025464035287800220300FAF7D0FE0E1414140808141414080808080808140298154BE2
:40708000017800201F5C8F4204D0401C0728F9D3002A0AD00F49B00008310A58204602999047029809F08CFAFEBDA078FFF720FD002301223D212046FDF782FE3D202873CC
:4070C0002046FFF724FE029809F07AFA2046FEF784F8FEBDFC2D010070B50D460021002801D0002400E00C4C002C14D020464030C177807F032802D12046FEF7F3FD204695
:40710000FFF758FE162D04D20449A800095820468847FEF717FD70BD101500205C2E010010B5014640310C4609780E2903D1FDF74DFF0120207610BD10B54021095C0F2977
:4071400001D1FDF766FF10BD4021095C0F2902D1002120304177704738B5044600220E4800920D46807AF1210840C0060ED52046FEF78CFC012809D0684609F0D1F9002857
:4071800003D12046009900F05DF938BD2946204600F05BF838BD0000A814002010B51021FDF76DF910BD10B54978FDF75BFE10BD10B5FDF736FF10BD01212030417770477F
:4071C00010B54021095C0C2901D1FDF73FFF10BD10B54021095C0D2901D1FDF733FF10BD70B5044600790D46052803D0062801D0082802D12046FDF747FE68784C210855F2
:4072000009212046FDF750FC2046FFF780FD2046FCF71CFE0128A07805D0FFF769FC2046FEF74CFE70BDFFF76DFCF8E710B50446FF21FDF724F916214C200155A078FFF76A
