:400000000040002011000000E9030000E903000080B500AF00F0ECF980B500AF214B12221A6002F02DF8204B181C01F071FE012002F036F8302001F09DFE1C4B1C4A1A6046
:400040001C4B8022D2051A601B4B1B4A126802210A431A60194B1A4A1A601A4B194A126808218A431A60FA23DB00181C01F0CEFE154B181C01F058FF144B802212061A60AB
:40008000134B8022D2021A60124B0820191C01F007FF082001F02AFF064B8022D2051A60BD4680BD30001040001BB70004010B40060000800C020B4078002E407C002E402A
:4000C0002D3E00006CF02E40DC05000008010B4000010B40F121000080B582B000AF72B64F4B00221A60FB1D00221A7023E0FB1D1A78131C5B009B185B004A4A9B183B60D9
:400100003B681A78597809020A43997809040A43DB781B061343191C3B681A795B791B0213439BB2081C191C00F0E6F9FB1D1A78FB1D01321A70FB1D1B78012BD7D93A4A7B
:400140003A4B101C191C00F0E7F9394BEE2212061A60384B992212041A60374B802292021A60364B992212041A60354B802292021A60344B992212041A60334B8022920229
:400180001A60324B992212041A60314B802292021A60304A2F4B1B78DBB202210B43DBB213702D4A2C4B1B78DBB23C218B43DBB214210B43DBB21370264A264B1B78DBB2E2
:4001C00016210B43DBB21370244B01221A60244B244A1A60244B02221A60244B01221A60234B02221A60234B02221A60224B01221A60224B02221A60214B02221A60214B4B
:4002000001221A60204B02221A60204B02221A60FFF702FF00F0C0F9BD4602B080BDC0466CF02E40A0490100AC490100B04901000000024000500F4004500F4010500F40A0
:4002400014500F4020500F4024500F4030500F4034500F4000700F4001700F4000000440080004400200D8000C00044000010440080104400C0104400002044008020440F7
:400280000C02044000030440080304400C03044010B5064C2378002B07D1054B002B02D0044800E000BF0123237010BD200F0020000000009C49010008B5084B002B03D04F
:4002C0000748084900E000BF07480368002B00D108BD064B002BFBD09847F9E7000000009C490100240F0020A80B00200000000080B500AF62B60B4B181C00F0CBF90A4BA3
:400300001B78002B02D0002000F062FA074B1B78002B03D002F0DEFD00F02EF802F0DAFDEDE7C04631030000CC200020A820002080B582B000AF786039607B68282B0ED095
:4003400004D8012B07D0272B0BD00FE04C2B0AD04E2B0AD00AE0074B01221A7006E0C04604E0C04602E0C04600E0C046BD4602B080BDC046A820002090B583B000AFFC1D31
:40038000032002F09FFD031C237072B6BC1D04F04BFD031C2370FB1D1B78032B0DD1BB1D1B78042B03D0BB1D1B78062B16D101F0E9FD0C4B00221A7010E0FB1D1B78022BA2
:4003C00003D0FB1D1B78012B08D1BB1D1B78022B04D001F0BDFD034B00221A7062B6BD4603B090BDA820002080B500AFFEE7C04680B586B000AF224B7B61224B3B61204BC0
:400400007B6135E03B691B68FB603B695B68BB603B699B683B6000237B600CE0FB681A68BB681A60BB680433BB60FB680433FB607B6804337B607A683B689A42EED13B69F6
:40044000DB683B6000237B6008E0BB6800221A60BB680433BB607B6804337B607A683B689A42F2D13B6910333B617B69013B7B617B69002BC6D102F0B3FCFFF739FFFEE792
:4004800001000000EC4E010080B582B000AF154B144A126801218A431A6000237B600FE07B68032B04D8104B7A689200D35800E00E4B0F4A796889008B507B6801337B60AC
:4004C0007B682F2BECD9FFF707FE0A4B00221A60044B044A126801210A431A60BD4602B080BDC0460000104000000000E903000000000020C000002080B582B000AF7860EC
:4005000039607A683B68101C00211A1C02F0A6FCBD4602B080BDC04680B586B000AF7860396000233B6100237B612FE07B699B007A68D3181B68BB600F23FB18BA681A705B
:40054000BB68FF229343BB6018E03B695B003A68D3181B781A1CBB68D318191C3B695B003A68D3185B780B703B6901333B610F23FB181A780F23FB18013A1A700F23FB1842
:400580001B78002BE1D17B6901337B617B69002BCCD0BD4606B080BD80B500AF054B03221A60054B03221A60044B00221A60BD4680BDC0463000304030003140000E3F4075
:4005C00080B500AF1C4B00221A701C4B00221A701B4B00221A701B4B5A881B4B1A80194B9A88194B5A80174B9A79174B1A73154BDA79154B1A71144B0622DA81124B282248
:400600001A82114B00225A820F4B50229A820E4B0022DA820C4B012252421A830B4B1E221A8000F019F80A4B00221A70094B00221A70BD4680BDC0461A2100200421002042
:4006400018210020AC0B0020D8200020F2200020CC200020D420002080B500AF0A4B1B88002B05D1094B181C00210C2202F0F6FB054BDB88002B05D1054B181C00210622C8
:4006800002F0ECFBBD4680BDFC0B00200C210020FC200020B0B594B004AF78603E23FB1800221A802823FA183F4B111C1A1C1423081C111C1A1C02F0C8FB3C4B1B78002B0B
:4006C00004D1FFF77DFF394B01221A707B68002B5FD0374B7A681A603E23FB181B88002B29D11023FB181C22BA185A601023FB182022BA181A601023FB1800221A81202301
:40070000FB181B221A802023FB181B225A802023FB1804221A711C23FB1800221A703E23FC181023FA180E23FB18101C191C02F0A7FC031C23803E23FB181B88002B2CD168
:400740003E23FC181B481C49AE231A012823FD1805230093194B0193194B02932B1C02F0EBFB031C23803E23FB181B88002B14D1144B01221A70144B08221A703E23FC18A8
:40078000124B181C0B2109220FF0EEFA031C238003E03E23FB1801221A803E23FB181B88181CBD4610B0B0BDB44901003C0F0020D0200020B50D0000C8000020805701001E
:4007C00079020000F6200020F7200020D049010090B587B000AF021CFB1D1A701623FB1800221A805D4B1B781A1C012313401ED01623FC18FB1D1B78181C0AF04BFC031CA2
:4008000023801623FB181B88002B10D1534B1B7801229343DAB2514B1A70504B1B781A1C0223134003D01623FB1828221A801623FB181B88002B03D0FB1D1B78002B29D0A3
:40084000464B1B781A1C0223134023D0444B1B78042B1FD8424B1B783D33FF335A00414BD3185A1C1623FC183F49FB1D1B78081C111C02220AF0F4FB031C23801623FB1876
:400880001B88002B06D1354B1B7802229343DAB2324B1A701623FB181B88002B03D0FB1D1B78002B53D02D4B1B781A1C0C2313404DD02A4B1B781A1C0823134022D00C2350
:4008C000FB18181C00210A2202F0C8FA1623FC180C23F918254AFB1D1B78081C111C0A220AF0BEFB031C23801623FB181B88002B07D11A4B1B7808229343DAB2174B1A70B5
:4009000025E024E00823FB1800221A80184B1B783D33FF335A00134BD3185A1C1623FC180823F918FB1D1B78081C111C02220AF097FB031C23801623FB181B88002B06D11B
:40094000064B1B7804229343DAB2044B1A701623FB181B88181CBD4607B090BDCC2000200821002080570100F4200020F95901003D0F002090B583B000AF104B1B78042BA4
:4009800004D0BB1D0422FF321A8011E0BC1D0DF0A3FB031C23800A4B1B88002B01D00AF04BFBBB1D1B88002B02D1044B05221A70BB1D1B88181CBD4603B090BDF6200020DE
:4009C000F220002080B582B000AF78607B681B789AB27B6801331B789BB21B029BB213439BB2181CBD4602B080BDC04690B585B000AF78600F23FB1800221A707B689B89EC
:400A00000B22934237D17B681A1D7B680F217C18101C00211A1C40230FF0BEF9031C23700F23FB181B78002B1DD17B685B68181CFFF7C8FF031C1A1C022313409BB2002BD0
:400A400008D0104B1B68822251007A68081C111C984708E00B4B1B680622FF32111C7A68081C111C9847084B1B78DBB201229343DAB2054B1A700F23FB181B78181CBD467F
:400A800005B090BDD02000201A21002080B582B000AF78607B68DB880D4A934214D10D4B5B88002B08D17B689A880A4B5A807B689A78084B1A7007E0074B1B687A68911DF3
:400AC00086225200101C9847BD4602B080BDC046052A0000FC200020D020002080B582B000AF78607B689B880B4A934210D10B4B9B88002B04D17B685A88084B9A8007E0ED
:400B0000074B1B687A68111D86225200101C9847BD4602B080BDC04602290000FC200020D020002080B582B000AF78600C4B5A887B689B899A420FD10A4B1B6883225100A4
:400B40007A68081C111C9847074B1B78DBB201229343DAB2044B1A70BD4602B080BDC046FC200020D02000201A21002090B585B000AF78600F23FC187B68181CFFF736FF6B
:400B8000031C2370144B1B78DBB21A1C012313401FD10F23FB181B78002B16D00823FB1812229A707B689A890823FB181A800823FB180F22BA181278DA707B680822BA1830
:400BC0001868111C0EF02EFB03E07B6818680EF0ABFBBD4605B090BD1A21002080B582B000AF7860BD4602B080BDC04680B582B000AF7860BD4602B080BDC04680B582B0A4
:400C000000AF7860BD4602B080BDC04680B582B000AF7860BD4602B080BDC04680B582B000AF7860BD4602B080BDC04680B582B000AF7860BD4602B080BDC04680B500AF9F
:400C4000094B00225A70084B00221A70074B1B78052B03D1054B07221A7002E0034B08221A70BD4680BDC04608210020F720002080B582B000AF78607B681B78032B3ED1FE
:400C8000254B1B78DBB21A1C0223134037D0234B1B78022B10D002DC012B05D024E0032B12D0042B18D01FE01D4B1B680822FF32101C0021984717E0194B1B688422520090
:400CC000101C002198470FE0154B1B680A22FF32101C0021984707E0114B1B6885225200101C00219847C0460B4B1B78DBB202229343DAB2084B1A70084B00221A707B68C1
:400D00001B78042B05D1074B1B78042B01D1FFF731FEBD4602B080BD1A210020F7200020D0200020F620002080B500AFBD4680BD80B584B000AF78600E23FB1800221A7042
:400D40007B689B79002B1CD10F23FB1800221A7012E00F23FB181B787A68D35C002B04D00E23FB1801221A700BE00F23FB181A780F23FB1801321A700F23FB181B78052BDC
:400D8000E7D90E23FB181B78181CBD4604B080BD80B582B000AF021CBB1D1A80BD4602B080BDC04680B582B000AF7860BD4602B080BDC04680B588B000AF021C3960FB1D05
:400DC0001A70D64B1B78DBB201221343DAB2D34B1A70FB1D1B78FA2B00D9C7E19A00D04BD3181B689F461023FB1807221A701023FB1800225A701023FB18181C04F058F839
:400E00001023FB1807221A701023FB1801225A701023FB18181C04F04BF8C24B1B68181CFFF786FF031E05D0BE4B1B68181C02F055F82CE0BC4B1B781A1C3F231A40BB4B03
:400E40001B78191C3F230B409B011A43B84B1B78191C1F230B401B031A43B64B1B78191C7F230B405B041343BB61BB69DAB2B24B1A70BB691B0ADAB2AF4B5A70BB691B0C8F
:400E8000DAB2AD4B9A70AC4B181C02F027F803200DF036F80C23FB183F221A700C23FB1800225A700C23FB18181C0DF047F8A34B05221A705BE13B68181CFFF7D9FE56E157
:400EC0003B681A789E4B1A7051E13B687B617B691B78002B18D17B695B78002B0BD1994B0022DA80974B00229A80964B964A1A607B69944A5A60894B1B78DBB2012293432E
:400F0000DAB2864B1A7032E131E1844B1B78DBB21A1C202313400ED18C4B1B78102B02D18A4B0522DA708A4B1A78884B101C191C0CF024FE1BE11AE13B685A78854B1A70CE
:400F400015E13B68181CFFF72DFF10E13B68181CFFF728FF804B1B88002B01D00AF06CF8764B02221A7002E1744B05221A70FEE0724B1B78022B34D0684B1B78DBB21A1CAB
:400F8000012313402DD0654B1B78DBB21A1C042313400BD0694B03221A70604B1B78DBB204229343DAB25D4B1A701AE05B4B1B78DBB21A1C082313400BD0604B05221A70CF
:400FC000564B1B78DBB208229343DAB2534B1A7007E05A4B1B78032B03D1584B05221A70C5E0C4E03B681B88181CFFF7D1FEBEE0574A3B68111C1A1C0223081C111C1A1C8E
:4010000001F023FF4E4B00221A70514B1B783D33FF335A00514BD3180133514A111C1A1C0223081C111C1A1C01F00FFF4D4B00221A70FFF779FE9AE0FFF700FE97E03B6890
:401040005B88162B05D81E23FB183A6852881A8003E01E23FB1817221A803B681E22BA1811881A8800231204120C1B0C1B041343181C0EF0E1F87AE03B68181CFFF776FD73
:4010800075E03B68181CFFF7A9FD70E03B68181C00F08CF86BE03B68181C00F07DFA66E000F0CEFD63E03B68181C00F0ABFC5EE03B68181C00F014FE59E03B68181CFFF775
:4010C0009DFD54E03B68181CFFF72CFD3B68181CFFF79CFD114B1B78DBB21A1C0123134004D13B6818680DF037FD40E03FE03B68181CFFF793FD3AE03B68181CFFF796FD5E
:4011000035E03B68181CFFF771FD30E0164B1B7801221343DAB2144B1A7028E01A210020AC4A0100C00B00207CF1FF0F7DF1FF0F7BF1FF0F78F1FF0FB80B0020F620002027
:4011400004210020400F0020A80B0020080C002008210020D4200020F220002080570100F4200020F7200020CC200020C0460D4B1B78DBB21A1C112313400FD0094B1B78D5
:40118000DBB201229343DAB2064B1A70064B1B68FA1D11783A68081C111C9847BD4608B080BDC0461A210020D020002080B586B000AF78600023FB60664B1B78012B00D0E3
:4011C000C5E0654B1B78DBB21A1C0223134000D1BDE00A23FB187A6812891A800A23FB181B88062B05D00A23FB181B88142B00D0A6E00823FB187A6852891A801423FB18C7
:4012000000221A808AE07B685A681423FB181B88D318FB601323FB1800221A70FB681A884E4B1B889A4200D26EE0FB681A884B4B5B889A4200D967E00A23FB181B88062BF0
:4012400062D11623FB1800221A8053E01623FB181A884349131C5B009B185B00CB189A88FB689B889A423ED11623FB181A883C49131C5B009B185B005B5A002B13D1162370
:40128000FB181A883649131C5B009B185B00FA68CB18111C0422181C01F0D7FD1323FB1801221A701FE01623FB181B88002B0ED11623FB181B885A1C2949131C5B009B18CF
:4012C0005B00CB189A88FB689B889A420BD0254B1B68FA68111D0C22FF32101C98471323FB1801221A701623FB181A881623FB1801321A801623FB181B88012B04D813233A
:40130000FB181B78002BA1D01423FB181422B9180A22BA18098812888A181A801423FA180823FB1812881B889A4200D26BE70A4B1B78DBB201229343DAB2074B1A7006E035
:40134000084B1B680822FF32101C00219847BD4606B080BDF72000201A210020F8200020FC0B0020D020002080B582B000AF021CFB1D1A70FB1D1B78002B06D0324B1B7887
:401380000133DAB2304B1A7002E02F4B00221A7005E02D4B1B780133DAB22B4B1A702A4B1B78012B19D8284B1B78191C274A0B1C5B005B185B009A5A254B1B889A42E8D3F1
:4013C000214B1B78191C214A0B1C5B005B185B009A5A1F4B5B889A42DBD81B4B1B78012B28D8194B1B781A1C131C5B009B185B00164A9918174B1A785B781B021A430023CF
:401400001204120C1B0C1B041343181C0DF0DEFB031E15D0104B1B6884225200101C002198470E4B1B78DBB202229343DAB20B4B1A7005E00A4B03221A70002000F02CFACC
:40144000BD4602B080BDC04619210020FC0B0020F820002008210020D02000201A210020F720002080B582B000AF78607B68DB88434A934238D0424A934207DCA822920191
:4014800093420DD03F4A93421CD075E03E4A93424ED03D4A934239DB3C4A93425AD06BE03B4B1B88002B04D17B689A88384B1A8062E0384B1B687A68911D86225200101CD7
:4014C000984759E0324B5B88002B04D17B689A882F4B5A8050E02F4B1B687A68911D86225200101C984747E0294B9B88002B04D17B689A88264B9A803EE0264B1B687A6817
:40150000911D86225200101C984735E0204BDB88002B04D17B689A881D4BDA802CE01D4B1B687A68911D86225200101C984723E0174B1B89002B04D17B689A88144B1A81BA
:401540001AE0144B1B687A68911D86225200101C984711E00E4B5B89002B04D17B689A880B4B5A8107E00B4B1B687A68911D86225200101C9847C046BD4602B080BDC04643
:40158000022A0000012A0000042A0000A62A00000C210020D020002080B592B000AF7860B64B1B78DBB21A1C0223134000D161E13E23FB187A6812891A803C23FB187A68BA
:4015C00052891A807B685B683B64AD4B1B78032B00D099E04623FB1800221A808AE03B6C181CFFF7EFF9031C1A1C2423FB181A803B6C02333B643B6C1A782423FB189A7073
:401600003B6C01333B643B6C181CFFF7DBF9031C1A1C2423FB189A803B6C02333B643E23FB181B88152B20D12423FB1802229A752423FB180622396C9B181022181C01F041
:4016400004FC3B6C10333B648E4B1B78191C8E4A0B1C5B005B185B00D3189B881A1E8B4B9A4200D000E0C04632E03E23FB181B88072B2DD12423FB1801229A753B6C181CAA
:40168000FFF7A0F9031C1A1C2423FB18DA803B6C02333B647B4B1B78191C7B4A0B1C5B005B185B00D3189B88C0225201934203D0774A934206D00BE02423FB18181CFFF7AE
:4016C000D1FE05E02423FB18181CFFF7DFF9C0466A4B1B78DBB201229343DAB2674B1A704623FB184622B9183E22BA18098812888A181A804623FA183C23FB1812881B88C6
:401700009A4200D26BE7B5E05D4B1B78022B00D0B0E04623FB1800221A80A2E03B6C181CFFF750F9031C1A1C0C23FB181A803B6C02333B643B6C181CFFF744F9031C1A1C69
:401740000C23FB185A803B6C02333B643B6C181CFFF738F9031C1A1C0C23FB189A803B6C02333B643E23FB181B88062B04D10C23FB1802229A7562E03E23FB181B88082B86
:401780005DD10C23FB1801229A753B6C181CFFF719F9031C1A1C0C23FB18DA803B6C02333B644423FB1800221A8033E04423FB181A883549131C5B009B185B00CB189A88B8
:4017C0000C23FB18DB889A421DD14423FB181A882D49131C5B009B185B005B5A002B12D14423FB181A882849131C5B009B185B000C22BA180220C91813180422081C191CBB
:4018000001F023FB0BE04423FB181A884423FB1801321A804423FB181B88012BC6D9194B1B78191C184A0B1C5B005B185B00D3189B881A1E174B9A4200D000E0C0460F4BF1
:401840001B78DBB201229343DAB20C4B1A704623FB184622B9183E22BA18098812888A181A804623FA183C23FB1812881B889A4200D253E7BD4612B080BDC0461A2100201F
:40188000F720002019210020FC0B0020FEFF0000011800001218000080B582B000AF021CFB1D1A70FB1D1B78002B06D0354B1B780133DAB2334B1A7002E0324B00221A70C8
:4018C00005E0304B1B780133DAB22E4B1A702D4B1B78012B19D82B4B1B78191C2A4A0B1C5B005B185B009A5A284B1B889A42E8D3244B1B78191C244A0B1C5B005B185B0072
:401900009A5A224B5B889A42DBD81E4B1B78012B2FD81C4B1B78181C1D491B4A031C5B001B185B00087849780902084300210004000C090C09040143985AD3185B881B0497
:40194000034300221A1C081C111C0DF023F9031E15D0104B1B680A22FF32101C002198470D4B1B78DBB202229343DAB20A4B1A7005E00A4B04221A70002000F0D3F8BD464D
:4019800002B080BD19210020FC0B0020F820002008210020D02000201A210020F720002080B582B000AF3B1C00221A803B1C00225A80114B1B78002B09D1104B5B880133B2
:4019C0009AB23B1C1A800E4B1A893B1C5A803B1D3A1C12681A603A1D002311880904090C1B0C1B040B43528812041B041B0C1343181CBD4602B080BD19210020FC200020CA
:401A0000FC0B002080B58AB000AF78600823FB1800225A80404B1B78042B00D079E03F4B1B78DBB21A1C0223134000D171E01E23FB187A6812891A807B681A7B0823FB183E
:401A40001A750823FB187A6812881A800823FB181B7D012B04D12623FB1804221A8003E02623FB1812221A807B685B683B622423FB1800221A803CE03B6A181CFEF7A2FF9F
:401A8000031C1A1C0823FB185A803B6A02333B620823FB181B7D022B0CD10823FB183A6A0433111C1022181C01F0CFF93B6A10333B6214E03B6A181CFEF784FF031C1A1CDE
:401AC0000823FB189A803B6A02333B62144B1B78002B04D10823FB18181CFEF7FFFF2423FB182422B9182622BA18098812888A181A802423FA181E23FB1812881B889A4208
:401B0000BAD3064B1B78DBB201229343DAB2034B1A70BD460AB080BDF72000201A2100201921002080B584B000AF021CFB1D1A700C23FB1800221A800C23FB1800225A8050
:401B4000FB1D1B78002B06D0374B1B780133DAB2354B1A7005E0344B00221A70FB1D01221A70FFF71DFF031C1A1C0C23FB181A600C23FB181A882D4B1B889A4215D90C23EA
:401B8000FB181A88294B5B889A420ED80C23FB185A88264B1B889A4207D30C23FB181A880C23FB185B889A4203D91F4B1B78002BC6D01D4B1B78002B21D11D4B0C22B9186B
:401BC0001A785B781B021A4300231204120C1B0C1B041343181C0CF0C7FF031E21D0154B1B6885225200101C00219847124B1B78DBB202229343DAB20F4B1A7011E00F4BD1
:401C000005221A700B4B1B681222FF32101C00219847094B1B78DBB202229343DAB2064B1A70BD4604B080BD19210020F820002008210020D02000201A210020F720002043
:401C400080B500AF244B1B78DBB21A1C022313403FD0224B1B78022B17D002DC012B05D037E0032B1DD0042B27D032E01B4B02221A700020FFF778FB174B1B78DBB2012295
:401C80009343DAB2144B1A7023E00120FFF76CFB114B1B78DBB201229343DAB20E4B1A7017E00120FFF7F8FD0B4B1B78DBB201229343DAB2084B1A700BE00120FFF732FF66
:401CC000054B1B78DBB201229343DAB2024B1A70C046BD4680BDC0461A210020F720002080B582B000AF7860074B1B78DBB21A1C0223134005D07B689B790A2B01D1FFF763
:401D00009FFFBD4602B080BD1A210020000000000230800803D00138FDD1C046C046C0467047EFF3108072B6704780F31088704790B585B000AF78600F23FC18FFF7F1FF1B
:401D4000031C2370094B7A6807210A40D104074A1268074802400A431A600F23FB181B78181CFFF7E2FFBD4605B090BD00010B40FFFFC7FF90B58BB000AF78602723FC18B4
:401D8000FFF7CFFF031C2370184B1A680C23FB181A60174B1A680C23FB185A607B68033B144AD35C1A1C0C23FB189A60124B1A680C23FB18DA601C23FB18104A1A600C235C
:401DC000FA181C23FB185A600D4B1C22BA181A600C4B0D4A1A600A4B1B682723FB181B78181CFFF7A2FFBD460BB090BD08010B4000010B40984E010030001040B6EA000076
:401E000008001040040010401700008080B584B000AF78600023FB60154B154A126801210A431A60134B144A1A60144B134A1268802109020A431A607B68002B12D01023CD
:401E4000FB600CE0012000F06FF800F019F8031E02D00023FB6005E07B68013B7B607B68002BEFD1FB68181CBD4604B080BDC04660F02E4078002E400220000010002E40AF
:401E800080B582B000AF054B1B68012213407B607B68181CBD4602B080BDC0460C002E4080B584B000AF021C3960FB1D1A7080239B05FB60FB1D1B781F2B02D9002000F070
:401EC00029F8FB1D1B7810339B00FA68D3181B68BB60FB1D1B7810339B00FA68D3183A681A60BB68181CBD4604B080BD80B582B000AF021CFB1D1A70054BFA1D12781F2109
:401F00000A40012191400A1C1A60BD4602B080BD00E100E080B582B000AF021CFB1D1A7001BEBD4602B080BD80B582B000AF021CBB1D1A80BB1D1B88044A12785343181CC7
:401F4000FFF7E6FEBD4602B080BDC046180C002090B583B000AFFC1DFFF7E3FE031C2370074B074A126804218A431A6030BFFB1D1B78181CFFF7D9FEBD4603B090BDC04655
:401F800010ED00E090B583B000AFFC1DFFF7C9FE031C2370114B114A1268520052081A600F4B104A128892B21A600F4B0E4A126804210A431A600D4B1B683B600220FFF78C
:401FC000B7FE30BF094B3A681A60FB1D1B78181CFFF7ABFEBD4603B090BDC04600000B400C000B4052F1FF0F10ED00E000010B4080B500AF0E4B0E4A126801218A431A60B2
:402000000B4B0B4A126802218A431A60094B094A126830218A4310210A431A60054B054A126807218A4301210A431A60BD4680BD00F02E4000FF2E4080B500AF0E4B0E4A43
:40204000126802218A431A600C4B0C4A126807218A4302210A431A60084B084A126830218A4320210A431A60034B034A126801210A431A60BD4680BD00F02E4000FF2E4028
:4020800080B500AFFFF7B4FF044B044A1268802109060A431A60BD4680BDC04600F02E4080B584B000AF78600C4B1B6801221340FB607B68002B02D0012B03D005E0FFF70C
:4020C00097FF06E0FFF7B8FF03E00020FFF722FFC046FB68181CBD4604B080BD00F02E4090B583B000AFFC1DFFF71BFE031C2370074B074A1268C02109020A431A60FB1DC5
:402100001B78181CFFF711FEBD4603B090BDC04600010B4080B500AF054B1A68C0231B02134001D0012300E00023181CBD4680BD00010B4090B583B000AFFC1DFFF7F1FD99
:40214000031C23700C4B0C4A12680C490A408021C9010A431A60084B074A126807490A40802109020A431A60FB1D1B78181CFFF7DCFDBD4603B090BD00010B40FF3FFFFF51
:4021800090B585B000AF78600B23FC18FFF7C9FD031C2370FFF7BEFF031E04D00123FB60FFF7C8FF01E00023FB607B680D4A13407B600D4B0C4A12680C4911407A680A43C6
:4021C0001A60094B1B68FB68012B01D1FFF788FF0B23FB181B78181CFFF7A7FDBD4605B090BDC0460404040010020B40FBFBFBFF80B500AF334B1B68042213401FD0324BE0
:402200001B680422134017D0304B1B6804221340DA432D4B1B681A402B4B1A602B4B1B68042293431A1C294B1A60294B1B68002B02D0274B1B6898470420FFF7A1FF214BDB
:402240001A688023DB00134022D01F4B1A688023DB00134017D01D4B1A688023DB001340DA43194B1B681A40174B1A60174B1B68184A1A40154B1A60154B5B68002B02D0E5
:40228000134B5B6898478023DB00181CFFF778FF0C4B1A688023DB02134011D00A4B1A688023DB02134006D0094B9B68002B02D0074B9B6898478023DB02181CFFF760FF61
:4022C000BD4680BD10020B40200C0020500F0020540F0020FFFBFFFF80B5ACB000AFF860B960BB1D1A800023A422BA1813600023A022BA181360BB689422BA181360BB1D8A
:402300001A889423FB181B68D318594A934200D994E09423FB181B68DB09AC22BA181360AC23FB181B68DB019C22BA18136077E000239822BA1813600023A822BA181360CB
:4023400050E09C23FB181A689423FB181B689A422DD3BB1D1A88A423FB181B689A4226D9FA68A423FB181B68D31819781423FA18A823FB181B68D3180A1C1A709C23FB18AC
:402380001B681B78DAB2F968A423FB181B68CB181B789A4203D001239822BA181360A423FB181B680133A422BA1813600CE09C23FB181B681B78D9B21423FA18A823FB1853
:4023C0001B68D3180A1C1A709C23FB181B6801339C22BA181360A823FB181B680133A822BA181360A823FB181B687F2BA9D99823FB181B68002B0CD0AC23FB181A6814230F
:40240000FB18101C191C00F01FFA031CA022BA181360AC23FB181B680133AC22BA181360BB1D1A88A423FB181B689A420AD9A023FB181B68002B00D17AE703E00123A02238
:40244000BA181360A023FB181B68002B09D0A023FB181B68012B04D001235B42A022BA181360A023FB181B68181CBD462CB080BDFFFF010080B582B000AF78600A1CBB1C06
:402480001A80BB1C1A887B681A60BD4602B080BD80B582B000AF78600A1CBB1C1A80BB1C1A887B681A60BD4602B080BD80B584B000AF494B1B78DBB21B02484A1278D2B2E4
:4024C0001343FB60464B1B78DBB21B02454A1278D2B21343BB60BB68434A934207D1FB68072B04D1414BBB600423FB6009E0BA68D4231B019A4204D1FB68042B01D13B4BA6
:40250000BB603B4BBA681A603A4BFA681A603A4B1B78DBB21B02394A1278D2B21343FB60FA6880239B019A4202D0FB68002B01D1334BFB60334BFA681A60334B1B78DBB279
:402540001B02324A1278D2B21343FB60FB68304A934206D0FB682F4A934202D0FB68052B01D12D4BFB602D4BFA681A602C4B1B681B097B602B4B1B68AA2B29D17B68012B9C
:4025800026D9214B1B78DBB20E2B21D1264B1B78DBB29BB21B0299B2244B1B78DBB29AB2BB1C0A431A80224BBA1C12881A60214B1B78DBB29BB21B0299B21F4B1B78DBB264
:4025C0009AB23B1C0A431A801C4B3A1C12881A60BD4604B080BDC046D9F0FF0FD8F0FF0FDFF0FF0FDEF0FF0F580B0000580D00006C002E4074002E40DBF0FF0FDAF0FF0FEB
:402600000220000078002E40DDF0FF0FDCF0FF0F0F0F000005050000050F000080002E40EC0F00F0E00F00F06DF2FF0F6CF2FF0F84002E406FF2FF0F6EF2FF0F94002E403F
:4026400080B582B000AF021CBB1D1A80BB1D1B88181CFFF769FCBD4602B080BD80B500AF00F0DEF8BD4680BD80B500AF00F0E2F8BD4680BD80B500AF00F0DCF8044B181CB5
:4026800000F09CF8032000F0A5F8BD4680BDC046D12A000080B500AF024B181C00F07CF8BD4680BDD12A000080B500AF0223FF33181CBD4680BDC04680B582B000AF7860FE
:4026C0002B23181CBD4602B080BDC04680B582B000AF78602B23181CBD4602B080BDC04680B582B000AF78602B23181CBD4602B080BDC04680B582B000AF78602B23181C20
:40270000BD4602B080BDC04680B582B000AF78602B23181CBD4602B080BDC04680B582B000AF78602B23181CBD4602B080BDC04680B582B000AF78602B23181CBD4602B0AC
:4027400080BDC04680B582B000AF78602B23181CBD4602B080BDC04680B500AF2B23181CBD4680BD80B582B000AF021CFB1D1A702B23181CBD4602B080BDC04680B582B051
:4027800000AF786039602B23181CBD4602B080BD80B500AFBD4680BD80B582B000AF786000F048F87B68181C00F008F8032000F011F800F035F8BD4602B080BD80B582B0AA
:4027C00000AF7860024B7A681A67BD4602B080BD0000002090B585B000AF021CFB1D1A700623FB600B23FC18FFF79BFA031C23700A4B0A4A1268C0218A43111CFA1D107807
:40280000FA689040021C0A431A600B23FB181B78181CFFF78AFABD4605B090BD0CE400E080B500AF024B802252011A60BD4680BD00E100E080B500AF024B802252011A60E9
:40284000BD4680BD80E100E090B5A9B000AF7860396000239822BA18136000239422BA1813607B684D4A934200D98CE03B68002B00D188E00C23FB1808331A1C3B68101CBC
:40288000191C802200F0E1FA7B68454A934201D9444A00E0444A0C23FB181A600C23FB187F225A60414B0C22BA181A60404B414A1A603E4B1B681B0F1A07A0231B069A4253
:4028C00004D03A4B1B680F22134000E000239822BA1813609823FB181B68002B52D19F23FC18FFF71EFA031C237000F069F8031C9422BA1813609423FB181B68002B05D188
:4029000000F08EF8031C9822BA1813609823FB181B68002B24D10C23FB18274A1A600C23FB181A687B681B041A430C23FB181A601E4B0C22BA181A601D4B204A1A601B4BF1
:402940001B681B0F1A07A0231B069A4204D0174B1B680F22134000E000239822BA1813609423FB181B68002B05D100F081F8031C9422BA1813609F23FB181B78181CFFF727
:40298000D4F904E003E004239822BA1813609823FB181B68181CBD4629B090BDFF030000FF010000B6D70001B6D70000080010400400104004000080B6D80000050000804F
:4029C00080B584B000AF0023FB603B1D0F4A1A600F4A3B1D5A600F4B3A1D1A600E4B0F4A1A600C4B1B681B0F1A07A0231B069A4204D0084B1B680F22134000E00023FB60E3
:402A0000FB68181CBD4604B080BDC046B6E900009820002008001040040010401600008080B582B000AF00237B600D4B0D4A1A600D4B0E4A1A600A4B1B681B0F1A07A023FF
:402A40001B069A4204D0064B1B680F22134000E000237B607B68181CBD4602B080BDC04608001040B6E80000040010401500008080B584B000AF0023FB603B1D0F4A1A60A0
:402A80000F4A3B1D5A600F4B3A1D1A600E4B0F4A1A600C4B1B681B0F1A07A0231B069A4204D0084B1B680F22134000E00023FB60FB68181CBD4604B080BDC046B6EA0000B2
:402AC0009820002008001040040010401700008080B500AF11F04EFFBD4680BD002243088B4274D303098B425FD3030A8B4244D3030B8B4228D3030C8B420DD3FF2209020E
:402B000012BA030C8B4202D31212090265D0030B8B4219D300E0090AC30B8B4201D3CB03C01A5241830B8B4201D38B03C01A5241430B8B4201D34B03C01A5241030B8B42A1
:402B400001D30B03C01A5241C30A8B4201D3CB02C01A5241830A8B4201D38B02C01A5241430A8B4201D34B02C01A5241030A8B4201D30B02C01A5241CDD2C3098B4201D35A
:402B8000CB01C01A524183098B4201D38B01C01A524143098B4201D34B01C01A524103098B4201D30B01C01A5241C3088B4201D3CB00C01A524183088B4201D38B00C01AB5
:402BC000524143088B4201D34B00C01A5241411A00D20146524110467047FFE701B5002000F0FCF802BDC0460029F7D003B5FFF775FF0EBC4243891A1847C04603460B4325
:402C00007FD4002243088B4274D303098B425FD3030A8B4244D3030B8B4228D3030C8B420DD3FF22090212BA030C8B4202D31212090265D0030B8B4219D300E0090AC30B9D
:402C40008B4201D3CB03C01A5241830B8B4201D38B03C01A5241430B8B4201D34B03C01A5241030B8B4201D30B03C01A5241C30A8B4201D3CB02C01A5241830A8B4201D3A4
:402C80008B02C01A5241430A8B4201D34B02C01A5241030A8B4201D30B02C01A5241CDD2C3098B4201D3CB01C01A524183098B4201D38B01C01A524143098B4201D34B01A6
:402CC000C01A524103098B4201D30B01C01A5241C3088B4201D3CB00C01A524183088B4201D38B00C01A524143088B4201D34B00C01A5241411A00D20146524110467047C1
:402D00005DE0CA0F00D04942031000D34042534000229C4603098B422DD3030A8B4212D3FC22890112BA030A8B420CD3890192118B4208D3890192118B4204D389013AD024
:402D4000921100E08909C3098B4201D3CB01C01A524183098B4201D38B01C01A524143098B4201D34B01C01A524103098B4201D30B01C01A5241C3088B4201D3CB00C01A95
:402D8000524183088B4201D38B00C01A5241D9D243088B4201D34B00C01A5241411A00D20146634652415B10104601D34042002B00D54942704763465B1000D3404201B5E5
:402DC000002000F00BF802BD0029F8D003B5FFF715FF0EBC4243891A1847C0467047C0460E4B70B500251E1C0D4CE41AA410A54204D0AB00F35898470135F8E712F064F84F
:402E0000084B00251E1C084CE41AA410A54204D0AB00F35898470135F8E770BDD44E0100D44E0100D44E0100DC4E010030B50024944208D0035D651C0C5DA34201D0181B8A
:402E400002E02C1CF4E7002030BD002310B5934203D0CC5CC4540133F9E710BD031C8218934202D019700133FAE77047134A1088810703D08107890F401A001D1179103029
:402E8000484381B25088820703D08207920F801A001D800040180A494030098980B2CA0701D0503080B2890706D504495422091F09785143081880B2704700002A0C0020C2
:402EC000640F002010B501F017FF10BD10B501F029FF10BD10B500F04FFA10BD10B50749044609780220002907D1204601F06AFF002802D120460BF0D5F810BD9E0D0020AC
:402F000070B504460120002C12D02368002B0FD0616800290CD0074D06222889208118462968FFF792FF6968606809780170002070BD0000640F0020FFB585B00027684623
:402F40000E9D07734C481C460078002802D0082009B0F0BD10990F9801900095029105A807C800F0FBF80028F2D16946264603AB84460873002C19D0002115E08A00B75A0F
:402F8000082F09D990198078002805D0083FB7521878401C187005E0002915D00027B75290198770491CC9B2A942E7D360460028CED10F9800280AD0109901F051FA00064D
:402FC000000E04D00120C3E701208446EEE701F0A9FE2948002101610C300599016021888180022D03D3A1798171A17AC17100211EE0481C19E082008B00A75AE65ABE46C7
:40300000BE4211D26F463E80B4461E190296B678BE7001967646E6521719029EBB78B3706646A652019EBE70401CA842E3D3491CA942DED3114800906846037B22460799D9
:40304000069800F013F9002882D168460A4C007B60700A4801F096FE0028B4D1204607490C3007F09FFF0028ADD107F0B9FF0028A9D1012121706BE7240C0020640F002002
:40308000F8B5054633480E460078002802D002242046F8BD002E5BD000242F49002D16D02A89D0070DD02868002808D003881B3BE12B04D24088FB2801D81B2801D20124D5
:4030C00009E0900707D56868002804D1F7E70020088108604860002CDAD11F482F8907811C481B21801D018041800421017119490020891C0870F80705D016480622801DE6
:403100002968FFF7A2FE1449B80703D56A681148127882700F480D46801D0860001F486001F076FE0B48801D01F064FE28890DF0B3FE28890DF0E8FF03461033FFF796FEA5
:403140001F21C018890140180249308088809FE701249DE7240C0020640F0020FFB58446384F1C460020BB883F78054602460646002F11D100290ED0029999420BD36146CD
:40318000002908D0002C06D00A99002906D02E4B0B99994202D2012004B0F0BD002144E0AB001F19BF78002F3BD0E35A002B38D07B43591889B22B0000F04AF8050410161D
:4031C0001C253100A7782388BC46FF27233BEB37BB4222D26346032B1FD322E0A388002B1FD0302B19D31CE02389002B19D0282B13D316E0A289002A13D01346134F233B67
:40320000BB420AD20DE0268A002A0AD033460F4F233BBB4201D2964203D901200EE0002001E000280AD16D1CEDB2099B9D42B7D31C2463435B1802998B42ACD89642AAD874
:40324000AAE70000240C002079020000BAFF000030B47446641E2578641CAB4200D21D46635D5B00E31830BC18470000FFB583B0002469460C801F4606468C80002806D078
:403280000598002803D004983043800701D0012467E0002FFBD03449049809888842F6D3FFF7F8F9FFF7E0F900F010FC002856D100F054FD002852D12C49084601F004F92E
:4032C00005042D0C4BD12A480499066081800021C18007810C98007AC00704D0684601F03AFD040007D10C98007A800703D501A801F03AFD0446BF1DFEB2002C21D13146EC
:40330000059800F05DF804001BD10DF00BFF0406240E16D16A461088928808368518144AF1B29088D288AEB29319984207D3401B801A80B201F0B8FB050007D000E0FF2576
:40334000012400F05BFA002D04D008E0F8B200F01BF9F6E700F07EFA06490120087000F0C7FB204607B0F0BD280C0020AD340000700F0020380C002010B5034800780128BA
:4033800001D101F033FA10BD380C002070B5084B0446DA889E8800205518B54206D81D68AA182260DA885118D98070BD032070BD700F00200148008970470000700F00200F
:4033C000F0B587B007460D4600208900009006916846FFF7DBFF844600285DD1304800990160002117E02E4B88001A680629115406D22C4C0419667882185670628805E0C8
:40340000C419203CA67A8218567022891B68C018491C4280C9B2A942E5D300242DE0601CC2B2059025E01E4FA30039689600581840887118039604904E88B04217D9384662
:403440006F46FE80B6464F786E4677710297049F4F800168039F5E18767879184E700168764659184E800068029F18184770521CD2B2AA42D7D30598C4B2AC42CFD36046CC
:40348000002809D168460699FFF780FF8446002802D1054900980860604607B0F0BD00003C0C0020004F0100400C00207047000010B5002809D005494A68002A05D0011F6B
:4034C00008788000105801F09DFA10BD3C0C002010B50446FFF76EFFC0B2801DA0420CD307484068002808D0A100405801F0FCF9002801D00470001D10BD002010BD00000B
:403500003C0C0020F8B516460D460446FFF752FFC0B2801DA04203D20020C0430090F8BDB2B2E9B2684601F005FA0099481C03D0024AA000526811500098F8BD3C0C0020DF
:40354000F8B50746FFF736FF801DC6B20A49002005460C680DE06178002907D06188B94202D32078FFF7B4FF002804D1241D6D1CEDB2B542EFD3F8BD3C0C002010B50028F6
:4035800001D0FFF795FF10BD70B506460948002504680BE06178002905D062882078121D0023FFF7AFFF241D6D1CEDB2B542F1D370BD00003C0C0020FFB581B00A9C1600FC
:4035C0002BD000F0F1F80546042826D0214F002C0BD02046FFF7B4FF2901C919486000281BD022460499FFF730FC1A4928010E5046187481019805707D20029CC000444349
:4036000000F0C0F8009004280AD000F055FAA0420ED800F051FA201A06E0FF2005B0F0BD204600F0ADFA0020B08135720020F5E700F042FA074600F0B9FA381B87B2384652
:40364000012100F0EFF800980101024808188781E6E700007C0F0020F8B5060117483418217A042903D0A089002802D018E00020F8BD00F021FA054600F098FA00F0A2F881
:4036800004280DD001010D480F18B88941198DB2002100F0C7F80020B881284600F070FA6068064D002801D0FFF768FF042020720020A8516081A081D9E700007C0F00200B
:4036C000FEB500266A46304601232549050169180D7A042D02D0898900291BD000211154401CC0B20428F0D300246846005D002830D01B482101081841894768056802914A
:403700000021016041600422418102728181002E02D015E01354E3E700F054F804280ED001010F480818019086890021304600F079F8019800218181304600F021FA012627
:40374000002D07D038460299A847002F02D03846FFF714FF641CE4B2042CC6D3FEBD00007C0F00200EB5002005216A460090118150810348694600680EF049FB0EBD000055
:40378000440C0020074A0020010189180B7A042B02D08989002903D0401CC0B20428F3D3704700007C0F00200549002002015218127A042A03D0401CC0B20428F6D37047ED
:4037C0007C0F002030B50A4B04200A4C00210A011219157A042D06D09289002A03D09A4201D808461346491CC9B20429EFD330BDFFFF00007C0F00207047000030B50020E8
:40380000074C05460423020111190B72A5504D60401C4D81C0B28D810428F4D330BD00007C0F002030B5094C00231A011219157A042D04D09589002906D02D1895815B1C1C
:40384000DBB2042BF1D330BD2D1AF7E77C0F0020002070471CB5002469460C70142001902346054A05480EF0D7FA04480068401C00D1FF2420461CBDD1380000440C0020BF
:403880003EB5124A0146FF2000230124126800290DD0012914D0042908D104206946009308814B8110460EF0B2FA80B23EBD6846009304814381694610460EF0A3FAF4E78A
:4038C00068460093048143816946EBE7440C002070B545890468416800890300FFF7B8FC08280509091E22282628002006F038F91EE0022908D0C8B22A4621460CF062FC1F
:403900002046FFF73BFE13E002202A4621460CF059FC2946204600F00DF809E000200DF065FF05E02046FFF7CBFE01E0FEF730FF002070BD014B0022DB681847480C0020A1
:4039400070B5448905680089022803D0032809D0FF2070BD2246094C0023A46829460120A04708E0FFF7B2FA241DA2B200232946022007F0C8F9002070BD0000480C002063
:4039800070470000024800214160018041807047480C002070B50C46002186B016460391012802D0022859D116E003A9012007F00AFA01281BD1039D324621462846FFF714
:4039C00044FA0095287801900220694608814E816846FFF7B5FF41E0214D002B686809D0049004A9022007F0EEF901281DD0022006B070BD002812D0298840182146FFF713
:403A000024FA28880024801980B228806988091D884206D12C801348FFF792FF03E00320E6E788421AD96C6018E004986860E278A378110219430B4A698000231060E35635
:403A40005360032313815181A1788170E178C1706178417021780170042028800020C7E7480C0020BC0F00203EB515460C46022803D004280CD000203EBD009101900220E2
:403A80006946088107484A8100680EF0C0F907E00CF098FB044B0022DB6829462046984701203EBD440C0020480C0020014AD16090607047480C0020034801688068081A62
:403AC0000A21484300097047C80F002010B5FEF7D1FD482204490548FFF7B7F903490120C870002010BD00001C4F0100CC13002010B5FEF7B3FD10BD70B5134C2368002BB9
:403B000008D0207B1149C20705D04008400020738868A08070BD88680B4AA18880B29268814203D90A4D691A091802E0814202D2411A5118A160A080A0689842EAD30EF093
:403B400083F900F013F870BDC80F0020C0102E40FFFF000010B508461946FFF7A7FF10BD704710B5FFF780FF10BD000003480021016041608160C16070470000C80F0020B7
:403B8000024610B5FF20002A0CD0FFF7EFFF064C0321207B0843207310010A21FFF724F82060002010BD0000C80F002000B504480A21806848430209FFF7D8FF104600BDC4
:403BC000C80F00200248007B8007C00F70470000C80F002010B544490868002802DA434B01221A70022290430860414800693E49C00B4031096A08425ED0012000F0B8FA42
:403C00003B483C497C30FEF743FC37480E216C30FEF73EFC364820218430FEF739FC344814219C30FEF734FC3148FF21C131A430FEF72EFC2E48FF212F31B030FEF728FC77
:403C40002B482D49BC30FEF723FC29482B49AC30FEF71EFC29492648491CB430FEF718FC23482749B830FEF713FC21482549CC30FEF70EFC1E4824490830FEF709FC1C4857
:403C80002249A830FEF704FC194821498830FEF7FFFB17481F498C30FEF7FAFB14481921C9029030FEF7F4FBFEF700FCFEF7FCFCC0B2022802D00FE0FF2010BD1649174803
:403CC000FEF7E6FB15481649001DFEF7E1FB134800210830FEF7DCFB54200449C043891C0870002010BD000000F02E40580C002000002E4055650000320300002F3F000049
:403D00003102000010520000EC160000FA12000031D000003AE300009956000080012E40F80F000070B50646581C80B245086D00002408E0304600F0A9F81055000A111960
:403D4000A41C4870A4B2AC42F4D3D80705D0D0182038D15CC47FD454C17770BD10B5FF2000F006FA0F49FF2048700E481021801D41800121417001700A490020C91C487093
:403D8000FFF728FF04000AD100F01AF907210648FEF770FB044807211830FEF76BFB204610BD0000580C0020CC112E4070B5002405465B1E0AE0284600F068F8010A161926
:403DC00071702D1D1055A41CADB2A4B29C42F2DB9C4203D1284600F059F8105570BD000070B500210A4D5B1E0AE0541864782602545C344346193480001D891C80B289B247
:403E00009942F2DB994202D1515C4019018070BD00102E40F0B50599091FCFB200217E1E0BE0541864782502545C2C43164D45192C80001D891C80B289B2B142F1DBFC077A
:403E400012D01C78515C24020F4A0C4381180C809C785D78001D210280B2294384182180001D80B2D9780CE059781A7809021143054A84182180001DD9789B78090280B290
:403E8000194380180180F0BD00102E40014940180088704700102E4010B50B490020487000F08EF8002000F089F9002000F076F907210648FEF7DEFA044807211830FEF797
:403EC000D9FA002010BD00005B0C0020CC112E4010B506480078012803D102210448FEF7D7FA02490020C91E087010BD5B0C002070F02E4010B50B46062812D006DC012856
:403F00000CD0032801D1FFF7C7FF10BD0A28FCD00B28FAD105480078107010BDFFF71EFF10BD1146184600F065F910BD5E0C0020F8B5204DAC6A0127A0071F4E002816DA53
:403F4000307806280ED1286A384328621B480069F903084381B219481030FEF799FA042000F006F9134802212830FEF783FAE00711D0062000F0FCF80F49FF20C91E487043
:403F80007078002802D1686B38436863094801212830FEF76FFAE0050BD53078042802D1052000F0E5F80348FF2101312830FEF761FAF8BD40F02E405B0C002000002E40F1
:403FC00010B503212348FEF763FA0120FEF738FB20483038406A204C80076178800F890001431C480C38FEF753FA6078002808D0401E022181401820FEF7E6FEC00008381B
:4040000000E0B82081B21548FEF742FA1348032109021438FEF73CFA10481149B830FEF737FA612189010F48FEF732FA0D480321001FFEF72DFA0C490C48FEF729FA0B48FA
:404040000B496038FEF724FA084801218838FEF71FFA10BD70F02E405E0C0020D8102E4090890000041E2E40FF0F000058122E4020900000044800684007400F022801D002
:40408000002070470120704700010B4000B5FFF7F1FF002805D009480168C908C900016000BD0748016A490849000162054801690122D2039143016100BD000000010B4056
:4040C00040F02E4000002E400849087806280BD148780749002803D1486B400840004863C86A01221043C862704700005B0C002040F02E4001480078704700005B0C00203A
:4041000002484078022800D001207047580C002000B50300FFF79CF8080D050D0B070507090D012000BD032000BD042000BD022000BDFF2000BD0000074A9168D26889B271
:40414000064B92B2994204D105498A4201D1012100E000210170704780002E4033D000003FE3000001494870704700005B0C002010B50446FEF778FA072C01D9FF2C01D1F0
:4041800002480470FEF76AFA10BD00005B0C00200149487070470000580C002010B5064A012805D01921C9021046FEF771F910BD1D21C902F8E7000090002E4010B50A4ABE
:4041C000141D012808D009491046FEF761F908492046FEF75DF910BD04491046891CFEF757F90349491DF3E788002E4031D000003AE3000070B50C460546FEF755FAC0B222
:4042000002280E49287804D0FF2810D04C280CD810E0FF2809D10A4AD0680004800F032801D0087807E09069000A553803E00878207070BD4F382070087070BD5A0C0020C5
:4042400000002E40F0B50122002830D000292ED00424420600D00524792342065B06D21800D0641C034600221EE00C2516466E43104D00277519AF720E4F002ABB5169609B
:4042800007D0661EB24209D10B4E86197606760E05E05E06760E8027BE1B00E080269B198919521C2E81D2B2A242DED300221046F0BD00005412002079020000F8B507465E
:4042C0000020002F03D100F037FE002827D1154E002421460C2251438D19AA7A012A0DD12A8971586868FDF7F7FF002800D028200021A972002F05D0282803D0641CE4B2E4
:40430000062CE6D3641CE1B207E00C224A439219927A012A04D0491CC9B20629F5D3F8BD2820F8BD54120020074900200C2242435218927A012A05D0401CC0B20628F5D3BB
:40434000002070470120704754120020F8B50F000446164609D0184D18496868A04202D94018A04201D38E4201D90120F8BD39462046FEF75BFD00281BD03246394620464A
:40438000FEF763FDF0B200210C224A43521913895668F718A74208D90127A41B1B1B9772834206DAC01A1469C0B2491CC9B20629EAD30020F8BD0000541200207902000056
:4043C00010B500F05DF80748054AC16806480C46FEF73BFD04492046FFF734FF10BD000079020000640C0020D80F0020002070470020054A002902D0012902D002E0506095
:4044000000E0906000207047640C002070B5084C154608460549A26889182A46FEF715FDA0684019A06028B270BD0000D80F0020640C00203EB50A226946FFF7E7FF0446C0
:4044400006480A2200686946FEF7F0FC002802D00020C0433EBD20463EBD0000640C0020002802D0044A914201D2FF20704703490A61C8600020704779020000640C00203C
:40448000024800214160816070470000640C002070B5074C15460548626880182A46FFF755FF60684019606028B270BDD80F0020640C002010B503490A220968FFF7E8FF82
:4044C00010BD0000640C002010B50F4A002313600E4A13600E4B18600E4801600E49012008600E490860000290600E490C4808600D4914300860FF381538506000F0BCF8DA
:4045000000F0CAF9002010BD900C0020780C0020A40C0020A80C0020940C0020840C00209C130020880C00209C0C0020014610B50020002910D0094B1A689C685118A142C1
:4045400009D25868196080188A0704D08A07920F891A091D196010BD002010BD780C0020F8B50024164E671E321F3D463168136806E01422624310328A58521C1BD0641CF8
:404580009C42F6D36A1C14D02C461422544322460C3288500C214843FFF7C8FF3168002808510AD031680020103408517068401C70602846F8BD2546E4E73846F8BD0000DE
:4045C000880C0020F3B50026F64381B000281BDB1E490968884217D80299002914D01B4F142204463F1D54432546396810354859401C09D0FEF738F838682F1F4159C359AB
:40460000994203DBFEF72AF83046FEBD214608310091465801590C20704308180C220299FEF713FC0948761C001D0068C159B14200D100260549009A091D8650086841592A
:40464000491C4151FEF70AF80020FEBD840C0020002803DB07490968884202D90020C043704704491422091D096850431030085870470000840C0020F0B500200D4A451E48
:404680000346171F50600FE014260146714314680E1DA3510C461668083433511668083435511468401C635039688842ECD30020F0BD0000880C0020F3B50026F64381B0CE
:4046C000002841DB2349096888423DD8029900293AD0204F142204463F1D54432546396810354859401C2FD0FDF7BEFF3868415900292BD0211D009146580C210059714307
:404700000F46C1190C220298FEF79FFB11480021001D0068761C00590C34C0190160416081600C48001D00680159B14200D100260849009A091D865008684159491E415106
:40474000FDF78CFF0020FEBD3046FEBDFDF786FFFAE70000840C0020FEB504460D4600201E49089E0860471E009001900290002C11D0486885420ED2002A0CD0002E0AD035
:40478000642E08D808460C3001681C2068430C18207A002801D03846FEBD0120226020721846FFF7DDFE6060401C13D06681A6810A4827610C3067610179A94200D20571C1
:4047C0000021684601810A462846029B00F040F82846FEBD00202072DDE70000900C002038B50124009400F039F838BDFEB50027164EFF433D4600240EE01C203168604341
:404800000818017A002906D04068FFF721FF002801D0254603E0641C3079A042EDDA681C12D01C2130684D434419FDF71DFF69466068FFF741FF0546FDF710FF002DD9D1FD
:40484000216868468847D5E7FEBD00009C0C002038B50024009400F001F838BD1FB500220C49541E0A60002811DB496888420ED808491C220C31096850430818406801A992
:40488000FFF7A0FE401C02D0002004B010BD2046FBE70000900C0020F0B50021114A4D1E174611710C3F0B46BD6016E008461C2460431668041D355114680646235014686A
:4048C0000836A3551468361DA353044616680A34335318301468491C255078688142E5D30020F0BD9C0C002038B500210091002811DB0F49097888420DDA0D4D04010C35C6
:4049000029680859002807D0201D0818694600F06FF9002801D0002038BDFDF7A5FE28680F34015D491E0155FDF798FE009838BDAC0C0020F7B582B0002502986E1E066011
:404940002E48D21C024017462D4A2C4610460C380178106805E02301C358002B0FD0641CE4B28C42F7D3711C28D03401211D40180191039900F02AF900281FD101E02646EE
:40498000F1E71F48016820460C300F521C480399026820460E30115419480399026820460F3011540398784300F0A0F8144900280968085102D00024009011E001251AE0A4
:4049C0000F48016801980818009900F02CF9002801D0012502E00098C0190090641CE4B203988442ECD3002D05D10298066004480179491C0171284605B0F0BDFCFF0000ED
:404A0000B80C0020F8B50D4600216A468C461180002839DB23490978884235DA214B04010C3319680A59002A2ED020460C300B5A801C0E5C184670438018954224D3854255
:404A400022D2002006E007465F43BF18AF4206D0401CC0B2B042F6D36046002814D0114E271DC8190C366A46294600F006F900280AD168460088012808D030682946C01986
:404A800000F0D1F8002803D00120F8BD0020F8BDFDF7EAFD30680F34015D491C0155FDF7DDFDF3E7AC0C0020F8B50F46002400F031F8002817D10C4900220B460C334A6048
:404AC0000EE021011D680E466A501D680C36AA53B61C1D680F31AA551D68641C6A54E4B2BC42EED31A71F8BDAC0C002000280BD0C01C074A81085068890053884118994280
:404B000003D89368516018187047002070470000AC0C0020F8B5064600200F4D009029700C0121466846FEF731FC00280CD129460C3100980860301B001F84B22146684610
:404B4000FEF724FC002801D0FF20F8BD6C800098A8600020F8BD0000AC0C0020F8B5002827DB19490978884223DA174C05010C342168485900281CD028460C30085A009016
:404B800028460E300E5C401C0E5420682F1DC01900F064F800280CD12068002445590EE0094829460C300068C01900F03CF8002801D00120F8BD00982D18641CE4B2B442D2
:404BC000EED30020F8BD0000AC0C002030B50D4604000BD0A800FFF789FF6060002805D000202570C0436080002030BD012030BD70B50D46040005D0002D03D00220205EA9
:404C0000002801DA012070BDFDF72EFD0221615E60688900405828606088401E6080FDF71DFD002070BD70B50D46040007D0002D05D002212078615E401E814201DB012043
:404C400070BDFDF711FD6088401C00B26080616880000D50FDF702FD002070BD10B5040009D0227800216068FEF7F8F80020C0436080002010BD012010BDF0B500231D4636
:404C8000002802D00224045F0AE00120F0BD46689F00F6598E4201D1012503E05B1CDBB29C42F4DA15700020F0BD00000148007870470000C00C00207CB505460024FEF777
:404CC00005F9A8796946087000A8062229460130FEF7BBF80021684605F008FA0C2804D0072804D01F2804D004E0022402E0042400E0272420467CBD10B502280BD0032897
:404D000002D0042809D102E000F086F905E000F029FAFF2801D100F039FAFFF7EBF9FFF7F7F910BD10B500F059FAFFF7E3F9FFF7EFF910BD70B504460025FEF7C7F8002CB0
:404D400006D0A079012803D8214602F003FE00E00125284670BD01460120002902D05020088000207047000001460120002905D00348542200785043088000207047000082
:404D8000C20C002010B502460D49FE204870032410460DF05FFB002810D10DF003FB00280CD106F06DF8002808D100F047FC002804D105F049FC002800D10024204610BDD9
:404DC000C00C002070B50025044600280ED0A07901280BD8FEF77AF8A0790028204602D003F050F903E003F025F900E00125284670BD0000014610B50120002904D0062205
:404E00000248FEF722F8002010BD0000C40C002001460120002903D0087802490870002070470000C20C002010B5FFF763F9012801D1FFF765F910BD38B504460120002C19
:404E400020D0617801291DD800290BD0FF25E535FEF73CF80C4828180088C0B22070072803D00EE0FF25CD35F2E70020694608706846FFF761F969460878012801D108203B
:404E80002070002038BD000000102E4010B507480024807B002806D00448203002F0AEF8012800D1FE24204610BD000014140020F8B504460120002C26D06178012902D9BB
:404EC0002278092A20D8002905D0FF25E5352078092803D004E0FF25CD35F8E708202070FDF7F4FF2078114F114E08280DD00020FFF764F970780128207810D00D49691856
:404F00000880FE2070700020F8BD0120FFF756F90720B8810549203188800120F2E7B8810248217820308180EBE70000C0112E40C00C002000102E4010B509480024807B92
:404F400000280BD0FFF7D6F8062801D0032800D12824FFF79BFFFE2800D12824204610BD1414002070B50E46050001D0002400E00C4C002C11D0E28A500609D5D107C90FCD
:404F8000022003F063F9E08A40218843E08204E0D107C90F012003F059F93146284602F033FE70BD34140020F8B50546002004460D4E009013E022466946284600F094FFA9
:404FC0000098002801D00DF027FAA878214602F0F7FBA878214602F0E5FB641CE4B2308AA042E8D8F8BD0000EC140020064A02235188891C89B25180814201D8102900D94A
:405000005380508870470000CA0C00200148407870470000CA0C0020FEB54A4DFFF76AF8012842D14848007800283ED002F074FD00283AD004F0FCFC002836D0434C207E72
:4050400000287DD16078002600285BD0000706D53F488089070B00F025F9384370D13B484178684604F042FB04462879394DA9784018C1B2A14261D802F04EFD00285FD0F3
:40508000334860300089314F0190203702F088FB6846008802F0B2FB02F056FC2E490988884203D10120FFF763F849E02B49012008702648807B00281BD00198002818D0F3
:4050C0004037F87E002814D12148603000884000A0420AD96878002807D103F0E5F82049088A03221202104308822878002800D02E7002F0CFFB0120FFF734F800F058FCF6
:40510000164C15E002F008FD002819D0102402F01BFC214602F008FB02F070FB0F4C0120207002F0B7FB0020FFF71CF800F040FC20780128B6D1FEF7A9FF26700020FEBDBE
:40514000FF20FEBD0C140020580C002014140020A0102E40CE0C0020E00C0020CA0C0020E0112E4010B50848FF244078002809D102F0D2FC012805D1FEF7AAFE0720FEF766
:40518000F7FF0024204610BD1414002008B5FEF7B1FF012801D0002008BD02F0BDFC002803D00D48017E002901D0FF2008BD417800290FD0684604F099FA022806D9684614
:4051C000008802F01BFB012002F06AFB0320FEF7CFFFE0E70020F7E71414002038B51E4CFEF788FF042813D0052811D0062812D003282AD007280AD10020694608700246F6
:405200000120FEF777FEFEF775FF0128FBD138BD00F0EEFB38BD02F05BFB00F0E9FB02F0CDFB8007800F0228F4D10C4841880029F0D05B21095D0029ECD101210170A07D69
:405240000140022003F002F838BD02F045FB0120FEF78EFF38BD000034140020CE0C0020F8B50646002403F04FF80546304603F065F803460A480021068A0DE001228A402F
:405280001046174628401F40002803D0002F01D1224394B2491CC9B28E42EFD82046F8BDEC14002070B500252C460A4E03E0002C01D0002000E030460079002803D02046D7
:4052C000FFF7CEFF0543641C2406240EEFD0284670BD0000341400201CB50020694648706846FFF7A9FD01AA69460A20FEF702FE6946042008561CBD10B50C4601F08EF951
:40530000002809D00179002906D0C1788078224602F010FD002010BD022010BD01480078704700000C1400204030C07E002800D00120704700B500F001F800BD8C214843B6
:405340000749084A40186030417F491CC9B24177D289914201D300214177C8B27047000014140020EC14002013B501F057F904000BD001F01AFE002807D0214601AA0A319A
:405380000620FEF7B7FD00201CBD02201CBD000010B50C4601F042F900280AD001F005FE002806D0224604490A20FEF7A3FD002010BD022010BD0000F5130020F3B581B0A2
:4053C000074601460026029802F096FF0446002F01D0002500E0154D002D21D0284601F053F9032C04D13946029802F0E1FF06463846029902F0D6F9032C06D0002C10D032
:405400000121384601F0F0FA03E03146384603F063F9284602F0CCF80221284602F0E2F8FEBD3846029902F0BDF9FEBD3414002010B5044604F0CCF8002801D00C2010BDF1
:405440002078611C02F072FDFF2801D01F2010BD02F0B8FDFF280AD02178621C02F036F9044821780068026B601C904710BD072010BD0000E80C002010B504F0A9F800286E
:4054800001D00C2010BD02F033FD03480068C06A8047002010BD0000E80C002070B50D46044610210CF0F8FE1021601806460CF0F3FE334610221946204604F0B7F8102150
:4054C00030460CF0E9FE02202870204605F002F870BD0000F8B504464078217802028006870FE0781143A67809050002090D0643084601F093F800210546F2B2002812D092
:40550000002C10D0022F0ED0032F0CD0002A0AD00279092A07D0002A05D0134A5A23527E1B5C9A4207D82889002104F0C9FE20460CF072FFFF21002914D10C48224600682C
:405540002946436930469847C0B2FF280AD128464030817EF2B2491C8176FF232146284600F005F9F8BD0000CC130020000D00200020704710B5044604F02AF8002801D0AF
:405580000C2010BD2078611C02F0D0FCFF2808D002F014FC044821780068426B601C904710BD1F2010BD0000E80C002010B505F04BF800F097F9002010BD000010B504466B
:4055C0000F4801F01BFD012817D00D48052221469C30FDF73AFC0A4905229C310846AC38FDF733FC00F034FD054880222038C17B1143C17300F0ACF910BD3A2010BD000011
:405600003414002010B5044600786178E2780843A17811430843217908436179084305D003F0C8FF002803D00C2010BD122010BD204602F027FD002010BD000010B5FDF797
:4056400033F802F083FE044804F04AF902F0C0FB012000F003F810BDDC130020F1B586B003A8009005A8019026489F22817A114081726846FDF744FC002841D16946098954
:40568000C90705D0204806990068C2686846904769460989890706D5002831D11B480068816A0698884700282AD1194E0025757075737571F575357675767575B570F57058
:4056C000B5713746F5730120BC3738731F20F880FF2130467972A0300175457503F0FEFC01F044FC00242046069901F0F1FB002803D1641C2406240EF5D0FD72BD72B57321
:4057000007B0F0BDCC130020000D0020E80C00201414002070B505460E46084602F0F4FD0446304602F00AFE0121A9400A46224001400A4301D0012070BD002070BD10B552
:405740000446084602F0FAFD0121A140014201D0012010BD002010BD10B5FEF7CBFC032804D102F0B9F80120FEF702FD10BDFEB51C4616460F46054601F01AFFA878FFF77F
:40578000D9FD02460190334639460094284600F00DF8002808D1A8780199FFF7E3FBFF2C02D138460CF038FEFEBD0000FFB585B005460E980C46FF2810D02B49C00009687B
:4057C0000A5840180179C0795278814201D9012601E09006860F6846038108E06078A1788006860FE0780002014368460181284601F0F0FB070007D021462846079A00F020
:405800001FFB384609B0F0BD304600F005FC04AE0346039002AA29460096204600F00BFA3C20405D002818D0284601F0D3FB012813D0684600890096C0B20190A878231DF7
:40584000FF22079902F094F968460089039BC2B2A878079902F0D8FCD3E7684600890021C0B20091E9E70000FC0C0020F8B5104F002500242846FFF7F3FC060012D00EE08E
:405880003046E040C007C00F07D02146284601F07FFF21462846FFF791FD641CE4B2388AA042EDD86D1C2D062D0EE2D0F8BD0000EC14002070B50024094D03E0002C01D0CC
:4058C000002000E028464121095C012901D100F070FA641C2406240EF0D000F039F870BD3414002010B502F073FA0020FFF7B6FE0CF028FE002010BDF8B5002403F08AFB85
:40590000012800D10224114F00203E46203601230425082203E0002801D0002100E031460979002907D001290BD002290BD0114681402143CCB2401C0006000EEBD07C7084
:40594000F8BD1C43F7E72C43F5E700001414002070B5144E0024F07BC00921D03546203503E0002C01D0002000E0284601F028FB012814D0641C2406240EF2D0F07B400644
:40598000400EF073002403E0002C01D0002000E0284600F00EFA641C2406240EF4D0002070BD00001414002010B5FFF7A5FF10BD70B50E4CFCF7B5F90546FEF79BFB062847
:4059C00002D02078012803D02846FCF7AEF970BDFCF7BEFA2846FCF7A8F9FEF78BFB0628F5D020780028E5D170BD0000CA0C002010B5FCF796F90446FEF77CFB012809D059
:405A0000FEF778FB022805D0FCF7A2FA2046FCF78CF9EEE72046FCF788F910BD10B50B4681791943817103D08078114602F0A4FB10BD10B582798A43827102D1807802F0FB
:405A4000AFFB10BD0346084800B5834209D8184600F0E4FD002804D00089984201D1012000BD002000BD0000FF0E0000074A9179491C8906890E917138220A409201490724
:405A8000090E1143084302490840704714140020FF0E0000C006C00E70470000F8B507460E4600240D4803E0002C01D0002500E005462979002905D0641C2406240EF3D010
:405AC0000020F8BD0021204601F002FA2E712046FFF7CCFF28813C700120F8BD34140020F7B53D20405C88B015460C46002802D02878042802D200200BB0F0BD694608722F
:405B000000262046FFF710FC012800D00126204603A938300191009023460327A17E34333246206A03F0FCFE02A8089900900B46019120463A4603A9243003F057FD0246E0
:405B40006846007A2870204601F0AEF91046D3E7FFB587B00C4605461078694608723D20005D1746002826D000262046FFF7DCFB012800D00126204603A9383001910090D4
:405B80002346A17E34333246206A03F0C9FE02A80090291D019120462B1D03A924300A9A03F024FD02006846007A388002D1204601F07AF910460BB0F0BDF0B505463C2039
:405BC000405C89B016460C4600280CD0307869460873002806D000272046FFF7A5FB012803D003E01F2009B0F0BD012703200890204604A93830019100902346E17E3433F8
:405C00003A46E06903F08CFE6846007B03A928180290009120462B46019504A92430089A03F018FD02466846007B3070204601F045F91046D7E7FFB505463C20405C89B0E4
:405C400016460C46002810D0084601F0C3F901280BD0308869468883002809D000272046FFF762FB012805D005E000200DB0F0BD0220FBE70127204603A9383001910090E7
:405C80002346E17E34333A46E06903F049FE291D2B1D07A8129A6D4607C5204603A924300C9A03F0D7FC02466846808B3080204601F004F91046D9E710B518490446484065
:405CC00028D0002101231A468A40904221D0491C2029F8D300212046C840C243520618D0400616D0491C1929F5D3A0B2210C020AC3B2884201D193420BD01F21204600F0B0
:405D000090F9182805D8A00E062100F08AF9022801D2002010BD012010BD0000D6BE898E002801D0002000E003484030C07F012800D0002070470000341400200146002060
:405D400049070ED50021084B03E0002901D0002200E01A461279022A04D0491C0906090EF3D0704701207047341400200146002049070ED50021084B03E0002901D0002260
:405D800000E01A461279022A04D0491C0906090EF3D07047012070473414002010B5044680346068002803D00CF04AFB0020606010BD38B50546002000902846FFF7B4FA65
:405DC00001281FD1284601F0F0F800281AD028792C46C01E40340300FDF73AFA07050511110511141100284601F0FAF8012806D068460CF0B7FA002805D0012008E06078AA
:405E00000028FAD038BD2846009902F0A9FD0220607038BD40308170704770B50546403528780C46052904D0002C05D1801E022802D8022002F024FF2C7070BD0171704737
:405E400092001018C166704710B5002801D0002000E00348002802D0008904F0A5FA10BD3414002010B5002801D0002000E00448002804D00179072901D100F08BF810BD74
:405E80003414002010B54121095C012901D1FFF790FF002010BD000070B50546008A00281ED01049F122897A1140C90618D5294640314A8A098A521C4A4392B2D10800D1C4
:405EC0000121540801E0621A94B2A042FBD9FEF7EDFE012804D1298AA878224601F0D0FE70BD0000CC13002010B50023054C0B60248A944204D992001018C26E0A60C36645
:405F000010BD0000EC140020FEB506460020009001908020855968460CF024FA002801D00720FEBD20213046009FFFF782FD34464034A08AE080608AA080208A2081304605
:405F400002F004FFA88C218A884207D1288A618A884203D1688AA18A884203D0F07920210843F071688AA082288A6082A88C2082E98CE182FFF73AF8E081208AFFF746F8A3
:405F800060733946304602F013FD0120A0700198FEBD000038B5044600200090A079002814D14020015D052901D00E290ED168460CF0D8F9002809D12046009902F0DAFD6D
:405FC00003481021C28A2046FFF728FD38BD0000CC13002010B50446807802F0E7FE204601F074F9002010BD10B50B4604460146184602F011FA002802D020460CF016FA67
:4060000010BD13B5044601AA11460620FDF772FF6846818861811CBD002800D102207047704770B500231A46491E0CE00446D440E507ED0F541C0646E640F407E40FA54201
:4060400000D05B1C521C8A42F0D3D8B270BD000030B50021124C0A46A05C002308E0C50701D0491CC9B201290AD840085B1CDBB20028F4D1012903D8521CD2B2052AEBD3C4
:4060800002290BD207488118C87B0122082B03D29A400243D0B200E01043C87330BD0000D0140020141400207FB504468034616805460E46183108226846FCF7C6FE314651
:4060C0002031082202A8FCF7C0FE102168460CF0E3F86068102108300CF0DEF860682B46083024331022694603F0A0FA7FBD10B504460821FFF79DFC10212046FFF799FCB6
:406100002079052822D0062820D008281DD12189002004F0BBF8072020712046FFF704F9012819D00E212046FFF777FE002158200155204601F050F92046FFF72FFE204659
:40614000FFF7AAFE2046FFF79DFE10BD20890122002104F07FF8DEE70521E4E7FFB581B01F4604460821FFF764FC10212046FFF760FC2079082803D0092804D0042503E006
:406180000425012601E009250026204600F004FF00212046FFF741FE25712046FFF7FEFD0398002E02D0012808D00BE001280AD120890022029904F04DF804E02189029806
:4061C00004F064F801272046002140300176012F07D0204601F000F92046FFF753FE05B0F0BD02990173204602F007FD054605480121C28A2046FFF711FC002DEFD1092063
:406200002071ECE7CC13002070B50C460546FFF78BF8012809D108212846FFF70AFC0023012221462846FFF799FF70BD10B5044600F0B2FE2046FFF7B1FD00212046FFF71E
:40624000ECFD10BD70B505461A24FFF76DF8012809D108212846FFF7ECFB0023012221462846FFF77BFF70BD38B505460021684600910CF077F8002801D00D2038BD2846A4
:40628000009C00F0D9FE2146284602F01DFC06480821C28A2846FFF7C1FB06212846FFF7BCFD002038BD0000CC130020F8B50446002000900E4668460CF054F8002801D076
:4062C0000D20F8BD204604213430009D00F0A1F9842000590821183000F09BF9012E02D1204600F0A9FE2946204602F0A7FB06480821C28A2046FFF791FB02212046FFF722
:406300008CFD0020F8BD0000CC13002010B50446FFF7CAFE03212046FFF77FFD204601F047F910BD10B50021FFF7C0FF10BD000038B504460021684600910CF013F80028A5
:4063400011D12046009A00F027FE1146204602F0C6FB05480821C28A2046FFF75FFB07212046FFF75AFD38BDCC13002038B504460021684600910BF0F5FF002810D120467A
:40638000009902F02FFC07480821C28A2046FFF745FB04212046FFF740FD204601F008F938BD0000CC13002010B5FFF7A0FE10BD00787047F8B50025002801D0002400E099
:4063C000194C002C29D0204600F0EFFD002824D02079032822D0052822D026464036B18AA07801F0C1FEB078012816D10021204602F042F8274680373868002802D00CF056
:406400001FF83D600020B0702046FFF73BFD2079072802D12046FFF73FFDF8BD042000E006202071F8BD00003414002010B54C22115400F04CF810BD10B50446FF21FFF756
:40644000F8FA09202071A07801F0B4FE10BD000038B5FF216A461180002801D0002400E0084C002C0DD011460620FDF743FD684601882046FFF7C5FD03480068C1692046F7
:40648000884738BD34140020000D002010B504468079002809D022214C200155FF212046FFF7C7FA204600F012F810BD10B5037902464032002B03D01173092B02D003E0A5
:4064C000002100E02221117300F001F810BDFEB50446008900270090278120792646403600281AD0012818D0022816D0002002F0C7FB09E002AA01A9204601F07BFF00287F
:4065000007D101980BF092FF204601F09BFF0028F0D02046FEF748FDB776254680352868002802D00BF08CFF2F606868002802D00BF086FF6F60317B002916D0009800F09D
:4065400061F8A078002101F085F9A07801F0B8FAA07800F02FFFFF212046FFF76AFA0B20FFF722FA00F0CAFDFEBD1F213173E5E7F8B517460E46054603F098F804003CD0AE
:4065800020460C3001F03EFA2046062200211830FCF764FC2046062200211230FCF75EFC1648224600683946436A28469847074626702846FEF7B8FE012148406070002D3E
:4065C00010D02889608028464030C1782171002E0FD169796171018AE180418A2181808A608106E00648008BC005C00F2071002060803946204603F0CCFDF8BDE80C00202D
:4066000000102E400A4610B50146002003F0E4FE10BD10B50BF01CFC10BD000000B50146FFF738FA002801D0002000E00348002802D002898A4200D0002000BD341400204B
:4066400038B5044680346068002806D168460BF099FE002801D100986060606838BD000010B5014600F0B6FC0128887802D0FEF765FE10BD8C214843024940186030007F61
:4066800010BD00001414002070B5054604464035A87F012811D1A1788C20084A484380186030067F3046FFF735F8002805D10220A877A078314601F0B1FA70BD141400209D
:4066C00010B50C4CA07A002813D0FFF7CFF80A48027F417F408B00F025FD012809D10020A07201F023F905498989090B01D000F023FB10BDD014002014140020A0102E405F
:4067000070477047490510B5490F0B00FCF7A0FD060704080C0C0F073E21FFF787FE10BD0821FFF7C3FE10BDFFF7D1FE10BDFFF7ADFE10BDF8B507460025002D01D0002607
:4067400000E0204E01F09CF83046403044890021418101F0B5F8304600F027FC01282BD1A00702D52846FFF725FEE00602D52846FFF76EFEA00601D5FFF778F8600601D5B4
:4067800000F04EFC200602D5284600F01DF8600702D5284600F036FB380402D52846FFF761FB780402D52846FFF74EFBE00703D021463046FFF7A6FF6D1C2D062D0EBCD0DA
:4067C000F8BD000034140020F8B5002801D0002400E0144C002C23D025464035A87801281ED1FF278820493700593E46002805D00D49897A890601D5878AC68A2046FEF799
:4068000093FD01280CD10096E88A2A8A3B46014602F07AFAE882A2780146104601F0EAFBF8BD000034140020CC1300200149096809680847000D002070B505460088FFF72F
:40684000EDFE04002AD000F0B0FB002826D02079092823D0204600F0D1FB012820D02046FEF762FD0646E07920210843E071204601F01AFE002815D0294600F08BFE42207C
:40688000005D002810D02325E079DF210840E0712946204601F05DFE284670BD022070BD3A2070BD072070BD002E05D02046FFF72BFB0500E8D1EFE70C2070BD70B50E4668
:4068C0000C2500F0DFFD040012D0002522892946094803F0B1F9FF2202212046FFF748FEA07800F09BFF2046FFF7F1FD022000E000203070284670BD0E200000FEB504462E
:4069000000F0C0FD002801D00C20FEBD022101A8FFF7C4F8012859D168460079304F002801D0002601E03E462036002E4ED000213046FFF772FA3546002040356870A87034
:406940000620FFF731F8208A6882228AE189A08902F028FA28820246608AFF23A88249330093E18AA08A02F0CFF9E882288AFEF74DFB6873288AFEF739FBE8811848062265
:406980008778A11DAC30FCF760FA207901281FD06079E870A01D01F061FBFB20074010488770217EC278012917D0FB210A40C2700C4821460068826830469047B1782046E9
:4069C00001F09AF93046FFF705FBFEBD0920FEBD0020E87004200743E1E704210A43E6E714140020E80C002070B50D460026194A0146002801D0002401E014462034002C9F
:406A000026D0204600F0E6FA01280AD18C20484380186030007FFEF77DFE002801D102F069F80D48006881692046884700280CD020464030817EA94202D3491B817600E0DB
:406A400086762089294603F03BFC204600F0B0FD70BD000014140020000D002070B503460088FFF7DBFD040013D000F09EFA00280FD02079092819D02546997840352973B9
:406A8000204602F0BAF80646A878012803D0AA8A02E0022070BDEA880A20424301212046FEF7BCFF002E01D109202071002070BD0EB5002217216B460292198100905A8138
:406AC0000120029B00990BF05BFD0EBDF8B518480024807A002822D1164E0025B089000B22E0204600F0B8FF1249A039401807882A462146384600F015FB012810D00E4830
:406B00000122478305770A4944778A72002D01D0002000E02030002801D000F049FDF8BDB089000B641CE4B20028DAD1F8BD0000D0140020A0102E401414002010B5044655
:406B4000C0060ED500200B4A03E0002801D0002100E011460979022909D0401C0006000EF3D00548006881692046884710BD00F005F8F6E734140020E80C002070B51A4D97
:406B8000002801D0002401E02C4620342179022904D0002901D001F00DFB70BD01225B210A5500F077FF032020710820FEF7FCFE00212046FFF731F920464330012106463B
:406BC00000F030FF09480068016A30468847024600212046FFF7CCFCA078FFF727FEA87B401CA87370BD000014140020E80C002010B50C46002121700088FFF70FFD0300D4
:406C00000BD000F0D2F9002807D00948F121807A0840C00603D4112010BD022010BD022020701A8A1889002103F0F2FB002010BDCC13002070B50088FFF7F0FC040008D041
:406C400000F0B3F9002804D0E079C10903D0002070BD022070BDC1068025002908DA2843E07108480221C28A2046FEF7D7FEEEE7204600F01BFA0028ECD1E1792943E1718B
:406C800070BD0000CC130020F8B50F46002100910088FFF7C3FC040012D000F086F900280ED0E079410641D4617E02264A07002A08DB8907402500291ADA2843E07135E05F
:406CC0000220F8BD02F0F2FC0021017021894180A1898180217E4170E189C1803E7005460178134803F068F8284603F035FB1DE0204600F075F9012806D068460BF032FB73
:406D0000002803D00720F8BD2A20F8BDE07900992843E071204601F099FF607E0421304360760448C28A2046FEF778FE0020F8BD1D040000CC1300203EB500220F236C463D
:406D40000292238100910190628169460EC900200BF016FC3EBD0000F8B50446002000902088FFF75BFC05001AD0FEF7DDFA002812D02348807AC00710D0284600F015F94F
:406D800000280DD0287903280CD004280AD0072808D009282AD103E00C20F8BD1120F8BD0220F8BD2F464037387801281ED02846FFF746FC06001BD00822211DFCF745F88A
:406DC0003046A1782030017261881022090A417221460C311838FCF738F8B878002809D001212846FFF719F80098F8BD0D20F8BD0720F8BD284600F04BFA0090F8BD00008E
:406E0000CC13002010B5002801D0002400E00B4C002C11D0214640314878022801D100204870A07DC107C90F002001F00FFA2046FFF728F8FEF73EFD10BD00003414002009
:406E400070B503460D460088FFF7E8FB04000BD000F0ABF8002807D01248F121807A0840C00603D4112070BD022070BD20464030418A008A491C41430804C10C58888842F0
:406E800001D2122070BD20822079072802D12046FFF702F8022028702089002103F0E0FA002070BDCC130020016A491C016204D1817E491C4906490E81767047C169491C21
:406EC000C16104D1C17E491C4906490EC1767047F0B5064687B003A8009005A800270D460190002E01D0002400E01C4C002C05D06846FCF705F8002803D00BE0022007B07F
:406F0000F0BD68460089C00704D18C2200212046FBF7A4FF124829460068826820469047050018D1A6706776277100212046FEF774FF204600F030F8204601F07FFA0948A8
:406F400020825E2007550848F121807A084000D001202075E782E8B2D1E7000034140020000D0020B80B0000CC13002010B50020074B084AFF2119541418401CC0B22174B4
:406F80000428F8D31F2119541018017410BD0000D014002014140020002101628176C161C17620300177417770470079002805D0012803D0022801D0012070470020704750
:406FC00040304078012803D0022801D000207047012070474030807F002800D00120704740300078002807D0012805D0052803D00E2801D00120704700207047074A014651
:40700000927B0020002A07D040314A78022A02D08978012900D10120704700001414002010B500F083FC03498989090B01D0FFF783FE10BDA0102E4070B5054604464035CD
:40704000A87F002825D1FF206075A0788C21154A484380186030417F8C23491CC9B24177A0785843104B8018DB896030994201D300214177A0788C21484380186030467F9A
:407080000677A1783046FEF745FB002802D00120A87770BD0220A877A078314600F0BEFD70BD000014140020EC14002038B5002105460091FFF794FF012806D068460BF0FD
:4070C00051F9002803D0072038BD2A2038BD2846009CFEF729F900280BD02146284601F0D5FC05480221C28A2846FEF797FC002038BD112038BD0000CC13002070B5002400
:40710000074D03E0002C01D0002000E02846FEF7B9FE641C2406240EF4D0002070BD000034140020F0B515468207920F85B0000A02926A469080002D01D0002400E0524C4F
:40714000002C28D0084600F087FC07466846808800280BD00298012843D0022841D003280BD03D20005D012870D087E04748381801882046FEF745FF80E00020029002A8C0
:407180000BF0D0F8002807D03D20005D012878D12046FFF789FE74E06846029E8388324600213846FCF7BEFD3848381801882046FEF727FF284600F03BFB01AA2146304696
:4071C000FEF78EFC002806D030460BF01BF93D204C21085528E0F5773146204601F002FA4FE0002000902089039068460BF08AF8002802D0002005B0F0BD6846009E83880F
:40720000321D00213846FCF78DFD2048381801882046FEF7F6FE284600F00AFB25464035287E00280CD103E02046FFF705F928E001AA21463046029BFEF78AFC002806D082
