:400000000040002011000000790300007903000080B500AF00F0B4F980B500AF224B12221A6001F0C7F9214B181C00F091FF012001F0D0F9102000F0BDFF1D4B1D4A1A6006
:400040001D4B8022D2051A601C4B1C4A126802210A431A601A4B1B4A1A601B4B1A4A126808218A431A60FA23DB00181C00F0EEFF164B181C01F0A4F8154B802212061A603D
:40008000144B00221A60144B0820191C01F054F8082001F077F8084B8022D2051A60024B00221A60BD4680BD30001040001BB70004010B40060000800C020B4078002E40EE
:4000C0007C002E402D3E00006CF02E40DC05000008010B4000010B408516000080B582B000AF72B62E4B00221A60FB1D00221A7023E0FB1D1A78131C5B009B185B00294AF6
:400100009B183B603B681A78597809020A43997809040A43DB781B061343191C3B681A795B791B0213439BB2081C191C00F0ACF9FB1D1A78FB1D01321A70FB1D1B78012B9B
:40014000D7D9194BEE2212061A60184B992212041A60174A164B1B78DBB202210B43DBB21370144A134B1B78DBB23C218B43DBB214210B43DBB213700D4A0D4B1B78DBB2C2
:4001800016210B43DBB213700B4BD82212041A60FFF742FF00F088F9BD4602B080BDC0466CF02E40583701000000024000500F4000700F4001700F400800044010B5064C0D
:4001C0002378002B07D1054B002B02D0044800E000BF0123237010BDD00F0020000000005437010008B5084B002B03D00748084900E000BF07480368002B00D108BD064B01
:40020000002BFBD09847F9E70000000054370100D40F0020E00B00200000000080B500AF62B601F079F8032000F05AFF084B181C00F074F9074B1B78002B02D0002000F0CF
:4002400007FA02F0FBF800F067F802F0F7F8F1E7590200004021002090B58BB000AF786039607B68282B16D004D8012B07D0272B09D048E04C2B30D04E2B13D043E00020B0
:4002800000F0B6FA3FE0214B1A78214B101C191C0CF098F937E0002000F0AAFA1D4B00221A7030E01823FB183A6813CA13C312681A601823FB189B89112B0DD11823FB18C7
:4002C0005B681B78012B03D1124B01221A7003E0104B00221A7016E015E00823FB183A6813CA13C312681A60084B1A785B781B021A4300231204120C1B0C1B041343181CE9
:400300000DF032FEC046BD460BB090BD58210020C40C0020EC0F002090B583B000AFFC1D032002F083F8031C237072B6BC1D04F047F8031C2370FB1D1B78032B0AD1BB1DE7
:400340001B78042B03D0BB1D1B78062B10D100F065FF0DE0FB1D1B78022B03D0FB1D1B78012B05D1BB1D1B78022B01D000F03CFF62B6BD4603B090BD80B500AFFEE7C04654
:4003800080B586B000AF224B7B61224B3B61204B7B6135E03B691B68FB603B695B68BB603B699B683B6000237B600CE0FB681A68BB681A60BB680433BB60FB680433FB6059
:4003C0007B6804337B607A683B689A42EED13B69DB683B6000237B6008E0BB6800221A60BB680433BB607B6804337B607A683B689A42F2D13B6910333B617B69013B7B61B4
:400400007B69002BC6D101F09FFFFFF707FFFEE7010000005039010080B582B000AF154B144A126801218A431A6000237B600FE07B68032B04D8104B7A689200D35800E0B0
:400440000E4B0F4A796889008B507B6801337B607B682F2BECD9FFF741FE0A4B00221A60044B044A126801210A431A60BD4602B080BDC046000010400000000079030000A7
:4004800000000020C000002080B582B000AF786039607A683B68101C00211A1C01F092FFBD4602B080BDC04680B500AF054B03221A60054B03221A60044B00221A60BD4683
:4004C00080BDC0463000304030003140000E3F4080B500AF094B00221A70094B00221A70084B00221A7000F013F8074B00221A70064B00221A70BD4680BDC0465B21002030
:40050000542100205A210020402100204821002080B500AF00F016FDBD4680BDB0B594B004AF78603E23FB1800221A802823FA183E4B111C1A1C1423081C111C1A1C01F0FE
:4005400038FF3B4B1B78002B04D1FFF7C1FF384B01221A707B68002B5CD0364B7A681A603E23FB181B88002B29D11023FB181C22BA185A601023FB182022BA181A601023DB
:40058000FB1800221A812023FB181B221A802023FB181B225A802023FB1804221A711C23FB1800221A703E23FC181023FA180E23FB18101C191C02F017F8031C23803E2349
:4005C000FB181B88002B29D13E23FC181A481B49AE231A012823FD1805230093184B0193184B02932B1C01F05BFF031C23803E23FB181B88002B11D1134B01221A703E230B
:40060000FC18124B181C132117220EF0CDF9031C238003E03E23FB1801221A803E23FB181B88181CBD4610B0B0BDC04664370100F00F002044210020210B0000C800002039
:400640008041010079020000502100208037010090B58BB000AF021CFB1D1A702623FB1800221A805C4B1B781A1C012313401ED02623FC18FB1D1B78181C09F0A9FA031C21
:4006800023802623FB181B88002B10D1524B1B7801229343DAB2504B1A704F4B1B781A1C0223134003D02623FB1828221A802623FB181B88002B03D0FB1D1B78002B28D0F9
:4006C000454B1B781A1C0223134022D0434B1B78042B1ED8414B1B789E339A00404BD3185A1C2623FC183F49FB1D1B78081C111C042209F053FA031C23802623FB181B886D
:40070000002B06D1344B1B7802229343DAB2324B1A702623FB181B88002B03D0FB1D1B78002B52D02C4B1B781A1C0C2313404CD0294B1B781A1C0823134022D01023FB1852
:40074000181C0021142201F03DFE2623FC181023F918254AFB1D1B78081C111C142209F01DFA031C23802623FB181B88002B07D1194B1B7808229343DAB2174B1A7024E039
:4007800023E00C23FB1800221A60184B1B789E339A00134BD3185A1C2623FC180C23F918FB1D1B78081C111C042209F0F7F9031C23802623FB181B88002B06D1064B1B78E9
:4007C00004229343DAB2044B1A702623FB181B88181CBD460BB090BD4021002058210020804101004C210020F94301001410002090B585B000AF021CFB1D1A70FB1D1B78DC
:40080000022B04D90E23FB1801221A804BE0294B1B78042B42D1284B1B78DBB21A1C042313403BD1FB1D1B78002B0BD1234B00221A82224B5B68F0221A80204B5B68F022F0
:400840005A8010E0FB1D1B78012B0CD11B4B96221A821A4B5B68C822D2001A80174B5B688022D2015A80164BFA1D12781A700E23FC18124B181C0CF0D3F9031C23800E2331
:40088000FB181B88002B08D10B4B1B78DBB204221343DAB2084B1A7005E004E00E23FB180422FF321A800E23FB181B88181CBD4605B090BD502100205B210020140C002098
:4008C0005A21002080B584B000AF78600A1CFB1C1A700023BB60BB68002B20D07B689A79BB681A700F23FB1800221A7012E00F23FB181B780133BA68D3180F22BA181278FE
:4009000079688A5C1A700F23FB181A780F23FB1801321A700F23FB181B78052BE7D9BD4604B080BD80B582B000AF78607B681B789AB27B6801331B789BB21B029BB213436A
:400940009BB2181CBD4602B080BDC04690B585B000AF78600F23FB1800221A707B689B890D22934237D17B681A1D7B680F217C18101C00211A1C40230EF02EF8031C23707C
:400980000F23FB181B78002B1DD17B685B68181CFFF7C8FF031C1A1C022313409BB2002B08D0104B1B68822251007A68081C111C984708E00B4B1B680622FF32111C7A6884
:4009C000081C111C9847084B1B78DBB201229343DAB2054B1A700F23FB181B78181CBD4605B090BD442100205B21002090B585B000AF78600F23FC187B68181CFFF7A6FFCA
:400A0000031C2370144B1B78DBB21A1C012313401FD10F23FB181B78002B16D00823FB1812229A707B689A890823FB181A800823FB180F22BA181278DA707B680822BA18B1
:400A40001868111C0DF00EFA03E07B6818680DF08BFABD4605B090BD5B21002080B582B000AF7860BD4602B080BDC04680B500AF034B00225A70024B00221A70BD4680BD1E
:400A80005821002080B582B000AF7860BD4602B080BDC04680B500AFBD4680BD80B584B000AF78600E23FB1800221A707B689B79002B1CD10F23FB1800221A7012E00F238F
:400AC000FB181B787A68D35C002B04D00E23FB1801221A700BE00F23FB181A780F23FB1801321A700F23FB181B78052BE7D90E23FB181B78181CBD4604B080BD80B582B05D
:400B000000AF021CBB1D1A80BD4602B080BDC04680B582B000AF7860BD4602B080BDC04680B588B000AF021C3960FB1D1A70CA4B1B78DBB201221343DAB2C74B1A70FB1D35
:400B40001B78412B00D163E123DC212B00D1EAE00DDC022B00D1BCE002DC012B3BD0D1E1052B00D1BAE0062B00D1BCE0CAE1272B00D101E106DC242B00D1F3E0262B00D151
:400B800006E1BFE1282B00D1FEE02A2B00D1EEE0B8E14F2B00D1AEE10BDC432B00D17BE100DA55E14C2B00D193E14E2B00D1A4E1A8E1572B00D1A2E106DC502B00D1A0E11A
:400BC000542B00D18AE19DE1712B00D11AE1FA2B00D188E196E11023FB1807221A701023FB1800225A701023FB18181C03F02CFC1023FB1807221A701023FB1801225A7092
:400C00001023FB18181C03F01FFC944B1B68181CFFF744FF031E11D0904B1B68181C01F011FC8E4B1B68181C0021FFF74BFE8B4B1B68181C0121FFF745FE36E0884B1B7877
:400C40001A1C3F231A40874B1B78191C3F230B409B011A43844B1B78191C1F230B401B031A43824B1B78191C7F230B405B041343BB61BB69DAB27E4B1A70BB691B0ADAB278
:400C80007B4B5A70BB691B0CDAB2794B9A70784B181C01F0D7FB764B181C0021FFF712FE734B181C0121FFF70DFE03200BF068FE0C23FB183F221A700C23FB1800225A7035
:400CC0000C23FB18181C0BF079FE6A4B04221A7018E13B68181CFFF7D5FE13E13B681A78654B1A700EE13B687B617B691B78002B18D17B695B78002B0BD1604B0222DA80CB
:400D00005E4B18229A805D4B5D4A1A607B695B4A5A60514B1B78DBB201229343DAB24E4B1A70EFE0EEE04C4B1B78DBB21A1C2023134016D1534B1B78102B02D1514B05223D
:400D4000DA70514B1A784F4B101C191C0BF028FF414B1B78DBB201221343DAB23E4B1A70D0E0CFE03B685A78484B1A70CAE03B68181CFFF7CDFEC5E03B68181CFFF7C8FEAF
:400D80003C4B02221A70BDE03A4B04221A70B9E0384B1B78022B34D02F4B1B78DBB21A1C012313402DD02C4B1B78DBB21A1C042313400BD02F4B03221A70274B1B78DBB22B
:400DC00004229343DAB2244B1A701AE0224B1B78DBB21A1C082313400BD0264B04221A701D4B1B78DBB208229343DAB21A4B1A7007E0204B1B78032B03D11E4B04221A7038
:400E000080E07FE03B681B88181CFFF777FE79E01D4A3B68111C1A1C0223081C111C1A1C01F0C7FA144B00221A70174B1B789E339A00174BD3180133164A111C1A1C042314
:400E4000081C111C1A1C01F0B4FAFFF723FE59E0FFF70CFE56E0C0465B210020300C00207CF1FF0F7DF1FF0F7BF1FF0F78F1FF0F280C00205021002054210020181000201E
:400E8000A80B0020C40C00205821002048210020804101004C2100203B685B88162B05D81E23FB183A6852881A8003E01E23FB1817221A803B681E22BA1811881A880023D3
:400EC0001204120C1B0C1B041343181C0CF0D4FF18E03B68181CFFF789FD13E03B68181CFFF7BCFD0EE0144B1B7801221343DAB2114B1A7006E0C04604E0C04602E0C046D2
:400F000000E0C0460D4B1B78DBB21A1C112313400FD00A4B1B78DBB201229343DAB2074B1A70074B1B68FA1D11783A68081C111C9847BD4608B080BD402100205B21002085
:400F40004421002080B500AFBD4680BD000000000230800803D00138FDD1C046C046C0467047EFF3108072B6704780F31088704790B585B000AF78600F23FC18FFF7F1FF2B
:400F8000031C2370094B7A6807210A40D104074A1268074802400A431A600F23FB181B78181CFFF7E2FFBD4605B090BD00010B40FFFFC7FF90B58BB000AF78602723FC1882
:400FC000FFF7CFFF031C2370184B1A680C23FB181A60174B1A680C23FB185A607B68033B144AD35C1A1C0C23FB189A60124B1A680C23FB18DA601C23FB18104A1A600C232A
:40100000FA181C23FB185A600D4B1C22BA181A600C4B0D4A1A600A4B1B682723FB181B78181CFFF7A2FFBD460BB090BD08010B4000010B40FC38010030001040B6EA0000F5
:4010400008001040040010401700008080B584B000AF78600023FB60154B154A126801210A431A60134B144A1A60144B134A1268802109020A431A607B68002B12D010239B
:40108000FB600CE0012000F09BF800F019F8031E02D00023FB6005E07B68013B7B607B68002BEFD1FB68181CBD4604B080BDC04660F02E4078002E400220000010002E4051
:4010C00080B582B000AF054B1B68012213407B607B68181CBD4602B080BDC0460C002E4090B585B000AF7860114B1B6807221340022B16D00F23FC18FFF733FF031C23709E
:401100000C4B7A68032111400A4A1268032082430A431A600F23FB181B78181CFFF725FF02E0002000F042F8BD4605B090BDC04600010B4064F02E4080B584B000AF021CE3
:401140003960FB1D1A7080239B05FB60FB1D1B781F2B02D9002000F029F8FB1D1B7810339B00FA68D3181B68BB60FB1D1B7810339B00FA68D3183A681A60BB68181CBD46D5
:4011800004B080BD80B582B000AF021CFB1D1A70054BFA1D12781F210A40012191400A1C1A60BD4602B080BD00E100E080B582B000AF021CFB1D1A7001BEBD4602B080BD20
:4011C00080B582B000AF021CBB1D1A80BB1D1B88044A12785343181CFFF7BAFEBD4602B080BDC046D40C002090B583B000AFFC1DFFF7B7FE031C2370074B074A12680421A7
:401200008A431A6030BFFB1D1B78181CFFF7ADFEBD4603B090BDC04610ED00E090B583B000AFFC1DFFF79DFE031C2370114B114A1268520052081A600F4B104A128892B2A6
:401240001A600F4B0E4A126804210A431A600D4B1B683B600220FFF78BFE30BF094B3A681A60FB1D1B78181CFFF77FFEBD4603B090BDC04600000B400C000B4052F1FF0F18
:4012800010ED00E000010B4080B500AF0E4B0E4A126801218A431A600B4B0B4A126802218A431A60094B094A126830218A4310210A431A60054B054A126807218A43012197
:4012C0000A431A60BD4680BD00F02E4000FF2E4080B500AF0E4B0E4A126802218A431A600C4B0C4A126807218A4302210A431A60084B084A126830218A4320210A431A6058
:40130000034B034A126801210A431A60BD4680BD00F02E4000FF2E4090B583B000AF00F093F8031E22D100F027F8031E1ED000F031F8031E14D1FC1DFFF713FE031C2370DF
:4013400000F014FA0B4B0B4A1268520052081A6000F058FAFB1D1B78181CFFF706FE05E0044B044A1268520052081A60BD4603B090BDC04604010B4080B500AF044B1B68D8
:40138000002B01DA012300E00023181CBD4680BD04010B4080B582B000AF054B1B689B0F9B077B607B68181CBD4602B080BDC0460C020B4080B500AFFFF766FF044B044AE8
:4013C0001268802109060A431A60BD4680BDC04600F02E4080B584B000AF78600C4B1B6801221340FB607B68002B02D0012B03D005E0FFF749FF06E0FFF76AFF03E0002073
:40140000FFF7D4FEC046FB68181CBD4604B080BD00F02E4090B583B000AFFC1DFFF7A1FD031C2370074B074A1268C02109020A431A60FB1D1B78181CFFF797FDBD4603B080
:4014400090BDC04600010B4080B500AF054B1A68C0231B02134001D0012300E00023181CBD4680BD00010B4090B583B000AFFC1DFFF777FD031C23700C4B0C4A12680C4934
:401480000A408021C9010A431A60084B074A126807490A40802109020A431A60FB1D1B78181CFFF762FDBD4603B090BD00010B40FF3FFFFF80B582B000AF78607B68022BC8
:4014C00002D90020FFF772FE054B1B687A68D2000132D34001221340181CBD4602B080BD10020B4080B584B000AF786039607B68022B02D90020FFF759FE7B68181CFFF7D7
:40150000D9FF031E15D10C4B1B687A68D200111C03228A40D2431340FB603B68032213407A68D2009340FA681343FB60024BFA681A60BD4604B080BD0C020B4080B582B0CD
:4015400000AF7860054B1B687A68D200D34003221340181CBD4602B080BDC0460C020B4080B582B000AF7860144B144A11687A680A431A607B680122134005D0C04600202C
:40158000FFF798FF031EFAD07A6880235B00134005D0C0460120FFF78DFF031EFAD07A6880235B02134005D0C0460220FFF782FF031EFAD0BD4602B080BDC04610020B402E
:4015C00080B584B000AF78600023FB607B68012B09D002D3022B0BD00EE00C4B1B681B041B0CFB600CE0094B1B681B0CFB6007E0074B1B68FB6003E00020FFF7D7FDC04620
:40160000FB68181CBD4604B080BDC04600020B4004020B4090B585B000AF78600B23FC18FFF79FFC031C2370FFF70EFF031E04D00123FB60FFF718FF01E00023FB607B682F
:401640000D4A13407B600D4B0C4A12680C4911407A680A431A60094B1B68FB68012B01D1FFF7D8FE0B23FB181B78181CFFF77DFCBD4605B090BDC0460404040010020B407F
:40168000FBFBFBFF80B500AF334B1B68042213401FD0324B1B680422134017D0304B1B6804221340DA432D4B1B681A402B4B1A602B4B1B68042293431A1C294B1A60294B27
:4016C0001B68002B02D0274B1B6898470420FFF7A1FF214B1A688023DB00134022D01F4B1A688023DB00134017D01D4B1A688023DB001340DA43194B1B681A40174B1A6092
:40170000174B1B68184A1A40154B1A60154B5B68002B02D0134B5B6898478023DB00181CFFF778FF0C4B1A688023DB02134011D00A4B1A688023DB02134006D0094B9B688B
:40174000002B02D0074B9B6898478023DB02181CFFF760FFBD4680BD10020B40DC0C0020281000202C100020FFFBFFFF80B582B000AF0020FFF79EFE031E03D01E4B002297
:401780001A6024E00120FFF795FE031E03D01A4B01221A601BE00220FFF78CFE031E03D0154B02221A6012E0144B01221A60124B00221A600020FFF7C1FE021C104B1A60CD
:4017C00000200021FFF78EFE0120FFF7C9FE0A4B1B68181CFFF7F4FE031C7B60C046064B1B68181CFFF7ECFE021E7B689A42F6D0BD4602B080BDC046381000202010002017
:401800002410002080B500AF0A4B1B68002B0ED0094B094A126801218A431A60074B1B680020191CFFF75EFE024B00221A60BD4680BDC0462010002010020B402410002059
:4018400080B5ACB000AFF860B960BB1D1A800023A422BA1813600023A022BA181360BB689422BA181360BB1D1A889423FB181B68D318594A934200D994E09423FB181B680B
:40188000DB09AC22BA181360AC23FB181B68DB019C22BA18136077E000239822BA1813600023A822BA18136050E09C23FB181A689423FB181B689A422DD3BB1D1A88A42354
:4018C000FB181B689A4226D9FA68A423FB181B68D31819781423FA18A823FB181B68D3180A1C1A709C23FB181B681B78DAB2F968A423FB181B68CB181B789A4203D001237C
:401900009822BA181360A423FB181B680133A422BA1813600CE09C23FB181B681B78D9B21423FA18A823FB181B68D3180A1C1A709C23FB181B6801339C22BA181360A82311
:40194000FB181B680133A822BA181360A823FB181B687F2BA9D99823FB181B68002B0CD0AC23FB181A681423FB18101C191C00F01FFA031CA022BA181360AC23FB181B6806
:401980000133AC22BA181360BB1D1A88A423FB181B689A420AD9A023FB181B68002B00D17AE703E00123A022BA181360A023FB181B68002B09D0A023FB181B68012B04D0D0
:4019C00001235B42A022BA181360A023FB181B68181CBD462CB080BDFFFF010080B582B000AF78600A1CBB1C1A80BB1C1A887B681A60BD4602B080BD80B582B000AF78603C
:401A00000A1CBB1C1A80BB1C1A887B681A60BD4602B080BD80B584B000AF494B1B78DBB21B02484A1278D2B21343FB60464B1B78DBB21B02454A1278D2B21343BB60BB680E
:401A4000434A934207D1FB68072B04D1414BBB600423FB6009E0BA68D4231B019A4204D1FB68042B01D13B4BBB603B4BBA681A603A4BFA681A603A4B1B78DBB21B02394AFD
:401A80001278D2B21343FB60FA6880239B019A4202D0FB68002B01D1334BFB60334BFA681A60334B1B78DBB21B02324A1278D2B21343FB60FB68304A934206D0FB682F4A2B
:401AC000934202D0FB68052B01D12D4BFB602D4BFA681A602C4B1B681B097B602B4B1B68AA2B29D17B68012B26D9214B1B78DBB20E2B21D1264B1B78DBB29BB21B0299B2E7
:401B0000244B1B78DBB29AB2BB1C0A431A80224BBA1C12881A60214B1B78DBB29BB21B0299B21F4B1B78DBB29AB23B1C0A431A801C4B3A1C12881A60BD4604B080BDC04695
:401B4000D9F0FF0FD8F0FF0FDFF0FF0FDEF0FF0F580B0000580D00006C002E4074002E40DBF0FF0FDAF0FF0F0220000078002E40DDF0FF0FDCF0FF0F0F0F000005050000E5
:401B8000050F000080002E40EC0F00F0E00F00F06DF2FF0F6CF2FF0F84002E406FF2FF0F6EF2FF0F94002E4080B582B000AF021CBB1D1A80BB1D1B88181CFFF701FBBD4665
:401BC00002B080BD80B500AF00F0DEF8BD4680BD80B500AF00F0E2F8BD4680BD80B500AF00F0DCF8044B181C00F09CF8032000F0A5F8BD4680BDC0463920000080B500AF3C
:401C0000024B181C00F07CF8BD4680BD3920000080B500AF0223FF33181CBD4680BDC04680B582B000AF78602B23181CBD4602B080BDC04680B582B000AF78602B23181C99
:401C4000BD4602B080BDC04680B582B000AF78602B23181CBD4602B080BDC04680B582B000AF78602B23181CBD4602B080BDC04680B582B000AF78602B23181CBD4602B077
:401C800080BDC04680B582B000AF78602B23181CBD4602B080BDC04680B582B000AF78602B23181CBD4602B080BDC04680B582B000AF78602B23181CBD4602B080BDC046A9
:401CC00080B500AF2B23181CBD4680BD80B582B000AF021CFB1D1A702B23181CBD4602B080BDC04680B582B000AF786039602B23181CBD4602B080BD80B500AFBD4680BDCF
:401D000080B582B000AF786000F048F87B68181C00F008F8032000F011F800F035F8BD4602B080BD80B582B000AF7860024B7A681A67BD4602B080BD0000002090B585B029
:401D400000AF021CFB1D1A700623FB600B23FC18FFF707F9031C23700A4B0A4A1268C0218A43111CFA1D1078FA689040021C0A431A600B23FB181B78181CFFF7F6F8BD46E3
:401D800005B090BD0CE400E080B500AF024B802252011A60BD4680BD00E100E080B500AF024B802252011A60BD4680BD80E100E090B5A9B000AF7860396000239822BA1822
:401DC000136000239422BA1813607B684D4A934200D98CE03B68002B00D188E00C23FB1808331A1C3B68101C191C802200F0E1FA7B68454A934201D9444A00E0444A0C2347
:401E0000FB181A600C23FB187F225A60414B0C22BA181A60404B414A1A603E4B1B681B0F1A07A0231B069A4204D03A4B1B680F22134000E000239822BA1813609823FB189B
:401E40001B68002B52D19F23FC18FFF78AF8031C237000F069F8031C9422BA1813609423FB181B68002B05D100F08EF8031C9822BA1813609823FB181B68002B24D10C23A4
:401E8000FB18274A1A600C23FB181A687B681B041A430C23FB181A601E4B0C22BA181A601D4B204A1A601B4B1B681B0F1A07A0231B069A4204D0174B1B680F22134000E005
:401EC00000239822BA1813609423FB181B68002B05D100F081F8031C9422BA1813609F23FB181B78181CFFF740F804E003E004239822BA1813609823FB181B68181CBD46B0
:401F000029B090BDFF030000FF010000B6D70001B6D70000080010400400104004000080B6D800000500008080B584B000AF0023FB603B1D0F4A1A600F4A3B1D5A600F4B95
:401F40003A1D1A600E4B0F4A1A600C4B1B681B0F1A07A0231B069A4204D0084B1B680F22134000E00023FB60FB68181CBD4604B080BDC046B6E900003021002008001040FA
:401F8000040010401600008080B582B000AF00237B600D4B0D4A1A600D4B0E4A1A600A4B1B681B0F1A07A0231B069A4204D0064B1B680F22134000E000237B607B68181CCC
:401FC000BD4602B080BDC04608001040B6E80000040010401500008080B584B000AF0023FB603B1D0F4A1A600F4A3B1D5A600F4B3A1D1A600E4B0F4A1A600C4B1B681B0F83
:402000001A07A0231B069A4204D0084B1B680F22134000E00023FB60FB68181CBD4604B080BDC046B6EA00003021002008001040040010401700008080B500AF11F076FBF8
:40204000BD4680BD002243088B4274D303098B425FD3030A8B4244D3030B8B4228D3030C8B420DD3FF22090212BA030C8B4202D31212090265D0030B8B4219D300E0090A4A
:40208000C30B8B4201D3CB03C01A5241830B8B4201D38B03C01A5241430B8B4201D34B03C01A5241030B8B4201D30B03C01A5241C30A8B4201D3CB02C01A5241830A8B4276
:4020C00001D38B02C01A5241430A8B4201D34B02C01A5241030A8B4201D30B02C01A5241CDD2C3098B4201D3CB01C01A524183098B4201D38B01C01A524143098B4201D3EA
:402100004B01C01A524103098B4201D30B01C01A5241C3088B4201D3CB00C01A524183088B4201D38B00C01A524143088B4201D34B00C01A5241411A00D2014652411046F7
:402140007047FFE701B5002000F0FCF802BDC0460029F7D003B5FFF775FF0EBC4243891A1847C04603460B437FD4002243088B4274D303098B425FD3030A8B4244D3030B65
:402180008B4228D3030C8B420DD3FF22090212BA030C8B4202D31212090265D0030B8B4219D300E0090AC30B8B4201D3CB03C01A5241830B8B4201D38B03C01A5241430BB2
:4021C0008B4201D34B03C01A5241030B8B4201D30B03C01A5241C30A8B4201D3CB02C01A5241830A8B4201D38B02C01A5241430A8B4201D34B02C01A5241030A8B4201D333
:402200000B02C01A5241CDD2C3098B4201D3CB01C01A524183098B4201D38B01C01A524143098B4201D34B01C01A524103098B4201D30B01C01A5241C3088B4201D3CB00B6
:40224000C01A524183088B4201D38B00C01A524143088B4201D34B00C01A5241411A00D201465241104670475DE0CA0F00D04942031000D34042534000229C4603098B42CC
:402280002DD3030A8B4212D3FC22890112BA030A8B420CD3890192118B4208D3890192118B4204D389013AD0921100E08909C3098B4201D3CB01C01A524183098B4201D310
:4022C0008B01C01A524143098B4201D34B01C01A524103098B4201D30B01C01A5241C3088B4201D3CB00C01A524183088B4201D38B00C01A5241D9D243088B4201D34B006F
:40230000C01A5241411A00D20146634652415B10104601D34042002B00D54942704763465B1000D3404201B5002000F00BF802BD0029F8D003B5FFF715FF0EBC4243891A91
:402340001847C0467047C0460E4B70B500251E1C0D4CE41AA410A54204D0AB00F35898470135F8E711F0E2FA084B00251E1C084CE41AA410A54204D0AB00F3589847013553
:40238000F8E770BD3839010038390100383901004039010030B50024944208D0035D651C0C5DA34201D0181B02E02C1CF4E7002030BD002310B5934203D0CC5CC454013341
:4023C000F9E710BD031C8218934202D019700133FAE77047134A1088810703D08107890F401A001D11791030484381B25088820703D08207920F801A001D800040180A49CC
:402400004030098980B2CA0701D0503080B2890706D504495422091F09785143081880B270470000E60C00203C10002010B501F02FFF10BD10B501F041FF10BD10B500F0F9
:402440004FFA10BD10B50749044609780220002907D1204601F082FF002802D120460AF085FB10BD500E002070B504460120002C12D02368002B0FD0616800290CD0074DF0
:4024800006222889208118462968FFF792FF6968606809780170002070BD00003C100020FFB585B0002768460E9D07734C481C460078002802D0082009B0F0BD10990F98BF
:4024C00001900095029105A807C800F0FBF80028F2D16946264603AB84460873002C19D0002115E08A00B75A082F09D990198078002805D0083FB7521878401C187005E0A5
:40250000002915D00027B75290198770491CC9B2A942E7D360460028CED10F9800280AD0109901F069FA0006000E04D00120C3E701208446EEE701F0C1FE2948002101610E
:402540000C300599016021888180022D03D3A1798171A17AC17100211EE0481C19E082008B00A75AE65ABE46BE4211D26F463E80B4461E190296B678BE7001967646E65244
:402580001719029EBB78B3706646A652019EBE70401CA842E3D3491CA942DED3114800906846037B22460799069800F013F9002882D168460A4C007B60700A4801F0AEFE17
:4025C0000028B4D1204607490C3007F09DFA0028ADD107F0B7FA0028A9D1012121706BE7E00C00203C100020F8B5054633480E460078002802D002242046F8BD002E5BD06E
:4026000000242F49002D16D02A89D0070DD02868002808D003881B3BE12B04D24088FB2801D81B2801D2012409E0900707D56868002804D1F7E70020088108604860002C46
:40264000DAD11F482F8907811C481B21801D018041800421017119490020891C0870F80705D016480622801D2968FFF7A2FE1449B80703D56A681148127882700F480D46F0
:40268000801D0860001F486001F08EFE0B48801D01F07CFE28890DF097FA28890DF0FEFB03461033FFF796FE1F21C018890140180249308088809FE701249DE7E00C002042
:4026C0003C100020FFB58446384F1C460020BB883F78054602460646002F11D100290ED0029999420BD36146002908D0002C06D00A99002906D02E4B0B99994202D2012069
:4027000004B0F0BD002144E0AB001F19BF78002F3BD0E35A002B38D07B43591889B22B0000F04AF8050410161C253100A7782388BC46FF27233BEB37BB4222D26346032B8D
:402740001FD322E0A388002B1FD0302B19D31CE02389002B19D0282B13D316E0A289002A13D01346134F233BBB420AD20DE0268A002A0AD033460F4F233BBB4201D2964246
:4027800003D901200EE0002001E000280AD16D1CEDB2099B9D42B7D31C2463435B1802998B42ACD89642AAD8AAE70000E00C002079020000BAFF000030B47446641E2578C8
:4027C000641CAB4200D21D46635D5B00E31830BC18470000FFB583B0002469460C801F4606468C80002806D00598002803D004983043800701D0012467E0002FFBD03449F3
:40280000049809888842F6D3FFF7F8F9FFF7E0F900F010FC002856D100F06CFD002852D12C49084601F01CF905042D0C4BD12A480499066081800021C18007810C98007A8E
:40284000C00704D0684601F052FD040007D10C98007A800703D501A801F052FD0446BF1DFEB2002C21D13146059800F05DF804001BD10DF021FB0406240E16D16A461088CC
:40288000928808368518144AF1B29088D288AEB29319984207D3401B801A80B201F0D0FB050007D000E0FF25012400F05BFA002D04D008E0F8B200F01BF9F6E700F07EFAE7
:4028C00006490120087000F0C7FB204607B0F0BDE40C0020152A000048100020F40C002010B503480078012801D101F04BFA10BDF40C002070B5084B0446DA889E8800207D
:402900005518B54206D81D68AA182260DA885118D98070BD032070BD48100020014800897047000048100020F0B587B007460D4600208900009006916846FFF7DBFF8446DE
:4029400000285DD1304800990160002117E02E4B88001A680629115406D22C4C0419667882185670628805E0C419203CA67A8218567022891B68C018491C4280C9B2A9429A
:40298000E5D300242DE0601CC2B2059025E01E4FA30039689600581840887118039604904E88B04217D938466F46FE80B6464F786E4677710297049F4F800168039F5E181B
:4029C000767879184E700168764659184E800068029F18184770521CD2B2AA42D7D30598C4B2AC42CFD36046002809D168460699FFF780FF8446002802D10549009808609E
:402A0000604607B0F0BD0000F80C002060390100FC0C00207047000010B5002809D005494A68002A05D0011F08788000105801F0B5FA10BDF80C002010B50446FFF76EFF9F
:402A4000C0B2801DA0420CD307484068002808D0A100405801F014FA002801D00470001D10BD002010BD0000F80C0020F8B516460D460446FFF752FFC0B2801DA04203D23C
:402A80000020C0430090F8BDB2B2E9B2684601F01DFA0099481C03D0024AA000526811500098F8BDF80C0020F8B50746FFF736FF801DC6B20A49002005460C680DE061787F
:402AC000002907D06188B94202D32078FFF7B4FF002804D1241D6D1CEDB2B542EFD3F8BDF80C002010B5002801D0FFF795FF10BD70B506460948002504680BE0617800298F
:402B000005D062882078121D0023FFF7AFFF241D6D1CEDB2B542F1D370BD0000F80C0020FFB581B00A9C16002BD000F0F1F80546042826D0214F002C0BD02046FFF7B4FF6B
:402B40002901C919486000281BD022460499FFF730FC1A4928010E5046187481019805707D20029CC000444300F0C0F8009004280AD000F055FAA0420ED800F051FA201AE0
:402B800006E0FF2005B0F0BD204600F0ADFA0020B08135720020F5E700F042FA074600F0B9FA381B87B23846012100F0EFF800980101024808188781E6E700005410002041
:402BC000F8B5060117483418217A042903D0A089002802D018E00020F8BD00F021FA054600F098FA00F0A2F804280DD001010D480F18B88941198DB2002100F0C7F8002038
:402C0000B881284600F070FA6068064D002801D0FFF768FF042020720020A8516081A081D9E7000054100020FEB500266A46304601232549050169180D7A042D02D0898959
:402C400000291BD000211154401CC0B20428F0D300246846005D002830D01B482101081841894768056802910021016041600422418102728181002E02D015E01354E3E7E1
:402C800000F054F804280ED001010F480818019086890021304600F079F8019800218181304600F021FA0126002D07D038460299A847002F02D03846FFF714FF641CE4B2AF
:402CC000042CC6D3FEBD0000541000200EB5002005216A460090118150810348694600680DF05FFF0EBD0000000D0020074A0020010189180B7A042B02D08989002903D0C3
:402D0000401CC0B20428F3D370470000541000200549002002015218127A042A03D0401CC0B20428F6D370475410002030B50A4B04200A4C00210A011219157A042D06D091
:402D40009289002A03D09A4201D808461346491CC9B20429EFD330BDFFFF0000541000207047000030B50020074C05460423020111190B72A5504D60401C4D81C0B28D812A
:402D80000428F4D330BD00005410002030B5094C00231A011219157A042D04D09589002906D02D1895815B1CDBB2042BF1D330BD2D1AF7E754100020002070471CB50024A7
:402DC00069460C70142001902346054A05480DF0EDFE04480068401C00D1FF2420461CBD392E0000000D00203EB5124A0146FF2000230124126800290DD0012914D0042967
:402E000008D104206946009308814B8110460DF0C8FE80B23EBD6846009304814381694610460DF0B9FEF4E768460093048143816946EBE7000D002070B54589046841685A
:402E400000890300FFF7B8FC08280509091E22282628002005F06AFD1EE0022908D0C8B22A4621460CF016F82046FFF73BFE13E002202A4621460CF00DF82946204600F000
:402E80000DF809E000200DF07BFB05E02046FFF7CBFE01E0FEF730FF002070BD014B0022DB681847040D002070B5448905680089022803D0032809D0FF2070BD2246094C02
:402EC0000023A46829460120A04708E0FFF7B2FA241DA2B200232946022006F0C6FC002070BD0000040D002070470000024800214160018041807047040D002070B50C46BF
:402F0000002186B016460391012802D0022859D116E003A9012006F008FD01281BD1039D324621462846FFF744FA0095287801900220694608814E816846FFF7B5FF41E09F
:402F4000214D002B686809D0049004A9022006F0ECFC01281DD0022006B070BD002812D0298840182146FFF724FA28880024801980B228806988091D884206D12C8013481F
:402F8000FFF792FF03E00320E6E788421AD96C6018E004986860E278A378110219430B4A698000231060E3565360032313815181A1788170E178C17061784170217801707D
:402FC000042028800020C7E7040D0020941000203EB515460C46022803D004280CD000203EBD0091019002206946088107484A8100680DF0D6FD07E00BF04CFF044B002216
:40300000DB6829462046984701203EBD000D0020040D0020014AD16090607047040D0020034801688068081A0A21484300097047A010002010B5FEF7D1FD4822044905483B
:40304000FFF7B7F903490120C870002010BD00007C390100A414002010B5FEF7B3FD10BD70B5134C2368002B08D0207B1149C20705D04008400020738868A08070BD886866
:403080000B4AA18880B29268814203D90A4D691A091802E0814202D2411A5118A160A080A0689842EAD30DF099FD00F013F870BDA0100020C0102E40FFFF000010B50846F5
:4030C0001946FFF7A7FF10BD704710B5FFF780FF10BD000003480021016041608160C16070470000A0100020024610B5FF20002A0CD0FFF7EFFF064C0321207B084320734E
:4031000010010A21FFF724F82060002010BD0000A010002000B504480A21806848430209FFF7D8FF104600BDA01000200248007B8007C00F70470000A010002010B54449B6
:403140000868002802DA434B01221A70022290430860414800693E49C00B4031096A08425ED0012000F0D0FA3B483C497C30FEF743FC37480E216C30FEF73EFC36482021A6
:403180008430FEF739FC344814219C30FEF734FC3148FF21C131A430FEF72EFC2E48FF212F31B030FEF728FC2B482D49BC30FEF723FC29482B49AC30FEF71EFC2949264889
:4031C000491CB430FEF718FC23482749B830FEF713FC21482549CC30FEF70EFC1E4824490830FEF709FC1C482249A830FEF704FC194821498830FEF7FFFB17481F498C304E
:40320000FEF7FAFB14481921C9029030FEF7F4FBFEF700FCFEF7FCFCC0B2022802D00FE0FF2010BD16491748FEF7E6FB15481649001DFEF7E1FB134800210830FEF7DCFBBA
:4032400054200449C043891C0870002010BD000000F02E40140D002000002E4055650000320300002F3F00003102000010520000EC160000FA12000031D000003AE3000055
:403280009956000080012E40F80F000070B50646581C80B245086D00002408E0304600F0C1F81055000A1119A41C4870A4B2AC42F4D3D80705D0D0182038D15CC47FD45485
:4032C000C17770BD30B50A4C002100195B1E07E0541864782502545C2C430480891C89B29942F5DB994201D1515C018030BD000000102E4010B5FF2000F006FA0F49FF2066
:4033000048700E481021801D41800121417001700A490020C91C4870FFF710FF04000AD100F01AF907210648FEF758FB044807211830FEF753FB204610BD0000140D002084
:40334000CC112E4070B5002405465B1E0AE0284600F068F8010A161971702D1D1055A41CADB2A4B29C42F2DB9C4203D1284600F059F8105570BD000070B500210A4D5B1E5A
:403380000AE0541864782602545C344346193480001D891C80B289B29942F2DB994202D1515C4019018070BD00102E40F0B50599091FCFB200217E1E0BE0541864782502BF
:4033C000545C2C43164D45192C80001D891C80B289B2B142F1DBFC0712D01C78515C24020F4A0C4381180C809C785D78001D210280B2294384182180001D80B2D9780CE0AA
:4034000059781A7809021143054A84182180001DD9789B78090280B2194380180180F0BD00102E40014940180088704700102E4010B50B490020487000F08EF8002000F00A
:4034400089F9002000F076F907210648FEF7C6FA044807211830FEF7C1FA002010BD0000170D0020CC112E4010B506480078012803D102210448FEF7BFFA02490020C91E41
:40348000087010BD170D002070F02E4010B50B46062812D006DC01280CD0032801D1FFF7C7FF10BD0A28FCD00B28FAD105480078107010BDFFF71EFF10BD1146184600F08F
:4034C00065F910BD1A0D0020F8B5204DAC6A0127A0071F4E002816DA307806280ED1286A384328621B480069F903084381B219481030FEF781FA042000F006F913480221A2
:403500002830FEF76BFAE00711D0062000F0FCF80F49FF20C91E48707078002802D1686B38436863094801212830FEF757FAE0050BD53078042802D1052000F0E5F803483B
:40354000FF2101312830FEF749FAF8BD40F02E40170D002000002E4010B503212348FEF74BFA0120FEF720FB20483038406A204C80076178800F890001431C480C38FEF766
:403580003BFA6078002808D0401E022181401820FEF7CEFEC000083800E0B82081B21548FEF72AFA1348032109021438FEF724FA10481149B830FEF71FFA612189010F486E
:4035C000FEF71AFA0D480321001FFEF715FA0C490C48FEF711FA0B480B496038FEF70CFA084801218838FEF707FA10BD70F02E401A0D0020D8102E4090890000041E2E403A
:40360000FF0F000058122E4020900000044800684007400F022801D0002070470120704700010B4000B5FFF7F1FF002805D009480168C908C900016000BD0748016A49089F
:4036400049000162054801690122D2039143016100BD000000010B4040F02E4000002E400849087806280BD148780749002803D1486B400840004863C86A01221043C86205
:4036800070470000170D002040F02E400148007870470000170D002002484078022800D001207047140D002000B50300FFF784F8080D050D0B070507090D012000BD03201A
:4036C00000BD042000BD022000BDFF2000BD0000074A9168D26889B2064B92B2994204D105498A4201D1012100E000210170704780002E4033D000003FE300000149487021
:4037000070470000170D002010B50446FEF760FA072C01D9FF2C01D102480470FEF752FA10BD0000170D00200149487070470000140D002010B5064A012805D01921C90204
:403740001046FEF759F910BD1D21C902F8E7000090002E4010B50A4A141D012808D009491046FEF749F908492046FEF745F910BD04491046891CFEF73FF90349491DF3E717
:4037800088002E4031D000003AE3000070B50C460546FEF73DFAC0B202280E49287804D0FF2810D04C280CD810E0FF2809D10A4AD0680004800F032801D0087807E09069D5
:4037C000000A553803E00878207070BD4F382070087070BD160D002000002E40F0B50122002830D000292ED00424420600D00524792342065B06D21800D0641C034600223B
:403800001EE00C2516466E43104D00277519AF720E4F002ABB51696007D0661EB24209D10B4E86197606760E05E05E06760E8027BE1B00E080269B198919521C2E81D2B2D2
:40384000A242DED300221046F0BD00002C13002079020000F8B507460020002F03D100F037FE002827D1154E002421460C2251438D19AA7A012A0DD12A8971586868FDF78F
:40388000DFFF002800D028200021A972002F05D0282803D0641CE4B2062CE6D3641CE1B207E00C224A439219927A012A04D0491CC9B20629F5D3F8BD2820F8BD2C13002033
:4038C000074900200C2242435218927A012A05D0401CC0B20628F5D300207047012070472C130020F8B50F000446164609D0184D18496868A04202D94018A04201D38E42F1
:4039000001D90120F8BD39462046FEF743FD00281BD0324639462046FEF74BFDF0B200210C224A43521913895668F718A74208D90127A41B1B1B9772834206DAC01A1469D2
:40394000C0B2491CC9B20629EAD30020F8BD00002C1300207902000010B500F05DF80748054AC16806480C46FEF723FD04492046FFF734FF10BD000079020000200D002063
:40398000B0100020002070470020054A002902D0012902D002E0506000E0906000207047200D002070B5084C154608460549A26889182A46FEF7FDFCA0684019A06028B2B0
:4039C00070BD0000B0100020200D00203EB50A226946FFF7E7FF044606480A2200686946FEF7D8FC002802D00020C0433EBD20463EBD0000200D0020002802D0044A91423E
:403A000001D2FF20704703490A61C8600020704779020000200D0020024800214160816070470000200D002070B5074C15460548626880182A46FFF755FF60684019606051
:403A400028B270BDB0100020200D002010B503490A220968FFF7E8FF10BD0000200D002010B50F4A002313600E4A13600E4B18600E4801600E49012008600E4908600002C5
:403A800090600E490C4808600D4914300860FF381538506000F0BCF800F0CAF9002010BD4C0D0020340D0020600D0020640D0020500D0020400D002074140020440D00208E
:403AC000580D0020014610B50020002910D0094B1A689C685118A14209D25868196080188A0704D08A07920F891A091D196010BD002010BD340D0020F8B50024164E671E8C
:403B0000321F3D463168136806E01422624310328A58521C1BD0641C9C42F6D36A1C14D02C461422544322460C3288500C214843FFF7C8FF3168002808510AD031680020EF
:403B4000103408517068401C70602846F8BD2546E4E73846F8BD0000440D0020F3B50026F64381B000281BDB1E490968884217D80299002914D01B4F142204463F1D54433B
:403B80002546396810354859401C09D0FEF720F838682F1F4159C359994203DBFEF712F83046FEBD214608310091465801590C20704308180C220299FEF7FBFB0948761C85
:403BC000001D0068C159B14200D100260549009A091D865008684159491C4151FDF7F2FF0020FEBD400D0020002803DB07490968884202D90020C043704704491422091D3B
:403C0000096850431030085870470000400D0020F0B500200D4A451E0346171F50600FE014260146714314680E1DA3510C461668083433511668083435511468401C6350F4
:403C400039688842ECD30020F0BD0000440D0020F3B50026F64381B0002841DB2349096888423DD8029900293AD0204F142204463F1D54432546396810354859401C2FD0A7
:403C8000FDF7A6FF3868415900292BD0211D009146580C21005971430F46C1190C220298FEF787FB11480021001D0068761C00590C34C0190160416081600C48001D006839
:403CC0000159B14200D100260849009A091D865008684159491E4151FDF774FF0020FEBD3046FEBDFDF76EFFFAE70000400D0020FEB504460D4600201E49089E0860471E2A
:403D0000009001900290002C11D0486885420ED2002A0CD0002E0AD0642E08D808460C3001681C2068430C18207A002801D03846FEBD0120226020721846FFF7DDFE6060FE
:403D4000401C13D06681A6810A4827610C3067610179A94200D205710021684601810A462846029B00F040F82846FEBD00202072DDE700004C0D002038B50124009400F0E9
:403D800039F838BDFEB50027164EFF433D4600240EE01C20316860430818017A002906D04068FFF721FF002801D0254603E0641C3079A042EDDA681C12D01C2130684D4314
:403DC0004419FDF705FF69466068FFF741FF0546FDF7F8FE002DD9D1216868468847D5E7FEBD0000580D002038B50024009400F001F838BD1FB500220C49541E0A600028E1
:403E000011DB496888420ED808491C220C31096850430818406801A9FFF7A0FE401C02D0002004B010BD2046FBE700004C0D0020F0B50021114A4D1E174611710C3F0B46C8
:403E4000BD6016E008461C2460431668041D355114680646235014680836A3551468361DA353044616680A34335318301468491C255078688142E5D30020F0BD580D002050
:403E800038B500210091002811DB0F49097888420DDA0D4D04010C3529680859002807D0201D0818694600F06FF9002801D0002038BDFDF78DFE28680F34015D491E015555
:403EC000FDF780FE009838BD680D0020F7B582B0002502986E1E06602E48D21C024017462D4A2C4610460C380178106805E02301C358002B0FD0641CE4B28C42F7D3711CBF
:403F000028D03401211D40180191039900F02AF900281FD101E02646F1E71F48016820460C300F521C480399026820460E30115419480399026820460F3011540398784333
:403F400000F0A0F8144900280968085102D00024009011E001251AE00F48016801980818009900F02CF9002801D0012502E00098C0190090641CE4B203988442ECD3002D47
:403F800005D10298066004480179491C0171284605B0F0BDFCFF0000740D0020F8B50D4600216A468C461180002839DB23490978884235DA214B04010C3319680A59002A2E
:403FC0002ED020460C300B5A801C0E5C184670438018954224D3854222D2002006E007465F43BF18AF4206D0401CC0B2B042F6D36046002814D0114E271DC8190C366A4640
:40400000294600F006F900280AD168460088012808D030682946C01900F0D1F8002803D00120F8BD0020F8BDFDF7D2FD30680F34015D491C0155FDF7C5FDF3E7680D0020CD
:40404000F8B50F46002400F031F8002817D10C4900220B460C334A600EE021011D680E466A501D680C36AA53B61C1D680F31AA551D68641C6A54E4B2BC42EED31A71F8BDEB
:40408000680D002000280BD0C01C074A81085068890053884118994203D89368516018187047002070470000680D0020F8B5064600200F4D009029700C0121466846FEF7D3
:4040C00019FC00280CD129460C3100980860301B001F84B221466846FEF70CFC002801D0FF20F8BD6C800098A8600020F8BD0000680D0020F8B5002827DB19490978884201
:4041000023DA174C05010C342168485900281CD028460C30085A009028460E300E5C401C0E5420682F1DC01900F064F800280CD12068002445590EE0094829460C30006891
:40414000C01900F03CF8002801D00120F8BD00982D18641CE4B2B442EED30020F8BD0000680D002030B50D4604000BD0A800FFF789FF6060002805D000202570C0436080CD
:40418000002030BD012030BD70B50D46040005D0002D03D00220205E002801DA012070BDFDF716FD0221615E60688900405828606088401E6080FDF705FD002070BD70B5BA
:4041C0000D46040007D0002D05D002212078615E401E814201DB012070BDFDF7F9FC6088401C00B26080616880000D50FDF7EAFC002070BD10B5040009D022780021606819
:40420000FEF7E0F80020C0436080002010BD012010BDF0B500231D46002802D00224045F0AE00120F0BD46689F00F6598E4201D1012503E05B1CDBB29C42F4DA15700020D1
:40424000F0BD000001480078704700007C0D00207CB505460024FEF7EDF8A8796946087000A8062229460130FEF7A3F80021684604F022FE0C2804D0072804D01F2804D0A5
:4042800004E0022402E0042400E0272420467CBD10B502280BD0032802D0042809D102E000F070F905E000F01BFAFF2801D100F02BFAFFF7EBF9FFF7F7F910BD10B500F0DE
:4042C00053FAFFF7E3F9FFF7EFF910BD70B504460025FEF7AFF8002C06D0A079012803D8214602F007FD00E00125284670BD01460120002902D05020088000207047000075
:4043000001460120002905D0034854220078504308800020704700007E0D002010B502460D49FE204870032410460CF05DFF002810D10CF001FF00280CD105F053FB0028BE
:4043400008D100F01BFC002804D105F039F8002800D10024204610BD7C0D002070B50025044600280ED0A07901280BD8FEF762F8A0790028204602D003F098F803E003F061
:404380006DF800E00125284670BD0000014610B50120002904D006220248FEF70AF8002010BD0000800D002001460120002903D00878024908700020704700007E0D0020A1
:4043C00010B5FFF763F9012801D1FFF765F910BD38B504460120002C20D0617801291DD800290BD0FF25E535FEF724F80C4828180088C0B22070072803D00EE0FF25CD3597
:40440000F2E70020694608706846FFF761F969460878012801D108202070002038BD000000102E4010B507480024807B002806D00448203002F074F8012800D1FE2420463C
:4044400010BD0000EC140020F8B504460120002C26D06178012902D92278092A20D8002905D0FF25E5352078092803D004E0FF25CD35F8E708202070FDF7DCFF2078114F32
:40448000114E08280DD00020FFF764F970780128207810D00D4969180880FE2070700020F8BD0120FFF756F90720B8810549203188800120F2E7B88102482178203081808E
:4044C000EBE70000C0112E407C0D002000102E4010B509480024807B00280BD0FFF7D6F8062801D0032800D12824FFF79BFFFE2800D12824204610BDEC14002070B50E46A2
:40450000050001D0002400E00C4C002C11D0E28A500609D5D107C90F022003F065F8E08A40218843E08204E0D107C90F012003F05BF83146284602F039FD70BD0C1500200C
:40454000F8B50546002004460D4E009013E022466946284601F04AF80098002801D00CF025FEA878214602F00FFBA878214602F0FDFA641CE4B2308AA042E8D8F8BD000079
:40458000C4150020FEB54E4DFFF780F8012849D14C480078002845D002F090FC002841D004F02CF900283DD0474C6078C00703D000F0E6FC012835D0207E00287DD16078C4
:4045C000002600285BD0000706D540488089070B00F02EF9384370D13B484178684603F077FF044628793A4DA9784018C1B2A14261D802F063FC00285FD0344860300089E0
:40460000314F0190203702F0AFFA6846008802F0D9FA02F069FB2F490988884203D10120FFF772F849E02C49012008702648807B00281BD00198002818D04037F87E00288D
:4046400014D12248603000884000A0420AD96878002807D102F0F6FF2049088A03221202104308822878002800D02E7002F0D8FA0120FFF743F800F0F5FB174C15E002F080
:404680001DFC002819D0102402F02EFB214602F023FA02F097FA104C0120207002F0C0FA0020FFF72BF800F0DDFB20780128B6D1FEF7B8FF26700020FEBDFF20FEBD00008F
:4046C000E4140020140D0020EC140020A0102E408C0D00209E0D0020860D0020E0112E4010B50848FF244078002809D102F0E6FB012805D1FEF7B8FE0720FFF705F80024E0
:40470000204610BDEC14002038B5FEF7BFFF012801D0002038BD02F0D1FB00280AD0114C6078C00703D000F02BFC012802D0207E002801D0FF2038BD617800290FD068469C
:4047400003F0C6FE022806D96846008802F03AFA012002F06BFA0320FEF7D6FFD9E70020F7E70000EC14002038B51E4CFEF78EFF042813D0052811D0062812D003282AD0AF
:4047800007280AD100206946087002460120FEF77DFEFEF77BFF0128FBD138BD00F082FB38BD02F05BFA00F07DFB02F0D7FA8007800F0228F4D10C4841880029F0D05B211B
:4047C000095D0029ECD101210170A07D0140022002F00AFF38BD02F045FA0120FEF794FF38BD00000C1500208C0D0020F8B50646002402F067FF0546304602F07DFF0346B4
:404800000A480021068A0DE001228A401046174628401F40002803D0002F01D1224394B2491CC9B28E42EFD82046F8BDC415002070B500252C460A4E03E0002C01D00020DB
:4048400000E030460079002803D02046FFF7CEFF0543641C2406240EEFD0284670BD00000C1500201CB50020694648706846FFF7AFFD01AA69460A20FEF708FE694604208C
:4048800008561CBD10B50C4601F082FA002809D00179002906D0C1788078224602F00CFC002010BD022010BD0148007870470000E41400204030C07E002800D00120704746
:4048C00000B500F001F800BD8C2148430749084A40186030417F491CC9B24177D289914201D300214177C8B270470000EC140020C415002013B501F04BFA04000BD001F050
:40490000E8FD002807D0214601AA0A310620FEF7BDFD00201CBD02201CBD000010B50C4601F036FA00280AD001F0D3FD002806D0224604490A20FEF7A9FD002010BD0220FB
:4049400010BD0000CD140020F3B581B0074601460026029802F0AEFE0446002F01D0002500E0154D002D21D0284601F047FA032C04D13946029802F0F9FE064638460299C4
:4049800002F0F4F8032C06D0002C10D00121384601F03AFB03E03146384603F0E3F8284601F0D2FF0221284601F0E8FFFEBD3846029902F0DBF8FEBD0C15002010B504465F
:4049C00003F01AFD002801D00C2010BD2078611C02F074FCFF2801D01F2010BD02F0BAFCFF280AD02178621C02F048F8044821780068026B601C904710BD072010BD000080
:404A0000A40D002010B503F0F7FC002801D00C2010BD02F035FC03480068C06A8047002010BD0000A40D002070B50D46044610210CF0FCFA1021601806460CF0F7FA334643
:404A400010221946204603F005FD102130460CF0EDFA02202870204604F00AFC70BD0000F8B504464078217802028006870FE0781143A67809050002090D0643084601F099
:404A800087F900210546F2B2002812D0002C10D0022F0ED0032F0CD0002A0AD00279092A07D0002A05D0134A5A23527E1B5C9A4207D82889002104F010FB20460CF076FB2B
:404AC000FF21002914D10C48224600682946436930469847C0B2FF280AD128464030817EF2B2491C8176FF232146284600F0DDF8F8BD0000A4140020BC0D0020002070479A
:404B000010B5044603F078FC002801D00C2010BD2078611C02F0D2FBFF2808D002F00AFB044821780068426B601C904710BD1F2010BD0000A40D002010B504F041FC00F066
:404B400057F9002010BD10B5044600786178E2780843A17811430843217908436179084305D003F03BFC002803D00C2010BD122010BD204602F09AFC002010BD10B5FDF7AB
:404B800047F802F0C1FD044803F08CFD02F0DCFA012000F003F810BDB4140020F1B586B003A8009005A8019025489F22817A114081726846FDF758FC00283FD16946098984
:404BC000C90705D01F4806990068C2686846904769460989890706D500282FD11A480068816A06988847002828D1184E0025757075737571F575357675767575B570F5702A
:404C0000B5713746F5730120BC3738731F20F880FF2130467972A0300175457500F076FA00242046069901F0FFFB002803D1641C2406240EF5D0FD72BD72B57307B0F0BD37
:404C4000A4140020BC0D0020A40D0020EC14002070B505460E46084602F034FD0446304602F04AFD0121A9400A46224001400A4301D0012070BD002070BD10B50446084640
:404C800002F03AFD0121A140014201D0012010BD002010BD10B5FEF7F9FC032804D101F0E1FF0120FEF730FD10BDFEB51C4616460F46054601F048FEA878FFF701FE0246A4
:404CC0000190334639460094284600F00DF8002808D1A8780199FFF711FCFF2C02D138460CF064FAFEBD0000FFB585B005460E980C46FF2810D02B49C00009680A58401853
:404D00000179C0795278814201D9012601E09006860F6846038108E06078A1788006860FE0780002014368460181284601F0DCFB070007D021462846079A00F0EBFB384654
:404D400009B0F0BD304600F099FC04AE0346039002AA29460096204600F025FB3C20405D002818D0284601F0BFFB012813D0684600890096C0B20190A878231DFF220799FE
:404D800002F0C8F868460089039BC2B2A878079902F008FCD3E7684600890021C0B20091E9E70000B80D0020F8B5104F002500242846FFF71BFD060012D00EE03046E0403B
:404DC000C007C00F07D02146284601F0C5FE21462846FFF7B9FD641CE4B2388AA042EDD86D1C2D062D0EE2D0F8BD0000C415002010B502F0A9F90020FFF7D0FE0CF06CFAC7
:404E0000002010BDF8B5002400F0B4F80123012800D10124104F00203E4620360425082203E0002801D0002100E031460979002907D001290BD002290BD0114681402143CC
:404E4000CCB2401C0006000EEBD07C70F8BD1C43F7E72C43F5E70000EC14002010B5FFF7D1FF10BD70B50E4CFCF77BF80546FEF70DFC062802D02078012803D02846FCF7C5
:404E800074F870BDFCF7B0F92846FCF76EF8FEF7FDFB0628F5D020780028E5D170BD0000860D002010B5FCF75CF80446FEF7EEFB012809D0FEF7EAFB022805D0FCF794F931
:404EC0002046FCF752F8EEE72046FCF74EF810BD10B50B4681791943817103D08078114602F02EFB10BD10B582798A43827102D1807802F039FB10BD30B50C4C0220A28A9D
:404F00000B4B9978002901D0022906D11D785B78EB18282B01D9032002E0032900D101205105490DC0020143A18230BDC0112E40870D002000B500F023F8002807D00128B6
:404F400005D0032801D0042801D0002000BD012000BD014600B50020C90701D000F00AF800BD014600B50020C90701D000F002F800BD000001480088000A704720102E40A8
:404F80000448008B410501D5042070474007800F7047000000102E4038B50446000610D5FFF7EEFF01280CD1684601F06BFE6846007800F0B3FA012001F02EFD0220FFF7ED
:404FC0004DFF0348006801692046884738BD0000A40D002010B5034A0178117002F0D2F9002010BD870D002070B50446FFF7C2FF002801D00C2070BDA27B01211F48002A9B
:40500000827801D00A4301E05208520082706279012A14D0C17849084900C170184D2868016820468847207901280CD06188208803F012F82080207904280FD015E0C278B9
:405040000A43C270EAE72868C168E01D8847E01D02F018FA0B48808C208006E02868C168E01D8847E01D02F00DFA074920798870204602F095F9002070BD0000EC140020C6
:40508000A40D0020A4140020870D002008B50178FFF770FF814201D10C2008BD002914D0072069460870FFF745FF012807D10121684600F08BF8012801D0092008BDFFF7BB
:4050C0001BFF02F0A1F9012011E0FFF733FF012806D1684601F0D6FD6846007800F052FA02F088F9FFF746FF0028FBD10220FFF7B5FE002008BD000010B5034A017851705E
:4051000002F0FEF9002010BD870D002038B568460BF0E2FF002801D01F2038BD01210098C90201804180002505714571857107214173857302F034F9009C202200212046DB
:40514000FDF740F925702A460021601CFDF73AF9204602F017F9204602F0D2F900980CF025F8042200210248FDF72CF9002038BD870D00200346084800B5834209D8184638
:4051800000F006FE002804D00089984201D1012000BD002000BD0000FF0E0000074A9179491C8906890E917138220A4092014907090E11430843024908407047EC14002073
:4051C000FF0E0000C006C00E70470000F8B507460E4600240D4803E0002C01D0002500E005462979002905D0641C2406240EF3D00020F8BD0021204601F016F92E712046C0
:40520000FFF7CCFF28813C700120F8BD0C15002010B503F053F90222002100F003F801F03FFF10BD10B5094B40074907000F090F185A595A40185043C0086421FCF788FF63
:40524000002800D1012080B210BD0000C4390100F7B53D20405C88B015460C46002802D02878042802D200200BB0F0BD6946087200262046FFF71EFB012800D00126204621
:4052800003A938300191009023460327A17E34333246206A03F020FA02A8089900900B46019120463A4603A9243003F0B3F802466846007A2870204601F0A2F81046D3E745
:4052C000FFB587B00C4605461078694608723D20005D1746002826D000262046FFF7EAFA012800D00126204603A93830019100902346A17E34333246206A03F0EDF902A8AA
:405300000090291D019120462B1D03A924300A9A03F080F802006846007A388002D1204601F06EF810460BB0F0BDF0B505463C20405C89B016460C4600280CD030786946EE
:405340000873002806D000272046FFF7B3FA012803D003E01F2009B0F0BD012703200890204604A93830019100902346E17E34333A46E06903F0B0F96846007B03A92818D7
:405380000290009120462B46019504A92430089A03F074F802466846007B3070204601F039F81046D7E7FFB505463C20405C89B016460C46002810D0084601F095F80128D3
:4053C0000BD0308869468883002809D000272046FFF770FA012805D005E000200DB0F0BD0220FBE70127204603A93830019100902346E17E34333A46E06903F06DF9291DA6
:405400002B1D07A8129A6D4607C5204603A924300C9A03F033F802466846808B3080204600F0F8FF1046D9E770B50D460446FFF741FA01280AD0E87AA97A00020143A07833
:4054400001F01AFD012808D0002070BD00222421204602F053FD242070BD28214C200155204600F0A3FB282070BD0000002801D0002000E003484030C07F012800D00020D6
:40548000704700000C1500200146002049070ED50021084B03E0002901D0002200E01A461279022A04D0491C0906090EF3D07047012070470C1500200146002049070ED564
:4054C0000021084B03E0002901D0002200E01A461279022A04D0491C0906090EF3D07047012070470C15002010B5044680346068002803D00BF06EFE0020606010BD403046
:40550000417070474030817070474030017070470171704792001018C166704770B53C2501F092F9040004D020460021433001F043FCFF222946204600F0D4FB002C02D0DB
:40554000A07801F003F970BD10B5002801D0002000E00348002802D0008903F005FE10BD0C15002010B5002801D0002000E00448002804D00179072901D100F047F810BDEB
:405580000C15002010B501F05FF9002802D0807801F0DCF810BD00207047000070B50546008A00281ED01049F122897A1140C90618D5294640314A8A098A521C4A4392B22F
:4055C000D10800D10121540801E0621A94B2A042FBD9FEF737FE012804D1298AA878224601F020FD70BD0000A414002010B50023054C0B60248A944204D992001018C26EC5
:405600000A60C36610BD0000C415002038B5044600200090A079002814D14020015D052901D00E290ED168460BF066FD002809D12046009902F040FC03481021C28A2046C8
:40564000FFF746FC38BD0000A414002010B50B4604460146184602F0BDF8002802D020460BF0AEFD10BD13B5044601AA11460620FDF70CFF6846818861811CBD002800D102
:405680000220704770470000F8B504462346401D543300909A1EA078911E01F00FFB25464035A88A298A8000FCF752FD401E81B2688A884203D96982A07801F0CFFF204634
:4056C0000021433001F078FB27480088E88102F0F5FEE989891C8AB26179FFF7A3FD01F0DFFC02F0EBFE2A8A6179FFF79BFD074601F0CAFC688A002806D01C49088A0322D7
:4057000012021043088202E0002001F09BFF1748803801886E8A002E0CD0304648431449FCF706FE0004000C01D0401C80B21149488002E00F4800214180288A704381B2B0
:40574000A07801F0EBFEFF2228374932B9B21346204602F085FCE98AA07801F05FFEA07801F024FAF8BD000080102E40E0112E40710200008C0D00207FB504468034616866
:4057800005460E46183108226846FCF712FE31462031082202A8FCF70CFE102168460BF045FC6068102108300BF040FC60682B46083024331022694602F04CFE7FBD10B524
:4057C00004460821FFF78FFB10212046FFF78BFB207905281FD006281DD008281AD12189002003F039FC072020712046FFF762F8014620464030012913D00E21017000216D
:405800000176204600F0B4FF2046FFF76DFE2046FFF7C4FE10BD20890122002103F000FCE1E70521EAE70000FFB581B01F4604460821FFF758FB10212046FFF754FB207920
:40584000082803D0092804D0042203E00422012501E009220025204600F032FE264600204036307022712046FFF73EFE0398002D02D0012808D00BE001280AD120890022F2
:40588000029903F0CDFB04E02189029803F0E4FB012700203076012F04D0204600F068FF05B0F0BD02983073204602F053FB054605480121C28A2046FFF70AFB002DEFD150
:4058C00009202071ECE70000A414002070B50C460546FEF7EFFF012809D108212846FFF702FB0023012221462846FFF79DFF70BD10B5044600F0E4FD2046FFF7F5FD0021E8
:405900004034217010BD70B505461A24FEF7D2FF012809D108212846FFF7E5FA0023012221462846FFF780FF70BD0000F8B50446002000900E4668460BF0DEFB002801D07F
:405940000D20F8BD8420005908212030009D00F01AFA20460421383000F015FA002E02D1204600F0FBFD2946204602F034FA0E480821C28A2046FFF7ABFA204600F069FF6E
:4059800025464035002808D0204600F023F8002801D0092028700020F8BD08202870204600F0D2FFF7E70000A4140020014610B540310A460978082906D0092907D00A29D9
:4059C00001D100F091F810BD0B20107010BD00F001F810BD70B50446007925464035052805D0062803D008280FD00C2070BD03220621204602F082FA0D480821C28A2046DE
:405A0000FFF766FA1120287010E006202873204602F0A0FA0646AA8A0A20424301212046FFF756FA002E01D109202071002070BDA414002038B504460020009068460BF038
:405A40005BFB002801D00D2038BD2046009D00F0B1F908202071204600F080FD2946204602F0ECF900213D2001550F2040210855204600F069FF002038BD00B5024600F05F
:405A80001FFD10214032117000BD10B50446FEF711FF012809D04020005D112805D100231A4606212046FFF7BFFE10BD10B5FFF786FE10BD38B504460021684600910BF0D9
:405AC0001BFB00280CD12046009902F038FA05480821C28A2046FFF7FBF90D204034207038BD0000A414002038B504460021684600910BF001FB002801D00D2038BD204649
:405B0000009902F011FA05480821C28A2046FFF7DFF90C2040342070002038BDA414002000787047F8B50025002801D0002400E01A4C002C28D0204600F0CBFC002823D0FC
:405B4000207903281CD005281CD026464036B18AA07801F0EDFCB078012815D10021204601F055FE274680373868002802D00BF031FB3D600020B0702079072805D007E005
:405B8000042000E006202071F8BD2046FFF706FD0221204600F0F2FEF8BD00000C15002010B54C22115400F04CF810BD10B50446FF21FFF798F909202071A07801F0DEFCCB
:405BC00010BD000038B5FF216A461180002801D0002400E0084C002C0DD011460620FDF755FC684601882046FFF73DFD03480068C1692046884738BD0C150020BC0D002070
:405C000010B504468079002809D022214C200155FF212046FFF767F9204600F012F810BD10B5037902464032002B03D01173092B02D003E0002100E02221117300F001F836
:405C400010BDFEB504460089002700902781207926464036002817D0012815D002280AD112E002AA01A9204601F0A2FD002807D101980BF0A5FA204601F0C2FD0028F0D066
:405C80002046FEF75DFCB776254680352868002802D00BF09FFA2F606868002802D00BF099FA6F60317B002919D0009800F064F8A078002100F094FF2046FFF7A9FAA0789A
:405CC00001F0C4F8A07800F041FDFF212046FFF70AF90B20FFF7C2F800F07AFCFEBD1F213173E2E7F8B517460E46054602F0E2FB04003CD020460C3001F04EF8204606229A
:405D000000211830FCF75EFB2046062200211230FCF758FB1648224600683946436A28469847074626702846FEF7C4FD012148406070002D10D02889608028464030C1789A
:405D40002171002E0FD169796171018AE180418A2181808A608106E00648008BC005C00F2071002060803946204603F0F8F8F8BDA40D002000102E400A4610B5014600205F
:405D800003F00AFA10BD10B50AF02CFF10BD000000B50146FFF716FA002801D0002000E00348002802D002898A4200D0002000BD0C15002038B5044680346068002806D131
:405DC00068460BF0A9F9002801D100986060606838BD000010B5014600F086FB0128887802D0FEF771FD10BD8C214843024940186030007F10BD0000EC14002070B505465A
:405E000004464035A87F012811D1A1788C20084A484380186030067F3046FEF719FF002805D10220A877A078314601F0C9F870BDEC14002010B50C4CA07A002813D0FEF79B
:405E4000B3FF0A48027F417F408B00F0C9FB012809D10020A07200F02BFF05498989090B01D000F03BFA10BDA8150020EC140020A0102E4070477047490510B5490F0B00D9
:405E8000FCF79AFC060704080C0C0F073E21FFF787FE10BD0821FFF7C3FE10BDFFF7D1FE10BDFFF7ADFE10BDF8B507460025002D01D0002600E0204E00F0A8FE30464030B1
:405EC00044890021418100F0C1FE304600F001FB01282BD1A00702D52846FFF723FEE00602D52846FFF76EFEA00601D5FEF75CFF600601D500F026FB200602D5284600F0B8
:405F00001DF8600702D5284600F02CFA380402D52846FFF727FB780402D52846FFF714FBE00703D021463046FFF7A6FF6D1C2D062D0EBCD0F8BD00000C150020F8B50028AB
:405F400001D0002400E0284C002C4BD025464035A878012846D1FF278820493700593E46002805D02149897A890601D5878AC68A2046FEF79FFC012834D002F09FFA2A8A94
:405F80006179FFF74FF9009001F07EF800983346283081B23A46204602F062F8E98AA07801F03CFA12480188688A124E002810D048431149FCF7BCF90004000C01D0401C4B
:405FC00080B27080A07DC107C90F002001F00CFB01E000207080288A698A484381B2A07801F09CFAF8BD00000C150020A414002060112E408C0D0020710200000149096823
:4060000009680847BC0D002070B50D460026194A0146002801D0002401E014462034002C26D0204600F060FA01280AD18C20484380186030007FFEF70BFE002801D101F026
:4060400009FF0D48006881692046884700280CD020464030817EA94202D3491B817600E086762089294603F038F8204600F06CFC70BD0000EC140020BC0D002070B50346CF
:406080000088FFF785FE040013D000F022FA00280FD02079092819D02546997840352973204601F057FF0646A878012803D0AA8A02E0022070BDEA880A2042430121204682
:4060C000FEF706FF002E01D109202071002070BD0EB5002217216B460292198100905A810120029B00990BF015F90EBDF8B518480024807A002822D1164E0025B089000BFA
:4061000022E0204600F072FE1249A039401807882A462146384600F063FA012810D00E480122478305770A4944778A72002D01D0002000E02030002801D000F005FCF8BD1B
:40614000B089000B641CE4B20028DAD1F8BD0000A8150020A0102E40EC14002010B50088FFF716FE002809D0014640310C460978082905D00B2903D00C2010BD022010BD4A
:40618000FFF728FC002801D009202070002010BD70B503460088FFF7FBFD040008D0254640352878082805D00B2803D00C2070BD022070BD8420005910220830991CFCF724
:4061C000F8F82046FFF7D8FA2878082804D02046FFF78AFC002801D00A202870204600F0B3FB002070BD000010B50C46002121700088FFF7CDFD03000BD000F06AF9002885
:4062000007D00948F121807A0840C00603D4112010BD022010BD022020701A8A1889002102F0D6FF002010BDA4140020F8B50F46002100910088FFF7ABFD040012D000F004
:4062400048F900280ED0E079410641D4617E02264A07002A08DB8907402500291ADA2843E07135E00220F8BD02F024F90021017021894180A1898180217E4170E189C180D1
:406280003E7005460178134802F07CFC284602F043FF1DE0204600F02DF9012806D068460AF02AFF002803D00720F8BD2A20F8BDE07900992843E071204601F075FE607E90
:4062C0000421304360760448C28A2046FEF700FE0020F8BD1D040000A41400203EB500220F236C460292238100910190628169460EC900200BF00EF83EBD0000F8B50F4697
:40630000054600F0A1FA040025D003202071254600264035EE76E6702046FFF7B5F901F069F80920FEF79AFDA07800F07DFD0121204600F023FB2E706E70AE703A460021B6
:406340002046FFF7CFFC0649887B401C8873A078FFF754FEF8BD284601F010F9F8BD0000EC14002010B5002801D0002000E0094800280DD0014640310A464978022901D121
:4063800000215170807DC107C90F002001F02CF910BD00000C15002070B503460D460088FFF7F6FC04000BD000F093F8002807D01248F121807A0840C00603D4112070BDE7
:4063C000022070BD20464030418A008A491C41430804C10C5888884201D2122070BD20822079072802D12046FFF7D8F8022028702089002102F014FF002070BDA41400206E
:40640000016A491C016204D1817E491C4906490E81767047C169491CC16104D1C17E491C4906490EC1767047F0B5074687B003A8009005A800260D460190002F01D000249F
:4064400000E01B4C002C05D06846FCF70DF8002803D00BE0022007B0F0BD68460089C00704D18C2200212046FBF7ACFF114829460068826820469047050016D1A7706676E7
:406480002746267140373E70204600F019F8204601F0B2F9084820820848BE77807AF121084000D001202075E682E8B2D3E700000C150020BC0D0020B80B0000A414002078
:4064C000002101628176C161C17620300177417770470079002805D0012803D0022801D001207047002070474030807F002800D00120704740300078002807D0012805D051
:40650000052803D00E2801D0012070470020704710B5807801F0F0F8002800D0012010BD074A0146927B0020002A07D040314A78022A02D08978012900D10120704700005E
:40654000EC14002010B500F0B3FB03498989090B01D0FFF7C3FE10BDA0102E4070B5054604464035A87F002825D1FF206075A0788C21154A484380186030417F8C23491CA0
:40658000C9B24177A0785843104B8018DB896030994201D300214177A0788C21484380186030467F0677A1783046FEF751FB002802D00120A87770BD0220A877A0783146C5
:4065C00000F0FEFC70BD0000EC140020C41500200020401C0006000EFBD0002070470000F0B515468207920F85B0000A02926A469080002D01D0002400E0524C002C28D0B8
:40660000084600F0F3FB07466846808800280BD00298012843D0022841D003280BD03D20005D012870D087E04748381801882046FFF719F880E00020029002A80AF03CFDC3
:40664000002807D03D20005D012878D12046FFF7D7FE74E06846029E8388324600213846FCF714FE3848381801882046FEF7FBFF284600F0ADFA01AA21463046FEF7E8FDE0
:40668000002806D030460AF087FD3D204C21085528E0F5773146204601F014FA4FE0002000902089039068460AF0F6FC002802D0002005B0F0BD6846009E8388321D002179
:4066C0003846FCF7E3FD2048381801882046FEF7CAFF284600F07CFA25464035287E00280CD103E02046FFF761FA28E001AA21463046029BFEF7E4FD002806D030460AF07A
:4067000041FD3D202873EDE713E00298FEF7BAFF01460398307003980901000A0843707068468088B070000AF0703046FFF7D0FC05E02046FFF764FE284600F049FA0120DB
:40674000B7E700000C15002000102E4010B5074A917B002901D0491E91730021FFF764FE002801D0002010BD012010BDEC140020F8B5074606464037B87F00282DD0B07887
:406780008C2100904843234945186035287F0099FEF773FA01281ED0287F401CC4B21E48C089A04200D800240020B877FF276F772F77A87702460146009800F06DFD717D65
:4067C000FF2903D0304600F0D8FF777501F042FB0025114F19E00320B877F8BD00200090224669463046FEF701FF0099002904D0FF231A463046FEF758FA641CF889E4B224
:40680000A04200D800246D1CEDB2F889A842E5D8F8BD0000EC140020C415002010B502460021084B03E0002901D0002000E018460479944204D0491C0906090EF3D000200B
:4068400010BD00000C15002000B50120FFF7E6FF00BD10B5044601F02DFE2189018080346168416061682831816002F00FFC10BDF7B50646087982B00C46092807D0A0783E
:40688000F0770846FFF730FE012806D010E030460AF096FC022005B0F0BDA1788C20294A484380186030007FFEF7D2F9012810D0A078FEF7DBFD01280BD037780121304627
:4068C00001F074FA25462035062F38D00B2F0FD107E06846027C21463046FEF7B7FE0D20D9E72046FDF7E6FF012801D1002028772046FFF76FFA054604AA21463046FEF712
:4069000014FD01205F2108556946097C002001910090A07833463A46294600F0FBFA69460A7CA0780323294600F03CFEA0782946FDF7E4FD30460AF043FC0020ABE7012083
:40694000D5E70000EC14002010B502464032937F0021002B03D1927E002A00D00121064A927A002A00D000210279092A00D10121807800F059FE10BDA815002070B50C46E6
:406980000546FDF797FF00280BD1012C06D92879092806D02846FFF7BBFD0446002C02D004E0012402E0A87DC007FAD1A87DC107C90F204600F018FE70BD0000012807D0E6
:4069C000082804D104480282034808300180704701488038FAE70000A0102E40014908817047000000102E4010B50446FF20F130012C01D1FF20D530002200F047FE044AE8
:406A0000108A044980B2A0430880108210BD000000102E40900D0020034B198A034A89B2814311801982704700102E40900D002010B50446012802D0082C07D102E0FF20C6
:406A4000D53001E0FF20F13000F018FE0348018A034A89B221431180018210BD00102E40900D0020034B198A034A89B2014311801982704700102E40900D0020F8B5054639
:406A80000120A84086B214460F46012231467C2000F0FCFD3A463146782000F0F7FD6078267800020643E078A2780002024360792379000203430C2045430D20800105496D
:406AC000281844182680001D44182280001D40180380F8BD00102E40401880B270470000CB065B0E0343480901021943D00108430121C902084301490881704780142E40BD
:406B00004278037812021343084A1382C37880781B021843908248780B78000203431383C8788978000201439183704700142E40024A1080000C90801181704700142E405A
:406B4000044A002180180288491C89B21029FAD37047000000102E40024A10820148803081817047A0102E407047000010B5054A1082084600F0AEFD024A0021A03A8018D6
:406B8000018010BDA0102E4010B50B46044600F005F819462046FFF7DFFF10BD024A10820148803001817047A0102E4010B504490882FF20002220211D3000F067FD10BDFC
:406BC000A0102E400149088070470000C0102E40000202494D3008807047000000102E4010B5084B074C0202A03B0029208202D075321A8010BD044900200880888076328F
:406C0000F7E70000A0102E40201A2E4000B5034908884880FFF700FF00BD0000900D0020014950200880704700102E4006490E220028888806D01043888003495120C039D3
:406C4000088070479043F7E7C0102E4000B502484088FFF707FF00BD900D002010B5FCF7FFFC10BD014952200880704700102E40884201D8081A03E00022D243101A40184F
:406C800080B2704700210170704700000748808806492039098B884201D8081A03E00022D243101A401880B27047000020112E400148008AC0B27047A0102E4070B5084C93
:406CC000049D2082074804890548603006880E8001891180808818806007400F287070BDA0102E40E0112E400148008970470000C0102E4000280FD00D4A108B0870000A87
:406D00004870908B8870000AC8700948203000880871000A48717047064A10880870000A487090888870000AC8701089F0E7000040102E40C0112E4000B5024A00F004F85C
:406D400000BD0000FF7F000000B51346FFF790FF984201D8022800D2002000BD0148008A70470000001A2E40024908820248008970470000A0102E40001A2E400148808851
:406D80007047000020102E40024908820148803000887047A0102E40064B1A8999891B8A0270120A42708170090AC1700371190A4171704760102E40012904D00549098B65
:406DC000C90B017070470349403109898907C90FF7E7000000102E40024908820248008970470000A0102E40201A2E400148408970470000C4150020024908820248808975
:406E000070470000A0102E40001A2E40044A10820448028980894843101880B270470000A0102E40C41500208C21074B414300B5C918FF2260314A770A7700228A771146FB
:406E400000F02AFA00BD0000EC1400208C225043074A10B58018FF21603041770177002181770448418EFF201D3000F007FC10BDEC140020A414002000B5044A108203481A
:406E800080308088022200F003F800BDA0102E4010B50023884201D8081A03E00024E443201A4018044980B2884201D8824200D90123184610BD0000FF7F000002488088E5
:406EC0000006C00F70470000C0102E4002488089C007C00F70470000201A2E4070B55478157824022543D47888232602947834435679127936023243002900D098230449CA
:406F000008820348A038181805808480028170BDA0102E40FFB581B014460D4607460A9E0B9BFFF773FF002E0AD0009333460021049AFCF73BFA05484019C45505B0F0BD6C
:406F40000021049AFCF718FAF5E70000940D002070B502460448054D808808242C800B460021FCF709FA70BDC4150020A0142E4010B52124024664010449532008801023E3
:406F800000212046FCF7F8F910BD000000102E40417802780902044B0A431A83C1788078090208439883704760142E40034A1082802001430148803001817047A0102E4056
:406FC000054A1082044A6032908B0009000108439115084390837047A0102E4030B500210F4B0A46012809D0032802D005280AD107E04021198102210A2204E004210C2268
:4070000001E004210D221882054C20342088C0B205460D42FAD022800021198230BD000080142E4010B5044607480482074801808280032189030820FFF7FAFC200202492A
:407040007530A039088010BDA0102E40201A2E40054A1082044A60321183000202494B30A039088070470000A0102E40054A491E1082044A60321183000202494C30A039C6
:4070800008807047A0102E400349884200D908460249088070470000FF0F000060112E400349884200D908460249888070470000FF0F000060112E408823002900D098232C
:4070C000084908820748A038191808881070000A507088889070000AD07008891071000A50717047A0102E4010B51446024606480B46C0880021FCF725F9012C02D10349AB
:407100005420088010BD0000C415002000102E40064A11880170090A417091888170090AC1700349542008807047000080142E4000102E400121814010B589B200227C2083
:4071400000F0A4FA10BD0000FEB5FF210120FFF74BFCFF210820FFF747FC3020FFF75CFC3F48802101803F483F4D00784007400F02286FD001286BD100202880002211468B
:407180000320FCF783F9394E3949B08D8882384F002420373248A0300482308F38822046FFF754FE641C2406240EF3D0B08F38832E48103000F052F97169306901910090D5
:4071C00069464879C021084369464871684600F06DF900F055F82548214C40304188A03421838188A1831E49C088C0318880708E38802048002606823920FFF733FC184F39
:40720000532038801C490720088354203880E020FFF796FCE820FFF793FCF020FFF790FC0020FDF7F5FF13488682282101838015A0810F48403086815B2038800948007881
