:400000000040002011000000550B0000550B000080B500AF00F0CCFD80B500AF264B12221A6002F08DFC254B181C02F0ADFA012002F096FC302002F0D9FA214B214A1A602C
:40004000214B8022D2051A60204B204A126802210A431A601E4B1F4A1A601F4B1E4A126808218A431A60FA23DB00181C02F00AFB1A4B181C02F0B8FB194B882292011A6064
:40008000184B194A1A60194B802212061A60184B8022D2021A60174B40221A60164B0820191C02F039FB082002F05CFB064B8022D2051A60BD4680BD30001040001BB700AC
:4000C00004010B40060000800C020B4078002E407C002E402D3E00006CF02E40DC050000000301400000014040FF008008010B4000010B4004010140B12A000080B582B07F
:4001000000AF72B63E4B00221A60FB1D00221A7023E0FB1D1A78131C5B009B185B00394A9B183B603B681A78597809020A43997809040A43DB781B061343191C3B681A79EB
:400140005B791B0213439BB2081C191C00F0B4FDFB1D1A78FB1D01321A70FB1D1B78012BD7D9294A294B101C191C00F0B5FD284BEE2212061A60274B992212041A60264BBE
:40018000992212041A60254B254A1A60254B992212041A60244A244B1B78DBB202210B43DBB21370214A214B1B78DBB23C218B43DBB214210B43DBB213701B4A1A4B1B78C3
:4001C000DBB216210B43DBB21370194B1F221A60184B194A1A60194B194A1A60194B20221A60194BC42292021A60184B20221A60FFF712FF00F0B0FDBD4602B080BDC0460A
:400200006CF02E40C0620100CC620100D0620100000002400001024000500F4004500F400000AA0210500F4000700F4001700F4000000440080004409224D8000C00044060
:40024000AA02000000010440080104401801044010B5064C2378002B07D1054B002B02D0044800E000BF0123237010BDE00F0020000000006861010008B5084B002B03D08B
:400280000748084900E000BF07480368002B00D108BD064B002BFBD09847F9E70000000068610100E40F0020A80B00200000000080B500AF00F082FA62B6164B1B78002B47
:4002C00002D0002000F064FE134B1B78002B02D0114B00221A7000F0E3FA104B1B78002B06D00E4B00221A700D4B181C00F0D6F80C4B1B78002B01D000F02EFB0A4B1B78D2
:40030000002B03D004F078F800F0C8FB04F074F8D3E7C046B8210020FC0F00201710002000100020181000209421002090B58DB000AF786039607B68282B32D007D8202BCC
:4003400000D185E0272B0FD0012B09D08BE04E2B00D185E0522B44D04C2B00D182E082E0424B01221A707EE0414B181C03F02AFC404B11221A813F4B3F4A1A603D4B022257
:400380009A803E4B3B491A785B781B021A4300231204120C1B0C1B041343181C0FF0C4FF61E0374B181C03F00DFCC04602F03EFC011C344B1A6880231B02134001D0012303
:4003C00000E00023CB18002BF0D12F4B01221A702E4B1B78002B03D1244B01221A7042E041E01C23FB183A6813CA13C312681A601C23FB189B89102B29D12F23FB180022CD
:400400001A7013E02F23FB181A781C23FB1859682F23FB181B78CB1819781D4B99542F23FB181A782F23FB1801321A702F23FB181B789AB21C23FB181B899A42E2D3154B30
:4004400001221A70144B181C03F0BCFB0BE00AE00823FB183A6813CA13C303CA03C302E0C04600E0C046BD460DB090BD9421002084610100E00B0020AC0B0020F4210020EA
:40048000986101000802244019100020181000200010002017100020B061010090B587B000AF78607B68181C3D2103F0A7FB031C1A1C7B68D21A1623FB181A701623FB1867
:4004C0001B78181C03F04AFA031C3B611623FB181B7839697A68081C111C1A1C03F0B0FB1723FB1800221A7018E01723FB181A78A94B9200D2581623FB181B783969081C96
:40050000111C1A1C03F088FB031E00D10DE01723FB181A781723FB1801321A709F4B1B781722BA1812789A42DFD33B69181C03F01FFA1723FB181B78002B00D028E1162379
:40054000FB181B7801337A68D3181B78302B5AD0934B1B78042B54D89A00924BD3181B689F46914B00221A704CE08F4B00225A7048E08D4B00229A7044E08B4B0022DA701A
:4005800040E0894B1B79012B08D1884B1B78181C0EF064FE864B01221A70F9E0854B13221A81844B08229A807F4B1B7901225340DBB21A1C784B9200D2587E4B1A600E23E0
:4005C000FC187A4B7B491A785B781B021A4300231204120C1B0C1B041343181C0FF0A4FE031C23800E23FB181B88002B08D16F4B1B78181C0EF032FE6D4B01221A7001E015
:4006000000E0C04662E01623FB181B7801337A68D3181B78302B59D1614B1B78042B54D89A00654BD3181B689F465F4B01221A704CE05D4B01225A7048E05B4B01229A7050
:4006400044E0594B0122DA7040E0574B1B79002B08D1564B1B78181C0EF000FE544B01221A7095E0534B13221A81524B08229A804D4B1B7901225340DBB21A1C464B9200AF
:40068000D2584C4B1A600E23FC18484B49491A785B781B021A4300231204120C1B0C1B041343181C0FF040FE031C23800E23FB181B88002B08D13D4B1B78181C0EF0CEFD8D
:4006C0003B4B01221A7063E000E0C046394B13221A81384B08229A80314B1B78012B14D002DC002B05D034E0022B1AD0032B24D02FE02D4B1B7801225340DBB21A1C264B35
:400700009200D2582B4B1A6023E0274B5B7801225340DBB21A1C204B9200D258254B1A6017E0214B9B7801225340DBB21A1C1A4B9200D2581F4B1A600BE01B4BDB78012280
:400740005340DBB21A1C144B9200D258194B1A60C0460E23FC18154B16491A785B781B021A4300231204120C1B0C1B041343181C0FF0DAFD031C23800E23FB181B88002B70
:4007800005D10A4B1B78181C0EF068FDFFE7C046BD4607B090BDC046EC0B0020F40B002095210020C8610100F80B0020F421002018100020E00B0020DC61010080B500AFE8
:4007C00002F002FA044B181C02F0AAFA034B181C00F040FBBD4680BDE10700002D03000090B583B000AFC82001F0DAFFFC1D02F0EFFA031C2370FB1D1B78102B3BD89A00DB
:400800001F4BD3181B689F461E4B00221A701E4B00221A701D4B181C03F0D4F92CE0194B01221A70184B01221A70194B181C03F0C9F921E0134B02221A70134B02221A70E2
:40084000144B181C03F0BEF916E00E4B03221A700D4B03221A70104B181C03F0B3F90BE0084B04221A70084B04221A700B4B181C03F0A8F900E0C046BD4603B090BDC0460A
:4008800068620100F50B002095210020F06101000862010020620100386201005062010090B583B000AF244B1B78002B03D1234B05221A703CE0214B1B78042B37D89A00AF
:4008C0001F4BD3181B689F461C4B05221A70BC1D1C4B181C00F02EFC031C238028E0174B05221A70BC1D184B181C00F023FC031C23801DE0114B05221A70BC1D134B181C02
:4009000000F018FC031C238012E00C4B05221A70BC1D0F4B181C00F00DFC031C238007E0064B05221A700B4B01221A7000E0C046BD4603B090BDC046AF0B0020F50B002000
:40094000AC620100B80B0020C00B0020C80B0020D00B00201810002090B583B000AF464B1A78464B1B789A4214D3454B1B78012B10D1434B00221A70424B00221A70424B03
:400980001B7901225340DAB23F4B1A713A4B00221A706DE0384B1B78012B1BD002DC002B05D065E0022B2FD0032B47D060E0BC1D364B181C00F0BEFB031C2380BB1D1B8859
:4009C000002B06D12C4B1B780133DAB22A4B1A704EE04DE02A4B1B78012B14D1BC1D2C4B181C00F0A7FB031C2380BB1D1B88002B09D1234B00221A701F4B1B780133DAB289
:400A00001D4B1A7034E033E01D4B1B78012B14D1BC1D204B181C00F08DFB031C2380BB1D1B88002B09D1164B00221A70124B1B780133DAB2104B1A701AE019E0104B1B78DC
:400A4000012B14D1BC1D144B181C00F073FB031C2380BB1D1B88002B09D1094B00221A70054B1B780133DAB2034B1A70FFE7C046BD4603B090BDC046FD0F0020AF0B0020E3
:400A80001910002018100020F80B0020B80B0020C00B0020C80B0020D00B002090B583B000AFFC1D032003F09FFC031C237072B6BC1D05F04BFC031C2370FB1D1B78032B5B
:400AC00010D1BB1D1B78042B03D0BB1D1B78062B1CD101F0B7FE0F4B00221A700E4B01221A7013E0FB1D1B78022B03D0FB1D1B78012B0BD1BB1D1B78022B07D001F088FE36
:400B0000044B00221A70044B01221A7062B6BD4603B090BD94210020FC0F002080B586B000AFF860B9607A6000237B6109E0BB685A1CBA601B78181C02F062F87B69013378
:400B40007B617A697B689A42F1DB7B68181CBD4606B080BD80B500AFFEE7C04680B584B000AF7860104B1A687B68D3181A1C0F4BD21A80239B009A4209DC0B4B1B68FB6005
:400B8000094B1A687B68D218074B1A6007E002F0B9FE031C0C221A6001235B42FB60FB68181CBD4604B080BD000C00201022002080B586B000AF224B7B61224B3B61204B73
:400BC0007B6135E03B691B68FB603B695B68BB603B699B683B6000237B600CE0FB681A68BB681A60BB680433BB60FB680433FB607B6804337B607A683B689A42EED13B692F
:400C0000DB683B6000237B6008E0BB6800221A60BB680433BB607B6804337B607A683B689A42F2D13B6910333B617B69013B7B617B69002BC6D102F06BFEFFF739FBFEE714
:400C4000010000007468010080B582B000AF154B144A126801218A431A6000237B600FE07B68032B04D8104B7A689200D35800E00E4B0F4A796889008B507B6801337B6042
:400C80007B682F2BECD9FFF739FA0A4B00221A60044B044A126801210A431A60BD4602B080BDC0460000104000000000550B000000000020C000002080B582B000AF786082
:400CC00039607A683B68101C00211A1C02F072FEBD4602B080BDC04680B586B000AF7860396000233B6100237B612FE07B699B007A68D3181B68BB600F23FB18BA681A70C6
:400D0000BB68FF229343BB6018E03B695B003A68D3181B781A1CBB68D318191C3B695B003A68D3185B780B703B6901333B610F23FB181A780F23FB18013A1A700F23FB187A
:400D40001B78002BE1D17B6901337B617B69002BCCD0BD4606B080BD80B500AF054B03221A60054B03221A60044B00221A60BD4680BDC0463000304030003140000E3F40AD
:400D800080B500AF1C4B00221A701C4B00221A701B4B00221A701B4B5A881B4B1A80194B9A88194B5A80174B9A79174B1A73154BDA79154B1A71144B0622DA81124B182290
:400DC0001A82114B00225A820F4B14229A820E4B0022DA820C4B012252421A830B4B1E221A8000F019F80A4B00221A70094B00221A70BD4680BDC04606220020F0210020DE
:400E000004220020040C0020C4210020DE210020B8210020C021002080B500AF0A4B1B88002B05D1094B181C00210C2202F0C2FD054BDB88002B05D1054B181C0021062238
:400E400002F0B8FDBD4680BD540C0020F8210020E8210020B0B594B004AF78603E23FB1800221A802823FA183F4B111C1A1C1423081C111C1A1C02F094FD3C4B1B78002B75
:400E800004D1FFF77DFF394B01221A707B68002B5FD0374B7A681A603E23FB181B88002B29D11023FB181C22BA185A601023FB182022BA181A601023FB1800221A81202339
:400EC000FB181B221A802023FB181B225A802023FB1804221A711C23FB1800221A703E23FC181023FA180E23FB18101C191C03F059FB031C23803E23FB181B88002B2CD1EF
:400F00003E23FC181B481C49AE231A012823FD1805230093194B0193194B02932B1C03F09DFA031C23803E23FB181B88002B14D1144B01221A70144B08221A703E23FC182E
:400F4000124B181C0B21092210F052FA031C238003E03E23FB1801221A803E23FB181B88181CBD4610B0B0BDD46201001C100020BC21002031160000C800002000710100CB
:400F800079020000E2210020E3210020F062010090B587B000AF021CFB1D1A701623FB1800221A805D4B1B781A1C012313401ED01623FC18FB1D1B78181C0BF017FB031CFB
:400FC00023801623FB181B88002B10D1534B1B7801229343DAB2514B1A70504B1B781A1C0223134003D01623FB1828221A801623FB181B88002B03D0FB1D1B78002B29D0DC
:40100000464B1B781A1C0223134023D0444B1B78042B1FD8424B1B783D33FF335A00414BD3185A1C1623FC183F49FB1D1B78081C111C02220BF0C0FA031C23801623FB18E2
:401040001B88002B06D1354B1B7802229343DAB2324B1A701623FB181B88002B03D0FB1D1B78002B53D02D4B1B781A1C0C2313404DD02A4B1B781A1C0823134022D00C2388
:40108000FB18181C00210A2202F094FC1623FC180C23F918254AFB1D1B78081C111C0A220BF08AFA031C23801623FB181B88002B07D11A4B1B7808229343DAB2174B1A7053
:4010C00025E024E00823FB1800221A80184B1B783D33FF335A00134BD3185A1C1623FC180823F918FB1D1B78081C111C02220BF063FA031C23801623FB181B88002B06D188
:40110000064B1B7804229343DAB2044B1A701623FB181B88181CBD4607B090BDB8210020F421002000710100E0210020797301001D10002090B585B000AF7860294B1B783D
:40114000052B05D00E23FB180422FF321A8041E07B68002B04D10E23FB1801221A8039E00D23FB1800221A7012E00D23FB181B780D22BA1812787968895C1B4AD3180A1C99
:401180005A710D23FB181A780D23FB1801321A700D23FB181B78052BE7D97B689A79124BDA720E23FC18104B181C0EF083FA031C23800E23FB181B88002B0BD1094B0422B1
:4011C0001A700A4B1B88002B04D0084B1B88181C0BF0C4F90E23FB181B88181CBD4605B090BDC046E2210020C4210020DE21002090B583B000AF104B1B78042B04D0BB1D2F
:401200000422FF321A8011E0BC1D0EF045FA031C23800A4B1B88002B01D00BF0B9F9BB1D1B88002B02D1044B05221A70BB1D1B88181CBD4603B090BDE2210020DE210020E6
:4012400080B582B000AF78607B681B789AB27B6801331B789BB21B029BB213439BB2181CBD4602B080BDC04690B585B000AF78600F23FB1800221A707B689B890B22934293
:4012800037D17B681A1D7B680F217C18101C00211A1C402310F0C4F8031C23700F23FB181B78002B1DD17B685B68181CFFF7C8FF031C1A1C022313409BB2002B08D0104B11
:4012C0001B68822251007A68081C111C984708E00B4B1B680622FF32111C7A68081C111C9847084B1B78DBB201229343DAB2054B1A700F23FB181B78181CBD4605B090BD28
:40130000BC2100200622002080B582B000AF78607B68DB880D4A934214D10D4B5B88002B08D17B689A880A4B5A807B689A78084B1A7007E0074B1B687A68911D8622520098
:40134000101C9847BD4602B080BDC046052A0000E8210020BC21002080B582B000AF78607B689B880B4A934210D10B4B9B88002B04D17B685A88084B9A8007E0074B1B68AF
:401380007A68111D86225200101C9847BD4602B080BDC04602290000E8210020BC21002080B582B000AF78600C4B5A887B689B899A420FD10A4B1B68832251007A68081C11
:4013C000111C9847074B1B78DBB201229343DAB2044B1A70BD4602B080BDC046E8210020BC2100200622002090B585B000AF78600F23FC187B68181CFFF736FF031C237070
:40140000144B1B78DBB21A1C012313401FD10F23FB181B78002B16D00823FB1812229A707B689A890823FB181A800823FB180F22BA181278DA707B680822BA181868111CAC
:401440000FF034FA03E07B6818680FF0B1FABD4605B090BD0622002080B582B000AF7860BD4602B080BDC04680B582B000AF7860BD4602B080BDC04680B582B000AF786048
:40148000BD4602B080BDC04680B582B000AF7860BD4602B080BDC04680B582B000AF7860BD4602B080BDC04680B582B000AF7860BD4602B080BDC04680B500AF094B002228
:4014C0005A70084B00221A70074B1B78052B03D1054B07221A7002E0034B08221A70BD4680BDC046F4210020E321002080B582B000AF78607B681B78032B3ED1254B1B7810
:40150000DBB21A1C0223134037D0234B1B78022B10D002DC012B05D024E0032B12D0042B18D01FE01D4B1B680822FF32101C0021984717E0194B1B6884225200101C0021BD
:4015400098470FE0154B1B680A22FF32101C0021984707E0114B1B6885225200101C00219847C0460B4B1B78DBB202229343DAB2084B1A70084B00221A707B681B78042BC3
:4015800005D1074B1B78042B01D1FFF731FEBD4602B080BD06220020E3210020BC210020E221002080B500AFBD4680BD80B584B000AF78600E23FB1800221A707B689B79D1
:4015C000002B1CD10F23FB1800221A7012E00F23FB181B787A68D35C002B04D00E23FB1801221A700BE00F23FB181A780F23FB1801321A700F23FB181B78052BE7D90E235A
:40160000FB181B78181CBD4604B080BD80B582B000AF021CBB1D1A80BD4602B080BDC04680B582B000AF7860BD4602B080BDC04680B588B000AF021C3960FB1D1A70D64BC2
:401640001B78DBB201221343DAB2D34B1A70FB1D1B78FA2B00D9C7E19A00D04BD3181B689F461023FB1807221A701023FB1800225A701023FB18181C04F0ACFE1023FB18BB
:4016800007221A701023FB1801225A701023FB18181C04F09FFEC24B1B68181CFFF786FF031E05D0BE4B1B68181C02F0A9FE2CE0BC4B1B781A1C3F231A40BB4B1B78191C45
:4016C0003F230B409B011A43B84B1B78191C1F230B401B031A43B64B1B78191C7F230B405B041343BB61BB69DAB2B24B1A70BB691B0ADAB2AF4B5A70BB691B0CDAB2AD4B4B
:401700009A70AC4B181C02F07BFE03200DF0D8FE0C23FB183F221A700C23FB1800225A700C23FB18181C0DF0E9FEA34B05221A705BE13B68181CFFF7D9FE56E13B681A7873
:401740009E4B1A7051E13B687B617B691B78002B18D17B695B78002B0BD1994B0022DA80974B00229A80964B964A1A607B69944A5A60894B1B78DBB201229343DAB2864B7D
:401780001A7032E131E1844B1B78DBB21A1C202313400ED18C4B1B78102B02D18A4B0522DA708A4B1A78884B101C191C0DF0AEFC1BE11AE13B685A78854B1A7015E13B6881
:4017C000181CFFF72DFF10E13B68181CFFF728FF804B1B88002B01D00AF0DAFE764B02221A7002E1744B05221A70FEE0724B1B78022B34D0684B1B78DBB21A1C01231340D1
:401800002DD0654B1B78DBB21A1C042313400BD0694B03221A70604B1B78DBB204229343DAB25D4B1A701AE05B4B1B78DBB21A1C082313400BD0604B05221A70564B1B7889
:40184000DBB208229343DAB2534B1A7007E05A4B1B78032B03D1584B05221A70C5E0C4E03B681B88181CFFF7D1FEBEE0574A3B68111C1A1C0223081C111C1A1C02F091F8BE
:401880004E4B00221A70514B1B783D33FF335A00514BD3180133514A111C1A1C0223081C111C1A1C02F07DF84D4B00221A70FFF779FE9AE0FFF700FE97E03B685B88162B8F
:4018C00005D81E23FB183A6852881A8003E01E23FB1817221A803B681E22BA1811881A8800231204120C1B0C1B041343181C0EF0E7FF7AE03B68181CFFF776FD75E03B680A
:40190000181CFFF7A9FD70E03B68181C00F08CF86BE03B68181C00F07DFA66E000F0CEFD63E03B68181C00F0ABFC5EE03B68181C00F014FE59E03B68181CFFF79DFD54E016
:401940003B68181CFFF72CFD3B68181CFFF79CFD114B1B78DBB21A1C0123134004D13B6818680EF033FC40E03FE03B68181CFFF793FD3AE03B68181CFFF796FD35E03B68EF
:40198000181CFFF771FD30E0164B1B7801221343DAB2144B1A7028E006220020CC630100180C00207CF1FF0F7DF1FF0F7BF1FF0F78F1FF0F100C0020E2210020F021002061
:4019C00020100020A80B0020600C0020F4210020C0210020DE21002000710100E0210020E3210020B8210020C0460D4B1B78DBB21A1C112313400FD0094B1B78DBB2012282
:401A00009343DAB2064B1A70064B1B68FA1D11783A68081C111C9847BD4608B080BDC04606220020BC21002080B586B000AF78600023FB60664B1B78012B00D0C5E0654BDB
:401A40001B78DBB21A1C0223134000D1BDE00A23FB187A6812891A800A23FB181B88062B05D00A23FB181B88142B00D0A6E00823FB187A6852891A801423FB1800221A80D7
:401A80008AE07B685A681423FB181B88D318FB601323FB1800221A70FB681A884E4B1B889A4200D26EE0FB681A884B4B5B889A4200D967E00A23FB181B88062B62D11623B8
:401AC000FB1800221A8053E01623FB181A884349131C5B009B185B00CB189A88FB689B889A423ED11623FB181A883C49131C5B009B185B005B5A002B13D11623FB181A889F
:401B00003649131C5B009B185B00FA68CB18111C0422181C01F045FF1323FB1801221A701FE01623FB181B88002B0ED11623FB181B885A1C2949131C5B009B185B00CB184D
:401B40009A88FB689B889A420BD0254B1B68FA68111D0C22FF32101C98471323FB1801221A701623FB181A881623FB1801321A801623FB181B88012B04D81323FB181B7849
:401B8000002BA1D01423FB181422B9180A22BA18098812888A181A801423FA180823FB1812881B889A4200D26BE70A4B1B78DBB201229343DAB2074B1A7006E0084B1B687D
:401BC0000822FF32101C00219847BD4606B080BDE321002006220020E4210020540C0020BC21002080B582B000AF021CFB1D1A70FB1D1B78002B06D0324B1B780133DAB208
:401C0000304B1A7002E02F4B00221A7005E02D4B1B780133DAB22B4B1A702A4B1B78012B19D8284B1B78191C274A0B1C5B005B185B009A5A254B1B889A42E8D3214B1B7829
:401C4000191C214A0B1C5B005B185B009A5A1F4B5B889A42DBD81B4B1B78012B28D8194B1B781A1C131C5B009B185B00164A9918174B1A785B781B021A4300231204120C11
:401C80001B0C1B041343181C0EF0DAFA031E15D0104B1B6884225200101C002198470E4B1B78DBB202229343DAB20B4B1A7005E00A4B03221A70002000F02CFABD4602B0C7
:401CC00080BDC04605220020540C0020E4210020F4210020BC21002006220020E321002080B582B000AF78607B68DB88434A934238D0424A934207DCA822920193420DD026
:401D00003F4A93421CD075E03E4A93424ED03D4A934239DB3C4A93425AD06BE03B4B1B88002B04D17B689A88384B1A8062E0384B1B687A68911D86225200101C984759E0E8
:401D4000324B5B88002B04D17B689A882F4B5A8050E02F4B1B687A68911D86225200101C984747E0294B9B88002B04D17B689A88264B9A803EE0264B1B687A68911D862250
:401D80005200101C984735E0204BDB88002B04D17B689A881D4BDA802CE01D4B1B687A68911D86225200101C984723E0174B1B89002B04D17B689A88144B1A811AE0144B2F
:401DC0001B687A68911D86225200101C984711E00E4B5B89002B04D17B689A880B4B5A8107E00B4B1B687A68911D86225200101C9847C046BD4602B080BDC046022A0000E8
:401E0000012A0000042A0000A62A0000F8210020BC21002080B592B000AF7860B64B1B78DBB21A1C0223134000D161E13E23FB187A6812891A803C23FB187A6852891A800F
:401E40007B685B683B64AD4B1B78032B00D099E04623FB1800221A808AE03B6C181CFFF7EFF9031C1A1C2423FB181A803B6C02333B643B6C1A782423FB189A703B6C013384
:401E80003B643B6C181CFFF7DBF9031C1A1C2423FB189A803B6C02333B643E23FB181B88152B20D12423FB1802229A752423FB180622396C9B181022181C01F072FD3B6C7E
:401EC00010333B648E4B1B78191C8E4A0B1C5B005B185B00D3189B881A1E8B4B9A4200D000E0C04632E03E23FB181B88072B2DD12423FB1801229A753B6C181CFFF7A0F93A
:401F0000031C1A1C2423FB18DA803B6C02333B647B4B1B78191C7B4A0B1C5B005B185B00D3189B88C0225201934203D0774A934206D00BE02423FB18181CFFF7D1FE05E000
:401F40002423FB18181CFFF7DFF9C0466A4B1B78DBB201229343DAB2674B1A704623FB184622B9183E22BA18098812888A181A804623FA183C23FB1812881B889A4200D243
:401F80006BE7B5E05D4B1B78022B00D0B0E04623FB1800221A80A2E03B6C181CFFF750F9031C1A1C0C23FB181A803B6C02333B643B6C181CFFF744F9031C1A1C0C23FB184D
:401FC0005A803B6C02333B643B6C181CFFF738F9031C1A1C0C23FB189A803B6C02333B643E23FB181B88062B04D10C23FB1802229A7562E03E23FB181B88082B5DD10C23E3
:40200000FB1801229A753B6C181CFFF719F9031C1A1C0C23FB18DA803B6C02333B644423FB1800221A8033E04423FB181A883549131C5B009B185B00CB189A880C23FB184A
:40204000DB889A421DD14423FB181A882D49131C5B009B185B005B5A002B12D14423FB181A882849131C5B009B185B000C22BA180220C91813180422081C191C01F091FCF6
:402080000BE04423FB181A884423FB1801321A804423FB181B88012BC6D9194B1B78191C184A0B1C5B005B185B00D3189B881A1E174B9A4200D000E0C0460F4B1B78DBB258
:4020C00001229343DAB20C4B1A704623FB184622B9183E22BA18098812888A181A804623FA183C23FB1812881B889A4200D253E7BD4612B080BDC04606220020E3210020A6
:4021000005220020540C0020FEFF0000011800001218000080B582B000AF021CFB1D1A70FB1D1B78002B06D0354B1B780133DAB2334B1A7002E0324B00221A7005E0304BD0
:402140001B780133DAB22E4B1A702D4B1B78012B19D82B4B1B78191C2A4A0B1C5B005B185B009A5A284B1B889A42E8D3244B1B78191C244A0B1C5B005B185B009A5A224BE8
:402180005B889A42DBD81E4B1B78012B2FD81C4B1B78181C1D491B4A031C5B001B185B00087849780902084300210004000C090C09040143985AD3185B881B040343002208
:4021C0001A1C081C111C0EF01FF8031E15D0104B1B680A22FF32101C002198470D4B1B78DBB202229343DAB20A4B1A7005E00A4B04221A70002000F0D3F8BD4602B080BD42
:4022000005220020540C0020E4210020F4210020BC21002006220020E321002080B582B000AF3B1C00221A803B1C00225A80114B1B78002B09D1104B5B8801339AB23B1C8F
:402240001A800E4B1A893B1C5A803B1D3A1C12681A603A1D002311880904090C1B0C1B040B43528812041B041B0C1343181CBD4602B080BD05220020E8210020540C00208A
:4022800080B58AB000AF78600823FB1800225A80404B1B78042B00D079E03F4B1B78DBB21A1C0223134000D171E01E23FB187A6812891A807B681A7B0823FB181A75082323
:4022C000FB187A6812881A800823FB181B7D012B04D12623FB1804221A8003E02623FB1812221A807B685B683B622423FB1800221A803CE03B6A181CFEF7A2FF031C1A1C7C
:402300000823FB185A803B6A02333B620823FB181B7D022B0CD10823FB183A6A0433111C1022181C01F03DFB3B6A10333B6214E03B6A181CFEF784FF031C1A1C0823FB18FC
:402340009A803B6A02333B62144B1B78002B04D10823FB18181CFEF7FFFF2423FB182422B9182622BA18098812888A181A802423FA181E23FB1812881B889A42BAD3064BDF
:402380001B78DBB201229343DAB2034B1A70BD460AB080BDE3210020062200200522002080B584B000AF021CFB1D1A700C23FB1800221A800C23FB1800225A80FB1D1B7834
:4023C000002B06D0374B1B780133DAB2354B1A7005E0344B00221A70FB1D01221A70FFF71DFF031C1A1C0C23FB181A600C23FB181A882D4B1B889A4215D90C23FB181A8858
:40240000294B5B889A420ED80C23FB185A88264B1B889A4207D30C23FB181A880C23FB185B889A4203D91F4B1B78002BC6D01D4B1B78002B21D11D4B0C22B9181A785B7832
:402440001B021A4300231204120C1B0C1B041343181C0DF0C3FE031E21D0154B1B6885225200101C00219847124B1B78DBB202229343DAB20F4B1A7011E00F4B05221A7000
:402480000B4B1B681222FF32101C00219847094B1B78DBB202229343DAB2064B1A70BD4604B080BD05220020E4210020F4210020BC21002006220020E321002080B500AFFB
:4024C000244B1B78DBB21A1C022313403FD0224B1B78022B17D002DC012B05D037E0032B1DD0042B27D032E01B4B02221A700020FFF778FB174B1B78DBB201229343DAB28F
:40250000144B1A7023E00120FFF76CFB114B1B78DBB201229343DAB20E4B1A7017E00120FFF7F8FD0B4B1B78DBB201229343DAB2084B1A700BE00120FFF732FF054B1B785C
:40254000DBB201229343DAB2024B1A70C046BD4680BDC04606220020E321002080B582B000AF7860074B1B78DBB21A1C0223134005D07B689B790A2B01D1FFF79FFFBD4642
:4025800002B080BD062200200230800803D00138FDD1C046C046C0467047EFF3108072B6704780F31088704790B585B000AF78600F23FC18FFF7F1FF031C2370094B7A685F
:4025C00007210A40D104074A1268074802400A431A600F23FB181B78181CFFF7E2FFBD4605B090BD00010B40FFFFC7FF90B58BB000AF78602723FC18FFF7CFFF031C23709E
:40260000184B1A680C23FB181A60174B1A680C23FB185A607B68033B144AD35C1A1C0C23FB189A60124B1A680C23FB18DA601C23FB18104A1A600C23FA181C23FB185A602B
:402640000D4B1C22BA181A600C4B0D4A1A600A4B1B682723FB181B78181CFFF7A2FFBD460BB090BD08010B4000010B40B867010030001040B6EA0000080010400400104026
:402680001700008080B584B000AF78600023FB60154B154A126801210A431A60134B144A1A60144B134A1268802109020A431A607B68002B12D01023FB600CE0012000F099
:4026C00093F800F019F8031E02D00023FB6005E07B68013B7B607B68002BEFD1FB68181CBD4604B080BDC04660F02E4078002E400220000010002E4080B582B000AF054BF5
:402700001B68012213407B607B68181CBD4602B080BDC0460C002E4080B584B000AF021C3960FB1D1A7080239B05FB60FB1D1B781F2B02D9002000F029F8FB1D1B7810333E
:402740009B00FA68D3181B68BB60FB1D1B7810339B00FA68D3183A681A60BB68181CBD4604B080BD80B582B000AF021CFB1D1A70054BFA1D12781F210A40012191400A1C2C
:402780001A60BD4602B080BD00E100E080B582B000AF021CFB1D1A7001BEBD4602B080BD80B582B000AF786009E00C4B1B68181CFFF7EAFE7B680A4A944663447B607A682D
:4027C00080231B029A42F0D8064B1B687A685343181CFFF7D9FEBD4602B080BD740C00200080FFFF6C0C002080B582B000AF021CBB1D1A80BB1D1B88044A12785343181CBD
:40280000FFF7C2FEBD4602B080BDC046700C002090B583B000AFFC1DFFF7BFFE031C2370074B074A126804218A431A6030BFFB1D1B78181CFFF7B5FEBD4603B090BDC046A0
:4028400010ED00E090B583B000AFFC1DFFF7A5FE031C2370114B114A1268520052081A600F4B104A128892B21A600F4B0E4A126804210A431A600D4B1B683B600220FFF7E7
:4028800093FE30BF094B3A681A60FB1D1B78181CFFF787FEBD4603B090BDC04600000B400C000B4052F1FF0F10ED00E000010B4080B500AF0E4B0E4A126801218A431A6031
:4028C0000B4B0B4A126802218A431A60094B094A126830218A4310210A431A60054B054A126807218A4301210A431A60BD4680BD00F02E4000FF2E4080B500AF0E4B0E4A7B
:40290000126802218A431A600C4B0C4A126807218A4302210A431A60084B084A126830218A4320210A431A60034B034A126801210A431A60BD4680BD00F02E4000FF2E405F
:4029400080B500AFFFF7B4FF044B044A1268802109060A431A60BD4680BDC04600F02E4080B584B000AF78600C4B1B6801221340FB607B68002B02D0012B03D005E0FFF743
:4029800097FF06E0FFF7B8FF03E00020FFF7FEFEC046FB68181CBD4604B080BD00F02E4090B583B000AFFC1DFFF7F7FD031C2370074B074A1268C02109020A431A60FB1D46
:4029C0001B78181CFFF7EDFDBD4603B090BDC04600010B4080B500AF054B1A68C0231B02134001D0012300E00023181CBD4680BD00010B4090B583B000AFFC1DFFF7CDFD1A
:402A0000031C23700C4B0C4A12680C490A408021C9010A431A60084B074A126807490A40802109020A431A60FB1D1B78181CFFF7B8FDBD4603B090BD00010B40FF3FFFFFAC
:402A400090B585B000AF78600B23FC18FFF7A5FD031C2370FFF7BEFF031E04D00123FB60FFF7C8FF01E00023FB607B680D4A13407B600D4B0C4A12680C4911407A680A4321
:402A80001A60094B1B68FB68012B01D1FFF788FF0B23FB181B78181CFFF783FDBD4605B090BDC0460404040010020B40FBFBFBFF80B500AF334B1B68042213401FD0324B3B
:402AC0001B680422134017D0304B1B6804221340DA432D4B1B681A402B4B1A602B4B1B68042293431A1C294B1A60294B1B68002B02D0274B1B6898470420FFF7A1FF214B13
:402B00001A688023DB00134022D01F4B1A688023DB00134017D01D4B1A688023DB001340DA43194B1B681A40174B1A60174B1B68184A1A40154B1A60154B5B68002B02D01C
:402B4000134B5B6898478023DB00181CFFF778FF0C4B1A688023DB02134011D00A4B1A688023DB02134006D0094B9B68002B02D0074B9B6898478023DB02181CFFF760FF98
:402B8000BD4680BD10020B40780C00203010002034100020FFFBFFFF80B500AF00F056F8BD4680BD80B500AF064B064A1268802109060A431A6000F019F800F01BF8BD4639
:402BC00080BDC0460000244080B500AF064B1B78002B04D1FFF7E0FF034B01221A70FFF7E1FFBD4680BDC0464410002080B500AFBD4680BD80B500AF00F080F8BD4680BD56
:402C000080B582B000AF7860C046064B1B681F221340082BF9D0044B7A681A60BD4602B080BDC046080224404002244080B582B000AF054B1B681F2213407B607B68181C16
:402C4000BD4602B080BDC0460802244080B500AF184B194A1A60194B00221A60184B01221A60184B184A1A60184B07221A60184B00221A60174B01221A60174B124A1A604F
:402C8000164B00221A60164B04221A60154B00221A60154B00221A60144B00221A60144B00221A60134B00221A60134B00221A60BD4680BD000024400B00000240002440DF
:402CC000480024400003244007000080040324401003244044002440000224400402244050002440880E2440C80E2440480F2440080F2440C80F2440880F244080B500AFA8
:402D0000054B054A126805490A40902109040A431A60BD4680BDC04600010240FFFF0FFF80B582B000AF786000F048F87B68181C00F008F8032000F011F800F035F8BD4667
:402D400002B080BD80B582B000AF7860024B7A681A64BD4602B080BD0000002090B585B000AF021CFB1D1A700623FB600B23FC18FFF713FC031C23700A4B0A4A1268C0214D
:402D80008A43111CFA1D1078FA689040021C0A431A600B23FB181B78181CFFF702FCBD4605B090BD00E400E080B500AF024B01221A60BD4680BDC04600E100E080B500AFE5
:402DC000024B01221A60BD4680BDC04680E100E080B582B000AF084B1B68DAB2FB1D1F210A401A70044BFA1D12781A60FB1D1B78181CBD4602B080BD1000044080B5ACB09E
:402E000000AFF860B960BB1D1A800023A422BA1813600023A022BA181360BB689422BA181360BB1D1A889423FB181B68D318594A934200D994E09423FB181B68DB09AC2214
:402E4000BA181360AC23FB181B68DB019C22BA18136077E000239822BA1813600023A822BA18136050E09C23FB181A689423FB181B689A422DD3BB1D1A88A423FB181B689A
:402E80009A4226D9FA68A423FB181B68D31819781423FA18A823FB181B68D3180A1C1A709C23FB181B681B78DAB2F968A423FB181B68CB181B789A4203D001239822BA18B0
:402EC0001360A423FB181B680133A422BA1813600CE09C23FB181B681B78D9B21423FA18A823FB181B68D3180A1C1A709C23FB181B6801339C22BA181360A823FB181B6832
:402F00000133A822BA181360A823FB181B687F2BA9D99823FB181B68002B0CD0AC23FB181A681423FB18101C191C00F01FFA031CA022BA181360AC23FB181B680133AC22C4
:402F4000BA181360BB1D1A88A423FB181B689A420AD9A023FB181B68002B00D17AE703E00123A022BA181360A023FB181B68002B09D0A023FB181B68012B04D001235B423B
:402F8000A022BA181360A023FB181B68181CBD462CB080BDFFFF010080B582B000AF78600A1CBB1C1A80BB1C1A887B681A60BD4602B080BD80B582B000AF78600A1CBB1C2A
:402FC0001A80BB1C1A887B681A60BD4602B080BD80B584B000AF494B1B78DBB21B02484A1278D2B21343FB60464B1B78DBB21B02454A1278D2B21343BB60BB68434A9342D4
:4030000007D1FB68072B04D1414BBB600423FB6009E0BA68D4231B019A4204D1FB68042B01D13B4BBB603B4BBA681A603A4BFA681A603A4B1B78DBB21B02394A1278D2B27B
:403040001343FB60FA6880239B019A4202D0FB68002B01D1334BFB60334BFA681A60334B1B78DBB21B02324A1278D2B21343FB60FB68304A934206D0FB682F4A934202D0BC
:40308000FB68052B01D12D4BFB602D4BFA681A602C4B1B681B097B602B4B1B68AA2B29D17B68012B26D9214B1B78DBB20E2B21D1264B1B78DBB29BB21B0299B2244B1B78B6
:4030C000DBB29AB2BB1C0A431A80224BBA1C12881A60214B1B78DBB29BB21B0299B21F4B1B78DBB29AB23B1C0A431A801C4B3A1C12881A60BD4604B080BDC046D9F0FF0FEB
:40310000D8F0FF0FDFF0FF0FDEF0FF0F580B0000580D00006C002E4074002E40DBF0FF0FDAF0FF0F0220000078002E40DDF0FF0FDCF0FF0F0F0F000005050000050F0000D2
:4031400080002E40EC0F00F0E00F00F06DF2FF0F6CF2FF0F84002E406FF2FF0F6EF2FF0F94002E4080B582B000AF021CBB1D1A80BB1D1B88181CFFF737FBBD4602B080BD7E
:4031800080B500AF00F0DEF8BD4680BD80B500AF00F0E2F8BD4680BD80B500AF00F0DCF8044B181C00F09CF8032000F0A5F8BD4680BDC046F535000080B500AF024B181C03
:4031C00000F07CF8BD4680BDF535000080B500AF0223FF33181CBD4680BDC04680B582B000AF78602B23181CBD4602B080BDC04680B582B000AF78602B23181CBD4602B0BF
:4032000080BDC04680B582B000AF78602B23181CBD4602B080BDC04680B582B000AF78602B23181CBD4602B080BDC04680B582B000AF78602B23181CBD4602B080BDC04613
:4032400080B582B000AF78602B23181CBD4602B080BDC04680B582B000AF78602B23181CBD4602B080BDC04680B582B000AF78602B23181CBD4602B080BDC04680B500AF32
:403280002B23181CBD4680BD80B582B000AF021CFB1D1A702B23181CBD4602B080BDC04680B582B000AF786039602B23181CBD4602B080BD80B500AFBD4680BD80B582B076
:4032C00000AF786000F048F87B68181C00F008F8032000F011F800F035F8BD4602B080BD80B582B000AF7860024B7A681A67BD4602B080BD0000002090B585B000AF021CEE
:40330000FB1D1A700623FB600B23FC18FFF745F9031C23700A4B0A4A1268C0218A43111CFA1D1078FA689040021C0A431A600B23FB181B78181CFFF734F9BD4605B090BD5B
:403340000CE400E080B500AF024B802252011A60BD4680BD00E100E080B500AF024B802252011A60BD4680BD80E100E090B5A9B000AF7860396000239822BA1813600023B8
:403380009422BA1813607B684D4A934200D98CE03B68002B00D188E00C23FB1808331A1C3B68101C191C802200F0FBFA7B68454A934201D9444A00E0444A0C23FB181A6060
:4033C0000C23FB187F225A60414B0C22BA181A60404B414A1A603E4B1B681B0F1A07A0231B069A4204D03A4B1B680F22134000E000239822BA1813609823FB181B68002BA5
:4034000052D19F23FC18FFF7C8F8031C237000F069F8031C9422BA1813609423FB181B68002B05D100F08EF8031C9822BA1813609823FB181B68002B24D10C23FB18274ABA
:403440001A600C23FB181A687B681B041A430C23FB181A601E4B0C22BA181A601D4B204A1A601B4B1B681B0F1A07A0231B069A4204D0174B1B680F22134000E000239822D6
:40348000BA1813609423FB181B68002B05D100F081F8031C9422BA1813609F23FB181B78181CFFF77EF804E003E004239822BA1813609823FB181B68181CBD4629B090BD53
:4034C000FF030000FF010000B6D70001B6D70000080010400400104004000080B6D800000500008080B584B000AF0023FB603B1D0F4A1A600F4A3B1D5A600F4B3A1D1A6015
:403500000E4B0F4A1A600C4B1B681B0F1A07A0231B069A4204D0084B1B680F22134000E00023FB60FB68181CBD4604B080BDC046B6E900007C210020080010400400104055
:403540001600008080B582B000AF00237B600D4B0D4A1A600D4B0E4A1A600A4B1B681B0F1A07A0231B069A4204D0064B1B680F22134000E000237B607B68181CBD4602B095
:4035800080BDC04608001040B6E80000040010401500008080B584B000AF0023FB603B1D0F4A1A600F4A3B1D5A600F4B3A1D1A600E4B0F4A1A600C4B1B681B0F1A07A0237E
:4035C0001B069A4204D0084B1B680F22134000E00023FB60FB68181CBD4604B080BDC046B6EA00007C21002008001040040010401700008080B500AF12F0A2FDBD4680BD4C
:40360000002243088B4274D303098B425FD3030A8B4244D3030B8B4228D3030C8B420DD3FF22090212BA030C8B4202D31212090265D0030B8B4219D300E0090AC30B8B4219
:4036400001D3CB03C01A5241830B8B4201D38B03C01A5241430B8B4201D34B03C01A5241030B8B4201D30B03C01A5241C30A8B4201D3CB02C01A5241830A8B4201D38B02DA
:40368000C01A5241430A8B4201D34B02C01A5241030A8B4201D30B02C01A5241CDD2C3098B4201D3CB01C01A524183098B4201D38B01C01A524143098B4201D34B01C01A4F
:4036C000524103098B4201D30B01C01A5241C3088B4201D3CB00C01A524183088B4201D38B00C01A524143088B4201D34B00C01A5241411A00D20146524110467047FFE7AB
:4037000001B5002000F0FCF802BDC0460029F7D003B5FFF775FF0EBC4243891A1847C04603460B437FD4002243088B4274D303098B425FD3030A8B4244D3030B8B4228D364
:40374000030C8B420DD3FF22090212BA030C8B4202D31212090265D0030B8B4219D300E0090AC30B8B4201D3CB03C01A5241830B8B4201D38B03C01A5241430B8B4201D303
:403780004B03C01A5241030B8B4201D30B03C01A5241C30A8B4201D3CB02C01A5241830A8B4201D38B02C01A5241430A8B4201D34B02C01A5241030A8B4201D30B02C01A17
:4037C0005241CDD2C3098B4201D3CB01C01A524183098B4201D38B01C01A524143098B4201D34B01C01A524103098B4201D30B01C01A5241C3088B4201D3CB00C01A52415B
:4038000083088B4201D38B00C01A524143088B4201D34B00C01A5241411A00D201465241104670475DE0CA0F00D04942031000D34042534000229C4603098B422DD3030A56
:403840008B4212D3FC22890112BA030A8B420CD3890192118B4208D3890192118B4204D389013AD0921100E08909C3098B4201D3CB01C01A524183098B4201D38B01C01AE1
:40388000524143098B4201D34B01C01A524103098B4201D30B01C01A5241C3088B4201D3CB00C01A524183088B4201D38B00C01A5241D9D243088B4201D34B00C01A524192
:4038C000411A00D20146634652415B10104601D34042002B00D54942704763465B1000D3404201B5002000F00BF802BD0029F8D003B5FFF715FF0EBC4243891A1847C046C4
:403900007047C046014B18687047C046D80F00200E4B70B500251E1C0D4CE41AA410A54204D0AB00F35898470135F8E712F090FF084B00251E1C084CE41AA410A54204D0A9
:40394000AB00F35898470135F8E770BD5C6801005C6801005C6801006468010008B5034B011C186800F074F808BDC046D80F002008B5034B011C186800F024F808BDC046BF
:40398000D80F002030B50024944208D0035D651C0C5DA34201D0181B02E02C1CF4E7002030BD002310B5934203D0CC5CC4540133F9E710BD031C8218934202D01970013336
:4039C000FAE7704730B500293ED004390B68002B00DAC9181D4A1368141C002B02D14B60116031E099420DD208680A189A4203D11368C3180B6053684B60216024E08A42CC
:403A000003D8131C5A68002AF9D11D685C198C420BD10968691858181960904214D110685268091819605A600EE08C4202D90C23036009E008680C18944203D11468526884
:403A4000001908604A60596030BDC04690210020032370B5CC1C9C430834051C0C2C01D20C2405E0002C03DA0C2300202B6042E08C42F9D3204A1368101C191C002913D01E
:403A80000A68121B0DD40B2A02D90A608B181FE08B4202D15A6802601BE04A685A600B1C17E00B1C4968E9E7144E3368002B03D1281C00F091F83060281C211C00F08CF83B
:403AC000031C421CD0D00322C61C964386420AD11C60181C07210B301A1D8843821A0AD05142995007E0311A281C00F075F8431CBAD0331CECE770BD902100208C21002076
:403B000070B5051C0E1C002804D08369002B01D100F06EFAAC68A3891B0702D52369002B19D1281C211C00F0F7F8002813D00120404245E03178002B1BDAA269934211DA37
:403B4000221C281C00F090F8013042424241D0B20028ECD10136A3683278013BA360002AE8D10CE023681970236819780A2903D1E6E723681970236801332360EAE7002B5C
:403B800017DAA269934208DB0A2322681370236819780A2911D1281C01E0281C0A21221C00F062F8013042424241D0B2002806D0BDE70A23226813702368013323600A20C8
:403BC00070BD000008B5034B011C1868FFF798FF08BDC046D80F002038B50023064C051C081C2360FCF7BAFF431C03D12368002B00D02B6038BDC04608220020021CC9B299
:403C00001378002B03D08B4204D00132F8E7181C002900D1101C7047002330B59A420DD0013AC45CCD5CAC4202D1934202D1251C631B03E00133002CF3D1F8E7181C30BDC3
:403C4000031C30B5002A07D00C7801335D1E013A2C700131002CF5D19A18934203D0002119700133F9E730BD70B5051C0E1C141C002804D08369002B01D100F0B9F9234B77
:403C80009C4201D16C6808E0214B9C4201D1AC6803E0204B9C4200D1EC68A369A360A3891B070AD52369002B07D023682269F6B2981A636998420FDB08E0281C211C00F0F4
:403CC0002BF80028F1D0012040421DE0281C211C00F020F90028F6D1A3680130013BA36023685A1C22601E706369984205D0A389301CDB0708D50A2E06D1281C211C00F0E1
:403D000009F90028DFD1301C70BDC046F06701001068010030680100354B70B51D68061C0C1C002D05D0AB69002B02D1281C00F05FF9304B9C4201D16C6808E02E4B9C426E
:403D400001D1AC6803E02D4B9C4200D1EC68A3899AB2110723D4D10607D409220120326037321343A381404240E0530713D5616B002908D0231C4433994202D0301CFFF7AF
:403D800021FE002363632422A3899343A38100236360236923600822A3891343A3812369002B0BD1A023A2899B00134080229200934203D0301C211C00F0ACF90123A28912
:403DC000134005D00023A36063695B42A36103E0910700D46369A36000202369834205D1130603D540231A43A281013870BDC046D80F0020F06701001068010030680100F2
:403E0000F7B58A89051C0C1C13075ED44B68002B02DC0B6C002B1ADDE76A002F17D000232E682B6080235B011A4001D0626D15E0281C216A0123B847021C431C0ED12B685F
:403E4000002B0BD01D2B01D0162B02D12E6000205EE04021A3890B43A38159E0A3895B0706D56368D21A636B002B01D0236CD21A0023281C216AE76AB847A389421C06D1E3
:403E80002A68002A03D01D2A01D0162A19D10022626022692260DB0405D5431C02D12B68002B00D16065616B2E600029CFD0231C4433994202D0281CFFF784FD00206063DE
:403EC00026E040221343A38122E00F69002FBED00B680F60DB1B01930023920700D14B69A360019B002BB2DD281C216A3A1C019BA66AB047002806DC40220120A3894042A0
:403F00001343A38104E0019B3F181B1A0193E8E7FEBD000038B50B69051C0C1C002B01D100201CE0002804D08369002B01D100F05FF80B4B9C4201D16C6808E0094B9C42FA
:403F400001D1AC6803E0084B9C4200D1EC680C22A35E002BE4D0281C211CFFF751FF38BDF0670100106801003068010008B5024900F0AEF808BDC046153F0000002310B549
:403F8000041C03604360836081814366C281036143618361191C08225C30FFF70BFD054B24626362044BA362044BE362044B236310BDC046C5410000ED410000254200006F
:403FC0005142000070B568254B1E5D430E1C291C7431FFF73DFD041E08D000212A1C016046600C30A0606832FFF7E4FC201C70BD836913B5002B28D18364C3640365134B06
:40400000134A1B6882620193984201D101238361041C00F01FF86060201C00F01BF8A060201C00F017F80421E06000226068FFF7A5FFA06809210122FFF7A0FFE0681221C5
:404040000222FFF79BFF0123A36113BDEC6701006D3F0000F8B51D4B061C1D68AB69002B02D1281CFFF7C4FF4835AC686B68013B05D40C22A75E002F10D06834F7E72B6801
:40408000002B06D1301C0421FFF79CFF2860002801D02D68E9E70C23336016E00123201C5B42E3810233A38167662760A760676027616761A7615C30391C0822FFF77AFCB3
:4040C000201C6763A763A764E764F8BDEC670100F7B5041C071C002601914834002C16D06368A5680093009B013B00930DD4AB89012B08D90E22AB5E013304D0381C291C4B
:40410000019B984706436835EDE72468E6E7301CFEBD0000F0B58B8991B09B0706D50B1C47330B600B6101234B6145E00C1C0E23C95E061C002904DA8023A5891D4010D14E
:404140000CE001AA00F0B0F80028F5DBF023029D1B021D40194BED186B425D418027FF0001E000254027301C391CFFF771FC00280CD1A3899A051FD402221343A381231C81
:404180004733236023610123636115E080220C4BB362A38920601343A38120616761002D0AD00E23E15E301C00F090F8002803D00122A3891343A38111B0F0BD00E0FFFFD9
:4041C0006D3F000038B50C1C0E25495F00F0A4F8002803DB636D1B18636503E0A289024B1340A38138BDC046FFEFFFFFF8B51E1C8B89051C0C1C171CDB0505D50E23C95E84
:404200000022022300F074F8A289054B281C1340A3813A1C0E23E15E331C00F01FF8F8BDFFEFFFFF38B50C1C0E25495F00F060F8A389421C03D1054A1340A38104E0802206
:4042400052011343A381606538BDC046FFEFFFFF08B50E23C95E00F015F808BD38B5051C0020074C2060081C111C1A1CFCF756FC431C03D12368002B00D02B6038BDC046E2
:404280000822002038B50023064C051C081C236000F056F8431C03D12368002B00D02B6038BDC0460822002038B50023064C051C081C111C236000F04BF8431C03D123687B
:4042C000002B00D02B6038BD0822002038B50023064C051C081C236000F042F8431C03D12368002B00D02B6038BDC0460822002038B5051C0020074C2060081C111C1A1C94
:4043000000F036F8431C03D12368002B00D02B6038BDC0460822002038B5051C0020074C2060081C111C1A1C00F02AF8431C03D12368002B00D02B6038BDC04608220020B3
:4043400058220120014B40421A6070470822002058220120014B40421A607047082200205822024B00201A607047C0460822002058220120014B40421A6070470822002029
:4043800058220120014B40421A60704708220020134A1088810703D08107890F401A001D11791030484381B25088820703D08207920F801A001D800040180A494030098968
:4043C00080B2CA0701D0503080B2890706D504495422091F09785143081880B270470000820C00204810002010B501F017FF10BD10B501F029FF10BD10B500F04FFA10BD8E
:4044000010B50749044609780220002907D1204601F06AFF002802D120460BF023F910BDF60D002070B504460120002C12D02368002B0FD0616800290CD0074D0622288923
:40444000208118462968FFF7ACFA6968606809780170002070BD000048100020FFB585B0002768460E9D07734C481C460078002802D0082009B0F0BD10990F980190009571
:40448000029105A807C800F0FBF80028F2D16946264603AB84460873002C19D0002115E08A00B75A082F09D990198078002805D0083FB7521878401C187005E0002915D0DD
:4044C0000027B75290198770491CC9B2A942E7D360460028CED10F9800280AD0109901F051FA0006000E04D00120C3E701208446EEE701F0A9FE2948002101610C30059993
:40450000016021888180022D03D3A1798171A17AC17100211EE0481C19E082008B00A75AE65ABE46BE4211D26F463E80B4461E190296B678BE7001967646E6521719029E6E
:40454000BB78B3706646A652019EBE70401CA842E3D3491CA942DED3114800906846037B22460799069800F013F9002882D168460A4C007B60700A4801F096FE0028B4D172
:40458000204607490C3007F09FFF0028ADD107F0B9FF0028A9D1012121706BE77C0C002048100020F8B5054633480E460078002802D002242046F8BD002E5BD000242F49E9
:4045C000002D16D02A89D0070DD02868002808D003881B3BE12B04D24088FB2801D81B2801D2012409E0900707D56868002804D1F7E70020088108604860002CDAD11F48F1
:404600002F8907811C481B21801D018041800421017119490020891C0870F80705D016480622801D2968FFF7BCF91449B80703D56A681148127882700F480D46801D086008
:40464000001F486001F076FE0B48801D01F064FE28890EF007F828890EF03CF903461033FFF796FE1F21C018890140180249308088809FE701249DE77C0C002048100020D7
:40468000FFB58446384F1C460020BB883F78054602460646002F11D100290ED0029999420BD36146002908D0002C06D00A99002906D02E4B0B99994202D2012004B0F0BD94
:4046C000002144E0AB001F19BF78002F3BD0E35A002B38D07B43591889B22B0000F04AF8050410161C253100A7782388BC46FF27233BEB37BB4222D26346032B1FD322E01B
:40470000A388002B1FD0302B19D31CE02389002B19D0282B13D316E0A289002A13D01346134F233BBB420AD20DE0268A002A0AD033460F4F233BBB4201D2964203D901205D
:404740000EE0002001E000280AD16D1CEDB2099B9D42B7D31C2463435B1802998B42ACD89642AAD8AAE700007C0C002079020000BAFF000030B47446641E2578641CAB42DC
:4047800000D21D46635D5B00E31830BC18470000FFB583B0002469460C801F4606468C80002806D00598002803D004983043800701D0012467E0002FFBD034490498098853
:4047C0008842F6D3FEF7F8FCFEF7E0FC00F010FC002856D100F054FD002852D12C49084601F004F905042D0C4BD12A480499066081800021C18007810C98007AC00704D06D
:40480000684601F03AFD040007D10C98007A800703D501A801F03AFD0446BF1DFEB2002C21D13146059800F05DF804001BD10EF05FF80406240E16D16A4610889288083623
:404840008518144AF1B29088D288AEB29319984207D3401B801A80B201F0B8FB050007D000E0FF25012400F05BFA002D04D008E0F8B200F01BF9F6E700F07EFA0649012007
:40488000087000F0C7FB204607B0F0BD800C0020D149000054100020900C002010B503480078012801D101F033FA10BD900C002070B5084B0446DA889E8800205518B54206
:4048C00006D81D68AA182260DA885118D98070BD032070BD54100020014800897047000054100020F0B587B007460D4600208900009006916846FFF7DBFF844600285DD1F5
:40490000304800990160002117E02E4B88001A680629115406D22C4C0419667882185670628805E0C419203CA67A8218567022891B68C018491C4280C9B2A942E5D3002434
:404940002DE0601CC2B2059025E01E4FA30039689600581840887118039604904E88B04217D938466F46FE80B6464F786E4677710297049F4F800168039F5E187678791898
:404980004E700168764659184E800068029F18184770521CD2B2AA42D7D30598C4B2AC42CFD36046002809D168460699FFF780FF8446002802D1054900980860604607B0E0
:4049C000F0BD0000940C002088680100980C00207047000010B5002809D005494A68002A05D0011F08788000105801F09DFA10BD940C002010B50446FFF76EFFC0B2801DFB
:404A0000A0420CD307484068002808D0A100405801F0FCF9002801D00470001D10BD002010BD0000940C0020F8B516460D460446FFF752FFC0B2801DA04203D20020C043C5
:404A40000090F8BDB2B2E9B2684601F005FA0099481C03D0024AA000526811500098F8BD940C0020F8B50746FFF736FF801DC6B20A49002005460C680DE06178002907D03E
:404A80006188B94202D32078FFF7B4FF002804D1241D6D1CEDB2B542EFD3F8BD940C002010B5002801D0FFF795FF10BD70B506460948002504680BE06178002905D0628854
:404AC0002078121D0023FFF7AFFF241D6D1CEDB2B542F1D370BD0000940C0020FFB581B00A9C16002BD000F0F1F80546042826D0214F002C0BD02046FFF7B4FF2901C919A3
:404B0000486000281BD022460499FEF74AFF1A4928010E5046187481019805707D20029CC000444300F0C0F8009004280AD000F055FAA0420ED800F051FA201A06E0FF20EB
:404B400005B0F0BD204600F0ADFA0020B08135720020F5E700F042FA074600F0B9FA381B87B23846012100F0EFF800980101024808188781E6E7000060100020F8B50601A6
:404B800017483418217A042903D0A089002802D018E00020F8BD00F021FA054600F098FA00F0A2F804280DD001010D480F18B88941198DB2002100F0C7F80020B881284665
:404BC00000F070FA6068064D002801D0FFF768FF042020720020A8516081A081D9E7000060100020FEB500266A46304601232549050169180D7A042D02D0898900291BD001
:404C000000211154401CC0B20428F0D300246846005D002830D01B482101081841894768056802910021016041600422418102728181002E02D015E01354E3E700F054F8D9
:404C400004280ED001010F480818019086890021304600F079F8019800218181304600F021FA0126002D07D038460299A847002F02D03846FFF714FF641CE4B2042CC6D342
:404C8000FEBD0000601000200EB5002005216A460090118150810348694600680EF09DFC0EBD00009C0C0020074A0020010189180B7A042B02D08989002903D0401CC0B2FB
:404CC0000428F3D370470000601000200549002002015218127A042A03D0401CC0B20428F6D370476010002030B50A4B04200A4C00210A011219157A042D06D09289002A23
:404D000003D09A4201D808461346491CC9B20429EFD330BDFFFF0000601000207047000030B50020074C05460423020111190B72A5504D60401C4D81C0B28D810428F4D390
:404D400030BD00006010002030B5094C00231A011219157A042D04D09589002906D02D1895815B1CDBB2042BF1D330BD2D1AF7E760100020002070471CB5002469460C7077
:404D8000142001902346054A05480EF02BFC04480068401C00D1FF2420461CBDF54D00009C0C00203EB5124A0146FF2000230124126800290DD0012914D0042908D1042002
:404DC0006946009308814B8110460EF006FC80B23EBD6846009304814381694610460EF0F7FBF4E768460093048143816946EBE79C0C002070B545890468416800890300D8
:404E0000FFF7B8FC08280509091E22282628002006F038F91EE0022908D0C8B22A4621460CF02EFD2046FFF73BFE13E002202A4621460CF025FD2946204600F00DF809E0B9
:404E400000200EF0B9F805E02046FFF7CBFE01E0FEF730FA002070BD014B0022DB681847A00C002070B5448905680089022803D0032809D0FF2070BD2246094C0023A4680F
:404E800029460120A04708E0FFF7B2FA241DA2B200232946022007F0C8F9002070BD0000A00C002070470000024800214160018041807047A00C002070B50C46002186B081
:404EC00016460391012802D0022859D116E003A9012007F00AFA01281BD1039D324621462846FEF75EFD0095287801900220694608814E816846FFF7B5FF41E0214D002B62
:404F0000686809D0049004A9022007F0EEF901281DD0022006B070BD002812D0298840182146FEF73EFD28880024801980B228806988091D884206D12C801348FFF792FF35
:404F400003E00320E6E788421AD96C6018E004986860E278A378110219430B4A698000231060E3565360032313815181A1788170E178C17061784170217801700420288058
:404F80000020C7E7A00C0020A01000203EB515460C46022803D004280CD000203EBD0091019002206946088107484A8100680EF014FB07E00CF064FC044B0022DB68294656
:404FC0002046984701203EBD9C0C0020A00C0020014AD16090607047A00C0020034801688068081A0A21484300097047AC10002010B5FEF7D1F8482204490548FEF7D1FC74
:4050000003490120C870002010BD0000A4680100B014002010B5FEF7B3F810BD70B5134C2368002B08D0207B1149C20705D04008400020738868A08070BD88680B4AA18850
:4050400080B29268814203D90A4D691A091802E0814202D2411A5118A160A080A0689842EAD30EF0D7FA00F013F870BDAC100020C0102E40FFFF000010B508461946FFF7F6
:40508000A7FF10BD704710B5FFF780FF10BD000003480021016041608160C16070470000AC100020024610B5FF20002A0CD0FFF7EFFF064C0321207B0843207310010A217B
:4050C000FEF724FB2060002010BD0000AC10002000B504480A21806848430209FFF7D8FF104600BDAC1000200248007B8007C00F70470000AC10002010B544490868002855
:4051000002DA434B01221A70022290430860414800693E49C00B4031096A08425ED0012000F0B8FA3B483C497C30FDF743FF37480E216C30FDF73EFF364820218430FDF7CA
:4051400039FF344814219C30FDF734FF3148FF21C131A430FDF72EFF2E48FF212F31B030FDF728FF2B482D49BC30FDF723FF29482B49AC30FDF71EFF29492648491CB430FC
:40518000FDF718FF23482749B830FDF713FF21482549CC30FDF70EFF1E4824490830FDF709FF1C482249A830FDF704FF194821498830FDF7FFFE17481F498C30FDF7FAFEBF
:4051C00014481921C9029030FDF7F4FEFDF700FFFDF7FCFFC0B2022802D00FE0FF2010BD16491748FDF7E6FE15481649001DFDF7E1FE134800210830FDF7DCFE54200449F8
:40520000C043891C0870002010BD000000F02E40B00C002000002E4055650000320300002F3F00003102000010520000EC160000FA12000031D000003AE3000099560000AC
:4052400080012E40F80F000070B50646581C80B245086D00002408E0304600F0A9F81055000A1119A41C4870A4B2AC42F4D3D80705D0D0182038D15CC47FD454C17770BD47
:4052800010B5FF2000F006FA0F49FF2048700E481021801D41800121417001700A490020C91C4870FFF728FF04000AD100F01AF907210648FDF770FE044807211830FDF72B
:4052C0006BFE204610BD0000B00C0020CC112E4070B5002405465B1E0AE0284600F068F8010A161971702D1D1055A41CADB2A4B29C42F2DB9C4203D1284600F059F8105586
:4053000070BD000070B500210A4D5B1E0AE0541864782602545C344346193480001D891C80B289B29942F2DB994202D1515C4019018070BD00102E40F0B50599091FCFB2F3
:4053400000217E1E0BE0541864782502545C2C43164D45192C80001D891C80B289B2B142F1DBFC0712D01C78515C24020F4A0C4381180C809C785D78001D210280B22943BC
:4053800084182180001D80B2D9780CE059781A7809021143054A84182180001DD9789B78090280B2194380180180F0BD00102E40014940180088704700102E4010B50B4900
:4053C0000020487000F08EF8002000F089F9002000F076F907210648FDF7DEFD044807211830FDF7D9FD002010BD0000B30C0020CC112E4010B506480078012803D10221C1
:405400000448FDF7D7FD02490020C91E087010BDB30C002070F02E4010B50B46062812D006DC01280CD0032801D1FFF7C7FF10BD0A28FCD00B28FAD105480078107010BD73
:40544000FFF71EFF10BD1146184600F065F910BDB60C0020F8B5204DAC6A0127A0071F4E002816DA307806280ED1286A384328621B480069F903084381B219481030FDF7EF
:4054800099FD042000F006F9134802212830FDF783FDE00711D0062000F0FCF80F49FF20C91E48707078002802D1686B38436863094801212830FDF76FFDE0050BD530787D
:4054C000042802D1052000F0E5F80348FF2101312830FDF761FDF8BD40F02E40B30C002000002E4010B503212348FDF763FD0120FDF738FE20483038406A204C800761789B
:40550000800F890001431C480C38FDF753FD6078002808D0401E022181401820FEF7E6F9C000083800E0B82081B21548FDF742FD1348032109021438FDF73CFD10481149CD
:40554000B830FDF737FD612189010F48FDF732FD0D480321001FFDF72DFD0C490C48FDF729FD0B480B496038FDF724FD084801218838FDF71FFD10BD70F02E40B60C002009
:40558000D8102E4090890000041E2E40FF0F000058122E4020900000044800684007400F022801D0002070470120704700010B4000B5FFF7F1FF002805D009480168C908F3
:4055C000C900016000BD0748016A490849000162054801690122D2039143016100BD000000010B4040F02E4000002E400849087806280BD148780749002803D1486B400831
:4056000040004863C86A01221043C86270470000B30C002040F02E400148007870470000B30C002002484078022800D001207047B00C002000B50300FFF79CF8080D050D09
:405640000B070507090D012000BD032000BD042000BD022000BDFF2000BD0000074A9168D26889B2064B92B2994204D105498A4201D1012100E000210170704780002E4073
:4056800033D000003FE300000149487070470000B30C002010B50446FDF778FD072C01D9FF2C01D102480470FDF76AFD10BD0000B30C00200149487070470000B00C002051
:4056C00010B5064A012805D01921C9021046FDF771FC10BD1D21C902F8E7000090002E4010B50A4A141D012808D009491046FDF761FC08492046FDF75DFC10BD0449104670
:40570000891CFDF757FC0349491DF3E788002E4031D000003AE3000070B50C460546FDF755FDC0B202280E49287804D0FF2810D04C280CD810E0FF2809D10A4AD06800048E
:40574000800F032801D0087807E09069000A553803E00878207070BD4F382070087070BDB20C002000002E40F0B50122002830D000292ED00424420600D00524792342061B
:405780005B06D21800D0641C034600221EE00C2516466E43104D00277519AF720E4F002ABB51696007D0661EB24209D10B4E86197606760E05E05E06760E8027BE1B00E0CA
:4057C00080269B198919521C2E81D2B2A242DED300221046F0BD00003813002079020000F8B507460020002F03D100F037FE002827D1154E002421460C2251438D19AA7A90
:40580000012A0DD12A8971586868FDF7F7FA002800D028200021A972002F05D0282803D0641CE4B2062CE6D3641CE1B207E00C224A439219927A012A04D0491CC9B2062910
:40584000F5D3F8BD2820F8BD38130020074900200C2242435218927A012A05D0401CC0B20628F5D3002070470120704738130020F8B50F000446164609D0184D18496868FB
:40588000A04202D94018A04201D38E4201D90120F8BD39462046FEF775F800281BD0324639462046FEF77DF8F0B200210C224A43521913895668F718A74208D90127A41B79
:4058C0001B1B9772834206DAC01A1469C0B2491CC9B20629EAD30020F8BD0000381300207902000010B500F05DF80748054AC16806480C46FEF755F804492046FFF734FFE5
:4059000010BD000079020000BC0C0020BC100020002070470020054A002902D0012902D002E0506000E0906000207047BC0C002070B5084C154608460549A26889182A4662
:40594000FEF72FF8A0684019A06028B270BD0000BC100020BC0C00203EB50A226946FFF7E7FF044606480A2200686946FEF70AF8002802D00020C0433EBD20463EBD0000DA
:40598000BC0C0020002802D0044A914201D2FF20704703490A61C8600020704779020000BC0C0020024800214160816070470000BC0C002070B5074C154605486268801814
:4059C0002A46FFF755FF60684019606028B270BDBC100020BC0C002010B503490A220968FFF7E8FF10BD0000BC0C002010B50F4A002313600E4A13600E4B18600E480160EA
:405A00000E49012008600E490860000290600E490C4808600D4914300860FF381538506000F0BCF800F0CAF9002010BDE80C0020D00C0020FC0C0020000D0020EC0C0020CB
:405A4000DC0C002080140020E00C0020F40C0020014610B50020002910D0094B1A689C685118A14209D25868196080188A0704D08A07920F891A091D196010BD002010BDA4
:405A8000D00C0020F8B50024164E671E321F3D463168136806E01422624310328A58521C1BD0641C9C42F6D36A1C14D02C461422544322460C3288500C214843FFF7C8FF47
:405AC0003168002808510AD031680020103408517068401C70602846F8BD2546E4E73846F8BD0000E00C0020F3B50026F64381B000281BDB1E490968884217D80299002915
:405B000014D01B4F142204463F1D54432546396810354859401C09D0FDF738FB38682F1F4159C359994203DBFDF72AFB3046FEBD214608310091465801590C207043081887
:405B40000C220299FDF72DFF0948761C001D0068C159B14200D100260549009A091D865008684159491C4151FDF70AFB0020FEBDDC0C0020002803DB07490968884202D9A3
:405B80000020C043704704491422091D096850431030085870470000DC0C0020F0B500200D4A451E0346171F50600FE014260146714314680E1DA3510C4616680834335102
:405BC0001668083435511468401C635039688842ECD30020F0BD0000E00C0020F3B50026F64381B0002841DB2349096888423DD8029900293AD0204F142204463F1D5443EF
:405C00002546396810354859401C2FD0FDF7BEFA3868415900292BD0211D009146580C21005971430F46C1190C220298FDF7B9FE11480021001D0068761C00590C34C019C1
:405C40000160416081600C48001D00680159B14200D100260849009A091D865008684159491E4151FDF78CFA0020FEBD3046FEBDFDF786FAFAE70000DC0C0020FEB504465A
:405C80000D4600201E49089E0860471E009001900290002C11D0486885420ED2002A0CD0002E0AD0642E08D808460C3001681C2068430C18207A002801D03846FEBD012015
:405CC000226020721846FFF7DDFE6060401C13D06681A6810A4827610C3067610179A94200D205710021684601810A462846029B00F040F82846FEBD00202072DDE7000056
:405D0000E80C002038B50124009400F039F838BDFEB50027164EFF433D4600240EE01C20316860430818017A002906D04068FFF721FF002801D0254603E0641C3079A0425C
:405D4000EDDA681C12D01C2130684D434419FDF71DFA69466068FFF741FF0546FDF710FA002DD9D1216868468847D5E7FEBD0000F40C002038B50024009400F001F838BD3C
:405D80001FB500220C49541E0A60002811DB496888420ED808491C220C31096850430818406801A9FFF7A0FE401C02D0002004B010BD2046FBE70000E80C0020F0B5002180
:405DC000114A4D1E174611710C3F0B46BD6016E008461C2460431668041D355114680646235014680836A3551468361DA353044616680A34335318301468491C255078683D
:405E00008142E5D30020F0BDF40C002038B500210091002811DB0F49097888420DDA0D4D04010C3529680859002807D0201D0818694600F06FF9002801D0002038BDFDF7C6
:405E4000A5F928680F34015D491E0155FDF798F9009838BD040D0020F7B582B0002502986E1E06602E48D21C024017462D4A2C4610460C380178106805E02301C358002BFE
:405E80000FD0641CE4B28C42F7D3711C28D03401211D40180191039900F02AF900281FD101E02646F1E71F48016820460C300F521C480399026820460E3011541948039944
:405EC000026820460F3011540398784300F0A0F8144900280968085102D00024009011E001251AE00F48016801980818009900F02CF9002801D0012502E00098C019009041
:405F0000641CE4B203988442ECD3002D05D10298066004480179491C0171284605B0F0BDFCFF0000100D0020F8B50D4600216A468C461180002839DB23490978884235DA4D
:405F4000214B04010C3319680A59002A2ED020460C300B5A801C0E5C184670438018954224D3854222D2002006E007465F43BF18AF4206D0401CC0B2B042F6D3604600283C
:405F800014D0114E271DC8190C366A46294600F006F900280AD168460088012808D030682946C01900F0D1F8002803D00120F8BD0020F8BDFDF7EAF830680F34015D491C3C
:405FC0000155FDF7DDF8F3E7040D0020F8B50F46002400F031F8002817D10C4900220B460C334A600EE021011D680E466A501D680C36AA53B61C1D680F31AA551D68641C75
:406000006A54E4B2BC42EED31A71F8BD040D002000280BD0C01C074A81085068890053884118994203D89368516018187047002070470000040D0020F8B5064600200F4DE8
:40604000009029700C0121466846FEF731FC00280CD129460C3100980860301B001F84B221466846FEF724FC002801D0FF20F8BD6C800098A8600020F8BD0000040D0020D9
:40608000F8B5002827DB19490978884223DA174C05010C342168485900281CD028460C30085A009028460E300E5C401C0E5420682F1DC01900F064F800280CD1206800245E
:4060C00045590EE0094829460C300068C01900F03CF8002801D00120F8BD00982D18641CE4B2B442EED30020F8BD0000040D002030B50D4604000BD0A800FFF789FF606037
:40610000002805D000202570C0436080002030BD012030BD70B50D46040005D0002D03D00220205E002801DA012070BDFDF72EF80221615E60688900405828606088401EBA
:406140006080FDF71DF8002070BD70B50D46040007D0002D05D002212078615E401E814201DB012070BDFDF711F86088401C00B26080616880000D50FDF702F8002070BD1B
:4061800010B5040009D0227800216068FDF712FC0020C0436080002010BD012010BDF0B500231D46002802D00224045F0AE00120F0BD46689F00F6598E4201D1012503E02D
:4061C0005B1CDBB29C42F4DA15700020F0BD00000148007870470000180D00207CB505460024FEF705F9A8796946087000A8062229460130FDF7D5FB0021684605F008FA0B
:406200000C2804D0072804D01F2804D004E0022402E0042400E0272420467CBD10B502280BD0032802D0042809D102E000F086F905E000F029FAFF2801D100F039FAFFF732
:40624000EBF9FFF7F7F910BD10B500F059FAFFF7E3F9FFF7EFF910BD70B504460025FEF7C7F8002C06D0A079012803D8214602F003FE00E00125284670BD0146012000290F
:4062800002D05020088000207047000001460120002905D0034854220078504308800020704700001A0D002010B502460D49FE204870032410460DF0B3FC002810D10DF0FD
:4062C00057FC00280CD106F06DF8002808D100F047FC002804D105F049FC002800D10024204610BD180D002070B50025044600280ED0A07901280BD8FEF77AF8A079002884
:40630000204602D003F050F903E003F025F900E00125284670BD0000014610B50120002904D006220248FDF73CFB002010BD00001C0D002001460120002903D00878024928
:4063400008700020704700001A0D002010B5FFF763F9012801D1FFF765F910BD38B504460120002C20D0617801291DD800290BD0FF25E535FEF73CF80C4828180088C0B2EF
:406380002070072803D00EE0FF25CD35F2E70020694608706846FFF761F969460878012801D108202070002038BD000000102E4010B507480024807B002806D004482030D7
:4063C00002F0AEF8012800D1FE24204610BD0000F8140020F8B504460120002C26D06178012902D92278092A20D8002905D0FF25E5352078092803D004E0FF25CD35F8E7EC
:4064000008202070FDF7F4FF2078114F114E08280DD00020FFF764F970780128207810D00D4969180880FE2070700020F8BD0120FFF756F90720B88105492031888001209D
:40644000F2E7B8810248217820308180EBE70000C0112E40180D002000102E4010B509480024807B00280BD0FFF7D6F8062801D0032800D12824FFF79BFFFE2800D12824EC
:40648000204610BDF814002070B50E46050001D0002400E00C4C002C11D0E28A500609D5D107C90F022003F063F9E08A40218843E08204E0D107C90F012003F059F931469B
:4064C000284602F033FE70BD18150020F8B50546002004460D4E009013E022466946284600F094FF0098002801D00DF07BFBA878214602F0F7FBA878214602F0E5FB641C01
:40650000E4B2308AA042E8D8F8BD0000D0150020064A02235188891C89B25180814201D8102900D95380508870470000220D00200148407870470000220D0020FEB54A4D00
:40654000FFF76AF8012842D14848007800283ED002F074FD00283AD004F0FCFC002836D0434C207E00287DD16078002600285BD0000706D53F488089070B00F025F9384399
:4065800070D13B484178684604F042FB04462879394DA9784018C1B2A14261D802F04EFD00285FD0334860300089314F0190203702F088FB6846008802F0B2FB02F056FCE8
:4065C0002E490988884203D10120FFF763F849E02B49012008702648807B00281BD00198002818D04037F87E002814D12148603000884000A0420AD96878002807D103F0D5
:40660000E5F82049088A03221202104308822878002800D02E7002F0CFFB0120FFF734F800F058FC164C15E002F008FD002819D0102402F01BFC214602F008FB02F070FB9E
:406640000F4C0120207002F0B7FB0020FFF71CF800F040FC20780128B6D1FEF7A9FF26700020FEBDFF20FEBDF0140020B00C0020F8140020A0102E40260D0020380D0020E2
:40668000220D0020E0112E4010B50848FF244078002809D102F0D2FC012805D1FEF7AAFE0720FEF7F7FF0024204610BDF814002008B5FEF7B1FF012801D0002008BD02F016
:4066C000BDFC002803D00D48017E002901D0FF2008BD417800290FD0684604F099FA022806D96846008802F01BFB012002F06AFB0320FEF7CFFFE0E70020F7E7F8140020A8
:4067000038B51E4CFEF788FF042813D0052811D0062812D003282AD007280AD100206946087002460120FEF777FEFEF775FF0128FBD138BD00F0EEFB38BD02F05BFB00F0B7
:40674000E9FB02F0CDFB8007800F0228F4D10C4841880029F0D05B21095D0029ECD101210170A07D0140022003F002F838BD02F045FB0120FEF78EFF38BD0000181500209C
:40678000260D0020F8B50646002403F04FF80546304603F065F803460A480021068A0DE001228A401046174628401F40002803D0002F01D1224394B2491CC9B28E42EFD860
:4067C0002046F8BDD015002070B500252C460A4E03E0002C01D0002000E030460079002803D02046FFF7CEFF0543641C2406240EEFD0284670BD0000181500201CB50020B6
:40680000694648706846FFF7A9FD01AA69460A20FEF702FE6946042008561CBD10B50C4601F08EF9002809D00179002906D0C1788078224602F010FD002010BD022010BDA7
:406840000148007870470000F01400204030C07E002800D00120704700B500F001F800BD8C2148430749084A40186030417F491CC9B24177D289914201D300214177C8B234
:4068800070470000F8140020D015002013B501F057F904000BD001F01AFE002807D0214601AA0A310620FEF7B7FD00201CBD02201CBD000010B50C4601F042F900280AD0AB
:4068C00001F005FE002806D0224604490A20FEF7A3FD002010BD022010BD0000D9140020F3B581B0074601460026029802F096FF0446002F01D0002500E0154D002D21D0C6
:40690000284601F053F9032C04D13946029802F0E1FF06463846029902F0D6F9032C06D0002C10D00121384601F0F0FA03E03146384603F063F9284602F0CCF8022128462F
:4069400002F0E2F8FEBD3846029902F0BDF9FEBD1815002010B5044604F0CCF8002801D00C2010BD2078611C02F072FDFF2801D01F2010BD02F0B8FDFF280AD02178621CD5
:4069800002F036F9044821780068026B601C904710BD072010BD0000400D002010B504F0A9F8002801D00C2010BD02F033FD03480068C06A8047002010BD0000400D00200F
:4069C00070B50D46044610210DF04CF81021601806460DF047F8334610221946204604F0B7F8102130460DF03DF802202870204605F002F870BD0000F8B5044640782178C2
:406A000002028006870FE0781143A67809050002090D0643084601F093F800210546F2B2002812D0002C10D0022F0ED0032F0CD0002A0AD00279092A07D0002A05D0134A0B
:406A40005A23527E1B5C9A4207D82889002104F0C9FE20460DF0C6F8FF21002914D10C48224600682946436930469847C0B2FF280AD128464030817EF2B2491C8176FF23B4
:406A80002146284600F005F9F8BD0000B0140020580D00200020704710B5044604F02AF8002801D00C2010BD2078611C02F0D0FCFF2808D002F014FC044821780068426B39
:406AC000601C904710BD1F2010BD0000400D002010B505F04BF800F097F9002010BD000010B504460F4801F01BFD012817D00D48052221469C30FCF754FF0A4905229C31D8
:406B00000846AC38FCF74DFF00F034FD054880222038C17B1143C17300F0ACF910BD3A2010BD00001815002010B5044600786178E2780843A1781143084321790843617966
:406B4000084305D003F0C8FF002803D00C2010BD122010BD204602F027FD002010BD000010B5FCF733FB02F083FE044804F04AF902F0C0FB012000F003F810BDC014002089
:406B8000F1B586B003A8009005A8019026489F22817A114081726846FDF744FC002841D169460989C90705D0204806990068C2686846904769460989890706D5002831D11C
:406BC0001B480068816A0698884700282AD1194E0025757075737571F575357675767575B570F570B5713746F5730120BC3738731F20F880FF2130467972A030017545759A
:406C000003F0FEFC01F044FC00242046069901F0F1FB002803D1641C2406240EF5D0FD72BD72B57307B0F0BDB0140020580D0020400D0020F814002070B505460E46084655
:406C400002F0F4FD0446304602F00AFE0121A9400A46224001400A4301D0012070BD002070BD10B50446084602F0FAFD0121A140014201D0012010BD002010BD10B5FEF7CE
:406C8000CBFC032804D102F0B9F80120FEF702FD10BDFEB51C4616460F46054601F01AFFA878FFF7D9FD02460190334639460094284600F00DF8002808D1A8780199FFF708
:406CC000E3FBFF2C02D138460CF08CFFFEBD0000FFB585B005460E980C46FF2810D02B49C00009680A5840180179C0795278814201D9012601E09006860F6846038108E0FF
:406D00006078A1788006860FE0780002014368460181284601F0F0FB070007D021462846079A00F01FFB384609B0F0BD304600F005FC04AE0346039002AA294600962046E1
:406D400000F00BFA3C20405D002818D0284601F0D3FB012813D0684600890096C0B20190A878231DFF22079902F094F968460089039BC2B2A878079902F0D8FCD3E7684635
:406D800000890021C0B20091E9E70000540D0020F8B5104F002500242846FFF7F3FC060012D00EE03046E040C007C00F07D02146284601F07FFF21462846FFF791FD641C37
:406DC000E4B2388AA042EDD86D1C2D062D0EE2D0F8BD0000D015002070B50024094D03E0002C01D0002000E028464121095C012901D100F070FA641C2406240EF0D000F09B
:406E000039F870BD1815002010B502F073FA0020FFF7B6FE0CF07CFF002010BDF8B5002403F08AFB012800D10224114F00203E46203601230425082203E0002801D000211E
:406E400000E031460979002907D001290BD002290BD0114681402143CCB2401C0006000EEBD07C70F8BD1C43F7E72C43F5E70000F814002070B5144E0024F07BC00921D0E4
:406E80003546203503E0002C01D0002000E0284601F028FB012814D0641C2406240EF2D0F07B4006400EF073002403E0002C01D0002000E0284600F00EFA641C2406240E4D
:406EC000F4D0002070BD0000F814002010B5FFF7A5FF10BD70B50E4CFBF75FFB0546FEF79BFB062802D02078012803D02846FBF758FB70BDFBF78CFC2846FBF752FBFEF7F8
:406F00008BFB0628F5D020780028E5D170BD0000220D002010B5FBF740FB0446FEF77CFB012809D0FEF778FB022805D0FBF770FC2046FBF736FBEEE72046FBF732FB10BDC7
:406F400010B50B4681791943817103D08078114602F0A4FB10BD10B582798A43827102D1807802F0AFFB10BD0346084800B5834209D8184600F0E4FD002804D000899842FD
:406F800001D1012000BD002000BD0000FF0E0000074A9179491C8906890E917138220A4092014907090E11430843024908407047F8140020FF0E0000C006C00E7047000044
:406FC000F8B507460E4600240D4803E0002C01D0002500E005462979002905D0641C2406240EF3D00020F8BD0021204601F002FA2E712046FFF7CCFF28813C700120F8BD21
:4070000018150020F7B53D20405C88B015460C46002802D02878042802D200200BB0F0BD6946087200262046FFF710FC012800D00126204603A93830019100902346032751
:40704000A17E34333246206A03F0FCFE02A8089900900B46019120463A4603A9243003F057FD02466846007A2870204601F0AEF91046D3E7FFB587B00C46054610786946DB
:4070800008723D20005D1746002826D000262046FFF7DCFB012800D00126204603A93830019100902346A17E34333246206A03F0C9FE02A80090291D019120462B1D03A9F5
:4070C00024300A9A03F024FD02006846007A388002D1204601F07AF910460BB0F0BDF0B505463C20405C89B016460C4600280CD0307869460873002806D000272046FFF721
:40710000A5FB012803D003E01F2009B0F0BD012703200890204604A93830019100902346E17E34333A46E06903F08CFE6846007B03A928180290009120462B46019504A9E4
:407140002430089A03F018FD02466846007B3070204601F045F91046D7E7FFB505463C20405C89B016460C46002810D0084601F0C3F901280BD0308869468883002809D0FF
:4071800000272046FFF762FB012805D005E000200DB0F0BD0220FBE70127204603A93830019100902346E17E34333A46E06903F049FE291D2B1D07A8129A6D4607C52046BA
:4071C00003A924300C9A03F0D7FC02466846808B3080204601F004F91046D9E710B518490446484028D0002101231A468A40904221D0491C2029F8D300212046C840C243D9
:40720000520618D0400616D0491C1929F5D3A0B2210C020AC3B2884201D193420BD01F21204600F090F9182805D8A00E062100F08AF9022801D2002010BD012010BD0000CB
