:4000000000400020110000007D1300007D13000080B500AF01F0E0F980B500AF264B12221A6003F039FA254B181C02F015FF012003F042FA302003F085F8214B214A1A604D
:40004000214B8022D2051A60204B204A126802210A431A601E4B1F4A1A601F4B1E4A126808218A431A60FA23DB00181C03F0B6F81A4B181C03F064F9194B882292011A600F
:40008000184B194A1A60194B802212061A60184B8022D2021A60174B40221A60164B0820191C03F0E5F8082003F008F9064B8022D2051A60BD4680BD30001040001BB70057
:4000C00004010B40060000800C020B4078002E407C002E402D3E00006CF02E40DC050000000301400000014040FF008008010B4000010B40040101400936000080B582B01B
:4001000000AF72B63E4B00221A60FB1D00221A7023E0FB1D1A78131C5B009B185B00394A9B183B603B681A78597809020A43997809040A43DB781B061343191C3B681A79EB
:400140005B791B0213439BB2081C191C01F0C8F9FB1D1A78FB1D01321A70FB1D1B78012BD7D9294A294B101C191C01F0C9F9284BEE2212061A60274B992212041A60264B9C
:40018000992212041A60254B254A1A60254B992212041A60244A244B1B78DBB202210B43DBB21370214A214B1B78DBB23C218B43DBB214210B43DBB213701B4A1A4B1B78C3
:4001C000DBB216210B43DBB21370194B3F221A60184B194A1A60194B194A1A60194B20221A60194BC42292021A60184B20221A60FFF712FF01F0C4F9BD4602B080BDC046D9
:400200006CF02E40A0740100AC740100B0740100000002400001024000500F4004500F400000AA0A10500F4000700F4001700F4000000440080004409224D9000C00044081
:40024000AA0A000000010440080104401801044010B5064C2378002B07D1054B002B02D0044800E000BF0123237010BDE80F002000000000A870010008B5084B002B03D02C
:400280000748084900E000BF07480368002B00D108BD064B002BFBD09847F9E700000000A8700100EC0F0020A80B00200000000080B500AF00F020FD62B600F0CDFF1A4B4D
:4002C0001B78002B02D0002001F076FA174B1B78002B0BD0154B00221A70154B181C0021382203F0CFFF002001F038FB00F08AFD104B1B78002B06D00E4B00221A700E4B0E
:40030000181C00F061FB0D4B1B78002B01D000F0D5FD0B4B1B78002B03D004F0B9FF00F0D1FF04F0B5FFCAE7FC21002004100020A0210020231000200C10002024100020B3
:40034000D8210020F0B5B7B004AFF860B960BE2308229446BC44634400221A70142308229446BC4463441A1C8023101C00211A1C03F088FF0C2308229446BC446344002248
:400380001A700C2308229446BC44634400225A700C2308229446BC44634400229A700C2308229446BC4463440022DA700C2308229446BC44634400221A710C2308229446E7
:4003C000BC44634400225A710C2308229446BC44634400229A71FB68522B00D9E7E2FB689A00CA4BD3181B689F46C94B01221A70DEE2C84B181C04F067F8C74B11221A8180
:40040000C54BC64A1A60C44B02229A80C44BC2491A785B781B021A4300231204120C1B0C1B041343181C10F0F7FEC1E2BB681B781A1CBC4B181C111C03F0CAFFC04603F014
:40044000A1F9011CB84B1A6880231B02134001D0012300E00023CB18002BF0D1BB681B78162B17D0B14B1B780133DAB2AF4B1A70AE4B1B78052B03D9AC4B00221A7005E095
:40048000AB4B1B78013BDAB2A94B1A70962002F033FF02E0A54B00221A70A64B01221A70A54B1B78002B03D1994B01221A707FE27EE2A82308229446BC446344BA6813CA2E
:4004C00013C312681A60A82308229446BC4463449B89102B41D1BF2308229446BC44634400221A7022E0BF2308229446BC4463441A78A82308218C46BC4463445968BF23E1
:4005000008208446BC4463441B78CB1819788B4B9954BF2308229446BC4463441A78BF2308218C46BC44634401321A70BF2308229446BC4463441B789AB2A82308218C46C6
:40054000BC4463441B899A42CDD37D4B01221A707C4B181C03F0B8FF2AE229E2942308229446BC446344BA6813CA13C303CA03C3942308229446BC4463446A4619691160B4
:40058000186859689A68DB6800F052FD10E26E4B181C03F099FFC04603F0F4F8011C624B1A6880231B02134001D0012300E00023CB18002BF0D1FBE1BB681B78022B00D072
:4005C000F4E1BF2308229446BC44634400221A708AE0BF2308229446BC4463441A78131CDB009B1A594A9A180C2308218C46BC446344101C191C062203F02CFE031E56D092
:40060000BF2308229446BC4463441A784F49131CDB009B1ACB1805331B787B60BF220823FB189B181A784949131CDB009B1ACB1804331B781E1CBF220823FB189B181A78BB
:400640004249131CDB009B1ACB1803331B781D1CBF220823FB189B181A783C49131CDB009B1ACB1802331B781C1CBF220823FB189B181A783549131CDB009B1ACB18013308
:400680001B78181CBF220823FB189B181A782F49131CDB009B1A5B5C1A1C2D4B009401900292181C7968321C2B1C03F091FEC04603F068F8011C1C4B1A6880231B0213401C
:4006C00001D0012300E00023CB18002BF0D1BF2308229446BC4463441A78BF2308218C46BC44634401321A70BF2308229446BC4463441B78072B00D86BE7BF230822944671
:40070000BC44634400221A7009E1C04684710100D8210020DC700100E00B0020AC0B002038220020F070010008022440071000200510002025100020241000200C1000209E
:4007400023100020147101002C710100A021002040710100BF2308229446BC4463441A78131CDB009B1A944A9A180C2308218C46BC446344101C191C062203F06BFD031E2B
:4007800000D1BFE0BE2308229446BC4463441A78131C5B009B185B00591CBF2308229446BC4463441A788448131CDB009B1AC31805331A78142308208446BC4463445A54D1
:4007C000BE2308229446BC4463441A78131C5B009B185B00991CBF2308229446BC4463441A787548131CDB009B1AC31804331A78142308208446BC4463445A54BE230822C6
:400800009446BC4463441A78131C5B009B185B00D91CBF2308229446BC4463441A786648131CDB009B1AC31803331A78142308208446BC4463445A54BE2308229446BC4486
:4008400063441A78131C5B009B185B00191DBF2308229446BC4463441A785748131CDB009B1AC31802331A78142308208446BC4463445A54BE2308229446BC4463441A78B6
:40088000131C5B009B185B00591DBF2308229446BC4463441A784848131CDB009B1AC31801331A78142308208446BC4463445A54BE2308229446BC4463441B785A1C131CD9
:4008C0005B009B185B00181CBF2308229446BC4463441A783849131CDB009B1A5A5C142308218C46BC4463441A54BE2308229446BC4463441A78BE2308218C46BC4463445E
:4009000001321A70BF2308229446BC4463441A78BF2308218C46BC44634401321A70BF2308229446BC4463441B78072B00D811E7BE2308229446BC4463441B781A1C921879
:40094000D318DB18DAB2142308218C46BC4463441A701A4A142308218C46BC446344101C191C02F089FA031CB82208218C46BC4462441360B82308229446BC4463441B6881
:40098000002B13D10E4B181C03F09EFDC04602F0F9FE011C0B4B1A6880231B02134001D0012300E00023CB18002BF0D100E0C046BD4633B0F0BDC046A0210020FF030000ED
:4009C0006C7101000802244090B587B000AF78607B68181C3D2103F093FD031C1A1C7B68D21A1623FB181A701623FB181B78181C03F01CFC031C3B611623FB181B7839695C
:400A00007A68081C111C1A1C03F09CFD1723FB1800221A7018E01723FB181A78AC4B9200D2581623FB181B783969081C111C1A1C03F074FD031E00D10DE01723FB181A7814
:400A40001723FB1801321A70A24B1B781722BA1812789A42DFD33B69181C03F0F1FB1723FB181B78012B00D12EE1022B00D110E1002B00D029E11623FB181B7801337A683D
:400A8000D3181B78302B52D0934B1B78042B4CD89A00924BD3181B689F46914B00221A7044E08F4B00225A7040E08D4B00229A703CE08B4B0022DA7038E0894B1B79012B0D
:400AC00008D1884B1B78181C0FF014FB864B01221A70FAE0854B13221A81844B08229A807F4B1B7901225340DBB21A1C784B9200D2587E4B1A600E23FC187A4B7B491A7871
:400B00005B781B021A4300231204120C1B0C1B041343181C10F080FB031C23800E23FB181B88002B00D1D0E000E0C0465AE01623FB181B7801337A68D3181B78302B51D161
:400B4000654B1B78042B4CD89A00694BD3181B689F46634B01221A7044E0614B01225A7040E05F4B01229A703CE05D4B0122DA7038E05B4B1B79002B08D15A4B1B78181C3C
:400B80000FF0B8FA584B01221A709EE0574B13221A81564B08229A80514B1B7901225340DBB21A1C4A4B9200D258504B1A600E23FC184C4B4D491A785B781B021A430023DC
:400BC0001204120C1B0C1B041343181C10F024FB031C23800E23FB181B88002B00D174E000E0C046414B13221A81404B08229A80394B1B78012B14D002DC002B05D034E0AF
:400C0000022B1AD0032B24D02FE0354B1B7801225340DBB21A1C2E4B9200D258334B1A6023E02F4B5B7801225340DBB21A1C284B9200D2582D4B1A6017E0294B9B78012228
:400C40005340DBB21A1C224B9200D258274B1A600BE0234BDB7801225340DBB21A1C1C4B9200D258214B1A60C0460E23FC181D4B1E491A785B781B021A4300231204120C8B
:400C80001B0C1B041343181C10F0C6FA031C23801BE0144B1B780E22BC18181C0FF02AFA031C23800E23FB181B88002B03D1114B181C03F009FC084B1B78042B03D10A4B2C
:400CC00001221A7001E000E0C046BD4607B090BDEC0B0020FC0B0020D9210020E8720100000C00203822002024100020E00B0020FC720100D072010080B500AF02F010FD2C
:400D0000074B181C0021382203F0BCFA054B181C02F0B2FD044B181C00F0B0FCBD4680BDA02100202D0D00004503000090B583B000AFC82002F0E0FAFC1D02F0F5FD031C2B
:400D40002370FB1D1B78202B46D89A00244BD3181B689F46234B00221A70234B00221A70224B181C03F0B0FB37E01E4B01221A701D4B01221A701E4B181C03F0A5FB2CE07F
:400D8000184B02221A70184B02221A70194B181C03F09AFB21E0134B03221A70124B03221A70154B181C03F08FFB16E00D4B04221A700D4B04221A70104B181C03F084FBBF
:400DC0000BE0084B05221A70074B05221A700C4B181C03F079FB00E0C046BD4603B090BDA0730100FD0B0020D921002010730100287301004073010058730100707301004C
:400E00008873010090B583B000AF244B1B78002B03D1234B06221A703CE0214B1B78042B37D89A001F4BD3181B689F461C4B06221A70BC1D1C4B181C00F0E2FD031C2380A0
:400E400028E0174B06221A70BC1D184B181C00F0D7FD031C23801DE0114B06221A70BC1D134B181C00F0CCFD031C238012E00C4B06221A70BC1D0F4B181C00F0C1FD031C40
:400E8000238007E0064B06221A700B4B01221A7000E0C046BD4603B090BDC046AE0B0020FD0B002024740100B80B0020C00B0020C80B0020D00B00202410002090B583B091
:400EC00000AF4E4B1A784E4B1B789A4214D34D4B1B78012B10D14B4B00221A704A4B00221A704A4B1B7901225340DAB2474B1A71424B00221A707DE0404B1B78012B1FD017
:400F000002DC002B05D075E0022B37D0032B53D070E0BC1D3E4B181C00F072FD031C2380BB1D1B88002B0AD1344B1B780133DAB2324B1A70374B181C03F0C6FA5AE059E0BC
:400F4000304B1B78012B18D1BC1D334B181C00F057FD031C2380BB1D1B88002B0DD1294B00221A70254B1B780133DAB2234B1A702A4B181C03F0A8FA3CE03BE0214B1B78EA
:400F8000012B18D1BC1D264B181C00F039FD031C2380BB1D1B88002B0DD11A4B00221A70164B1B780133DAB2144B1A701D4B181C03F08AFA1EE01DE0124B1B78012B18D171
:400FC000BC1D194B181C00F01BFD031C2380BB1D1B88002B0DD10B4B00221A70074B1B780133DAB2054B1A70104B181C03F06CFAFFE7C046BD4603B090BDC046051000209F
:40100000AE0B00202510002024100020000C0020B80B002038740100C00B002050740100C80B002068740100D00B00208074010084B0B0B582B002AF10243C1920606160BC
:40104000A260E36009481023FB186A46111C1A1C0C3230CA30C119685A689B6800F008F8BD46B0BC08BC04B01847C046A021002084B090B5474680B484B000AF78600420DC
:401080001824A4460824A046B844C44460440160426083600F23FB1800221A700F23FB1800221A70C6E00F23FB181A78131CDB009B1A7A68D3181A78042318218C46082192
:4010C0008846B844C44463445B681B789A426DD10F23FB181A78131CDB009B1A7A68D3185A78042318218C4608218846B844C44463445B6801331B789A4257D10F23FB182B
:401100001A78131CDB009B1A7A68D3189A78042318218C4608218846B844C44463445B6802331B789A4241D10F23FB181A78131CDB009B1A7A68D318DA78042318218C464B
:4011400008218846B844C44463445B6803331B789A422BD10F23FB181A78131CDB009B1A7A68D3181A79042318218C4608218846B844C44463445B6804331B789A4215D150
:401180000F23FB181A78131CDB009B1A7A68D3185A79042318218C4608218846B844C44463445B6805331B789A4249D00F23FB181B78072B37D1264B1B78072B00D93FE062
:4011C000234B1B781A1C131CDB009B1A214A9A18042318218C4608218846B844C44463445B68111C1A1C0623081C111C1A1C03F040F8174B1B78191C042318229446082278
:401200009046B844C44463445878124A0B1CDB005B1AD318021C9A710D4B1B780133DAB20B4B1A700CE00F23FB181A780F23FB1801321A700F23FB181B78072B00D832E72B
:40124000BD4604B004BC904690BC08BC04B0184706100020A021002080B584B000AF0F23FB1800221A70154BBB60FB1DBA6812781A70FB1D1B78002B1DD00F23FB180022EB
:401280001A7011E0BB681B781A1C0D4B181C111C03F09EF8BB680133BB600F23FB181A780F23FB1801321A700F23FA18FB1D12781B789A42E6D9BD4604B080BD80FF0100B2
:4012C0009874010090B583B000AFFC1D032003F0D7FF031C237072B6BC1D05F083FF031C2370FB1D1B78032B10D1BB1D1B78042B03D0BB1D1B78062B1CD102F04FF80F4B96
:4013000000221A700E4B01221A7013E0FB1D1B78022B03D0FB1D1B78012B0BD1BB1D1B78022B07D002F020F8044B00221A70044B01221A7062B6BD4603B090BDD821002006
:401340000410002080B586B000AFF860B9607A6000237B6109E0BB685A1CBA601B78181C02F0FAF97B6901337B617A697B689A42F1DB7B68181CBD4606B080BD80B500AF3A
:40138000FEE7C04680B584B000AF7860104B1A687B68D3181A1C0F4BD21A80239B009A4209DC0B4B1B68FB60094B1A687B68D218074B1A6007E002F00DFF031C0C221A60DD
:4013C00001235B42FB60FB68181CBD4604B080BD080C00205022002080B586B000AF224B7B61224B3B61204B7B6135E03B691B68FB603B695B68BB603B699B683B6000234F
:401400007B600CE0FB681A68BB681A60BB680433BB60FB680433FB607B6804337B607A683B689A42EED13B69DB683B6000237B6008E0BB6800221A60BB680433BB607B6865
:4014400004337B607A683B689A42F2D13B6910333B617B69013B7B617B69002BC6D102F0BFFEFEF725FFFEE701000000887A010080B582B000AF154B144A126801218A4323
:401480001A6000237B600FE07B68032B04D8104B7A689200D35800E00E4B0F4A796889008B507B6801337B607B682F2BECD9FEF725FE0A4B00221A60044B044A12680121D1
:4014C0000A431A60BD4602B080BDC04600001040000000007D13000000000020C000002080B582B000AF786039607A683B68101C00211A1C02F0C6FEBD4602B080BDC04610
:4015000080B586B000AF7860396000233B6100237B612FE07B699B007A68D3181B68BB600F23FB18BA681A70BB68FF229343BB6018E03B695B003A68D3181B781A1CBB68D3
:40154000D318191C3B695B003A68D3185B780B703B6901333B610F23FB181A780F23FB18013A1A700F23FB181B78002BE1D17B6901337B617B69002BCCD0BD4606B080BDD2
:4015800080B500AF054B03221A60054B03221A60044B00221A60BD4680BDC0463000304030003140000E3F4080B500AF1C4B00221A701C4B00221A701B4B00221A701B4BE8
:4015C0005A881B4B1A80194B9A88194B5A80174B9A79174B1A73154BDA79154B1A71144B0622DA81124B18221A82114B00225A820F4B1E229A820E4B0022DA820C4B0122CD
:4016000052421A830B4B1E221A8000F019F80A4B00221A70094B00221A70BD4680BDC0464A22002034220020482200200C0C00200822002022220020FC210020042200200C
:4016400080B500AF0A4B1B88002B05D1094B181C00210C2202F016FE054BDB88002B05D1054B181C0021062202F00CFEBD4680BD5C0C00203C2200202C220020B0B594B0D6
:4016800004AF78603E23FB1800221A802823FA183F4B111C1A1C1423081C111C1A1C02F0E8FD3C4B1B78002B04D1FFF77DFF394B01221A707B68002B5FD0374B7A681A60B8
:4016C0003E23FB181B88002B29D11023FB181C22BA185A601023FB182022BA181A601023FB1800221A812023FB181B221A802023FB181B225A802023FB1804221A711C23E7
:40170000FB1800221A703E23FC181023FA180E23FB18101C191C03F091FE031C23803E23FB181B88002B2CD13E23FC181B481C49AE231A012823FD1805230093194B0193CC
:40174000194B02932B1C03F0D5FD031C23803E23FB181B88002B14D1144B01221A70144B08221A703E23FC18124B181C0B21092210F0B6FD031C238003E03E23FB18012210
:401780001A803E23FB181B88181CBD4610B0B0BDB47401002810002000220020FD1E0000C800002000830100790200002622002027220020D074010090B587B000AF021CF0
:4017C000FB1D1A701623FB1800221A805D4B1B781A1C012313401ED01623FC18FB1D1B78181C0BF04FFE031C23801623FB181B88002B10D1534B1B7801229343DAB2514BE6
:401800001A70504B1B781A1C0223134003D01623FB1828221A801623FB181B88002B03D0FB1D1B78002B29D0464B1B781A1C0223134023D0444B1B78042B1FD8424B1B7856
:401840003D33FF335A00414BD3185A1C1623FC183F49FB1D1B78081C111C02220BF0F8FD031C23801623FB181B88002B06D1354B1B7802229343DAB2324B1A701623FB18FB
:401880001B88002B03D0FB1D1B78002B53D02D4B1B781A1C0C2313404DD02A4B1B781A1C0823134022D00C23FB18181C00210A2202F0E8FC1623FC180C23F918254AFB1D53
:4018C0001B78081C111C0A220BF0C2FD031C23801623FB181B88002B07D11A4B1B7808229343DAB2174B1A7025E024E00823FB1800221A80184B1B783D33FF335A00134BA7
:40190000D3185A1C1623FC180823F918FB1D1B78081C111C02220BF09BFD031C23801623FB181B88002B06D1064B1B7804229343DAB2044B1A701623FB181B88181CBD46EC
:4019400007B090BDFC210020382200200083010024220020798501002910002090B585B000AF021CFB1D1A70FB1D1B78022B04D90E23FB1801221A8035E0FB1D1B78002BE0
:4019800009D11C4B0A221A811A4B30225A80194B30229A800EE0FB1D1B78012B0AD1154B96221A81134B802212015A80114BE122D2009A80104BFA1D12781A700E23FC1868
:4019C0000C4B181C0EF01CFE031C23800E23FB181B88002B07D1094B1B78DBB204221343DAB2064B1A700E23FB181B88181CBD4605B090BD0C0C0020482200204A220020D3
:401A000090B585B000AF7860294B1B78052B05D00E23FB180422FF321A8041E07B68002B04D10E23FB1801221A8039E00D23FB1800221A7012E00D23FB181B780D22BA188E
:401A400012787968895C1B4AD3180A1C5A710D23FB181A780D23FB1801321A700D23FB181B78052BE7D97B689A79124BDA720E23FC18104B181C0EF069FD031C23800E2370
:401A8000FB181B88002B0BD1094B04221A700A4B1B88002B04D0084B1B88181C0BF0AAFC0E23FB181B88181CBD4605B090BDC04626220020082200202222002090B583B0EF
:401AC00000AF104B1B78042B04D0BB1D0422FF321A8011E0BC1D0EF02BFD031C23800A4B1B88002B01D00BF09FFCBB1D1B88002B02D1044B05221A70BB1D1B88181CBD4616
:401B000003B090BD262200202222002080B582B000AF78607B681B789AB27B6801331B789BB21B029BB213439BB2181CBD4602B080BDC04690B585B000AF78600F23FB18B3
:401B400000221A707B689B890B22934237D17B681A1D7B680F217C18101C00211A1C402310F0D6FB031C23700F23FB181B78002B1DD17B685B68181CFFF7C8FF031C1A1CA1
:401B8000022313409BB2002B08D0104B1B68822251007A68081C111C984708E00B4B1B680622FF32111C7A68081C111C9847084B1B78DBB201229343DAB2054B1A700F231B
:401BC000FB181B78181CBD4605B090BD002200204A22002080B582B000AF78607B68DB880D4A934214D10D4B5B88002B08D17B689A880A4B5A807B689A78084B1A7007E0C7
:401C0000074B1B687A68911D86225200101C9847BD4602B080BDC046052A00002C2200200022002080B582B000AF78607B689B880B4A934210D10B4B9B88002B04D17B6808
:401C40005A88084B9A8007E0074B1B687A68111D86225200101C9847BD4602B080BDC046022900002C2200200022002080B582B000AF78600C4B5A887B689B899A420FD187
:401C80000A4B1B68832251007A68081C111C9847074B1B78DBB201229343DAB2044B1A70BD4602B080BDC0462C220020002200204A22002090B585B000AF78600F23FC18F9
:401CC0007B68181CFFF736FF031C2370144B1B78DBB21A1C012313401FD10F23FB181B78002B16D00823FB1812229A707B689A890823FB181A800823FB180F22BA181278C6
:401D0000DA707B680822BA181868111C0FF046FD03E07B6818680FF0C3FDBD4605B090BD4A22002080B582B000AF7860BD4602B080BDC04680B582B000AF7860BD4602B06C
:401D400080BDC04680B582B000AF7860BD4602B080BDC04680B582B000AF7860BD4602B080BDC04680B582B000AF7860BD4602B080BDC04680B582B000AF7860BD4602B0CB
:401D800080BDC04680B500AF094B00225A70084B00221A70074B1B78052B03D1054B07221A7002E0034B08221A70BD4680BDC046382200202722002080B582B000AF7860D6
:401DC0007B681B78032B3ED1254B1B78DBB21A1C0223134037D0234B1B78022B10D002DC012B05D024E0032B12D0042B18D01FE01D4B1B680822FF32101C0021984717E06B
:401E0000194B1B6884225200101C002198470FE0154B1B680A22FF32101C0021984707E0114B1B6885225200101C00219847C0460B4B1B78DBB202229343DAB2084B1A7072
:401E4000084B00221A707B681B78042B05D1074B1B78042B01D1FFF731FEBD4602B080BD4A22002027220020002200202622002080B500AFBD4680BD80B584B000AF786038
:401E80000E23FB1800221A707B689B79002B1CD10F23FB1800221A7012E00F23FB181B787A68D35C002B04D00E23FB1801221A700BE00F23FB181A780F23FB1801321A70A3
:401EC0000F23FB181B78052BE7D90E23FB181B78181CBD4604B080BD80B582B000AF021CBB1D1A80BD4602B080BDC04680B582B000AF7860BD4602B080BDC04680B588B02A
:401F000000AF021C3960FB1D1A70D64B1B78DBB201221343DAB2D34B1A70FB1D1B78FA2B00D9C7E19A00D04BD3181B689F461023FB1807221A701023FB1800225A701023F4
:401F4000FB18181C05F092F91023FB1807221A701023FB1801225A701023FB18181C05F085F9C24B1B68181CFFF786FF031E05D0BE4B1B68181C03F08FF92CE0BC4B1B786B
:401F80001A1C3F231A40BB4B1B78191C3F230B409B011A43B84B1B78191C1F230B401B031A43B64B1B78191C7F230B405B041343BB61BB69DAB2B24B1A70BB691B0ADAB255
:401FC000AF4B5A70BB691B0CDAB2AD4B9A70AC4B181C03F061F903200EF0BEF90C23FB183F221A700C23FB1800225A700C23FB18181C0EF0CFF9A34B05221A705BE13B68DF
:40200000181CFFF7D9FE56E13B681A789E4B1A7051E13B687B617B691B78002B18D17B695B78002B0BD1994B0022DA80974B00229A80964B964A1A607B69944A5A60894BBD
:402040001B78DBB201229343DAB2864B1A7032E131E1844B1B78DBB21A1C202313400ED18C4B1B78102B02D18A4B0522DA708A4B1A78884B101C191C0DF094FF1BE11AE1C1
:402080003B685A78854B1A7015E13B68181CFFF72DFF10E13B68181CFFF728FF804B1B88002B01D00BF0C0F9764B02221A7002E1744B05221A70FEE0724B1B78022B34D03E
:4020C000684B1B78DBB21A1C012313402DD0654B1B78DBB21A1C042313400BD0694B03221A70604B1B78DBB204229343DAB25D4B1A701AE05B4B1B78DBB21A1C08231340AC
:402100000BD0604B05221A70564B1B78DBB208229343DAB2534B1A7007E05A4B1B78032B03D1584B05221A70C5E0C4E03B681B88181CFFF7D1FEBEE0574A3B68111C1A1CB1
:402140000223081C111C1A1C02F093F84E4B00221A70514B1B783D33FF335A00514BD3180133514A111C1A1C0223081C111C1A1C02F07FF84D4B00221A70FFF779FE9AE0CD
:40218000FFF700FE97E03B685B88162B05D81E23FB183A6852881A8003E01E23FB1817221A803B681E22BA1811881A8800231204120C1B0C1B041343181C0FF0F9FA7AE039
:4021C0003B68181CFFF776FD75E03B68181CFFF7A9FD70E03B68181C00F08CF86BE03B68181C00F07DFA66E000F0CEFD63E03B68181C00F0ABFC5EE03B68181C00F014FEEA
:4022000059E03B68181CFFF79DFD54E03B68181CFFF72CFD3B68181CFFF79CFD114B1B78DBB21A1C0123134004D13B6818680EF045FF40E03FE03B68181CFFF793FD3AE055
:402240003B68181CFFF796FD35E03B68181CFFF771FD30E0164B1B7801221343DAB2144B1A7028E04A220020AC750100200C00207CF1FF0F7DF1FF0F7BF1FF0F78F1FF0FD2
:40228000180C002026220020342200202C100020A80B0020680C0020382200200422002022220020008301002422002027220020FC210020C0460D4B1B78DBB21A1C11239D
:4022C00013400FD0094B1B78DBB201229343DAB2064B1A70064B1B68FA1D11783A68081C111C9847BD4608B080BDC0464A2200200022002080B586B000AF78600023FB6056
:40230000664B1B78012B00D0C5E0654B1B78DBB21A1C0223134000D1BDE00A23FB187A6812891A800A23FB181B88062B05D00A23FB181B88142B00D0A6E00823FB187A68F4
:4023400052891A801423FB1800221A808AE07B685A681423FB181B88D318FB601323FB1800221A70FB681A884E4B1B889A4200D26EE0FB681A884B4B5B889A4200D967E0F4
:402380000A23FB181B88062B62D11623FB1800221A8053E01623FB181A884349131C5B009B185B00CB189A88FB689B889A423ED11623FB181A883C49131C5B009B185B0008
:4023C0005B5A002B13D11623FB181A883649131C5B009B185B00FA68CB18111C0422181C01F047FF1323FB1801221A701FE01623FB181B88002B0ED11623FB181B885A1CBE
:402400002949131C5B009B185B00CB189A88FB689B889A420BD0254B1B68FA68111D0C22FF32101C98471323FB1801221A701623FB181A881623FB1801321A801623FB181A
:402440001B88012B04D81323FB181B78002BA1D01423FB181422B9180A22BA18098812888A181A801423FA180823FB1812881B889A4200D26BE70A4B1B78DBB20122934351
:40248000DAB2074B1A7006E0084B1B680822FF32101C00219847BD4606B080BD272200204A220020282200205C0C00200022002080B582B000AF021CFB1D1A70FB1D1B78D1
:4024C000002B06D0324B1B780133DAB2304B1A7002E02F4B00221A7005E02D4B1B780133DAB22B4B1A702A4B1B78012B19D8284B1B78191C274A0B1C5B005B185B009A5A39
:40250000254B1B889A42E8D3214B1B78191C214A0B1C5B005B185B009A5A1F4B5B889A42DBD81B4B1B78012B28D8194B1B781A1C131C5B009B185B00164A9918174B1A7843
:402540005B781B021A4300231204120C1B0C1B041343181C0EF0ECFD031E15D0104B1B6884225200101C002198470E4B1B78DBB202229343DAB20B4B1A7005E00A4B0322BA
:402580001A70002000F02CFABD4602B080BDC046492200205C0C00202822002038220020002200204A2200202722002080B582B000AF78607B68DB88434A934238D0424A0B
:4025C000934207DCA822920193420DD03F4A93421CD075E03E4A93424ED03D4A934239DB3C4A93425AD06BE03B4B1B88002B04D17B689A88384B1A8062E0384B1B687A6845
:40260000911D86225200101C984759E0324B5B88002B04D17B689A882F4B5A8050E02F4B1B687A68911D86225200101C984747E0294B9B88002B04D17B689A88264B9A80E5
:402640003EE0264B1B687A68911D86225200101C984735E0204BDB88002B04D17B689A881D4BDA802CE01D4B1B687A68911D86225200101C984723E0174B1B89002B04D174
:402680007B689A88144B1A811AE0144B1B687A68911D86225200101C984711E00E4B5B89002B04D17B689A880B4B5A8107E00B4B1B687A68911D86225200101C9847C046EB
:4026C000BD4602B080BDC046022A0000012A0000042A0000A62A00003C2200200022002080B592B000AF7860B64B1B78DBB21A1C0223134000D161E13E23FB187A681289FC
:402700001A803C23FB187A6852891A807B685B683B64AD4B1B78032B00D099E04623FB1800221A808AE03B6C181CFFF7EFF9031C1A1C2423FB181A803B6C02333B643B6C29
:402740001A782423FB189A703B6C01333B643B6C181CFFF7DBF9031C1A1C2423FB189A803B6C02333B643E23FB181B88152B20D12423FB1802229A752423FB180622396C04
:402780009B181022181C01F074FD3B6C10333B648E4B1B78191C8E4A0B1C5B005B185B00D3189B881A1E8B4B9A4200D000E0C04632E03E23FB181B88072B2DD12423FB18EB
:4027C00001229A753B6C181CFFF7A0F9031C1A1C2423FB18DA803B6C02333B647B4B1B78191C7B4A0B1C5B005B185B00D3189B88C0225201934203D0774A934206D00BE0D4
:402800002423FB18181CFFF7D1FE05E02423FB18181CFFF7DFF9C0466A4B1B78DBB201229343DAB2674B1A704623FB184622B9183E22BA18098812888A181A804623FA189F
:402840003C23FB1812881B889A4200D26BE7B5E05D4B1B78022B00D0B0E04623FB1800221A80A2E03B6C181CFFF750F9031C1A1C0C23FB181A803B6C02333B643B6C181CF1
:40288000FFF744F9031C1A1C0C23FB185A803B6C02333B643B6C181CFFF738F9031C1A1C0C23FB189A803B6C02333B643E23FB181B88062B04D10C23FB1802229A7562E0F7
:4028C0003E23FB181B88082B5DD10C23FB1801229A753B6C181CFFF719F9031C1A1C0C23FB18DA803B6C02333B644423FB1800221A8033E04423FB181A883549131C5B0030
:402900009B185B00CB189A880C23FB18DB889A421DD14423FB181A882D49131C5B009B185B005B5A002B12D14423FB181A882849131C5B009B185B000C22BA180220C91800
:4029400013180422081C191C01F093FC0BE04423FB181A884423FB1801321A804423FB181B88012BC6D9194B1B78191C184A0B1C5B005B185B00D3189B881A1E174B9A4295
:4029800000D000E0C0460F4B1B78DBB201229343DAB20C4B1A704623FB184622B9183E22BA18098812888A181A804623FA183C23FB1812881B889A4200D253E7BD4612B05C
:4029C00080BDC0464A22002027220020492200205C0C0020FEFF0000011800001218000080B582B000AF021CFB1D1A70FB1D1B78002B06D0354B1B780133DAB2334B1A70EF
:402A000002E0324B00221A7005E0304B1B780133DAB22E4B1A702D4B1B78012B19D82B4B1B78191C2A4A0B1C5B005B185B009A5A284B1B889A42E8D3244B1B78191C244A65
:402A40000B1C5B005B185B009A5A224B5B889A42DBD81E4B1B78012B2FD81C4B1B78181C1D491B4A031C5B001B185B00087849780902084300210004000C090C09040143D5
:402A8000985AD3185B881B04034300221A1C081C111C0EF031FB031E15D0104B1B680A22FF32101C002198470D4B1B78DBB202229343DAB20A4B1A7005E00A4B04221A70EA
:402AC000002000F0D3F8BD4602B080BD492200205C0C00202822002038220020002200204A2200202722002080B582B000AF3B1C00221A803B1C00225A80114B1B78002B45
:402B000009D1104B5B8801339AB23B1C1A800E4B1A893B1C5A803B1D3A1C12681A603A1D002311880904090C1B0C1B040B43528812041B041B0C1343181CBD4602B080BDC2
:402B4000492200202C2200205C0C002080B58AB000AF78600823FB1800225A80404B1B78042B00D079E03F4B1B78DBB21A1C0223134000D171E01E23FB187A6812891A8049
:402B80007B681A7B0823FB181A750823FB187A6812881A800823FB181B7D012B04D12623FB1804221A8003E02623FB1812221A807B685B683B622423FB1800221A803CE007
:402BC0003B6A181CFEF7A2FF031C1A1C0823FB185A803B6A02333B620823FB181B7D022B0CD10823FB183A6A0433111C1022181C01F03FFB3B6A10333B6214E03B6A181C79
:402C0000FEF784FF031C1A1C0823FB189A803B6A02333B62144B1B78002B04D10823FB18181CFEF7FFFF2423FB182422B9182622BA18098812888A181A802423FA181E2315
:402C4000FB1812881B889A42BAD3064B1B78DBB201229343DAB2034B1A70BD460AB080BD272200204A2200204922002080B584B000AF021CFB1D1A700C23FB1800221A807D
:402C80000C23FB1800225A80FB1D1B78002B06D0374B1B780133DAB2354B1A7005E0344B00221A70FB1D01221A70FFF71DFF031C1A1C0C23FB181A600C23FB181A882D4BF7
:402CC0001B889A4215D90C23FB181A88294B5B889A420ED80C23FB185A88264B1B889A4207D30C23FB181A880C23FB185B889A4203D91F4B1B78002BC6D01D4B1B78002BD7
:402D000021D11D4B0C22B9181A785B781B021A4300231204120C1B0C1B041343181C0EF0D5F9031E21D0154B1B6885225200101C00219847124B1B78DBB202229343DAB24B
:402D40000F4B1A7011E00F4B05221A700B4B1B681222FF32101C00219847094B1B78DBB202229343DAB2064B1A70BD4604B080BD492200202822002038220020002200208F
:402D80004A2200202722002080B500AF244B1B78DBB21A1C022313403FD0224B1B78022B17D002DC012B05D037E0032B1DD0042B27D032E01B4B02221A700020FFF778FBF4
:402DC000174B1B78DBB201229343DAB2144B1A7023E00120FFF76CFB114B1B78DBB201229343DAB20E4B1A7017E00120FFF7F8FD0B4B1B78DBB201229343DAB2084B1A70A3
:402E00000BE00120FFF732FF054B1B78DBB201229343DAB2024B1A70C046BD4680BDC0464A2200202722002080B582B000AF7860074B1B78DBB21A1C0223134005D07B688C
:402E40009B790A2B01D1FFF79FFFBD4602B080BD4A220020000000000230800803D00138FDD1C046C046C0467047EFF3108072B6704780F31088704790B5A9B000AF786090
:402E8000396000239822BA18136000239422BA1813607B684D4A934200D98CE03B68002B00D188E00C23FB1808331A1C3B68101C191C802201F0DDF97B68454A934201D95D
:402EC000444A00E0444A0C23FB181A600C23FB187F225A60414B0C22BA181A60404B414A1A603E4B1B681B0F1A07A0231B069A4204D03A4B1B680F22134000E000239822B3
:402F0000BA1813609823FB181B68002B52D19F23FC18FFF7AAFF031C237000F069F8031C9422BA1813609423FB181B68002B05D100F08EF8031C9822BA1813609823FB186B
:402F40001B68002B24D10C23FB18274A1A600C23FB181A687B681B041A430C23FB181A601E4B0C22BA181A601D4B204A1A601B4B1B681B0F1A07A0231B069A4204D0174B49
:402F80001B680F22134000E000239822BA1813609423FB181B68002B05D100F081F8031C9422BA1813609F23FB181B78181CFFF760FF04E003E004239822BA18136098239E
:402FC000FB181B68181CBD4629B090BDFF030000FF010000B6D70001B6D70000080010400400104004000080B6D800000500008080B584B000AF0023FB603B1D0F4A1A60BD
:403000000F4A3B1D5A600F4B3A1D1A600E4B0F4A1A600C4B1B681B0F1A07A0231B069A4204D0084B1B680F22134000E00023FB60FB68181CBD4604B080BDC046B6E900002D
:403040003810002008001040040010401600008080B582B000AF00237B600D4B0D4A1A600D4B0E4A1A600A4B1B681B0F1A07A0231B069A4204D0064B1B680F22134000E050
:4030800000237B607B68181CBD4602B080BDC04608001040B6E80000040010401500008080B584B000AF0023FB603B1D0F4A1A600F4A3B1D5A600F4B3A1D1A600E4B0F4A1B
:4030C0001A600C4B1B681B0F1A07A0231B069A4204D0084B1B680F22134000E00023FB60FB68181CBD4604B080BDC046B6EA00003810002008001040040010401700008009
:4031000090B585B000AF78600F23FC18FFF7ADFE031C2370094B7A6807210A40D104074A1268074802400A431A600F23FB181B78181CFFF79EFEBD4605B090BD00010B4066
:40314000FFFFC7FF90B58BB000AF78602723FC18FFF78BFE031C2370184B1A680C23FB181A60174B1A680C23FB185A607B68033B144AD35C1A1C0C23FB189A60124B1A6875
:403180000C23FB18DA601C23FB18104A1A600C23FA181C23FB185A600D4B1C22BA181A600C4B0D4A1A600A4B1B682723FB181B78181CFFF75EFEBD460BB090BD08010B4069
:4031C00000010B409879010030001040B6EA000008001040040010401700008080B584B000AF78600023FB60154B154A126801210A431A60134B144A1A60144B134A126812
:40320000802109020A431A607B68002B12D01023FB600CE0012000F093F800F019F8031E02D00023FB6005E07B68013B7B607B68002BEFD1FB68181CBD4604B080BDC04665
:4032400060F02E4078002E400220000010002E4080B582B000AF054B1B68012213407B607B68181CBD4602B080BDC0460C002E4080B584B000AF021C3960FB1D1A70802333
:403280009B05FB60FB1D1B781F2B02D9002000F029F8FB1D1B7810339B00FA68D3181B68BB60FB1D1B7810339B00FA68D3183A681A60BB68181CBD4604B080BD80B582B0FA
:4032C00000AF021CFB1D1A70054BFA1D12781F210A40012191400A1C1A60BD4602B080BD00E100E080B582B000AF021CFB1D1A7001BEBD4602B080BD80B582B000AF786029
:4033000009E00C4B1B68181CFFF7A6FD7B680A4A944663447B607A6880231B029A42F0D8064B1B687A685343181CFFF795FDBD4602B080BD7C0C00200080FFFF740C002064
:4033400080B582B000AF021CBB1D1A80BB1D1B88044A12785343181CFFF77EFDBD4602B080BDC046780C002090B583B000AFFC1DFFF77BFD031C2370074B074A12680421DB
:403380008A431A6030BFFB1D1B78181CFFF771FDBD4603B090BDC04610ED00E090B583B000AFFC1DFFF761FD031C2370114B114A1268520052081A600F4B104A128892B27F
:4033C0001A600F4B0E4A126804210A431A600D4B1B683B600220FFF793FE30BF094B3A681A60FB1D1B78181CFFF743FDBD4603B090BDC04600000B400C000B4052F1FF0FAC
:4034000010ED00E000010B4080B500AF0E4B0E4A126801218A431A600B4B0B4A126802218A431A60094B094A126830218A4310210A431A60054B054A126807218A430121F5
:403440000A431A60BD4680BD00F02E4000FF2E4080B500AF0E4B0E4A126802218A431A600C4B0C4A126807218A4302210A431A60084B084A126830218A4320210A431A60B6
:40348000034B034A126801210A431A60BD4680BD00F02E4000FF2E4080B500AFFFF7B4FF044B044A1268802109060A431A60BD4680BDC04600F02E4080B584B000AF786054
:4034C0000C4B1B6801221340FB607B68002B02D0012B03D005E0FFF797FF06E0FFF7B8FF03E00020FFF7FEFEC046FB68181CBD4604B080BD00F02E4090B583B000AFFC1D1A
:40350000FFF7B3FC031C2370074B074A1268C02109020A431A60FB1D1B78181CFFF7A9FCBD4603B090BDC04600010B4080B500AF054B1A68C0231B02134001D0012300E0B7
:403540000023181CBD4680BD00010B4090B583B000AFFC1DFFF789FC031C23700C4B0C4A12680C490A408021C9010A431A60084B074A126807490A40802109020A431A60D8
:40358000FB1D1B78181CFFF774FCBD4603B090BD00010B40FF3FFFFF90B585B000AF78600B23FC18FFF761FC031C2370FFF7BEFF031E04D00123FB60FFF7C8FF01E000230B
:4035C000FB607B680D4A13407B600D4B0C4A12680C4911407A680A431A60094B1B68FB68012B01D1FFF788FF0B23FB181B78181CFFF73FFCBD4605B090BDC046040404008C
:4036000010020B40FBFBFBFF80B500AF334B1B68042213401FD0324B1B680422134017D0304B1B6804221340DA432D4B1B681A402B4B1A602B4B1B68042293431A1C294B18
:403640001A60294B1B68002B02D0274B1B6898470420FFF7A1FF214B1A688023DB00134022D01F4B1A688023DB00134017D01D4B1A688023DB001340DA43194B1B681A40E0
:40368000174B1A60174B1B68184A1A40154B1A60154B5B68002B02D0134B5B6898478023DB00181CFFF778FF0C4B1A688023DB02134011D00A4B1A688023DB02134006D067
:4036C000094B9B68002B02D0074B9B6898478023DB02181CFFF760FFBD4680BD10020B40800C00205010002054100020FFFBFFFF80B500AF00F056F8BD4680BD80B500AFAE
:40370000064B064A1268802109060A431A6000F019F800F01BF8BD4680BDC0460000244080B500AF064B1B78002B04D1FFF7E0FF034B01221A70FFF7E1FFBD4680BDC04695
:403740006410002080B500AFBD4680BD80B500AF00F080F8BD4680BD80B582B000AF7860C046064B1B681F221340082BF9D0044B7A681A60BD4602B080BDC046080224409C
:403780004002244080B582B000AF054B1B681F2213407B607B68181CBD4602B080BDC0460802244080B500AF184B194A1A60194B00221A60184B01221A60184B184A1A602B
:4037C000184B07221A60184B00221A60174B01221A60174B124A1A60164B00221A60164B04221A60154B00221A60154B00221A60144B00221A60144B00221A60134B002221
:403800001A60134B00221A60BD4680BD000024400B00000240002440480024400003244007000080040324401003244044002440000224400402244050002440880E24401D
:40384000C80E2440480F2440080F2440C80F2440880F244080B500AF054B054A126805490A40902109040A431A60BD4680BDC04600010240FFFF0FFF80B582B000AF786005
:4038800000F048F87B68181C00F008F8032000F011F800F035F8BD4602B080BD80B582B000AF7860024B7A681A64BD4602B080BD0000002090B585B000AF021CFB1D1A7010
:4038C0000623FB600B23FC18FFF7CFFA031C23700A4B0A4A1268C0218A43111CFA1D1078FA689040021C0A431A600B23FB181B78181CFFF7BEFABD4605B090BD00E400E05E
:4039000080B500AF024B01221A60BD4680BDC04600E100E080B500AF024B01221A60BD4680BDC04680E100E080B582B000AF084B1B68DAB2FB1D3F210A401A70044BFA1D33
:4039400012781A60FB1D1B78181CBD4602B080BD1000044080B5ACB000AFF860B960BB1D1A800023A422BA1813600023A022BA181360BB689422BA181360BB1D1A88942354
:40398000FB181B68D318594A934200D994E09423FB181B68DB09AC22BA181360AC23FB181B68DB019C22BA18136077E000239822BA1813600023A822BA18136050E09C239F
:4039C000FB181A689423FB181B689A422DD3BB1D1A88A423FB181B689A4226D9FA68A423FB181B68D31819781423FA18A823FB181B68D3180A1C1A709C23FB181B681B78EF
:403A0000DAB2F968A423FB181B68CB181B789A4203D001239822BA181360A423FB181B680133A422BA1813600CE09C23FB181B681B78D9B21423FA18A823FB181B68D31864
:403A40000A1C1A709C23FB181B6801339C22BA181360A823FB181B680133A822BA181360A823FB181B687F2BA9D99823FB181B68002B0CD0AC23FB181A681423FB18101CA7
:403A8000191CFFF7F9F9031CA022BA181360AC23FB181B680133AC22BA181360BB1D1A88A423FB181B689A420AD9A023FB181B68002B00D17AE703E00123A022BA181360BD
:403AC000A023FB181B68002B09D0A023FB181B68012B04D001235B42A022BA181360A023FB181B68181CBD462CB080BDFFFF010080B582B000AF78600A1CBB1C1A80BB1C44
:403B00001A887B681A60BD4602B080BD80B582B000AF78600A1CBB1C1A80BB1C1A887B681A60BD4602B080BD80B584B000AF494B1B78DBB21B02484A1278D2B21343FB600D
:403B4000464B1B78DBB21B02454A1278D2B21343BB60BB68434A934207D1FB68072B04D1414BBB600423FB6009E0BA68D4231B019A4204D1FB68042B01D13B4BBB603B4B1F
:403B8000BA681A603A4BFA681A603A4B1B78DBB21B02394A1278D2B21343FB60FA6880239B019A4202D0FB68002B01D1334BFB60334BFA681A60334B1B78DBB21B02324AEB
:403BC0001278D2B21343FB60FB68304A934206D0FB682F4A934202D0FB68052B01D12D4BFB602D4BFA681A602C4B1B681B097B602B4B1B68AA2B29D17B68012B26D9214B34
:403C00001B78DBB20E2B21D1264B1B78DBB29BB21B0299B2244B1B78DBB29AB2BB1C0A431A80224BBA1C12881A60214B1B78DBB29BB21B0299B21F4B1B78DBB29AB23B1C95
:403C40000A431A801C4B3A1C12881A60BD4604B080BDC046D9F0FF0FD8F0FF0FDFF0FF0FDEF0FF0F580B0000580D00006C002E4074002E40DBF0FF0FDAF0FF0F02200000D5
:403C800078002E40DDF0FF0FDCF0FF0F0F0F000005050000050F000080002E40EC0F00F0E00F00F06DF2FF0F6CF2FF0F84002E406FF2FF0F6EF2FF0F94002E4080B582B064
:403CC00000AF021CBB1D1A80BB1D1B88181CFFF737FBBD4602B080BD80B500AF00F0DEF8BD4680BD80B500AF00F0E2F8BD4680BD80B500AF00F0DCF8044B181C00F09CF835
:403D0000032000F0A5F8BD4680BDC046C53E000080B500AF024B181C00F07CF8BD4680BDC53E000080B500AF0223FF33181CBD4680BDC04680B582B000AF78602B23181C59
:403D4000BD4602B080BDC04680B582B000AF78602B23181CBD4602B080BDC04680B582B000AF78602B23181CBD4602B080BDC04680B582B000AF78602B23181CBD4602B056
:403D800080BDC04680B582B000AF78602B23181CBD4602B080BDC04680B582B000AF78602B23181CBD4602B080BDC04680B582B000AF78602B23181CBD4602B080BDC04688
:403DC00080B582B000AF78602B23181CBD4602B080BDC04680B500AF2B23181CBD4680BD80B582B000AF021CFB1D1A702B23181CBD4602B080BDC04680B582B000AF786077
:403E000039602B23181CBD4602B080BD80B500AFBD4680BD80B582B000AF786000F048F87B68181C00F008F8032000F011F800F035F8BD4602B080BD80B582B000AF786013
:403E4000024B7A681A67BD4602B080BD0000002090B585B000AF021CFB1D1A700623FB600B23FC18FFF701F8031C23700A4B0A4A1268C0218A43111CFA1D1078FA68904061
:403E8000021C0A431A600B23FB181B78181CFEF7F0FFBD4605B090BD0CE400E080B500AF024B802252011A60BD4680BD00E100E080B500AF024B802252011A60BD4680BDDB
:403EC00080E100E080B500AF13F0DAF8BD4680BD002243088B4274D303098B425FD3030A8B4244D3030B8B4228D3030C8B420DD3FF22090212BA030C8B4202D312120902A1
:403F000065D0030B8B4219D300E0090AC30B8B4201D3CB03C01A5241830B8B4201D38B03C01A5241430B8B4201D34B03C01A5241030B8B4201D30B03C01A5241C30A8B4250
:403F400001D3CB02C01A5241830A8B4201D38B02C01A5241430A8B4201D34B02C01A5241030A8B4201D30B02C01A5241CDD2C3098B4201D3CB01C01A524183098B4201D3C9
:403F80008B01C01A524143098B4201D34B01C01A524103098B4201D30B01C01A5241C3088B4201D3CB00C01A524183088B4201D38B00C01A524143088B4201D34B00C01A63
:403FC0005241411A00D20146524110467047FFE701B5002000F0FCF802BDC0460029F7D003B5FFF775FF0EBC4243891A1847C04603460B437FD4002243088B4274D30309D5
:404000008B425FD3030A8B4244D3030B8B4228D3030C8B420DD3FF22090212BA030C8B4202D31212090265D0030B8B4219D300E0090AC30B8B4201D3CB03C01A5241830BFF
:404040008B4201D38B03C01A5241430B8B4201D34B03C01A5241030B8B4201D30B03C01A5241C30A8B4201D3CB02C01A5241830A8B4201D38B02C01A5241430A8B4201D312
:404080004B02C01A5241030A8B4201D30B02C01A5241CDD2C3098B4201D3CB01C01A524183098B4201D38B01C01A524143098B4201D34B01C01A524103098B4201D30B0154
:4040C000C01A5241C3088B4201D3CB00C01A524183088B4201D38B00C01A524143088B4201D34B00C01A5241411A00D201465241104670475DE0CA0F00D04942031000D37C
:404100004042534000229C4603098B422DD3030A8B4212D3FC22890112BA030A8B420CD3890192118B4208D3890192118B4204D389013AD0921100E08909C3098B4201D3E5
:40414000CB01C01A524183098B4201D38B01C01A524143098B4201D34B01C01A524103098B4201D30B01C01A5241C3088B4201D3CB00C01A524183088B4201D38B00C01ADF
:404180005241D9D243088B4201D34B00C01A5241411A00D20146634652415B10104601D34042002B00D54942704763465B1000D3404201B5002000F00BF802BD0029F8D032
:4041C00003B5FFF715FF0EBC4243891A1847C0467047C046014B18687047C046E00F00200E4B70B500251E1C0D4CE41AA410A54204D0AB00F35898470135F8E713F032FC93
:40420000084B00251E1C084CE41AA410A54204D0AB00F35898470135F8E770BD707A0100707A0100707A0100787A010008B5034B011C186800F074F808BDC046E00F002062
:4042400008B5034B011C186800F024F808BDC046E00F002030B50024944208D0035D651C0C5DA34201D0181B02E02C1CF4E7002030BD002310B5934203D0CC5CC4540133B0
:40428000F9E710BD031C8218934202D019700133FAE7704730B500293ED004390B68002B00DAC9181D4A1368141C002B02D14B60116031E099420DD208680A189A4203D1B1
:4042C0001368C3180B6053684B60216024E08A4203D8131C5A68002AF9D11D685C198C420BD10968691858181960904214D110685268091819605A600EE08C4202D90C2304
:40430000036009E008680C18944203D114685268001908604A60596030BDC0469C210020032370B5CC1C9C430834051C0C2C01D20C2405E0002C03DA0C2300202B6042E075
:404340008C42F9D3204A1368101C191C002913D00A68121B0DD40B2A02D90A608B181FE08B4202D15A6802601BE04A685A600B1C17E00B1C4968E9E7144E3368002B03D1C8
:40438000281C00F0ABF83060281C211C00F0A6F8031C421CD0D00322C61C964386420AD11C60181C07210B301A1D8843821A0AD05142995007E0311A281C00F08FF8431C94
:4043C000BAD0331CECE770BD9C210020982100200FB40B4B13B51C68002C05D0A369002B02D1201C00F086FA05AB201CA168049A019300F091FB16BC08BC04B01847C046C0
:40440000E00F002070B5051C0E1C002804D08369002B01D100F06EFAAC68A3891B0702D52369002B19D1281C211C00F0F7F8002813D00120404245E03178002B1BDAA269DF
:40444000934211DA221C281C00F090F8013042424241D0B20028ECD10136A3683278013BA360002AE8D10CE023681970236819780A2903D1E6E7236819702368013323608F
:40448000EAE7002B17DAA269934208DB0A2322681370236819780A2911D1281C01E0281C0A21221C00F062F8013042424241D0B2002806D0BDE70A23226813702368013370
:4044C00023600A2070BD000008B5034B011C1868FFF798FF08BDC046E00F002038B50023064C051C081C2360FCF74CFF431C03D12368002B00D02B6038BDC0464C2200209E
:40450000021CC9B21378002B03D08B4204D00132F8E7181C002900D1101C7047002330B59A420DD0013AC45CCD5CAC4202D1934202D1251C631B03E00133002CF3D1F8E742
:40454000181C30BD031C30B5002A07D00C7801335D1E013A2C700131002CF5D19A18934203D0002119700133F9E730BD70B5051C0E1C141C002804D08369002B01D100F06D
:40458000B9F9234B9C4201D16C6808E0214B9C4201D1AC6803E0204B9C4200D1EC68A369A360A3891B070AD52369002B07D023682269F6B2981A636998420FDB08E0281CF8
:4045C000211C00F02BF80028F1D0012040421DE0281C211C00F020F90028F6D1A3680130013BA36023685A1C22601E706369984205D0A389301CDB0708D50A2E06D1281CD8
:40460000211C00F009F90028DFD1301C70BDC046D0790100F0790100107A0100354B70B51D68061C0C1C002D05D0AB69002B02D1281C00F05FF9304B9C4201D16C6808E0BA
:404640002E4B9C4201D1AC6803E02D4B9C4200D1EC68A3899AB2110723D4D10607D409220120326037321343A381404240E0530713D5616B002908D0231C4433994202D091
:40468000301CFFF707FE002363632422A3899343A38100236360236923600822A3891343A3812369002B0BD1A023A2899B00134080229200934203D0301C211C00F0ACF930
:4046C0000123A289134005D00023A36063695B42A36103E0910700D46369A36000202369834205D1130603D540231A43A281013870BDC046E00F0020D0790100F079010048
:40470000107A0100F7B58A89051C0C1C13075ED44B68002B02DC0B6C002B1ADDE76A002F17D000232E682B6080235B011A4001D0626D15E0281C216A0123B847021C431C3D
:404740000ED12B68002B0BD01D2B01D0162B02D12E6000205EE04021A3890B43A38159E0A3895B0706D56368D21A636B002B01D0236CD21A0023281C216AE76AB847A3899D
:40478000421C06D12A68002A03D01D2A01D0162A19D10022626022692260DB0405D5431C02D12B68002B00D16065616B2E600029CFD0231C4433994202D0281CFFF76AFD9D
:4047C0000020606326E040221343A38122E00F69002FBED00B680F60DB1B01930023920700D14B69A360019B002BB2DD281C216A3A1C019BA66AB047002806DC4022012062
:40480000A38940421343A38104E0019B3F181B1A0193E8E7FEBD000038B50B69051C0C1C002B01D100201CE0002804D08369002B01D100F05FF80B4B9C4201D16C6808E075
:40484000094B9C4201D1AC6803E0084B9C4200D1EC680C22A35E002BE4D0281C211CFFF751FF38BDD0790100F0790100107A010008B5024900F0AEF808BDC0461948000014
:40488000002310B5041C03604360836081814366C281036143618361191C08225C30FFF7F1FC054B24626362044BA362044BE362044B236310BDC046455000006D500000E2
:4048C000A5500000D150000070B568254B1E5D430E1C291C7431FFF723FD041E08D000212A1C016046600C30A0606832FFF7CAFC201C70BD836913B5002B28D18364C36474
:404900000365134B134A1B6882620193984201D101238361041C00F01FF86060201C00F01BF8A060201C00F017F80421E06000226068FFF7A5FFA06809210122FFF7A0FF71
:40494000E06812210222FFF79BFF0123A36113BDCC79010071480000F8B51D4B061C1D68AB69002B02D1281CFFF7C4FF4835AC686B68013B05D40C22A75E002F10D06834EF
:40498000F7E72B68002B06D1301C0421FFF79CFF2860002801D02D68E9E70C23336016E00123201C5B42E3810233A38167662760A760676027616761A7615C30391C0822A5
:4049C000FFF760FC201C6763A763A764E764F8BDCC790100F7B5041C071C002601914834002C16D06368A5680093009B013B00930DD4AB89012B08D90E22AB5E013304D097
:404A0000381C291C019B984706436835EDE72468E6E7301CFEBD0000F0B58B8991B09B0706D50B1C47330B600B6101234B6145E00C1C0E23C95E061C002904DA8023A589EA
:404A40001D4010D10CE001AA00F06EFB0028F5DBF023029D1B021D40194BED186B425D418027FF0001E000254027301C391CFFF757FC00280CD1A3899A051FD402221343F6
:404A8000A381231C4733236023610123636115E080220C4BB362A38920601343A38120616761002D0AD00E23E15E301C00F04EFB002803D00122A3891343A38111B0F0BD8A
:404AC00000E0FFFF71480000936810B5013B9360002B05DA9469A34208DBCBB20A2B05D01368581C10601970C8B201E0FFF73EFD10BDF8B5061C0F1C141CD518AC4208D0BC
:404B00002178301C3A1CFFF7DFFF0134431CF5D100E00020F8BD0000F0B59FB0061C0F1C02920593002804D08369002B01D1FFF7E1FE794B9F4201D1776808E0774B9F424F
:404B400001D1B76803E0764B9F4200D1F768BB891B070AD53B69002B07D0002306AD6B6120336B761033AB763DE0301C391CFFF755FD0028F1D001204042CAE0059A111D61
:404B800012680591002A7EDB0992013423782E2B00D189E021786348032200F0FDFA002808D0604B0134C01A40238340181C2B68184328602178631C5B4806220293297673
:404BC00000F0EAFA002800D191E0584B002B00D084E00722059B07339343083305936B69039A9B186B61029C2378002B04D1029BE31A049311D003E0252BF8D00134F3E784
:404C0000049B301C391C029AFFF773FF431C7BD06A69049B944663446B612378002B73D00122002352426A6002A95432521801342B60EB60AB601370AB6521783C48052292
:404C400000F0AAFA002809D0394B0134C01A01238340181C2B6818432860EEE72B68DA0604D55322202102A8121811701A0704D553222B2102A81218117022782A2A00D180
:404C80007CE7099B05E05242EA60022213432B607BE72278303A092A04D80A214B4301349B18F6E7099371E763782A2B09D1059B02341A1D1B680592002B0DDA01235B423A
:404CC0000AE0002301342278303A092A04D80A214B4301349B18F6E707935BE705AB0093301C291C3A1C134B00E000BF07E005AB0093301C291C3A1C0E4B00F08BF803906E
:404D0000039B013300D06AE7BB895B0600D532E70B981FB0F0BDC046D0790100F0790100107A0100367A01003A7A010000000000307A0100F34A0000F7B5171C01930A6955
:404D40008B6800900C1C934200DA131C221C3B6043321278002A01D001333B6023689B0602D53B6802333B60062523681D401ED0231C43331B785A1E9341226892061CD5EA
:404D80003020E1184031C870211C5A1C45310978A21840320233D1700FE0221C0123009801991932089EB047431C0ED00135E3683A689B1A9D42F0DBDAE7221C009801995A
:404DC0004332089DA847431C02D10120404220E006232068E1683A6803400025042B03D18D1AEB43DB171D40A3682269934201DD9B1AED180027AF420ADA221C01230098B1
:404E000001991A32089EB047431CDED00137F2E70020FEBDF0B58BB006920A1C43320793059004920A7E0C1C109B6E2A00D1A8E011D8632A22D009D8002A00D1B2E0582A7A
:404E400000D0C2E045310A707C4A4FE0642A1DD0692A1BD0B9E0732A00D1A7E009D86F2A29D0702A00D0B0E0202209680A43226037E0752A1FD0782A33D0A6E00E1C1A68E9
:404E80004236111D196013683370A1E021681A68080606D4490604D5111D19600023D55E02E0111D19601568002D3BDA2D23049A6D42137036E021681A68080606D449065C
:404EC00004D51568111D1960ADB202E0111D196015685A4B227E03930A276F2A1DD108271BE0221C782145321170554A19680392081D226818600D68100602D4500600D55C
:404F0000ADB2D30702D520231A4322601027002D03D1202322689A432260231C002243331A7002E00A27454B03936368A360002B03DB0422216891432160002D02D1049EC4
:404F4000002B0ED0049E281C391CFFF747F8039B013E5B5C281C3370391CFEF7B9FF051EF1D1082F09D12368DB0706D563682269934202DC3023013E3370049B9B1B2361E6
:404F80002BE009681A68080607D4490605D5111D19601368A28A1A8004E0111D1960136862691A600023049E236116E01A68111D196016680021301C626800F0EDF8002894
:404FC00001D0801B6060636803E0261C42363270012323610023049A1370079B05980093211C069B09AAFFF7A7FE431C02D10120404221E0236905980699321C079DA84712
:40500000431CF4D023689B0705D4099BE068984212DA181C10E00025E368099A9B1A9D42F3DA221C0123059806991932079EB047431CDCD00135EFE70BB0F0BD417A01003D
:40504000527A010038B50C1C0E25495F00F0B0F8002803DB636D1B18636503E0A289024B1340A38138BDC046FFEFFFFFF8B51E1C8B89051C0C1C171CDB0505D50E23C95EC8
:405080000022022300F074F8A289054B281C1340A3813A1C0E23E15E331C00F01FF8F8BDFFEFFFFF38B50C1C0E25495F00F060F8A389421C03D1054A1340A38104E0802278
:4050C00052011343A381606538BDC046FFEFFFFF08B50E23C95E00F015F808BD38B5051C0020074C2060081C111C1A1CFCF72AF9431C03D12368002B00D02B6038BDC04683
:405100004C22002038B50023064C051C081C236000F062F8431C03D12368002B00D02B6038BDC0464C22002038B50023064C051C081C111C236000F057F8431C03D123684C
:40514000002B00D02B6038BD4C22002038B50023064C051C081C236000F04EF8431C03D12368002B00D02B6038BDC0464C22002038B5051C0020074C2060081C111C1A1C71
:4051800000F042F8431C03D12368002B00D02B6038BDC0464C220020C9B28218904204D003788B4202D00130F8E700207047000038B5051C0020074C2060081C111C1A1CB4
:4051C00000F02AF8431C03D12368002B00D02B6038BDC0464C22002058220120014B40421A6070474C22002058220120014B40421A6070474C2200205822024B00201A601F
:405200007047C0464C22002058220120014B40421A6070474C22002058220120014B40421A6070474C220020134A1088810703D08107890F401A001D11791030484381B264
:405240005088820703D08207920F801A001D800040180A494030098980B2CA0701D0503080B2890706D504495422091F09785143081880B2704700008A0C002068100020A4
:4052800010B501F017FF10BD10B501F029FF10BD10B500F04FFA10BD10B50749044609780220002907D1204601F06AFF002802D120460BF023F910BDFE0D002070B504463D
:4052C0000120002C12D02368002B0FD0616800290CD0074D06222889208118462968FEF7C8FF6968606809780170002070BD000068100020FFB585B0002768460E9D077350
:405300004C481C460078002802D0082009B0F0BD10990F9801900095029105A807C800F0FBF80028F2D16946264603AB84460873002C19D0002115E08A00B75A082F09D937
:4053400090198078002805D0083FB7521878401C187005E0002915D00027B75290198770491CC9B2A942E7D360460028CED10F9800280AD0109901F051FA0006000E04D0A0
:405380000120C3E701208446EEE701F0A9FE2948002101610C300599016021888180022D03D3A1798171A17AC17100211EE0481C19E082008B00A75AE65ABE46BE4211D2E2
:4053C0006F463E80B4461E190296B678BE7001967646E6521719029EBB78B3706646A652019EBE70401CA842E3D3491CA942DED3114800906846037B22460799069800F04B
:4054000013F9002882D168460A4C007B60700A4801F096FE0028B4D1204607490C3007F09FFF0028ADD107F0B9FF0028A9D1012121706BE7840C002068100020F8B505464F
:4054400033480E460078002802D002242046F8BD002E5BD000242F49002D16D02A89D0070DD02868002808D003881B3BE12B04D24088FB2801D81B2801D2012409E0900769
:4054800007D56868002804D1F7E70020088108604860002CDAD11F482F8907811C481B21801D018041800421017119490020891C0870F80705D016480622801D2968FEF7FC
:4054C000D8FE1449B80703D56A681148127882700F480D46801D0860001F486001F076FE0B48801D01F064FE28890EF05BF828890EF090F903461033FFF796FE1F21C018B5
:40550000890140180249308088809FE701249DE7840C002068100020FFB58446384F1C460020BB883F78054602460646002F11D100290ED0029999420BD36146002908D09B
:40554000002C06D00A99002906D02E4B0B99994202D2012004B0F0BD002144E0AB001F19BF78002F3BD0E35A002B38D07B43591889B22B0000F04AF8050410161C253100C8
:40558000A7782388BC46FF27233BEB37BB4222D26346032B1FD322E0A388002B1FD0302B19D31CE02389002B19D0282B13D316E0A289002A13D01346134F233BBB420AD21C
:4055C0000DE0268A002A0AD033460F4F233BBB4201D2964203D901200EE0002001E000280AD16D1CEDB2099B9D42B7D31C2463435B1802998B42ACD89642AAD8AAE70000D9
:40560000840C002079020000BAFF000030B47446641E2578641CAB4200D21D46635D5B00E31830BC18470000FFB583B0002469460C801F4606468C80002806D00598002800
:4056400003D004983043800701D0012467E0002FFBD03449049809888842F6D3FEF758FBFEF740FB00F010FC002856D100F054FD002852D12C49084601F004F905042D0C0B
:405680004BD12A480499066081800021C18007810C98007AC00704D0684601F03AFD040007D10C98007A800703D501A801F03AFD0446BF1DFEB2002C21D13146059800F0BD
:4056C0005DF804001BD10EF0B3F80406240E16D16A461088928808368518144AF1B29088D288AEB29319984207D3401B801A80B201F0B8FB050007D000E0FF25012400F069
:405700005BFA002D04D008E0F8B200F01BF9F6E700F07EFA06490120087000F0C7FB204607B0F0BD880C00206958000074100020980C002010B503480078012801D101F083
:4057400033FA10BD980C002070B5084B0446DA889E8800205518B54206D81D68AA182260DA885118D98070BD032070BD74100020014800897047000074100020F0B587B0A8
:4057800007460D4600208900009006916846FFF7DBFF844600285DD1304800990160002117E02E4B88001A680629115406D22C4C0419667882185670628805E0C419203C87
:4057C000A67A8218567022891B68C018491C4280C9B2A942E5D300242DE0601CC2B2059025E01E4FA30039689600581840887118039604904E88B04217D938466F46FE8085
:40580000B6464F786E4677710297049F4F800168039F5E18767879184E700168764659184E800068029F18184770521CD2B2AA42D7D30598C4B2AC42CFD36046002809D119
:4058400068460699FFF780FF8446002802D1054900980860604607B0F0BD00009C0C0020987A0100A00C00207047000010B5002809D005494A68002A05D0011F0878800006
:40588000105801F09DFA10BD9C0C002010B50446FFF76EFFC0B2801DA0420CD307484068002808D0A100405801F0FCF9002801D00470001D10BD002010BD00009C0C0020FF
:4058C000F8B516460D460446FFF752FFC0B2801DA04203D20020C0430090F8BDB2B2E9B2684601F005FA0099481C03D0024AA000526811500098F8BD9C0C0020F8B507460A
:40590000FFF736FF801DC6B20A49002005460C680DE06178002907D06188B94202D32078FFF7B4FF002804D1241D6D1CEDB2B542EFD3F8BD9C0C002010B5002801D0FFF7E5
:4059400095FF10BD70B506460948002504680BE06178002905D062882078121D0023FFF7AFFF241D6D1CEDB2B542F1D370BD00009C0C0020FFB581B00A9C16002BD000F094
:40598000F1F80546042826D0214F002C0BD02046FFF7B4FF2901C919486000281BD022460499FEF766FC1A4928010E5046187481019805707D20029CC000444300F0C0F873
:4059C000009004280AD000F055FAA0420ED800F051FA201A06E0FF2005B0F0BD204600F0ADFA0020B08135720020F5E700F042FA074600F0B9FA381B87B23846012100F005
:405A0000EFF800980101024808188781E6E7000080100020F8B5060117483418217A042903D0A089002802D018E00020F8BD00F021FA054600F098FA00F0A2F804280DD0A1
:405A400001010D480F18B88941198DB2002100F0C7F80020B881284600F070FA6068064D002801D0FFF768FF042020720020A8516081A081D9E7000080100020FEB5002652
:405A80006A46304601232549050169180D7A042D02D0898900291BD000211154401CC0B20428F0D300246846005D002830D01B4821010818418947680568029100210160BD
:405AC00041600422418102728181002E02D015E01354E3E700F054F804280ED001010F480818019086890021304600F079F8019800218181304600F021FA0126002D07D0C2
:405B000038460299A847002F02D03846FFF714FF641CE4B2042CC6D3FEBD0000801000200EB5002005216A460090118150810348694600680EF0F1FC0EBD0000A40C0020F7
:405B4000074A0020010189180B7A042B02D08989002903D0401CC0B20428F3D370470000801000200549002002015218127A042A03D0401CC0B20428F6D3704780100020C4
:405B800030B50A4B04200A4C00210A011219157A042D06D09289002A03D09A4201D808461346491CC9B20429EFD330BDFFFF0000801000207047000030B50020074C05460C
:405BC0000423020111190B72A5504D60401C4D81C0B28D810428F4D330BD00008010002030B5094C00231A011219157A042D04D09589002906D02D1895815B1CDBB2042B16
:405C0000F1D330BD2D1AF7E780100020002070471CB5002469460C70142001902346054A05480EF07FFC04480068401C00D1FF2420461CBD8D5C0000A40C00203EB5124A59
:405C40000146FF2000230124126800290DD0012914D0042908D104206946009308814B8110460EF05AFC80B23EBD6846009304814381694610460EF04BFCF4E76846009360
:405C8000048143816946EBE7A40C002070B545890468416800890300FFF7B8FC08280509091E22282628002006F038F91EE0022908D0C8B22A4621460CF05AFD2046FFF7C7
:405CC0003BFE13E002202A4621460CF051FD2946204600F00DF809E000200EF00DF905E02046FFF7CBFE01E0FEF790F8002070BD014B0022DB681847A80C002070B54489D3
:405D000005680089022803D0032809D0FF2070BD2246094C0023A46829460120A04708E0FFF7B2FA241DA2B200232946022007F0C8F9002070BD0000A80C0020704700005A
:405D4000024800214160018041807047A80C002070B50C46002186B016460391012802D0022859D116E003A9012007F00AFA01281BD1039D324621462846FEF77AFA00957F
:405D8000287801900220694608814E816846FFF7B5FF41E0214D002B686809D0049004A9022007F0EEF901281DD0022006B070BD002812D0298840182146FEF75AFA2888FF
:405DC0000024801980B228806988091D884206D12C801348FFF792FF03E00320E6E788421AD96C6018E004986860E278A378110219430B4A698000231060E3565360032347
:405E000013815181A1788170E178C1706178417021780170042028800020C7E7A80C0020C01000203EB515460C46022803D004280CD000203EBD009101900220694608813A
:405E400007484A8100680EF068FB07E00CF090FC044B0022DB6829462046984701203EBDA40C0020A80C0020014AD16090607047A80C0020034801688068081A0A2148433D
:405E800000097047CC10002010B5FDF731FF482204490548FEF7EDF903490120C870002010BD0000B47A0100D014002010B5FDF713FF10BD70B5134C2368002B08D0207B54
:405EC0001149C20705D04008400020738868A08070BD88680B4AA18880B29268814203D90A4D691A091802E0814202D2411A5118A160A080A0689842EAD30EF02BFB00F00D
:405F000013F870BDCC100020C0102E40FFFF000010B508461946FFF7A7FF10BD704710B5FFF780FF10BD000003480021016041608160C16070470000CC100020024610B528
:405F4000FF20002A0CD0FFF7EFFF064C0321207B0843207310010A21FEF740F82060002010BD0000CC10002000B504480A21806848430209FFF7D8FF104600BDCC100020D1
:405F80000248007B8007C00F70470000CC10002010B544490868002802DA434B01221A70022290430860414800693E49C00B4031096A08425ED0012000F0B8FA3B483C4948
:405FC0007C30FDF7A3FD37480E216C30FDF79EFD364820218430FDF799FD344814219C30FDF794FD3148FF21C131A430FDF78EFD2E48FF212F31B030FDF788FD2B482D4973
:40600000BC30FDF783FD29482B49AC30FDF77EFD29492648491CB430FDF778FD23482749B830FDF773FD21482549CC30FDF76EFD1E4824490830FDF769FD1C482249A830D9
:40604000FDF764FD194821498830FDF75FFD17481F498C30FDF75AFD14481921C9029030FDF754FDFDF760FDFDF75CFEC0B2022802D00FE0FF2010BD16491748FDF746FDE7
:4060800015481649001DFDF741FD134800210830FDF73CFD54200449C043891C0870002010BD000000F02E40B80C002000002E4055650000320300002F3F000031020000E6
:4060C00010520000EC160000FA12000031D000003AE300009956000080012E40F80F000070B50646581C80B245086D00002408E0304600F0A9F81055000A1119A41C487038
:40610000A4B2AC42F4D3D80705D0D0182038D15CC47FD454C17770BD10B5FF2000F006FA0F49FF2048700E481021801D41800121417001700A490020C91C4870FFF728FF0A
:4061400004000AD100F01AF907210648FDF7D0FC044807211830FDF7CBFC204610BD0000B80C0020CC112E4070B5002405465B1E0AE0284600F068F8010A161971702D1D14
:406180001055A41CADB2A4B29C42F2DB9C4203D1284600F059F8105570BD000070B500210A4D5B1E0AE0541864782602545C344346193480001D891C80B289B29942F2DBE6
:4061C000994202D1515C4019018070BD00102E40F0B50599091FCFB200217E1E0BE0541864782502545C2C43164D45192C80001D891C80B289B2B142F1DBFC0712D01C78C9
:40620000515C24020F4A0C4381180C809C785D78001D210280B2294384182180001D80B2D9780CE059781A7809021143054A84182180001DD9789B78090280B2194380182E
:406240000180F0BD00102E40014940180088704700102E4010B50B490020487000F08EF8002000F089F9002000F076F907210648FDF73EFC044807211830FDF739FC0020F2
:4062800010BD0000BB0C0020CC112E4010B506480078012803D102210448FDF737FC02490020C91E087010BDBB0C002070F02E4010B50B46062812D006DC01280CD003283D
:4062C00001D1FFF7C7FF10BD0A28FCD00B28FAD105480078107010BDFFF71EFF10BD1146184600F065F910BDBE0C0020F8B5204DAC6A0127A0071F4E002816DA3078062841
:406300000ED1286A384328621B480069F903084381B219481030FDF7F9FB042000F006F9134802212830FDF7E3FBE00711D0062000F0FCF80F49FF20C91E48707078002865
:4063400002D1686B38436863094801212830FDF7CFFBE0050BD53078042802D1052000F0E5F80348FF2101312830FDF7C1FBF8BD40F02E40BB0C002000002E4010B5032114
:406380002348FDF7C3FB0120FDF798FC20483038406A204C80076178800F890001431C480C38FDF7B3FB6078002808D0401E022181401820FDF702FFC000083800E0B8202C
:4063C00081B21548FDF7A2FB1348032109021438FDF79CFB10481149B830FDF797FB612189010F48FDF792FB0D480321001FFDF78DFB0C490C48FDF789FB0B480B496038A3
:40640000FDF784FB084801218838FDF77FFB10BD70F02E40BE0C0020D8102E4090890000041E2E40FF0F000058122E4020900000044800684007400F022801D00020704713
:406440000120704700010B4000B5FFF7F1FF002805D009480168C908C900016000BD0748016A490849000162054801690122D2039143016100BD000000010B4040F02E40AB
:4064800000002E400849087806280BD148780749002803D1486B400840004863C86A01221043C86270470000BB0C002040F02E400148007870470000BB0C00200248407832
:4064C000022800D001207047B80C002000B50300FFF79CF8080D050D0B070507090D012000BD032000BD042000BD022000BDFF2000BD0000074A9168D26889B2064B92B29B
:40650000994204D105498A4201D1012100E000210170704780002E4033D000003FE300000149487070470000BB0C002010B50446FDF7D8FB072C01D9FF2C01D10248047023
:40654000FDF7CAFB10BD0000BB0C00200149487070470000B80C002010B5064A012805D01921C9021046FDF7D1FA10BD1D21C902F8E7000090002E4010B50A4A141D0128BE
:4065800008D009491046FDF7C1FA08492046FDF7BDFA10BD04491046891CFDF7B7FA0349491DF3E788002E4031D000003AE3000070B50C460546FDF7B5FBC0B202280E4997
:4065C000287804D0FF2810D04C280CD810E0FF2809D10A4AD0680004800F032801D0087807E09069000A553803E00878207070BD4F382070087070BDBA0C002000002E4095
:40660000F0B50122002830D000292ED00424420600D00524792342065B06D21800D0641C034600221EE00C2516466E43104D00277519AF720E4F002ABB51696007D0661ECA
:40664000B24209D10B4E86197606760E05E05E06760E8027BE1B00E080269B198919521C2E81D2B2A242DED300221046F0BD00005813002079020000F8B507460020002F81
:4066800003D100F037FE002827D1154E002421460C2251438D19AA7A012A0DD12A8971586868FDF757F9002800D028200021A972002F05D0282803D0641CE4B2062CE6D30A
:4066C000641CE1B207E00C224A439219927A012A04D0491CC9B20629F5D3F8BD2820F8BD58130020074900200C2242435218927A012A05D0401CC0B20628F5D300207047E7
:406700000120704758130020F8B50F000446164609D0184D18496868A04202D94018A04201D38E4201D90120F8BD39462046FDF791FD00281BD0324639462046FDF799FD79
:40674000F0B200210C224A43521913895668F718A74208D90127A41B1B1B9772834206DAC01A1469C0B2491CC9B20629EAD30020F8BD0000581300207902000010B500F00D
:406780005DF80748054AC16806480C46FDF771FD04492046FFF734FF10BD000079020000C40C0020DC100020002070470020054A002902D0012902D002E0506000E09060FC
:4067C00000207047C40C002070B5084C154608460549A26889182A46FDF74BFDA0684019A06028B270BD0000DC100020C40C00203EB50A226946FFF7E7FF044606480A2239
:4068000000686946FDF726FD002802D00020C0433EBD20463EBD0000C40C0020002802D0044A914201D2FF20704703490A61C8600020704779020000C40C00200248002171
:406840004160816070470000C40C002070B5074C15460548626880182A46FFF755FF60684019606028B270BDDC100020C40C002010B503490A220968FFF7E8FF10BD000077
:40688000C40C002010B50F4A002313600E4A13600E4B18600E4801600E49012008600E490860000290600E490C4808600D4914300860FF381538506000F0BCF800F0CAF9B0
:4068C000002010BDF00C0020D80C0020040D0020080D0020F40C0020E40C0020A0140020E80C0020FC0C0020014610B50020002910D0094B1A689C685118A14209D25868EF
:40690000196080188A0704D08A07920F891A091D196010BD002010BDD80C0020F8B50024164E671E321F3D463168136806E01422624310328A58521C1BD0641C9C42F6D3A8
:406940006A1C14D02C461422544322460C3288500C214843FFF7C8FF3168002808510AD031680020103408517068401C70602846F8BD2546E4E73846F8BD0000E80C00208D
:40698000F3B50026F64381B000281BDB1E490968884217D80299002914D01B4F142204463F1D54432546396810354859401C09D0FDF798F938682F1F4159C359994203DB62
:4069C000FDF78AF93046FEBD214608310091465801590C20704308180C220299FDF749FC0948761C001D0068C159B14200D100260549009A091D865008684159491C415174
:406A0000FDF76AF90020FEBDE40C0020002803DB07490968884202D90020C043704704491422091D096850431030085870470000E40C0020F0B500200D4A451E0346171FBC
:406A400050600FE014260146714314680E1DA3510C461668083433511668083435511468401C635039688842ECD30020F0BD0000E80C0020F3B50026F64381B0002841DBC5
:406A80002349096888423DD8029900293AD0204F142204463F1D54432546396810354859401C2FD0FDF71EF93868415900292BD0211D009146580C21005971430F46C119DE
:406AC0000C220298FDF7D5FB11480021001D0068761C00590C34C0190160416081600C48001D00680159B14200D100260849009A091D865008684159491E4151FDF7ECF845
:406B00000020FEBD3046FEBDFDF7E6F8FAE70000E40C0020FEB504460D4600201E49089E0860471E009001900290002C11D0486885420ED2002A0CD0002E0AD0642E08D8A5
:406B400008460C3001681C2068430C18207A002801D03846FEBD0120226020721846FFF7DDFE6060401C13D06681A6810A4827610C3067610179A94200D205710021684680
:406B800001810A462846029B00F040F82846FEBD00202072DDE70000F00C002038B50124009400F039F838BDFEB50027164EFF433D4600240EE01C20316860430818017A31
:406BC000002906D04068FFF721FF002801D0254603E0641C3079A042EDDA681C12D01C2130684D434419FDF77DF869466068FFF741FF0546FDF770F8002DD9D121686846CC
:406C00008847D5E7FEBD0000FC0C002038B50024009400F001F838BD1FB500220C49541E0A60002811DB496888420ED808491C220C31096850430818406801A9FFF7A0FEF1
:406C4000401C02D0002004B010BD2046FBE70000F00C0020F0B50021114A4D1E174611710C3F0B46BD6016E008461C2460431668041D355114680646235014680836A35584
:406C80001468361DA353044616680A34335318301468491C255078688142E5D30020F0BDFC0C002038B500210091002811DB0F49097888420DDA0D4D04010C3529680859C6
:406CC000002807D0201D0818694600F06FF9002801D0002038BDFDF705F828680F34015D491E0155FCF7F8FF009838BD0C0D0020F7B582B0002502986E1E06602E48D21CA1
:406D0000024017462D4A2C4610460C380178106805E02301C358002B0FD0641CE4B28C42F7D3711C28D03401211D40180191039900F02AF900281FD101E02646F1E71F482F
:406D4000016820460C300F521C480399026820460E30115419480399026820460F3011540398784300F0A0F8144900280968085102D00024009011E001251AE00F4801683F
:406D800001980818009900F02CF9002801D0012502E00098C0190090641CE4B203988442ECD3002D05D10298066004480179491C0171284605B0F0BDFCFF0000180D002084
:406DC000F8B50D4600216A468C461180002839DB23490978884235DA214B04010C3319680A59002A2ED020460C300B5A801C0E5C184670438018954224D3854222D2002042
:406E000006E007465F43BF18AF4206D0401CC0B2B042F6D36046002814D0114E271DC8190C366A46294600F006F900280AD168460088012808D030682946C01900F0D1F8FD
:406E4000002803D00120F8BD0020F8BDFCF74AFF30680F34015D491C0155FCF73DFFF3E70C0D0020F8B50F46002400F031F8002817D10C4900220B460C334A600EE02101EA
:406E80001D680E466A501D680C36AA53B61C1D680F31AA551D68641C6A54E4B2BC42EED31A71F8BD0C0D002000280BD0C01C074A81085068890053884118994203D8936875
:406EC0005160181870470020704700000C0D0020F8B5064600200F4D009029700C0121466846FEF731FC00280CD129460C3100980860301B001F84B221466846FEF724FC8D
:406F0000002801D0FF20F8BD6C800098A8600020F8BD00000C0D0020F8B5002827DB19490978884223DA174C05010C342168485900281CD028460C30085A009028460E303A
:406F40000E5C401C0E5420682F1DC01900F064F800280CD12068002445590EE0094829460C300068C01900F03CF8002801D00120F8BD00982D18641CE4B2B442EED30020B9
:406F8000F8BD00000C0D002030B50D4604000BD0A800FFF789FF6060002805D000202570C0436080002030BD012030BD70B50D46040005D0002D03D00220205E002801DA42
:406FC000012070BDFCF78EFE0221615E60688900405828606088401E6080FCF77DFE002070BD70B50D46040007D0002D05D002212078615E401E814201DB012070BDFCF783
:4070000071FE6088401C00B26080616880000D50FCF762FE002070BD10B5040009D0227800216068FDF72EF90020C0436080002010BD012010BDF0B500231D46002802D082
:407040000224045F0AE00120F0BD46689F00F6598E4201D1012503E05B1CDBB29C42F4DA15700020F0BD00000148007870470000200D00207CB505460024FEF705F9A8790D
:407080006946087000A8062229460130FDF7F1F80021684605F008FA0C2804D0072804D01F2804D004E0022402E0042400E0272420467CBD10B502280BD0032802D004289F
:4070C00009D102E000F086F905E000F029FAFF2801D100F039FAFFF7EBF9FFF7F7F910BD10B500F059FAFFF7E3F9FFF7EFF910BD70B504460025FEF7C7F8002C06D0A079DC
:40710000012803D8214602F003FE00E00125284670BD01460120002902D05020088000207047000001460120002905D003485422007850430880002070470000220D00203E
:4071400010B502460D49FE204870032410460DF007FD002810D10DF0ABFC00280CD106F06DF8002808D100F047FC002804D105F049FC002800D10024204610BD200D002043
:4071800070B50025044600280ED0A07901280BD8FEF77AF8A0790028204602D003F050F903E003F025F900E00125284670BD0000014610B50120002904D006220248FDF7CF
:4071C00058F8002010BD0000240D002001460120002903D0087802490870002070470000220D002010B5FFF763F9012801D1FFF765F910BD38B504460120002C20D06178B4
:4072000001291DD800290BD0FF25E535FEF73CF80C4828180088C0B22070072803D00EE0FF25CD35F2E70020694608706846FFF761F969460878012801D108202070002070
